{
  "contractName": "ContractBase",
  "abi": [
    {
      "anonymous": false,
      "inputs": [
        {
          "indexed": true,
          "internalType": "address",
          "name": "previousOwner",
          "type": "address"
        },
        {
          "indexed": true,
          "internalType": "address",
          "name": "newOwner",
          "type": "address"
        }
      ],
      "name": "OwnershipTransferred",
      "type": "event"
    },
    {
      "inputs": [
        {
          "internalType": "string",
          "name": "",
          "type": "string"
        }
      ],
      "name": "contractABIMap",
      "outputs": [
        {
          "internalType": "string",
          "name": "",
          "type": "string"
        }
      ],
      "stateMutability": "view",
      "type": "function"
    },
    {
      "inputs": [],
      "name": "crossChainContract",
      "outputs": [
        {
          "internalType": "contract ICrossChain",
          "name": "",
          "type": "address"
        }
      ],
      "stateMutability": "view",
      "type": "function"
    },
    {
      "inputs": [
        {
          "internalType": "bytes",
          "name": "",
          "type": "bytes"
        }
      ],
      "name": "messageABIMap",
      "outputs": [
        {
          "internalType": "string",
          "name": "parametertypes",
          "type": "string"
        },
        {
          "internalType": "string",
          "name": "parameterNames",
          "type": "string"
        }
      ],
      "stateMutability": "view",
      "type": "function"
    },
    {
      "inputs": [],
      "name": "owner",
      "outputs": [
        {
          "internalType": "address",
          "name": "",
          "type": "address"
        }
      ],
      "stateMutability": "view",
      "type": "function"
    },
    {
      "inputs": [],
      "name": "renounceOwnership",
      "outputs": [],
      "stateMutability": "nonpayable",
      "type": "function"
    },
    {
      "inputs": [
        {
          "internalType": "address",
          "name": "newOwner",
          "type": "address"
        }
      ],
      "name": "transferOwnership",
      "outputs": [],
      "stateMutability": "nonpayable",
      "type": "function"
    },
    {
      "inputs": [
        {
          "internalType": "address",
          "name": "_address",
          "type": "address"
        }
      ],
      "name": "setCrossChainContract",
      "outputs": [],
      "stateMutability": "nonpayable",
      "type": "function"
    },
    {
      "inputs": [
        {
          "internalType": "string",
          "name": "_destnChainName",
          "type": "string"
        },
        {
          "internalType": "string",
          "name": "_destnContractName",
          "type": "string"
        },
        {
          "internalType": "string",
          "name": "_funcName",
          "type": "string"
        },
        {
          "internalType": "string",
          "name": "_paramType",
          "type": "string"
        },
        {
          "internalType": "string",
          "name": "_paramName",
          "type": "string"
        }
      ],
      "name": "registerMessageABI",
      "outputs": [],
      "stateMutability": "nonpayable",
      "type": "function"
    },
    {
      "inputs": [
        {
          "internalType": "string",
          "name": "_destnChainName",
          "type": "string"
        },
        {
          "internalType": "string",
          "name": "_destnContractName",
          "type": "string"
        },
        {
          "internalType": "string",
          "name": "_funcName",
          "type": "string"
        }
      ],
      "name": "getMessageABI",
      "outputs": [
        {
          "components": [
            {
              "internalType": "string",
              "name": "parametertypes",
              "type": "string"
            },
            {
              "internalType": "string",
              "name": "parameterNames",
              "type": "string"
            }
          ],
          "internalType": "struct ContractBase.MessageABI",
          "name": "",
          "type": "tuple"
        }
      ],
      "stateMutability": "view",
      "type": "function"
    },
    {
      "inputs": [
        {
          "internalType": "string",
          "name": "_funcName",
          "type": "string"
        },
        {
          "internalType": "string",
          "name": "_contractABI",
          "type": "string"
        }
      ],
      "name": "registerContractABI",
      "outputs": [],
      "stateMutability": "nonpayable",
      "type": "function"
    },
    {
      "inputs": [],
      "name": "getContext",
      "outputs": [
        {
          "components": [
            {
              "internalType": "uint256",
              "name": "id",
              "type": "uint256"
            },
            {
              "internalType": "string",
              "name": "fromChain",
              "type": "string"
            },
            {
              "internalType": "string",
              "name": "sender",
              "type": "string"
            },
            {
              "internalType": "string",
              "name": "signer",
              "type": "string"
            },
            {
              "components": [
                {
                  "internalType": "uint8",
                  "name": "reveal",
                  "type": "uint8"
                }
              ],
              "internalType": "struct SQOS",
              "name": "sqos",
              "type": "tuple"
            },
            {
              "internalType": "address",
              "name": "contractAddress",
              "type": "address"
            },
            {
              "internalType": "string",
              "name": "action",
              "type": "string"
            }
          ],
          "internalType": "struct SimplifiedMessage",
          "name": "",
          "type": "tuple"
        }
      ],
      "stateMutability": "view",
      "type": "function"
    }
  ],
  "bytecode": "0x608060405234801561001057600080fd5b5061001a3361001f565b61006f565b600080546001600160a01b038381166001600160a01b0319831681178455604051919092169283917f8be0079c531659141344cd1fd0a4f28419497f9722a3daafe3b4186f6b6457e09190a35050565b6111ff8061007e6000396000f3fe608060405234801561001057600080fd5b50600436106100a95760003560e01c806366e1f8201161007157806366e1f82014610142578063715018a6146101555780638da5cb5b1461015d578063d469270314610182578063dbc90de114610195578063f2fde38b146101a857600080fd5b8063127f0f07146100ae57806318d72b54146100cc5780632639c423146100e15780633ad16b7a146101025780635fe78c6c14610122575b600080fd5b6100b66101bb565b6040516100c39190610a3d565b60405180910390f35b6100df6100da366004610b05565b610243565b005b6100f46100ef366004610bff565b610298565b6040516100c3929190610c50565b610115610110366004610cbe565b6103cf565b6040516100c39190610d58565b610135610130366004610bff565b610563565b6040516100c39190610d91565b6100df610150366004610da4565b610608565b6100df6106a0565b6000546001600160a01b03165b6040516001600160a01b0390911681526020016100c3565b6100df610190366004610e10565b6106d6565b60035461016a906001600160a01b031681565b6100df6101b6366004610b05565b610809565b6101c36108f4565b600360009054906101000a90046001600160a01b03166001600160a01b0316639af7a48c6040518163ffffffff1660e01b8152600401600060405180830381865afa158015610216573d6000803e3d6000fd5b505050506040513d6000823e601f3d908101601f1916820160405261023e9190810190610fac565b905090565b6000546001600160a01b031633146102765760405162461bcd60e51b815260040161026d906110b2565b60405180910390fd5b600380546001600160a01b0319166001600160a01b0392909216919091179055565b80516020818301810180516001825292820191909301209152805481906102be906110e7565b80601f01602080910402602001604051908101604052809291908181526020018280546102ea906110e7565b80156103375780601f1061030c57610100808354040283529160200191610337565b820191906000526020600020905b81548152906001019060200180831161031a57829003601f168201915b50505050509080600101805461034c906110e7565b80601f0160208091040260200160405190810160405280929190818152602001828054610378906110e7565b80156103c55780601f1061039a576101008083540402835291602001916103c5565b820191906000526020600020905b8154815290600101906020018083116103a857829003601f168201915b5050505050905082565b6040805180820190915260608082526020820152600187878787878760405160200161040096959493929190611122565b60408051601f198184030181529082905261041a91611152565b9081526020016040518091039020604051806040016040529081600082018054610443906110e7565b80601f016020809104026020016040519081016040528092919081815260200182805461046f906110e7565b80156104bc5780601f10610491576101008083540402835291602001916104bc565b820191906000526020600020905b81548152906001019060200180831161049f57829003601f168201915b505050505081526020016001820180546104d5906110e7565b80601f0160208091040260200160405190810160405280929190818152602001828054610501906110e7565b801561054e5780601f106105235761010080835404028352916020019161054e565b820191906000526020600020905b81548152906001019060200180831161053157829003601f168201915b50505050508152505090509695505050505050565b805160208183018101805160028252928201919093012091528054610587906110e7565b80601f01602080910402602001604051908101604052809291908181526020018280546105b3906110e7565b80156106005780601f106105d557610100808354040283529160200191610600565b820191906000526020600020905b8154815290600101906020018083116105e357829003601f168201915b505050505081565b6000546001600160a01b031633146106325760405162461bcd60e51b815260040161026d906110b2565b6003546040516321c0551d60e11b81526001600160a01b0390911690634380aa3a90610668908790879087908790600401611197565b600060405180830381600087803b15801561068257600080fd5b505af1158015610696573d6000803e3d6000fd5b5050505050505050565b6000546001600160a01b031633146106ca5760405162461bcd60e51b815260040161026d906110b2565b6106d460006108a4565b565b6000546001600160a01b031633146107005760405162461bcd60e51b815260040161026d906110b2565b6040805160606020601f8701819004028201810183529181018581526000928291908890889081908501838280828437600092019190915250505090825250604080516020601f8701819004810282018101909252858152918101919086908690819084018382808284376000920191909152505050915250604051909150819060019061079c908e908e908e908e908e908e90602001611122565b60408051601f19818403018152908290526107b691611152565b908152602001604051809103902060008201518160000190805190602001906107e0929190610948565b5060208281015180516107f99260018501920190610948565b5050505050505050505050505050565b6000546001600160a01b031633146108335760405162461bcd60e51b815260040161026d906110b2565b6001600160a01b0381166108985760405162461bcd60e51b815260206004820152602660248201527f4f776e61626c653a206e6577206f776e657220697320746865207a65726f206160448201526564647265737360d01b606482015260840161026d565b6108a1816108a4565b50565b600080546001600160a01b038381166001600160a01b0319831681178455604051919092169283917f8be0079c531659141344cd1fd0a4f28419497f9722a3daafe3b4186f6b6457e09190a35050565b6040518060e00160405280600081526020016060815260200160608152602001606081526020016109346040518060200160405280600060ff1681525090565b815260006020820152606060409091015290565b828054610954906110e7565b90600052602060002090601f01602090048101928261097657600085556109bc565b82601f1061098f57805160ff19168380011785556109bc565b828001600101855582156109bc579182015b828111156109bc5782518255916020019190600101906109a1565b506109c89291506109cc565b5090565b5b808211156109c857600081556001016109cd565b60005b838110156109fc5781810151838201526020016109e4565b83811115610a0b576000848401525b50505050565b60008151808452610a298160208601602086016109e1565b601f01601f19169290920160200192915050565b60208152815160208201526000602083015160e06040840152610a64610100840182610a11565b90506040840151601f1980858403016060860152610a828383610a11565b92506060860151915080858403016080860152610a9f8383610a11565b925060ff6080870151511660a086015260a08601519150610acb60c08601836001600160a01b03169052565b60c08601519150808584030160e086015250610ae78282610a11565b95945050505050565b6001600160a01b03811681146108a157600080fd5b600060208284031215610b1757600080fd5b8135610b2281610af0565b9392505050565b634e487b7160e01b600052604160045260246000fd5b60405160e0810167ffffffffffffffff81118282101715610b6257610b62610b29565b60405290565b604051601f8201601f1916810167ffffffffffffffff81118282101715610b9157610b91610b29565b604052919050565b600067ffffffffffffffff821115610bb357610bb3610b29565b50601f01601f191660200190565b6000610bd4610bcf84610b99565b610b68565b9050828152838383011115610be857600080fd5b828260208301376000602084830101529392505050565b600060208284031215610c1157600080fd5b813567ffffffffffffffff811115610c2857600080fd5b8201601f81018413610c3957600080fd5b610c4884823560208401610bc1565b949350505050565b604081526000610c636040830185610a11565b8281036020840152610ae78185610a11565b60008083601f840112610c8757600080fd5b50813567ffffffffffffffff811115610c9f57600080fd5b602083019150836020828501011115610cb757600080fd5b9250929050565b60008060008060008060608789031215610cd757600080fd5b863567ffffffffffffffff80821115610cef57600080fd5b610cfb8a838b01610c75565b90985096506020890135915080821115610d1457600080fd5b610d208a838b01610c75565b90965094506040890135915080821115610d3957600080fd5b50610d4689828a01610c75565b979a9699509497509295939492505050565b602081526000825160406020840152610d746060840182610a11565b90506020840151601f19848303016040850152610ae78282610a11565b602081526000610b226020830184610a11565b60008060008060408587031215610dba57600080fd5b843567ffffffffffffffff80821115610dd257600080fd5b610dde88838901610c75565b90965094506020870135915080821115610df757600080fd5b50610e0487828801610c75565b95989497509550505050565b60008060008060008060008060008060a08b8d031215610e2f57600080fd5b8a3567ffffffffffffffff80821115610e4757600080fd5b610e538e838f01610c75565b909c509a5060208d0135915080821115610e6c57600080fd5b610e788e838f01610c75565b909a50985060408d0135915080821115610e9157600080fd5b610e9d8e838f01610c75565b909850965060608d0135915080821115610eb657600080fd5b610ec28e838f01610c75565b909650945060808d0135915080821115610edb57600080fd5b50610ee88d828e01610c75565b915080935050809150509295989b9194979a5092959850565b600082601f830112610f1257600080fd5b8151610f20610bcf82610b99565b818152846020838601011115610f3557600080fd5b610c488260208301602087016109e1565b600060208284031215610f5857600080fd5b6040516020810181811067ffffffffffffffff82111715610f7b57610f7b610b29565b8060405250809150825160ff81168114610f9457600080fd5b905292915050565b8051610fa781610af0565b919050565b600060208284031215610fbe57600080fd5b815167ffffffffffffffff80821115610fd657600080fd5b9083019060e08286031215610fea57600080fd5b610ff2610b3f565b8251815260208301518281111561100857600080fd5b61101487828601610f01565b60208301525060408301518281111561102c57600080fd5b61103887828601610f01565b60408301525060608301518281111561105057600080fd5b61105c87828601610f01565b60608301525061106f8660808501610f46565b608082015261108060a08401610f9c565b60a082015260c08301518281111561109757600080fd5b6110a387828601610f01565b60c08301525095945050505050565b6020808252818101527f4f776e61626c653a2063616c6c6572206973206e6f7420746865206f776e6572604082015260600190565b600181811c908216806110fb57607f821691505b6020821081141561111c57634e487b7160e01b600052602260045260246000fd5b50919050565b85878237600086820160008152858782376000908601908152838582376000930192835250909695505050505050565b600082516111648184602087016109e1565b9190910192915050565b81835281816020850137506000828201602090810191909152601f909101601f19169091010190565b6040815260006111ab60408301868861116e565b82810360208401526111be81858761116e565b97965050505050505056fea2646970667358221220919c5314512af087d6243b001f54bac222de80a89fa3839d88ed7fc53821d9f264736f6c634300080a0033",
  "immutableReferences": {},
  "source": "// SPDX-License-Identifier: MIT\npragma solidity >=0.8.0 <0.9.0;\nimport \"@openzeppelin/contracts/access/Ownable.sol\";\nimport \"./ICrossChain.sol\";\n\ncontract ContractBase is Ownable {\n    // Message ABI used to encode/decode messages sent from this contract\n    struct MessageABI {\n        string parametertypes; // action params' type\n        string parameterNames; // action params' name\n    }\n\n    // desination contract action mapping\n    mapping(bytes => MessageABI) public messageABIMap;\n\n    // source contract action mapping\n    mapping(string => string) public contractABIMap;\n\n    // Dante cross chain contract\n    ICrossChain public crossChainContract;\n\n    /**\n     * Set cross chain contract\n     * @param _address - cross chain contract address\n     */\n    function setCrossChainContract(address _address) public onlyOwner {\n        crossChainContract = ICrossChain(_address);\n    }\n\n    ///////////////////////////////////////////////\n    /////    Send messages to other chains   //////\n    ///////////////////////////////////////////////\n\n    /**\n     * message ABI used to encode/decode messages sent from this contract\n     * @param _destnChainName - destination chain name\n     * @param _destnContractName - destination contract name\n     * @param _funcName - destination contract function name\n     * @param _paramType - action param types\n     * @param _paramName - action param name\n     */\n    function registerMessageABI(\n        string calldata _destnChainName,\n        string calldata _destnContractName,\n        string calldata _funcName,\n        string calldata _paramType,\n        string calldata _paramName\n    ) external onlyOwner {\n        MessageABI memory info = MessageABI(_paramType, _paramName);\n        messageABIMap[\n            abi.encodePacked(_destnChainName, _destnContractName, _funcName)\n        ] = info;\n    }\n\n    /**\n     * Get Registered message ABI to encode/decode message\n     * @param _destnChainName - destination chain name\n     * @param _destnContractName - destination contract name\n     * @param _funcName - destination contract function name\n     */\n    function getMessageABI(\n        string calldata _destnChainName,\n        string calldata _destnContractName,\n        string calldata _funcName\n    ) external view returns (MessageABI memory) {\n        return\n            messageABIMap[\n                abi.encodePacked(_destnChainName, _destnContractName, _funcName)\n            ];\n    }\n\n    ///////////////////////////////////////////////\n    ///    Receive messages from other chains   ///\n    ///////////////////////////////////////////////\n\n    /**\n     * contract ABI used to encode/decode messages sent to this contract\n     * @param _funcName - contract action name\n     * @param _contractABI - contract action abi\n     */\n    function registerContractABI(\n        string calldata _funcName,\n        string calldata _contractABI\n    ) external virtual onlyOwner {\n        crossChainContract.registerInterface(_funcName, _contractABI);\n    }\n\n    // return context info\n    function getContext() public view returns (SimplifiedMessage memory) {\n        return crossChainContract.getCurrentMessage();\n    }\n}\n",
  "sourcePath": "/home/george/hthuang/solidity-contract-template/contracts/CrossChain/ContractBase.sol",
  "compiler": {
    "name": "solc",
    "version": "0.8.10+commit.fc410830.Emscripten.clang"
  },
  "schemaVersion": "3.4.4",
  "updatedAt": "2022-03-11T06:48:55.324Z",
  "devdoc": {
    "kind": "dev",
    "methods": {
      "getMessageABI(string,string,string)": {
        "params": {
          "_destnChainName": "- destination chain name",
          "_destnContractName": "- destination contract name",
          "_funcName": "- destination contract function name"
        }
      },
      "owner()": {
        "details": "Returns the address of the current owner."
      },
      "registerContractABI(string,string)": {
        "params": {
          "_contractABI": "- contract action abi",
          "_funcName": "- contract action name"
        }
      },
      "registerMessageABI(string,string,string,string,string)": {
        "params": {
          "_destnChainName": "- destination chain name",
          "_destnContractName": "- destination contract name",
          "_funcName": "- destination contract function name",
          "_paramName": "- action param name",
          "_paramType": "- action param types"
        }
      },
      "renounceOwnership()": {
        "details": "Leaves the contract without owner. It will not be possible to call `onlyOwner` functions anymore. Can only be called by the current owner. NOTE: Renouncing ownership will leave the contract without an owner, thereby removing any functionality that is only available to the owner."
      },
      "setCrossChainContract(address)": {
        "params": {
          "_address": "- cross chain contract address"
        }
      },
      "transferOwnership(address)": {
        "details": "Transfers ownership of the contract to a new account (`newOwner`). Can only be called by the current owner."
      }
    },
    "version": 1
  },
  "userdoc": {
    "kind": "user",
    "methods": {
      "getMessageABI(string,string,string)": {
        "notice": "Get Registered message ABI to encode/decode message"
      },
      "registerContractABI(string,string)": {
        "notice": "contract ABI used to encode/decode messages sent to this contract"
      },
      "registerMessageABI(string,string,string,string,string)": {
        "notice": "message ABI used to encode/decode messages sent from this contract"
      },
      "setCrossChainContract(address)": {
        "notice": "Set cross chain contract"
      }
    },
    "version": 1
  }
}