{
  "contractName": "Greetings",
  "abi": [
    {
      "anonymous": false,
      "inputs": [
        {
          "indexed": true,
          "internalType": "address",
          "name": "previousOwner",
          "type": "address"
        },
        {
          "indexed": true,
          "internalType": "address",
          "name": "newOwner",
          "type": "address"
        }
      ],
      "name": "OwnershipTransferred",
      "type": "event"
    },
    {
      "inputs": [],
      "name": "crossChainContract",
      "outputs": [
        {
          "internalType": "contract ICrossChain",
          "name": "",
          "type": "address"
        }
      ],
      "stateMutability": "view",
      "type": "function"
    },
    {
      "inputs": [],
      "name": "currentId",
      "outputs": [
        {
          "internalType": "uint256",
          "name": "",
          "type": "uint256"
        }
      ],
      "stateMutability": "view",
      "type": "function"
    },
    {
      "inputs": [
        {
          "internalType": "string",
          "name": "",
          "type": "string"
        },
        {
          "internalType": "string",
          "name": "",
          "type": "string"
        }
      ],
      "name": "destnContractMap",
      "outputs": [
        {
          "internalType": "string",
          "name": "contractAddress",
          "type": "string"
        },
        {
          "internalType": "string",
          "name": "funcName",
          "type": "string"
        },
        {
          "internalType": "bool",
          "name": "used",
          "type": "bool"
        }
      ],
      "stateMutability": "view",
      "type": "function"
    },
    {
      "inputs": [],
      "name": "getContext",
      "outputs": [
        {
          "components": [
            {
              "internalType": "uint256",
              "name": "id",
              "type": "uint256"
            },
            {
              "internalType": "string",
              "name": "fromChain",
              "type": "string"
            },
            {
              "internalType": "string",
              "name": "sender",
              "type": "string"
            },
            {
              "internalType": "string",
              "name": "signer",
              "type": "string"
            },
            {
              "components": [
                {
                  "internalType": "enum SQoSType",
                  "name": "t",
                  "type": "uint8"
                },
                {
                  "internalType": "string",
                  "name": "v",
                  "type": "string"
                }
              ],
              "internalType": "struct SQoS[]",
              "name": "sqos",
              "type": "tuple[]"
            },
            {
              "internalType": "address",
              "name": "contractAddress",
              "type": "address"
            },
            {
              "internalType": "bytes4",
              "name": "action",
              "type": "bytes4"
            },
            {
              "components": [
                {
                  "internalType": "uint256",
                  "name": "id",
                  "type": "uint256"
                },
                {
                  "internalType": "bytes",
                  "name": "callback",
                  "type": "bytes"
                }
              ],
              "internalType": "struct Session",
              "name": "session",
              "type": "tuple"
            }
          ],
          "internalType": "struct SimplifiedMessage",
          "name": "",
          "type": "tuple"
        }
      ],
      "stateMutability": "view",
      "type": "function"
    },
    {
      "inputs": [
        {
          "internalType": "string",
          "name": "",
          "type": "string"
        },
        {
          "internalType": "uint256",
          "name": "",
          "type": "uint256"
        }
      ],
      "name": "greetings",
      "outputs": [
        {
          "internalType": "string",
          "name": "fromChain",
          "type": "string"
        },
        {
          "internalType": "string",
          "name": "title",
          "type": "string"
        },
        {
          "internalType": "string",
          "name": "content",
          "type": "string"
        },
        {
          "internalType": "string",
          "name": "date",
          "type": "string"
        }
      ],
      "stateMutability": "view",
      "type": "function"
    },
    {
      "inputs": [],
      "name": "owner",
      "outputs": [
        {
          "internalType": "address",
          "name": "",
          "type": "address"
        }
      ],
      "stateMutability": "view",
      "type": "function"
    },
    {
      "inputs": [
        {
          "internalType": "string",
          "name": "",
          "type": "string"
        },
        {
          "internalType": "bytes4",
          "name": "",
          "type": "bytes4"
        }
      ],
      "name": "permittedContractMap",
      "outputs": [
        {
          "internalType": "string",
          "name": "",
          "type": "string"
        }
      ],
      "stateMutability": "view",
      "type": "function"
    },
    {
      "inputs": [],
      "name": "renounceOwnership",
      "outputs": [],
      "stateMutability": "nonpayable",
      "type": "function"
    },
    {
      "inputs": [
        {
          "internalType": "address",
          "name": "_address",
          "type": "address"
        }
      ],
      "name": "setCrossChainContract",
      "outputs": [],
      "stateMutability": "nonpayable",
      "type": "function"
    },
    {
      "inputs": [
        {
          "internalType": "address",
          "name": "newOwner",
          "type": "address"
        }
      ],
      "name": "transferOwnership",
      "outputs": [],
      "stateMutability": "nonpayable",
      "type": "function"
    },
    {
      "inputs": [
        {
          "components": [
            {
              "components": [
                {
                  "internalType": "string",
                  "name": "name",
                  "type": "string"
                },
                {
                  "internalType": "enum MsgType",
                  "name": "msgType",
                  "type": "uint8"
                },
                {
                  "internalType": "bytes",
                  "name": "value",
                  "type": "bytes"
                }
              ],
              "internalType": "struct PayloadItem[]",
              "name": "items",
              "type": "tuple[]"
            }
          ],
          "internalType": "struct Payload",
          "name": "_payload",
          "type": "tuple"
        }
      ],
      "name": "receiveGreeting",
      "outputs": [],
      "stateMutability": "nonpayable",
      "type": "function"
    },
    {
      "inputs": [
        {
          "internalType": "string",
          "name": "_toChain",
          "type": "string"
        },
        {
          "internalType": "string[]",
          "name": "_greeting",
          "type": "string[]"
        }
      ],
      "name": "sendGreeting",
      "outputs": [],
      "stateMutability": "nonpayable",
      "type": "function"
    },
    {
      "inputs": [
        {
          "internalType": "string",
          "name": "_funcName",
          "type": "string"
        },
        {
          "internalType": "string",
          "name": "_toChain",
          "type": "string"
        },
        {
          "internalType": "string",
          "name": "_contractAddress",
          "type": "string"
        },
        {
          "internalType": "string",
          "name": "_contractFuncName",
          "type": "string"
        }
      ],
      "name": "registerDestnContract",
      "outputs": [],
      "stateMutability": "nonpayable",
      "type": "function"
    },
    {
      "inputs": [
        {
          "internalType": "string",
          "name": "_chainName",
          "type": "string"
        },
        {
          "internalType": "string",
          "name": "_sender",
          "type": "string"
        },
        {
          "internalType": "bytes4",
          "name": "_funcName",
          "type": "bytes4"
        }
      ],
      "name": "registerPermittedContract",
      "outputs": [],
      "stateMutability": "nonpayable",
      "type": "function"
    },
    {
      "inputs": [
        {
          "internalType": "string",
          "name": "_chainName",
          "type": "string"
        },
        {
          "internalType": "bytes4",
          "name": "_funcName",
          "type": "bytes4"
        },
        {
          "internalType": "string",
          "name": "_sender",
          "type": "string"
        }
      ],
      "name": "verify",
      "outputs": [
        {
          "internalType": "bool",
          "name": "",
          "type": "bool"
        }
      ],
      "stateMutability": "view",
      "type": "function"
    }
  ],
  "bytecode": "0x608060405234801561001057600080fd5b5061001a3361001f565b61006f565b600080546001600160a01b038381166001600160a01b0319831681178455604051919092169283917f8be0079c531659141344cd1fd0a4f28419497f9722a3daafe3b4186f6b6457e09190a35050565b61205e8061007e6000396000f3fe608060405234801561001057600080fd5b50600436106100f55760003560e01c80638564441511610097578063c5f200ed11610066578063c5f200ed14610210578063dbc90de114610230578063e00dd16114610243578063f2fde38b1461025a57600080fd5b806385644415146101b25780638da5cb5b146101c5578063babe5dd6146101ea578063bd0bbc47146101fd57600080fd5b80632d436822116100d35780632d436822146101525780636ec039f414610165578063715018a61461018857806380899bba1461019057600080fd5b80630c5ae335146100fa578063127f0f071461012857806318d72b541461013d575b600080fd5b6101136101083660046111a4565b600195945050505050565b60405190151581526020015b60405180910390f35b61013061026d565b60405161011f919061133f565b61015061014b36600461142f565b6102f5565b005b610150610160366004611453565b61034a565b61017861017336600461159b565b610529565b60405161011f94939291906115df565b61015061078c565b6101a361019e366004611637565b6107c2565b60405161011f9392919061169a565b6101506101c03660046116d2565b61091f565b6000546001600160a01b03165b6040516001600160a01b03909116815260200161011f565b6101506101f8366004611755565b610992565b61015061020b366004611818565b610a38565b61022361021e3660046118b1565b610db5565b60405161011f9190611902565b6001546101d2906001600160a01b031681565b61024c60055481565b60405190815260200161011f565b61015061026836600461142f565b610e6a565b610275610f55565b600160009054906101000a90046001600160a01b03166001600160a01b0316639af7a48c6040518163ffffffff1660e01b8152600401600060405180830381865afa1580156102c8573d6000803e3d6000fd5b505050506040513d6000823e601f3d908101601f191682016040526102f09190810190611ae2565b905090565b6000546001600160a01b031633146103285760405162461bcd60e51b815260040161031f90611c0b565b60405180910390fd5b600180546001600160a01b0319166001600160a01b0392909216919091179055565b6001546001600160a01b031633146103a45760405162461bcd60e51b815260206004820181905260248201527f4c6f636b65723a2063616c6c6572206973206e6f742043726f7373436861696e604482015260640161031f565b60006103ae61026d565b905060006103bc8380611c40565b60008181106103cd576103cd611c89565b90506020028101906103df9190611c9f565b6103ed906040810190611cbf565b8101906103fa9190611d05565b9050600060405180608001604052808360008151811061041c5761041c611c89565b602002602001015181526020018360018151811061043c5761043c611c89565b602002602001015181526020018360028151811061045c5761045c611c89565b602002602001015181526020018360038151811061047c5761047c611c89565b60200260200101518152509050806004846020015160405161049e9190611db5565b908152604080516020928190038301902086516000908152908352208251805191926104cf92849290910190610fc7565b5060208281015180516104e89260018501920190610fc7565b5060408201518051610504916002840191602090910190610fc7565b5060608201518051610520916003840191602090910190610fc7565b50505050505050565b81516020818401810180516004825292820194820194909420919093529091526000908152604090208054819061055f90611dc7565b80601f016020809104026020016040519081016040528092919081815260200182805461058b90611dc7565b80156105d85780601f106105ad576101008083540402835291602001916105d8565b820191906000526020600020905b8154815290600101906020018083116105bb57829003601f168201915b5050505050908060010180546105ed90611dc7565b80601f016020809104026020016040519081016040528092919081815260200182805461061990611dc7565b80156106665780601f1061063b57610100808354040283529160200191610666565b820191906000526020600020905b81548152906001019060200180831161064957829003601f168201915b50505050509080600201805461067b90611dc7565b80601f01602080910402602001604051908101604052809291908181526020018280546106a790611dc7565b80156106f45780601f106106c9576101008083540402835291602001916106f4565b820191906000526020600020905b8154815290600101906020018083116106d757829003601f168201915b50505050509080600301805461070990611dc7565b80601f016020809104026020016040519081016040528092919081815260200182805461073590611dc7565b80156107825780601f1061075757610100808354040283529160200191610782565b820191906000526020600020905b81548152906001019060200180831161076557829003601f168201915b5050505050905084565b6000546001600160a01b031633146107b65760405162461bcd60e51b815260040161031f90611c0b565b6107c06000610f05565b565b8151602081840181018051600282529282019482019490942091909352815180830184018051928152908401929093019190912091528054819061080590611dc7565b80601f016020809104026020016040519081016040528092919081815260200182805461083190611dc7565b801561087e5780601f106108535761010080835404028352916020019161087e565b820191906000526020600020905b81548152906001019060200180831161086157829003601f168201915b50505050509080600101805461089390611dc7565b80601f01602080910402602001604051908101604052809291908181526020018280546108bf90611dc7565b801561090c5780601f106108e15761010080835404028352916020019161090c565b820191906000526020600020905b8154815290600101906020018083116108ef57829003601f168201915b5050506002909301549192505060ff1683565b6000546001600160a01b031633146109495760405162461bcd60e51b815260040161031f90611c0b565b60006003868660405161095d929190611e02565b90815260408051602092819003830190206001600160e01b03198516600090815292819052912090915061052090858561104b565b6000546001600160a01b031633146109bc5760405162461bcd60e51b815260040161031f90611c0b565b6000600287876040516109d0929190611e02565b908152602001604051809103902090506000818a8a6040516109f3929190611e02565b9081526040519081900360200190209050610a0f81878761104b565b50610a1e60018201858561104b565b50600201805460ff19166001179055505050505050505050565b600060028585604051610a4c929190611e02565b9081526040519081900360200181206e726563656976654772656574696e6760881b825291506000908290600f01908152604051908190036020019020600281015490915060ff16610ad85760405162461bcd60e51b81526020600482015260156024820152741858dd1a5bdb881b9bdd081c9959da5cdd195c9959605a1b604482015260640161031f565b6040805160208101825260608152815160018082528184019093529091816020015b60408051606080820183528082526000602083015291810191909152815260200190600190039081610afa5750508082528051600091908290610b3f57610b3f611c89565b60209081029190910181015160408051808201825260088152676772656574696e6760c01b818501528252600b8284015251909250610b82918891889101611e3b565b60408051601f19818403018152918152820152610b9d6110bf565b88888080601f01602080910402602001604051908101604052809392919081815260200183838082843760009201829052509385525050604080518082018252838152815160208181018452948152938101939093526060808501939093528051928301905250845481908690610c1390611dc7565b80601f0160208091040260200160405190810160405280929190818152602001828054610c3f90611dc7565b8015610c8c5780601f10610c6157610100808354040283529160200191610c8c565b820191906000526020600020905b815481529060010190602001808311610c6f57829003601f168201915b50505050508152602001856001018054610ca590611dc7565b80601f0160208091040260200160405190810160405280929190818152602001828054610cd190611dc7565b8015610d1e5780601f10610cf357610100808354040283529160200191610d1e565b820191906000526020600020905b815481529060010190602001808311610d0157829003601f168201915b50505091835250506020018490526040808301919091526001549051636e0520a160e01b81526001600160a01b0390911690636e0520a190610d64908490600401611ed5565b6020604051808303816000875af1158015610d83573d6000803e3d6000fd5b505050506040513d601f19601f82011682018060405250810190610da7919061200f565b600555505050505050505050565b81516020818401810180516003825292820194820194909420919093529091526000908152604090208054610de990611dc7565b80601f0160208091040260200160405190810160405280929190818152602001828054610e1590611dc7565b8015610e625780601f10610e3757610100808354040283529160200191610e62565b820191906000526020600020905b815481529060010190602001808311610e4557829003601f168201915b505050505081565b6000546001600160a01b03163314610e945760405162461bcd60e51b815260040161031f90611c0b565b6001600160a01b038116610ef95760405162461bcd60e51b815260206004820152602660248201527f4f776e61626c653a206e6577206f776e657220697320746865207a65726f206160448201526564647265737360d01b606482015260840161031f565b610f0281610f05565b50565b600080546001600160a01b038381166001600160a01b0319831681178455604051919092169283917f8be0079c531659141344cd1fd0a4f28419497f9722a3daafe3b4186f6b6457e09190a35050565b604051806101000160405280600081526020016060815260200160608152602001606081526020016060815260200160006001600160a01b0316815260200160006001600160e01b0319168152602001610fc2604051806040016040528060008152602001606081525090565b905290565b828054610fd390611dc7565b90600052602060002090601f016020900481019282610ff5576000855561103b565b82601f1061100e57805160ff191683800117855561103b565b8280016001018555821561103b579182015b8281111561103b578251825591602001919060010190611020565b50611047929150611102565b5090565b82805461105790611dc7565b90600052602060002090601f016020900481019282611079576000855561103b565b82601f106110925782800160ff1982351617855561103b565b8280016001018555821561103b579182015b8281111561103b5782358255916020019190600101906110a4565b604051806080016040528060608152602001606081526020016110e0611117565b8152602001610fc2604051806040016040528060008152602001606081525090565b5b808211156110475760008155600101611103565b60405180606001604052806060815260200160608152602001610fc26040518060200160405280606081525090565b60008083601f84011261115857600080fd5b5081356001600160401b0381111561116f57600080fd5b60208301915083602082850101111561118757600080fd5b9250929050565b6001600160e01b031981168114610f0257600080fd5b6000806000806000606086880312156111bc57600080fd5b85356001600160401b03808211156111d357600080fd5b6111df89838a01611146565b9097509550602088013591506111f48261118e565b9093506040870135908082111561120a57600080fd5b5061121788828901611146565b969995985093965092949392505050565b60005b8381101561124357818101518382015260200161122b565b83811115611252576000848401525b50505050565b60008151808452611270816020860160208601611228565b601f01601f19169290920160200192915050565b634e487b7160e01b600052602160045260246000fd5b600082825180855260208086019550808260051b84010181860160005b8481101561130b57601f19868403018952815160408151600981106112de576112de611284565b855290850151858501829052906112f781860183611258565b9a86019a94505050908301906001016112b7565b5090979650505050505050565b8051825260006020820151604060208501526113376040850182611258565b949350505050565b602081528151602082015260006020830151610100806040850152611368610120850183611258565b91506040850151601f19808685030160608701526113868483611258565b935060608701519150808685030160808701526113a38483611258565b935060808701519150808685030160a08701526113c0848361129a565b935060a087015191506113de60c08701836001600160a01b03169052565b60c08701516001600160e01b0319811660e0880152915060e08701519150808685030183870152506114108382611318565b9695505050505050565b6001600160a01b0381168114610f0257600080fd5b60006020828403121561144157600080fd5b813561144c8161141a565b9392505050565b60006020828403121561146557600080fd5b81356001600160401b0381111561147b57600080fd5b82016020818503121561144c57600080fd5b634e487b7160e01b600052604160045260246000fd5b604080519081016001600160401b03811182821017156114c5576114c561148d565b60405290565b60405161010081016001600160401b03811182821017156114c5576114c561148d565b604051601f8201601f191681016001600160401b03811182821017156115165761151661148d565b604052919050565b60006001600160401b038211156115375761153761148d565b50601f01601f191660200190565b600082601f83011261155657600080fd5b81356115696115648261151e565b6114ee565b81815284602083860101111561157e57600080fd5b816020850160208301376000918101602001919091529392505050565b600080604083850312156115ae57600080fd5b82356001600160401b038111156115c457600080fd5b6115d085828601611545565b95602094909401359450505050565b6080815260006115f26080830187611258565b82810360208401526116048187611258565b905082810360408401526116188186611258565b9050828103606084015261162c8185611258565b979650505050505050565b6000806040838503121561164a57600080fd5b82356001600160401b038082111561166157600080fd5b61166d86838701611545565b9350602085013591508082111561168357600080fd5b5061169085828601611545565b9150509250929050565b6060815260006116ad6060830186611258565b82810360208401526116bf8186611258565b9150508215156040830152949350505050565b6000806000806000606086880312156116ea57600080fd5b85356001600160401b038082111561170157600080fd5b61170d89838a01611146565b9097509550602088013591508082111561172657600080fd5b5061173388828901611146565b90945092505060408601356117478161118e565b809150509295509295909350565b6000806000806000806000806080898b03121561177157600080fd5b88356001600160401b038082111561178857600080fd5b6117948c838d01611146565b909a50985060208b01359150808211156117ad57600080fd5b6117b98c838d01611146565b909850965060408b01359150808211156117d257600080fd5b6117de8c838d01611146565b909650945060608b01359150808211156117f757600080fd5b506118048b828c01611146565b999c989b5096995094979396929594505050565b6000806000806040858703121561182e57600080fd5b84356001600160401b038082111561184557600080fd5b61185188838901611146565b9096509450602087013591508082111561186a57600080fd5b818701915087601f83011261187e57600080fd5b81358181111561188d57600080fd5b8860208260051b85010111156118a257600080fd5b95989497505060200194505050565b600080604083850312156118c457600080fd5b82356001600160401b038111156118da57600080fd5b6118e685828601611545565b92505060208301356118f78161118e565b809150509250929050565b60208152600061144c6020830184611258565b60006119236115648461151e565b905082815283838301111561193757600080fd5b61144c836020830184611228565b600082601f83011261195657600080fd5b61144c83835160208501611915565b60006001600160401b0382111561197e5761197e61148d565b5060051b60200190565b600082601f83011261199957600080fd5b815160206119a961156483611965565b82815260059290921b840181019181810190868411156119c857600080fd5b8286015b84811015611a575780516001600160401b03808211156119ec5760008081fd5b908801906040828b03601f1901811315611a065760008081fd5b611a0e6114a3565b8784015160098110611a205760008081fd5b8152908301519082821115611a355760008081fd5b611a438c8984870101611945565b8189015286525050509183019183016119cc565b509695505050505050565b8051611a6d8161141a565b919050565b8051611a6d8161118e565b600060408284031215611a8f57600080fd5b611a976114a3565b90508151815260208201516001600160401b03811115611ab657600080fd5b8201601f81018413611ac757600080fd5b611ad684825160208401611915565b60208301525092915050565b600060208284031215611af457600080fd5b81516001600160401b0380821115611b0b57600080fd5b908301906101008286031215611b2057600080fd5b611b286114cb565b82518152602083015182811115611b3e57600080fd5b611b4a87828601611945565b602083015250604083015182811115611b6257600080fd5b611b6e87828601611945565b604083015250606083015182811115611b8657600080fd5b611b9287828601611945565b606083015250608083015182811115611baa57600080fd5b611bb687828601611988565b608083015250611bc860a08401611a62565b60a0820152611bd960c08401611a72565b60c082015260e083015182811115611bf057600080fd5b611bfc87828601611a7d565b60e08301525095945050505050565b6020808252818101527f4f776e61626c653a2063616c6c6572206973206e6f7420746865206f776e6572604082015260600190565b6000808335601e19843603018112611c5757600080fd5b8301803591506001600160401b03821115611c7157600080fd5b6020019150600581901b360382131561118757600080fd5b634e487b7160e01b600052603260045260246000fd5b60008235605e19833603018112611cb557600080fd5b9190910192915050565b6000808335601e19843603018112611cd657600080fd5b8301803591506001600160401b03821115611cf057600080fd5b60200191503681900382131561118757600080fd5b60006020808385031215611d1857600080fd5b82356001600160401b0380821115611d2f57600080fd5b818501915085601f830112611d4357600080fd5b8135611d5161156482611965565b81815260059190911b83018401908481019088831115611d7057600080fd5b8585015b83811015611da857803585811115611d8c5760008081fd5b611d9a8b89838a0101611545565b845250918601918601611d74565b5098975050505050505050565b60008251611cb5818460208701611228565b600181811c90821680611ddb57607f821691505b60208210811415611dfc57634e487b7160e01b600052602260045260246000fd5b50919050565b8183823760009101908152919050565b81835281816020850137506000828201602090810191909152601f909101601f19169091010190565b60208082528181018390526000906040600585901b8401810190840186845b87811015611ec857868403603f190183528135368a9003601e19018112611e8057600080fd5b890180356001600160401b03811115611e9857600080fd5b8036038b1315611ea757600080fd5b611eb48682898501611e12565b955050509184019190840190600101611e5a565b5091979650505050505050565b600060208083528351608082850152611ef160a0850182611258565b905081850151601f196040818785030181880152611f0f848461129a565b935080880151925060608288860301818901528351818652611f3382870182611258565b90508685015186820388880152611f4a8282611258565b9584015187870397850197909752505093518584528051868501819052600581901b850183019591870194908382019060005b81811015611fe557838903603f1901835287518051868b52611fa1878c0182611258565b90508b82015160168110611fb757611fb7611284565b8b8d0152908701518a8203888c015290611fd18183611258565b9a5050509689019691890191600101611f7d565b50505050880151878503909201608088015250925061200690508183611318565b95945050505050565b60006020828403121561202157600080fd5b505191905056fea2646970667358221220053a75a930c03bf160bc610504e1e620a6c2f24fbd945c9e109b01b0e08e876d64736f6c634300080a0033",
  "immutableReferences": {},
  "source": "// SPDX-License-Identifier: MIT\npragma solidity >=0.8.0 <0.9.0;\n\nimport \"@openzeppelin/contracts/access/Ownable.sol\";\nimport \"./CrossChain/ContractBase.sol\";\n\n// `Greetings` is an example of multi-chain services with necessary implementations in `ContractBase`, without which the user defined contract cannot work.\n// And besides, `registerDestnContract` and `registerPermittedContract` are templete implementations make the management of some user defined informations easier.\ncontract Greetings is ContractBase {\n    // Destination contract info\n    struct DestnContract {\n        string contractAddress; // destination contract address\n        string funcName; // destination contract action name\n        bool used;\n    }\n\n    // greeting\n    struct Greeting {\n        string fromChain;\n        string title;\n        string content;\n        string date;\n    }\n\n    // Cross-chain destination contract map\n    mapping(string => mapping(string => DestnContract)) public destnContractMap;\n\n    // Cross-chain permitted contract map\n    mapping(string => mapping(bytes4 => string)) public permittedContractMap;\n\n    // Store greetings\n    mapping(string => mapping(uint256 => Greeting)) public greetings;\n\n    uint256 public currentId;\n\n    /**\n     * Receive greeting info from other chains\n     * @param _payload - payload which contains greeting message\n     */\n    function receiveGreeting(Payload calldata _payload) public {\n        require(\n            msg.sender == address(crossChainContract),\n            \"Locker: caller is not CrossChain\"\n        );\n\n        // `context` used for verify the operation authority\n        SimplifiedMessage memory context = getContext();\n        // verify sqos\n        // require(context.sqos.reveal == 1, \"SQoS invalid!\");\n\n        (string[] memory _value) = abi.decode(_payload.items[0].value, (string[]));\n        Greeting memory _greeting = Greeting(_value[0], _value[1], _value[2], _value[3]);\n        greetings[context.fromChain][context.id] = _greeting;\n    }\n\n    /**\n     * Send greeting info to other chains\n     * @param _toChain - to chain name\n     * @param _greeting - greeting sent to other chain\n     */\n    function sendGreeting(\n        string calldata _toChain,\n        string[] calldata _greeting\n    ) external {\n        mapping(string => DestnContract) storage map = destnContractMap[_toChain];\n        DestnContract storage destnContract = map[\"receiveGreeting\"];\n        require(destnContract.used, \"action not registered\");\n\n        // Construct payload\n        Payload memory data;\n        data.items = new PayloadItem[](1);\n        PayloadItem memory item = data.items[0];\n        item.name = \"greeting\";\n        item.msgType = MsgType.EvmStringArray;\n        item.value = abi.encode(_greeting);\n\n        ISentMessage memory message;\n        message.toChain = _toChain;\n        message.session = Session(0, \"\");\n        message.content = Content(destnContract.contractAddress, destnContract.funcName, data);\n\n        currentId = crossChainContract.sendMessage(message);\n    }\n\n    ///////////////////////////////////////////////\n    /////    Send messages to other chains   //////\n    ///////////////////////////////////////////////\n\n    /**\n     * Register destination contract info\n     * @param _funcName - function name to be called\n     * @param _toChain - destination chain name\n     * @param _contractAddress - destination contract address\n     * @param _contractFuncName - contract function name\n     */\n    function registerDestnContract(\n        string calldata _funcName,\n        string calldata _toChain,\n        string calldata _contractAddress,\n        string calldata _contractFuncName\n    ) external onlyOwner {\n        mapping(string => DestnContract) storage map = destnContractMap[_toChain];\n        DestnContract storage destnContract = map[_funcName];\n        destnContract.contractAddress = _contractAddress;\n        destnContract.funcName = _contractFuncName;\n        destnContract.used = true;\n    }\n\n    ///////////////////////////////////////////////\n    ///    Receive messages from other chains   ///\n    ///////////////////////////////////////////////\n\n    /**\n     * Authorize contracts of other chains to call the functions of this contract\n     * @param _chainName - from chain name\n     * @param _sender - sender of cross chain message\n     * @param _funcName - action name which allowed to be invoked\n     */\n    function registerPermittedContract(\n        string calldata _chainName,\n        string calldata _sender,\n        bytes4 _funcName\n    ) external onlyOwner {\n        mapping(bytes4 => string) storage map = permittedContractMap[\n            _chainName\n        ];\n        map[_funcName] = _sender;\n    }\n\n    /**\n     * This verify method will be invoked by the CrossChain contract automatically, ensure that only registered contract(registerSourceContract) calls are allowed\n     * @param _chainName - chain name of cross chain message\n     * @param _funcName - contract action name of cross chain message\n     * @param _sender - cross chain message sender\n     */\n    //  Will be deprecated soon\n    function verify(\n        string calldata _chainName,\n        bytes4 _funcName,\n        string calldata _sender\n    ) public view virtual returns (bool) {\n        // mapping(bytes4 => string) storage map = permittedContractMap[\n        //     _chainName\n        // ];\n        // string storage sender = map[_funcName];\n        // require(\n        //     keccak256(bytes(sender)) == keccak256(bytes(_sender)),\n        //     \"Sender does not match\"\n        // );\n        return true;\n    }\n}\n",
  "sourcePath": "/home/george/program/dante/solidity-contract-template/contracts/Greetings.sol",
  "compiler": {
    "name": "solc",
    "version": "0.8.10+commit.fc410830.Emscripten.clang"
  },
  "schemaVersion": "3.4.6",
  "updatedAt": "2022-07-26T08:29:10.523Z",
  "devdoc": {
    "kind": "dev",
    "methods": {
      "owner()": {
        "details": "Returns the address of the current owner."
      },
      "receiveGreeting(((string,uint8,bytes)[]))": {
        "params": {
          "_payload": "- payload which contains greeting message"
        }
      },
      "registerDestnContract(string,string,string,string)": {
        "params": {
          "_contractAddress": "- destination contract address",
          "_contractFuncName": "- contract function name",
          "_funcName": "- function name to be called",
          "_toChain": "- destination chain name"
        }
      },
      "registerPermittedContract(string,string,bytes4)": {
        "params": {
          "_chainName": "- from chain name",
          "_funcName": "- action name which allowed to be invoked",
          "_sender": "- sender of cross chain message"
        }
      },
      "renounceOwnership()": {
        "details": "Leaves the contract without owner. It will not be possible to call `onlyOwner` functions anymore. Can only be called by the current owner. NOTE: Renouncing ownership will leave the contract without an owner, thereby removing any functionality that is only available to the owner."
      },
      "sendGreeting(string,string[])": {
        "params": {
          "_greeting": "- greeting sent to other chain",
          "_toChain": "- to chain name"
        }
      },
      "setCrossChainContract(address)": {
        "params": {
          "_address": "- cross chain contract address"
        }
      },
      "transferOwnership(address)": {
        "details": "Transfers ownership of the contract to a new account (`newOwner`). Can only be called by the current owner."
      },
      "verify(string,bytes4,string)": {
        "params": {
          "_chainName": "- chain name of cross chain message",
          "_funcName": "- contract action name of cross chain message",
          "_sender": "- cross chain message sender"
        }
      }
    },
    "version": 1
  },
  "userdoc": {
    "kind": "user",
    "methods": {
      "receiveGreeting(((string,uint8,bytes)[]))": {
        "notice": "Receive greeting info from other chains"
      },
      "registerDestnContract(string,string,string,string)": {
        "notice": "Register destination contract info"
      },
      "registerPermittedContract(string,string,bytes4)": {
        "notice": "Authorize contracts of other chains to call the functions of this contract"
      },
      "sendGreeting(string,string[])": {
        "notice": "Send greeting info to other chains"
      },
      "setCrossChainContract(address)": {
        "notice": "Set cross chain contract"
      },
      "verify(string,bytes4,string)": {
        "notice": "This verify method will be invoked by the CrossChain contract automatically, ensure that only registered contract(registerSourceContract) calls are allowed"
      }
    },
    "version": 1
  }
}