{
  "contractName": "Greetings",
  "abi": [
    {
      "anonymous": false,
      "inputs": [
        {
          "indexed": true,
          "internalType": "address",
          "name": "previousOwner",
          "type": "address"
        },
        {
          "indexed": true,
          "internalType": "address",
          "name": "newOwner",
          "type": "address"
        }
      ],
      "name": "OwnershipTransferred",
      "type": "event"
    },
    {
      "inputs": [],
      "name": "crossChainContract",
      "outputs": [
        {
          "internalType": "contract ICrossChain",
          "name": "",
          "type": "address"
        }
      ],
      "stateMutability": "view",
      "type": "function",
      "constant": true
    },
    {
      "inputs": [
        {
          "internalType": "string",
          "name": "",
          "type": "string"
        },
        {
          "internalType": "string",
          "name": "",
          "type": "string"
        }
      ],
      "name": "destnContractMap",
      "outputs": [
        {
          "internalType": "bytes",
          "name": "contractAddress",
          "type": "bytes"
        },
        {
          "internalType": "bytes",
          "name": "funcName",
          "type": "bytes"
        },
        {
          "internalType": "bool",
          "name": "used",
          "type": "bool"
        }
      ],
      "stateMutability": "view",
      "type": "function",
      "constant": true
    },
    {
      "inputs": [],
      "name": "getContext",
      "outputs": [
        {
          "components": [
            {
              "internalType": "uint256",
              "name": "id",
              "type": "uint256"
            },
            {
              "internalType": "string",
              "name": "fromChain",
              "type": "string"
            },
            {
              "internalType": "bytes",
              "name": "sender",
              "type": "bytes"
            },
            {
              "internalType": "bytes",
              "name": "signer",
              "type": "bytes"
            },
            {
              "components": [
                {
                  "internalType": "enum SQoSType",
                  "name": "t",
                  "type": "uint8"
                },
                {
                  "internalType": "bytes",
                  "name": "v",
                  "type": "bytes"
                }
              ],
              "internalType": "struct SQoS[]",
              "name": "sqos",
              "type": "tuple[]"
            },
            {
              "internalType": "address",
              "name": "contractAddress",
              "type": "address"
            },
            {
              "internalType": "bytes4",
              "name": "action",
              "type": "bytes4"
            },
            {
              "components": [
                {
                  "internalType": "uint256",
                  "name": "id",
                  "type": "uint256"
                },
                {
                  "internalType": "uint8",
                  "name": "sessionType",
                  "type": "uint8"
                },
                {
                  "internalType": "bytes",
                  "name": "callback",
                  "type": "bytes"
                },
                {
                  "internalType": "bytes",
                  "name": "commitment",
                  "type": "bytes"
                },
                {
                  "internalType": "bytes",
                  "name": "answer",
                  "type": "bytes"
                }
              ],
              "internalType": "struct Session",
              "name": "session",
              "type": "tuple"
            }
          ],
          "internalType": "struct SimplifiedMessage",
          "name": "",
          "type": "tuple"
        }
      ],
      "stateMutability": "view",
      "type": "function",
      "constant": true
    },
    {
      "inputs": [
        {
          "internalType": "string",
          "name": "",
          "type": "string"
        },
        {
          "internalType": "uint256",
          "name": "",
          "type": "uint256"
        }
      ],
      "name": "greetings",
      "outputs": [
        {
          "internalType": "string",
          "name": "fromChain",
          "type": "string"
        },
        {
          "internalType": "string",
          "name": "title",
          "type": "string"
        },
        {
          "internalType": "string",
          "name": "content",
          "type": "string"
        },
        {
          "internalType": "string",
          "name": "date",
          "type": "string"
        },
        {
          "internalType": "uint256",
          "name": "session",
          "type": "uint256"
        }
      ],
      "stateMutability": "view",
      "type": "function",
      "constant": true
    },
    {
      "inputs": [],
      "name": "owner",
      "outputs": [
        {
          "internalType": "address",
          "name": "",
          "type": "address"
        }
      ],
      "stateMutability": "view",
      "type": "function",
      "constant": true
    },
    {
      "inputs": [
        {
          "internalType": "string",
          "name": "",
          "type": "string"
        },
        {
          "internalType": "bytes4",
          "name": "",
          "type": "bytes4"
        }
      ],
      "name": "permittedContractMap",
      "outputs": [
        {
          "internalType": "string",
          "name": "",
          "type": "string"
        }
      ],
      "stateMutability": "view",
      "type": "function",
      "constant": true
    },
    {
      "inputs": [],
      "name": "renounceOwnership",
      "outputs": [],
      "stateMutability": "nonpayable",
      "type": "function"
    },
    {
      "inputs": [
        {
          "internalType": "address",
          "name": "_address",
          "type": "address"
        }
      ],
      "name": "setCrossChainContract",
      "outputs": [],
      "stateMutability": "nonpayable",
      "type": "function"
    },
    {
      "inputs": [
        {
          "internalType": "address",
          "name": "newOwner",
          "type": "address"
        }
      ],
      "name": "transferOwnership",
      "outputs": [],
      "stateMutability": "nonpayable",
      "type": "function"
    },
    {
      "inputs": [
        {
          "components": [
            {
              "components": [
                {
                  "internalType": "string",
                  "name": "name",
                  "type": "string"
                },
                {
                  "internalType": "enum MsgType",
                  "name": "msgType",
                  "type": "uint8"
                },
                {
                  "internalType": "bytes",
                  "name": "value",
                  "type": "bytes"
                }
              ],
              "internalType": "struct PayloadItem[]",
              "name": "items",
              "type": "tuple[]"
            }
          ],
          "internalType": "struct Payload",
          "name": "_payload",
          "type": "tuple"
        }
      ],
      "name": "receiveGreeting",
      "outputs": [
        {
          "internalType": "uint256",
          "name": "",
          "type": "uint256"
        }
      ],
      "stateMutability": "nonpayable",
      "type": "function"
    },
    {
      "inputs": [
        {
          "internalType": "string",
          "name": "_toChain",
          "type": "string"
        },
        {
          "internalType": "string[]",
          "name": "_greeting",
          "type": "string[]"
        }
      ],
      "name": "sendGreeting",
      "outputs": [],
      "stateMutability": "nonpayable",
      "type": "function"
    },
    {
      "inputs": [
        {
          "internalType": "string",
          "name": "_chainName",
          "type": "string"
        }
      ],
      "name": "clear",
      "outputs": [],
      "stateMutability": "nonpayable",
      "type": "function"
    },
    {
      "inputs": [
        {
          "internalType": "string",
          "name": "_chainName",
          "type": "string"
        }
      ],
      "name": "getGreetings",
      "outputs": [
        {
          "components": [
            {
              "internalType": "string",
              "name": "fromChain",
              "type": "string"
            },
            {
              "internalType": "string",
              "name": "title",
              "type": "string"
            },
            {
              "internalType": "string",
              "name": "content",
              "type": "string"
            },
            {
              "internalType": "string",
              "name": "date",
              "type": "string"
            },
            {
              "internalType": "uint256",
              "name": "session",
              "type": "uint256"
            }
          ],
          "internalType": "struct Greetings.Greeting[]",
          "name": "",
          "type": "tuple[]"
        }
      ],
      "stateMutability": "view",
      "type": "function",
      "constant": true
    },
    {
      "inputs": [
        {
          "internalType": "string",
          "name": "_funcName",
          "type": "string"
        },
        {
          "internalType": "string",
          "name": "_toChain",
          "type": "string"
        },
        {
          "internalType": "bytes",
          "name": "_contractAddress",
          "type": "bytes"
        },
        {
          "internalType": "bytes",
          "name": "_contractFuncName",
          "type": "bytes"
        }
      ],
      "name": "registerDestnContract",
      "outputs": [],
      "stateMutability": "nonpayable",
      "type": "function"
    },
    {
      "inputs": [
        {
          "internalType": "string",
          "name": "_chainName",
          "type": "string"
        },
        {
          "internalType": "string",
          "name": "_sender",
          "type": "string"
        },
        {
          "internalType": "bytes4",
          "name": "_funcName",
          "type": "bytes4"
        }
      ],
      "name": "registerPermittedContract",
      "outputs": [],
      "stateMutability": "nonpayable",
      "type": "function"
    },
    {
      "inputs": [
        {
          "internalType": "string",
          "name": "_chainName",
          "type": "string"
        },
        {
          "internalType": "bytes4",
          "name": "_funcName",
          "type": "bytes4"
        },
        {
          "internalType": "bytes",
          "name": "_sender",
          "type": "bytes"
        }
      ],
      "name": "verify",
      "outputs": [
        {
          "internalType": "bool",
          "name": "",
          "type": "bool"
        }
      ],
      "stateMutability": "view",
      "type": "function",
      "constant": true
    }
  ],
  "bytecode": "0x608060405234801561001057600080fd5b5061001a3361001f565b61006f565b600080546001600160a01b038381166001600160a01b0319831681178455604051919092169283917f8be0079c531659141344cd1fd0a4f28419497f9722a3daafe3b4186f6b6457e09190a35050565b6125e48061007e6000396000f3fe608060405234801561001057600080fd5b50600436106101005760003560e01c80638564441511610097578063da1e3af811610066578063da1e3af81461024e578063dbc90de11461026e578063f2fde38b14610281578063f50db5071461029457600080fd5b806385644415146101e35780638da5cb5b146101f6578063bd0bbc471461021b578063c5f200ed1461022e57600080fd5b80634944e686116100d35780634944e6861461016c5780636ec039f414610195578063715018a6146101b957806380899bba146101c157600080fd5b8063127f0f071461010557806316cf503e1461012357806318d72b54146101385780632d4368221461014b575b600080fd5b61010d6102a7565b60405161011a9190611698565b60405180910390f35b6101366101313660046117bb565b61032f565b005b610136610146366004611811565b610367565b61015e610159366004611835565b610391565b60405190815260200161011a565b61018561017a366004611885565b600195945050505050565b604051901515815260200161011a565b6101a86101a3366004611a39565b61055a565b60405161011a959493929190611a7d565b6101366107dc565b6101d46101cf366004611add565b6107f0565b60405161011a93929190611b40565b6101366101f1366004611b78565b61094d565b6000546001600160a01b03165b6040516001600160a01b03909116815260200161011a565b610136610229366004611bfb565b6109a7565b61024161023c366004611c94565b610d48565b60405161011a9190611ce5565b61026161025c3660046117bb565b610dfd565b60405161011a9190611cf8565b600154610203906001600160a01b031681565b61013661028f366004611811565b6110cf565b6101366102a2366004611dbf565b611148565b6102af611276565b600160009054906101000a90046001600160a01b03166001600160a01b0316639af7a48c6040518163ffffffff1660e01b8152600401600060405180830381865afa158015610302573d6000803e3d6000fd5b505050506040513d6000823e601f3d908101601f1916820160405261032a91908101906120a6565b905090565b6103376111cc565b600482826040516103499291906121cf565b908152602001604051809103902060006103639190611300565b5050565b61036f6111cc565b600180546001600160a01b0319166001600160a01b0392909216919091179055565b6001546000906001600160a01b031633146103ae57506064919050565b60006103b86102a7565b905060006103c684806121df565b60008181106103d7576103d7612228565b90506020028101906103e9919061223e565b6103f790604081019061225e565b81019061040491906122a4565b905060006040518060a001604052808360008151811061042657610426612228565b602002602001015181526020018360018151811061044657610446612228565b602002602001015181526020018360028151811061046657610466612228565b602002602001015181526020018360038151811061048657610486612228565b6020026020010151815260200184600001518152509050600483602001516040516104b19190612354565b9081526040516020918190038201902080546001810182556000918252908290208351805185946005909402909201926104f092849290910190611321565b5060208281015180516105099260018501920190611321565b5060408201518051610525916002840191602090910190611321565b5060608201518051610541916003840191602090910190611321565b5060808201518160040155505060009350505050919050565b8151602081840181018051600482529282019185019190912091905280548290811061058557600080fd5b9060005260206000209060050201600091509150508060000180546105a990612366565b80601f01602080910402602001604051908101604052809291908181526020018280546105d590612366565b80156106225780601f106105f757610100808354040283529160200191610622565b820191906000526020600020905b81548152906001019060200180831161060557829003601f168201915b50505050509080600101805461063790612366565b80601f016020809104026020016040519081016040528092919081815260200182805461066390612366565b80156106b05780601f10610685576101008083540402835291602001916106b0565b820191906000526020600020905b81548152906001019060200180831161069357829003601f168201915b5050505050908060020180546106c590612366565b80601f01602080910402602001604051908101604052809291908181526020018280546106f190612366565b801561073e5780601f106107135761010080835404028352916020019161073e565b820191906000526020600020905b81548152906001019060200180831161072157829003601f168201915b50505050509080600301805461075390612366565b80601f016020809104026020016040519081016040528092919081815260200182805461077f90612366565b80156107cc5780601f106107a1576101008083540402835291602001916107cc565b820191906000526020600020905b8154815290600101906020018083116107af57829003601f168201915b5050505050908060040154905085565b6107e46111cc565b6107ee6000611226565b565b8151602081840181018051600282529282019482019490942091909352815180830184018051928152908401929093019190912091528054819061083390612366565b80601f016020809104026020016040519081016040528092919081815260200182805461085f90612366565b80156108ac5780601f10610881576101008083540402835291602001916108ac565b820191906000526020600020905b81548152906001019060200180831161088f57829003601f168201915b5050505050908060010180546108c190612366565b80601f01602080910402602001604051908101604052809291908181526020018280546108ed90612366565b801561093a5780601f1061090f5761010080835404028352916020019161093a565b820191906000526020600020905b81548152906001019060200180831161091d57829003601f168201915b5050506002909301549192505060ff1683565b6109556111cc565b6000600386866040516109699291906121cf565b90815260408051602092819003830190206001600160e01b03198516600090815292819052912090915061099e9085856113a5565b50505050505050565b6000600285856040516109bb9291906121cf565b9081526040519081900360200181206e726563656976654772656574696e6760881b825291506000908290600f01908152604051908190036020019020600281015490915060ff16610a4c5760405162461bcd60e51b81526020600482015260156024820152741858dd1a5bdb881b9bdd081c9959da5cdd195c9959605a1b60448201526064015b60405180910390fd5b6040805160208101825260608152815160018082528184019093529091816020015b60408051606080820183528082526000602083015291810191909152815260200190600190039081610a6e5750508082528051600091908290610ab357610ab3612228565b60209081029190910181015160408051808201825260088152676772656574696e6760c01b818501528252600b8284015251909250610af69188918891016123ca565b60408051601f19818403018152918152820152610b11611419565b88888080601f016020809104026020016040519081016040528093929190818152602001838380828437600092018290525093855250506040805160a0810182528381526020808201859052825180820184528581528284015282518082018452858152606080840191909152835191820184529481526080820152838501528051928301905250845481908690610ba890612366565b80601f0160208091040260200160405190810160405280929190818152602001828054610bd490612366565b8015610c215780601f10610bf657610100808354040283529160200191610c21565b820191906000526020600020905b815481529060010190602001808311610c0457829003601f168201915b50505050508152602001856001018054610c3a90612366565b80601f0160208091040260200160405190810160405280929190818152602001828054610c6690612366565b8015610cb35780601f10610c8857610100808354040283529160200191610cb3565b820191906000526020600020905b815481529060010190602001808311610c9657829003601f168201915b50505091835250506020018490526040808301919091526001549051632f260fd760e01b81526001600160a01b0390911690632f260fd790610cf9908490600401612464565b6020604051808303816000875af1158015610d18573d6000803e3d6000fd5b505050506040513d601f19601f82011682018060405250810190610d3c9190612595565b50505050505050505050565b81516020818401810180516003825292820194820194909420919093529091526000908152604090208054610d7c90612366565b80601f0160208091040260200160405190810160405280929190818152602001828054610da890612366565b8015610df55780601f10610dca57610100808354040283529160200191610df5565b820191906000526020600020905b815481529060010190602001808311610dd857829003601f168201915b505050505081565b606060048383604051610e119291906121cf565b9081526020016040518091039020805480602002602001604051908101604052809291908181526020016000905b828210156110c357838290600052602060002090600502016040518060a0016040529081600082018054610e7290612366565b80601f0160208091040260200160405190810160405280929190818152602001828054610e9e90612366565b8015610eeb5780601f10610ec057610100808354040283529160200191610eeb565b820191906000526020600020905b815481529060010190602001808311610ece57829003601f168201915b50505050508152602001600182018054610f0490612366565b80601f0160208091040260200160405190810160405280929190818152602001828054610f3090612366565b8015610f7d5780601f10610f5257610100808354040283529160200191610f7d565b820191906000526020600020905b815481529060010190602001808311610f6057829003601f168201915b50505050508152602001600282018054610f9690612366565b80601f0160208091040260200160405190810160405280929190818152602001828054610fc290612366565b801561100f5780601f10610fe45761010080835404028352916020019161100f565b820191906000526020600020905b815481529060010190602001808311610ff257829003601f168201915b5050505050815260200160038201805461102890612366565b80601f016020809104026020016040519081016040528092919081815260200182805461105490612366565b80156110a15780601f10611076576101008083540402835291602001916110a1565b820191906000526020600020905b81548152906001019060200180831161108457829003601f168201915b5050505050815260200160048201548152505081526020019060010190610e3f565b50505050905092915050565b6110d76111cc565b6001600160a01b03811661113c5760405162461bcd60e51b815260206004820152602660248201527f4f776e61626c653a206e6577206f776e657220697320746865207a65726f206160448201526564647265737360d01b6064820152608401610a43565b61114581611226565b50565b6111506111cc565b6000600287876040516111649291906121cf565b908152602001604051809103902090506000818a8a6040516111879291906121cf565b90815260405190819003602001902090506111a38187876113a5565b506111b26001820185856113a5565b50600201805460ff19166001179055505050505050505050565b6000546001600160a01b031633146107ee5760405162461bcd60e51b815260206004820181905260248201527f4f776e61626c653a2063616c6c6572206973206e6f7420746865206f776e65726044820152606401610a43565b600080546001600160a01b038381166001600160a01b0319831681178455604051919092169283917f8be0079c531659141344cd1fd0a4f28419497f9722a3daafe3b4186f6b6457e09190a35050565b604051806101000160405280600081526020016060815260200160608152602001606081526020016060815260200160006001600160a01b0316815260200160006001600160e01b03191681526020016112fb6040518060a0016040528060008152602001600060ff1681526020016060815260200160608152602001606081525090565b905290565b50805460008255600502906000526020600020908101906111459190611474565b82805461132d90612366565b90600052602060002090601f01602090048101928261134f5760008555611395565b82601f1061136857805160ff1916838001178555611395565b82800160010185558215611395579182015b8281111561139557825182559160200191906001019061137a565b506113a19291506114c2565b5090565b8280546113b190612366565b90600052602060002090601f0160209004810192826113d35760008555611395565b82601f106113ec5782800160ff19823516178555611395565b82800160010185558215611395579182015b828111156113955782358255916020019190600101906113fe565b6040518060800160405280606081526020016060815260200161143a6114d7565b81526020016112fb6040518060a0016040528060008152602001600060ff1681526020016060815260200160608152602001606081525090565b808211156113a15760006114888282611506565b611496600183016000611506565b6114a4600283016000611506565b6114b2600383016000611506565b5060006004820155600501611474565b5b808211156113a157600081556001016114c3565b604051806060016040528060608152602001606081526020016112fb6040518060200160405280606081525090565b50805461151290612366565b6000825580601f10611522575050565b601f01602090049060005260206000209081019061114591906114c2565b60005b8381101561155b578181015183820152602001611543565b8381111561156a576000848401525b50505050565b60008151808452611588816020860160208601611540565b601f01601f19169290920160200192915050565b634e487b7160e01b600052602160045260246000fd5b600082825180855260208086019550808260051b84010181860160005b8481101561162357601f19868403018952815160408151600a81106115f6576115f661159c565b8552908501518585018290529061160f81860183611570565b9a86019a94505050908301906001016115cf565b5090979650505050505050565b8051825260ff60208201511660208301526000604082015160a0604085015261165c60a0850182611570565b9050606083015184820360608601526116758282611570565b9150506080830151848203608086015261168f8282611570565b95945050505050565b6020815281516020820152600060208301516101008060408501526116c1610120850183611570565b91506040850151601f19808685030160608701526116df8483611570565b935060608701519150808685030160808701526116fc8483611570565b935060808701519150808685030160a087015261171984836115b2565b935060a0870151915061173760c08701836001600160a01b03169052565b60c08701516001600160e01b0319811660e0880152915060e08701519150808685030183870152506117698382611630565b9695505050505050565b60008083601f84011261178557600080fd5b5081356001600160401b0381111561179c57600080fd5b6020830191508360208285010111156117b457600080fd5b9250929050565b600080602083850312156117ce57600080fd5b82356001600160401b038111156117e457600080fd5b6117f085828601611773565b90969095509350505050565b6001600160a01b038116811461114557600080fd5b60006020828403121561182357600080fd5b813561182e816117fc565b9392505050565b60006020828403121561184757600080fd5b81356001600160401b0381111561185d57600080fd5b82016020818503121561182e57600080fd5b6001600160e01b03198116811461114557600080fd5b60008060008060006060868803121561189d57600080fd5b85356001600160401b03808211156118b457600080fd5b6118c089838a01611773565b9097509550602088013591506118d58261186f565b909350604087013590808211156118eb57600080fd5b506118f888828901611773565b969995985093965092949392505050565b634e487b7160e01b600052604160045260246000fd5b604080519081016001600160401b038111828210171561194157611941611909565b60405290565b60405160a081016001600160401b038111828210171561194157611941611909565b60405161010081016001600160401b038111828210171561194157611941611909565b604051601f8201601f191681016001600160401b03811182821017156119b4576119b4611909565b604052919050565b60006001600160401b038211156119d5576119d5611909565b50601f01601f191660200190565b600082601f8301126119f457600080fd5b8135611a07611a02826119bc565b61198c565b818152846020838601011115611a1c57600080fd5b816020850160208301376000918101602001919091529392505050565b60008060408385031215611a4c57600080fd5b82356001600160401b03811115611a6257600080fd5b611a6e858286016119e3565b95602094909401359450505050565b60a081526000611a9060a0830188611570565b8281036020840152611aa28188611570565b90508281036040840152611ab68187611570565b90508281036060840152611aca8186611570565b9150508260808301529695505050505050565b60008060408385031215611af057600080fd5b82356001600160401b0380821115611b0757600080fd5b611b13868387016119e3565b93506020850135915080821115611b2957600080fd5b50611b36858286016119e3565b9150509250929050565b606081526000611b536060830186611570565b8281036020840152611b658186611570565b9150508215156040830152949350505050565b600080600080600060608688031215611b9057600080fd5b85356001600160401b0380821115611ba757600080fd5b611bb389838a01611773565b90975095506020880135915080821115611bcc57600080fd5b50611bd988828901611773565b9094509250506040860135611bed8161186f565b809150509295509295909350565b60008060008060408587031215611c1157600080fd5b84356001600160401b0380821115611c2857600080fd5b611c3488838901611773565b90965094506020870135915080821115611c4d57600080fd5b818701915087601f830112611c6157600080fd5b813581811115611c7057600080fd5b8860208260051b8501011115611c8557600080fd5b95989497505060200194505050565b60008060408385031215611ca757600080fd5b82356001600160401b03811115611cbd57600080fd5b611cc9858286016119e3565b9250506020830135611cda8161186f565b809150509250929050565b60208152600061182e6020830184611570565b60006020808301818452808551808352604092508286019150828160051b87010184880160005b83811015611db157603f19898403018552815160a08151818652611d4582870182611570565b915050888201518582038a870152611d5d8282611570565b9150508782015185820389870152611d758282611570565b91505060608083015186830382880152611d8f8382611570565b6080948501519790940196909652505094870194925090860190600101611d1f565b509098975050505050505050565b6000806000806000806000806080898b031215611ddb57600080fd5b88356001600160401b0380821115611df257600080fd5b611dfe8c838d01611773565b909a50985060208b0135915080821115611e1757600080fd5b611e238c838d01611773565b909850965060408b0135915080821115611e3c57600080fd5b611e488c838d01611773565b909650945060608b0135915080821115611e6157600080fd5b50611e6e8b828c01611773565b999c989b5096995094979396929594505050565b600082601f830112611e9357600080fd5b8151611ea1611a02826119bc565b818152846020838601011115611eb657600080fd5b611ec7826020830160208701611540565b949350505050565b60006001600160401b03821115611ee857611ee8611909565b5060051b60200190565b600082601f830112611f0357600080fd5b81516020611f13611a0283611ecf565b82815260059290921b84018101918181019086841115611f3257600080fd5b8286015b84811015611fc15780516001600160401b0380821115611f565760008081fd5b908801906040828b03601f1901811315611f705760008081fd5b611f7861191f565b87840151600a8110611f8a5760008081fd5b8152908301519082821115611f9f5760008081fd5b611fad8c8984870101611e82565b818901528652505050918301918301611f36565b509695505050505050565b8051611fd7816117fc565b919050565b8051611fd78161186f565b805160ff81168114611fd757600080fd5b600060a0828403121561200a57600080fd5b612012611947565b90508151815261202460208301611fe7565b602082015260408201516001600160401b038082111561204357600080fd5b61204f85838601611e82565b6040840152606084015191508082111561206857600080fd5b61207485838601611e82565b6060840152608084015191508082111561208d57600080fd5b5061209a84828501611e82565b60808301525092915050565b6000602082840312156120b857600080fd5b81516001600160401b03808211156120cf57600080fd5b9083019061010082860312156120e457600080fd5b6120ec611969565b8251815260208301518281111561210257600080fd5b61210e87828601611e82565b60208301525060408301518281111561212657600080fd5b61213287828601611e82565b60408301525060608301518281111561214a57600080fd5b61215687828601611e82565b60608301525060808301518281111561216e57600080fd5b61217a87828601611ef2565b60808301525061218c60a08401611fcc565b60a082015261219d60c08401611fdc565b60c082015260e0830151828111156121b457600080fd5b6121c087828601611ff8565b60e08301525095945050505050565b8183823760009101908152919050565b6000808335601e198436030181126121f657600080fd5b8301803591506001600160401b0382111561221057600080fd5b6020019150600581901b36038213156117b457600080fd5b634e487b7160e01b600052603260045260246000fd5b60008235605e1983360301811261225457600080fd5b9190910192915050565b6000808335601e1984360301811261227557600080fd5b8301803591506001600160401b0382111561228f57600080fd5b6020019150368190038213156117b457600080fd5b600060208083850312156122b757600080fd5b82356001600160401b03808211156122ce57600080fd5b818501915085601f8301126122e257600080fd5b81356122f0611a0282611ecf565b81815260059190911b8301840190848101908883111561230f57600080fd5b8585015b838110156123475780358581111561232b5760008081fd5b6123398b89838a01016119e3565b845250918601918601612313565b5098975050505050505050565b60008251612254818460208701611540565b600181811c9082168061237a57607f821691505b6020821081141561239b57634e487b7160e01b600052602260045260246000fd5b50919050565b81835281816020850137506000828201602090810191909152601f909101601f19169091010190565b60208082528181018390526000906040600585901b8401810190840186845b8781101561245757868403603f190183528135368a9003601e1901811261240f57600080fd5b890180356001600160401b0381111561242757600080fd5b8036038b131561243657600080fd5b61244386828985016123a1565b9550505091840191908401906001016123e9565b5091979650505050505050565b60006020808352835160808285015261248060a0850182611570565b905081850151601f19604081878503018188015261249e84846115b2565b9350808801519250606082888603018189015283518186526124c282870182611570565b905086850151868203888801526124d98282611570565b9584015187870397850197909752505093518584528051868501819052600581901b850183019591870194908382019060005b8181101561257457838903603f1901835287518051868b52612530878c0182611570565b90508b820151601781106125465761254661159c565b8b8d0152908701518a8203888c0152906125608183611570565b9a505050968901969189019160010161250c565b50505050880151878503909201608088015250925061168f90508183611630565b6000602082840312156125a757600080fd5b505191905056fea2646970667358221220f791569508a5f785d5a7566563473dae80c4ce8de31e9660a7db3430d39983d264736f6c634300080a0033",
  "immutableReferences": {},
  "source": "// SPDX-License-Identifier: MIT\npragma solidity >=0.8.0 <0.9.0;\n\nimport \"@openzeppelin/contracts/access/Ownable.sol\";\nimport \"./CrossChain/ContractBase.sol\";\n\nuint256 constant CALLER_NOT_CROSS_CHAIN_CONTRACT = 100;\n\n// `Greetings` is an example of multi-chain services with necessary implementations in `ContractBase`, without which the user defined contract cannot work.\n// And besides, `registerDestnContract` and `registerPermittedContract` are templete implementations make the management of some user defined informations easier.\ncontract Greetings is ContractBase {\n    // Destination contract info\n    struct DestnContract {\n        bytes contractAddress; // destination contract address\n        bytes funcName; // destination contract action name\n        bool used;\n    }\n\n    // greeting\n    struct Greeting {\n        string fromChain;\n        string title;\n        string content;\n        string date;\n        uint256 session;\n    }\n\n    // Cross-chain destination contract map\n    mapping(string => mapping(string => DestnContract)) public destnContractMap;\n\n    // Cross-chain permitted contract map\n    mapping(string => mapping(bytes4 => string)) public permittedContractMap;\n\n    // Store greetings\n    mapping(string => Greeting[]) public greetings;\n\n    /**\n     * Receive greeting info from other chains\n     * @param _payload - payload which contains greeting message\n     */\n    function receiveGreeting(Payload calldata _payload) public returns (uint256) {\n        if (msg.sender != address(crossChainContract)) {\n            return CALLER_NOT_CROSS_CHAIN_CONTRACT;\n        }\n\n        // `context` used for verify the operation authority\n        SimplifiedMessage memory context = getContext();\n        // verify sqos\n        // require(context.sqos.reveal == 1, \"SQoS invalid!\");\n\n        (string[] memory _value) = abi.decode(_payload.items[0].value, (string[]));\n        Greeting memory _greeting = Greeting(_value[0], _value[1], _value[2], _value[3], context.id);\n        greetings[context.fromChain].push(_greeting);\n\n        return 0;\n    }\n\n    /**\n     * Send greeting info to other chains\n     * @param _toChain - to chain name\n     * @param _greeting - greeting sent to other chain\n     */\n    function sendGreeting(\n        string calldata _toChain,\n        string[] calldata _greeting\n    ) external {\n        mapping(string => DestnContract) storage map = destnContractMap[_toChain];\n        DestnContract storage destnContract = map[\"receiveGreeting\"];\n        require(destnContract.used, \"action not registered\");\n\n        // Construct payload\n        Payload memory data;\n        data.items = new PayloadItem[](1);\n        PayloadItem memory item = data.items[0];\n        item.name = \"greeting\";\n        item.msgType = MsgType.EvmStringArray;\n        item.value = abi.encode(_greeting);\n\n        ISentMessage memory message;\n        message.toChain = _toChain;\n        message.session = Session(0, 0, \"\", \"\", \"\");\n        message.content = Content(destnContract.contractAddress, destnContract.funcName, data);\n\n        crossChainContract.sendMessage(message);\n    }\n\n    function clear(string calldata _chainName) external onlyOwner {\n        delete greetings[_chainName];\n    }\n\n    function getGreetings(string calldata _chainName) external view returns (Greeting[] memory) {\n        return greetings[_chainName];\n    }\n\n    ///////////////////////////////////////////////\n    /////    Send messages to other chains   //////\n    ///////////////////////////////////////////////\n\n    /**\n     * Register destination contract info\n     * @param _funcName - function name to be called\n     * @param _toChain - destination chain name\n     * @param _contractAddress - destination contract address\n     * @param _contractFuncName - contract function name\n     */\n    function registerDestnContract(\n        string calldata _funcName,\n        string calldata _toChain,\n        bytes calldata _contractAddress,\n        bytes calldata _contractFuncName\n    ) external onlyOwner {\n        mapping(string => DestnContract) storage map = destnContractMap[_toChain];\n        DestnContract storage destnContract = map[_funcName];\n        destnContract.contractAddress = _contractAddress;\n        destnContract.funcName = _contractFuncName;\n        destnContract.used = true;\n    }\n\n    ///////////////////////////////////////////////\n    ///    Receive messages from other chains   ///\n    ///////////////////////////////////////////////\n\n    /**\n     * Authorize contracts of other chains to call the functions of this contract\n     * @param _chainName - from chain name\n     * @param _sender - sender of cross chain message\n     * @param _funcName - action name which allowed to be invoked\n     */\n    function registerPermittedContract(\n        string calldata _chainName,\n        string calldata _sender,\n        bytes4 _funcName\n    ) external onlyOwner {\n        mapping(bytes4 => string) storage map = permittedContractMap[\n            _chainName\n        ];\n        map[_funcName] = _sender;\n    }\n\n    /**\n     * This verify method will be invoked by the CrossChain contract automatically, ensure that only registered contract(registerSourceContract) calls are allowed\n     * @param _chainName - chain name of cross chain message\n     * @param _funcName - contract action name of cross chain message\n     * @param _sender - cross chain message sender\n     */\n    //  Will be deprecated soon\n    function verify(\n        string calldata _chainName,\n        bytes4 _funcName,\n        bytes calldata _sender\n    ) public view virtual returns (bool) {\n        // mapping(bytes4 => string) storage map = permittedContractMap[\n        //     _chainName\n        // ];\n        // string storage sender = map[_funcName];\n        // require(\n        //     keccak256(bytes(sender)) == keccak256(bytes(_sender)),\n        //     \"Sender does not match\"\n        // );\n        return true;\n    }\n}\n",
  "sourcePath": "/home/george/program/dante/solidity-contract-template/contracts/Greetings.sol",
  "compiler": {
    "name": "solc",
    "version": "0.8.10+commit.fc410830.Emscripten.clang"
  },
  "schemaVersion": "3.4.6",
  "updatedAt": "2022-09-20T15:02:01.527Z",
  "networkType": "ethereum",
  "devdoc": {
    "kind": "dev",
    "methods": {
      "owner()": {
        "details": "Returns the address of the current owner."
      },
      "receiveGreeting(((string,uint8,bytes)[]))": {
        "params": {
          "_payload": "- payload which contains greeting message"
        }
      },
      "registerDestnContract(string,string,bytes,bytes)": {
        "params": {
          "_contractAddress": "- destination contract address",
          "_contractFuncName": "- contract function name",
          "_funcName": "- function name to be called",
          "_toChain": "- destination chain name"
        }
      },
      "registerPermittedContract(string,string,bytes4)": {
        "params": {
          "_chainName": "- from chain name",
          "_funcName": "- action name which allowed to be invoked",
          "_sender": "- sender of cross chain message"
        }
      },
      "renounceOwnership()": {
        "details": "Leaves the contract without owner. It will not be possible to call `onlyOwner` functions anymore. Can only be called by the current owner. NOTE: Renouncing ownership will leave the contract without an owner, thereby removing any functionality that is only available to the owner."
      },
      "sendGreeting(string,string[])": {
        "params": {
          "_greeting": "- greeting sent to other chain",
          "_toChain": "- to chain name"
        }
      },
      "setCrossChainContract(address)": {
        "params": {
          "_address": "- cross chain contract address"
        }
      },
      "transferOwnership(address)": {
        "details": "Transfers ownership of the contract to a new account (`newOwner`). Can only be called by the current owner."
      },
      "verify(string,bytes4,bytes)": {
        "params": {
          "_chainName": "- chain name of cross chain message",
          "_funcName": "- contract action name of cross chain message",
          "_sender": "- cross chain message sender"
        }
      }
    },
    "version": 1
  },
  "userdoc": {
    "kind": "user",
    "methods": {
      "receiveGreeting(((string,uint8,bytes)[]))": {
        "notice": "Receive greeting info from other chains"
      },
      "registerDestnContract(string,string,bytes,bytes)": {
        "notice": "Register destination contract info"
      },
      "registerPermittedContract(string,string,bytes4)": {
        "notice": "Authorize contracts of other chains to call the functions of this contract"
      },
      "sendGreeting(string,string[])": {
        "notice": "Send greeting info to other chains"
      },
      "setCrossChainContract(address)": {
        "notice": "Set cross chain contract"
      },
      "verify(string,bytes4,bytes)": {
        "notice": "This verify method will be invoked by the CrossChain contract automatically, ensure that only registered contract(registerSourceContract) calls are allowed"
      }
    },
    "version": 1
  }
}