{
  "contractName": "Greetings",
  "abi": [
    {
      "anonymous": false,
      "inputs": [
        {
          "indexed": true,
          "internalType": "address",
          "name": "previousOwner",
          "type": "address"
        },
        {
          "indexed": true,
          "internalType": "address",
          "name": "newOwner",
          "type": "address"
        }
      ],
      "name": "OwnershipTransferred",
      "type": "event"
    },
    {
      "inputs": [],
      "name": "crossChainContract",
      "outputs": [
        {
          "internalType": "contract ICrossChain",
          "name": "",
          "type": "address"
        }
      ],
      "stateMutability": "view",
      "type": "function",
      "constant": true
    },
    {
      "inputs": [
        {
          "internalType": "string",
          "name": "",
          "type": "string"
        },
        {
          "internalType": "string",
          "name": "",
          "type": "string"
        }
      ],
      "name": "destnContractMap",
      "outputs": [
        {
          "internalType": "string",
          "name": "contractAddress",
          "type": "string"
        },
        {
          "internalType": "string",
          "name": "funcName",
          "type": "string"
        },
        {
          "internalType": "bool",
          "name": "used",
          "type": "bool"
        }
      ],
      "stateMutability": "view",
      "type": "function",
      "constant": true
    },
    {
      "inputs": [],
      "name": "getContext",
      "outputs": [
        {
          "components": [
            {
              "internalType": "uint256",
              "name": "id",
              "type": "uint256"
            },
            {
              "internalType": "string",
              "name": "fromChain",
              "type": "string"
            },
            {
              "internalType": "string",
              "name": "sender",
              "type": "string"
            },
            {
              "internalType": "string",
              "name": "signer",
              "type": "string"
            },
            {
              "components": [
                {
                  "internalType": "enum SQoSType",
                  "name": "t",
                  "type": "uint8"
                },
                {
                  "internalType": "string",
                  "name": "v",
                  "type": "string"
                }
              ],
              "internalType": "struct SQoS[]",
              "name": "sqos",
              "type": "tuple[]"
            },
            {
              "internalType": "address",
              "name": "contractAddress",
              "type": "address"
            },
            {
              "internalType": "bytes4",
              "name": "action",
              "type": "bytes4"
            },
            {
              "components": [
                {
                  "internalType": "uint256",
                  "name": "id",
                  "type": "uint256"
                },
                {
                  "internalType": "bytes",
                  "name": "callback",
                  "type": "bytes"
                }
              ],
              "internalType": "struct Session",
              "name": "session",
              "type": "tuple"
            }
          ],
          "internalType": "struct SimplifiedMessage",
          "name": "",
          "type": "tuple"
        }
      ],
      "stateMutability": "view",
      "type": "function",
      "constant": true
    },
    {
      "inputs": [
        {
          "internalType": "string",
          "name": "",
          "type": "string"
        },
        {
          "internalType": "uint256",
          "name": "",
          "type": "uint256"
        }
      ],
      "name": "greetings",
      "outputs": [
        {
          "internalType": "string",
          "name": "fromChain",
          "type": "string"
        },
        {
          "internalType": "string",
          "name": "title",
          "type": "string"
        },
        {
          "internalType": "string",
          "name": "content",
          "type": "string"
        },
        {
          "internalType": "string",
          "name": "date",
          "type": "string"
        }
      ],
      "stateMutability": "view",
      "type": "function",
      "constant": true
    },
    {
      "inputs": [],
      "name": "owner",
      "outputs": [
        {
          "internalType": "address",
          "name": "",
          "type": "address"
        }
      ],
      "stateMutability": "view",
      "type": "function",
      "constant": true
    },
    {
      "inputs": [
        {
          "internalType": "string",
          "name": "",
          "type": "string"
        },
        {
          "internalType": "bytes4",
          "name": "",
          "type": "bytes4"
        }
      ],
      "name": "permittedContractMap",
      "outputs": [
        {
          "internalType": "string",
          "name": "",
          "type": "string"
        }
      ],
      "stateMutability": "view",
      "type": "function",
      "constant": true
    },
    {
      "inputs": [],
      "name": "renounceOwnership",
      "outputs": [],
      "stateMutability": "nonpayable",
      "type": "function"
    },
    {
      "inputs": [
        {
          "internalType": "address",
          "name": "_address",
          "type": "address"
        }
      ],
      "name": "setCrossChainContract",
      "outputs": [],
      "stateMutability": "nonpayable",
      "type": "function"
    },
    {
      "inputs": [
        {
          "internalType": "address",
          "name": "newOwner",
          "type": "address"
        }
      ],
      "name": "transferOwnership",
      "outputs": [],
      "stateMutability": "nonpayable",
      "type": "function"
    },
    {
      "inputs": [
        {
          "components": [
            {
              "components": [
                {
                  "internalType": "string",
                  "name": "name",
                  "type": "string"
                },
                {
                  "internalType": "enum MsgType",
                  "name": "msgType",
                  "type": "uint8"
                },
                {
                  "internalType": "bytes",
                  "name": "value",
                  "type": "bytes"
                }
              ],
              "internalType": "struct PayloadItem[]",
              "name": "items",
              "type": "tuple[]"
            }
          ],
          "internalType": "struct Payload",
          "name": "_payload",
          "type": "tuple"
        }
      ],
      "name": "receiveGreeting",
      "outputs": [],
      "stateMutability": "nonpayable",
      "type": "function"
    },
    {
      "inputs": [
        {
          "internalType": "string",
          "name": "_toChain",
          "type": "string"
        },
        {
          "internalType": "string[]",
          "name": "_greeting",
          "type": "string[]"
        }
      ],
      "name": "sendGreeting",
      "outputs": [],
      "stateMutability": "nonpayable",
      "type": "function"
    },
    {
      "inputs": [
        {
          "internalType": "string",
          "name": "_funcName",
          "type": "string"
        },
        {
          "internalType": "string",
          "name": "_toChain",
          "type": "string"
        },
        {
          "internalType": "string",
          "name": "_contractAddress",
          "type": "string"
        },
        {
          "internalType": "string",
          "name": "_contractFuncName",
          "type": "string"
        }
      ],
      "name": "registerDestnContract",
      "outputs": [],
      "stateMutability": "nonpayable",
      "type": "function"
    },
    {
      "inputs": [
        {
          "internalType": "string",
          "name": "_chainName",
          "type": "string"
        },
        {
          "internalType": "string",
          "name": "_sender",
          "type": "string"
        },
        {
          "internalType": "bytes4",
          "name": "_funcName",
          "type": "bytes4"
        }
      ],
      "name": "registerPermittedContract",
      "outputs": [],
      "stateMutability": "nonpayable",
      "type": "function"
    },
    {
      "inputs": [
        {
          "internalType": "string",
          "name": "_chainName",
          "type": "string"
        },
        {
          "internalType": "bytes4",
          "name": "_funcName",
          "type": "bytes4"
        },
        {
          "internalType": "string",
          "name": "_sender",
          "type": "string"
        }
      ],
      "name": "verify",
      "outputs": [
        {
          "internalType": "bool",
          "name": "",
          "type": "bool"
        }
      ],
      "stateMutability": "view",
      "type": "function",
      "constant": true
    }
  ],
  "bytecode": "0x608060405234801561001057600080fd5b5061001a3361001f565b61006f565b600080546001600160a01b038381166001600160a01b0319831681178455604051919092169283917f8be0079c531659141344cd1fd0a4f28419497f9722a3daafe3b4186f6b6457e09190a35050565b61203a8061007e6000396000f3fe608060405234801561001057600080fd5b50600436106100ea5760003560e01c8063856444151161008c578063bd0bbc4711610066578063bd0bbc47146101f2578063c5f200ed14610205578063dbc90de114610225578063f2fde38b1461023857600080fd5b806385644415146101a75780638da5cb5b146101ba578063babe5dd6146101df57600080fd5b80632d436822116100c85780632d436822146101475780636ec039f41461015a578063715018a61461017d57806380899bba1461018557600080fd5b80630c5ae335146100ef578063127f0f071461011d57806318d72b5414610132575b600080fd5b6101086100fd366004611180565b600195945050505050565b60405190151581526020015b60405180910390f35b61012561024b565b604051610114919061131b565b61014561014036600461140b565b6102d3565b005b61014561015536600461142f565b610328565b61016d610168366004611577565b610507565b60405161011494939291906115bb565b61014561076a565b610198610193366004611613565b6107a0565b60405161011493929190611676565b6101456101b53660046116ae565b6108fd565b6000546001600160a01b03165b6040516001600160a01b039091168152602001610114565b6101456101ed366004611731565b610970565b6101456102003660046117f4565b610a16565b61021861021336600461188d565b610d91565b60405161011491906118de565b6001546101c7906001600160a01b031681565b61014561024636600461140b565b610e46565b610253610f31565b600160009054906101000a90046001600160a01b03166001600160a01b0316639af7a48c6040518163ffffffff1660e01b8152600401600060405180830381865afa1580156102a6573d6000803e3d6000fd5b505050506040513d6000823e601f3d908101601f191682016040526102ce9190810190611abe565b905090565b6000546001600160a01b031633146103065760405162461bcd60e51b81526004016102fd90611be7565b60405180910390fd5b600180546001600160a01b0319166001600160a01b0392909216919091179055565b6001546001600160a01b031633146103825760405162461bcd60e51b815260206004820181905260248201527f4c6f636b65723a2063616c6c6572206973206e6f742043726f7373436861696e60448201526064016102fd565b600061038c61024b565b9050600061039a8380611c1c565b60008181106103ab576103ab611c65565b90506020028101906103bd9190611c7b565b6103cb906040810190611c9b565b8101906103d89190611ce1565b905060006040518060800160405280836000815181106103fa576103fa611c65565b602002602001015181526020018360018151811061041a5761041a611c65565b602002602001015181526020018360028151811061043a5761043a611c65565b602002602001015181526020018360038151811061045a5761045a611c65565b60200260200101518152509050806004846020015160405161047c9190611d91565b908152604080516020928190038301902086516000908152908352208251805191926104ad92849290910190610fa3565b5060208281015180516104c69260018501920190610fa3565b50604082015180516104e2916002840191602090910190610fa3565b50606082015180516104fe916003840191602090910190610fa3565b50505050505050565b81516020818401810180516004825292820194820194909420919093529091526000908152604090208054819061053d90611da3565b80601f016020809104026020016040519081016040528092919081815260200182805461056990611da3565b80156105b65780601f1061058b576101008083540402835291602001916105b6565b820191906000526020600020905b81548152906001019060200180831161059957829003601f168201915b5050505050908060010180546105cb90611da3565b80601f01602080910402602001604051908101604052809291908181526020018280546105f790611da3565b80156106445780601f1061061957610100808354040283529160200191610644565b820191906000526020600020905b81548152906001019060200180831161062757829003601f168201915b50505050509080600201805461065990611da3565b80601f016020809104026020016040519081016040528092919081815260200182805461068590611da3565b80156106d25780601f106106a7576101008083540402835291602001916106d2565b820191906000526020600020905b8154815290600101906020018083116106b557829003601f168201915b5050505050908060030180546106e790611da3565b80601f016020809104026020016040519081016040528092919081815260200182805461071390611da3565b80156107605780601f1061073557610100808354040283529160200191610760565b820191906000526020600020905b81548152906001019060200180831161074357829003601f168201915b5050505050905084565b6000546001600160a01b031633146107945760405162461bcd60e51b81526004016102fd90611be7565b61079e6000610ee1565b565b815160208184018101805160028252928201948201949094209190935281518083018401805192815290840192909301919091209152805481906107e390611da3565b80601f016020809104026020016040519081016040528092919081815260200182805461080f90611da3565b801561085c5780601f106108315761010080835404028352916020019161085c565b820191906000526020600020905b81548152906001019060200180831161083f57829003601f168201915b50505050509080600101805461087190611da3565b80601f016020809104026020016040519081016040528092919081815260200182805461089d90611da3565b80156108ea5780601f106108bf576101008083540402835291602001916108ea565b820191906000526020600020905b8154815290600101906020018083116108cd57829003601f168201915b5050506002909301549192505060ff1683565b6000546001600160a01b031633146109275760405162461bcd60e51b81526004016102fd90611be7565b60006003868660405161093b929190611dde565b90815260408051602092819003830190206001600160e01b0319851660009081529281905291209091506104fe908585611027565b6000546001600160a01b0316331461099a5760405162461bcd60e51b81526004016102fd90611be7565b6000600287876040516109ae929190611dde565b908152602001604051809103902090506000818a8a6040516109d1929190611dde565b90815260405190819003602001902090506109ed818787611027565b506109fc600182018585611027565b50600201805460ff19166001179055505050505050505050565b600060028585604051610a2a929190611dde565b9081526040519081900360200181206e726563656976654772656574696e6760881b825291506000908290600f01908152604051908190036020019020600281015490915060ff16610ab65760405162461bcd60e51b81526020600482015260156024820152741858dd1a5bdb881b9bdd081c9959da5cdd195c9959605a1b60448201526064016102fd565b6040805160208101825260608152815160018082528184019093529091816020015b60408051606080820183528082526000602083015291810191909152815260200190600190039081610ad85750508082528051600091908290610b1d57610b1d611c65565b60209081029190910181015160408051808201825260088152676772656574696e6760c01b818501528252600b8284015251909250610b60918891889101611e17565b60408051601f19818403018152918152820152610b7b61109b565b88888080601f01602080910402602001604051908101604052809392919081815260200183838082843760009201829052509385525050604080518082018252838152815160208181018452948152938101939093526060808501939093528051928301905250845481908690610bf190611da3565b80601f0160208091040260200160405190810160405280929190818152602001828054610c1d90611da3565b8015610c6a5780601f10610c3f57610100808354040283529160200191610c6a565b820191906000526020600020905b815481529060010190602001808311610c4d57829003601f168201915b50505050508152602001856001018054610c8390611da3565b80601f0160208091040260200160405190810160405280929190818152602001828054610caf90611da3565b8015610cfc5780601f10610cd157610100808354040283529160200191610cfc565b820191906000526020600020905b815481529060010190602001808311610cdf57829003601f168201915b50505091835250506020018490526040808301919091526001549051636e0520a160e01b81526001600160a01b0390911690636e0520a190610d42908490600401611eb1565b6020604051808303816000875af1158015610d61573d6000803e3d6000fd5b505050506040513d601f19601f82011682018060405250810190610d859190611feb565b50505050505050505050565b81516020818401810180516003825292820194820194909420919093529091526000908152604090208054610dc590611da3565b80601f0160208091040260200160405190810160405280929190818152602001828054610df190611da3565b8015610e3e5780601f10610e1357610100808354040283529160200191610e3e565b820191906000526020600020905b815481529060010190602001808311610e2157829003601f168201915b505050505081565b6000546001600160a01b03163314610e705760405162461bcd60e51b81526004016102fd90611be7565b6001600160a01b038116610ed55760405162461bcd60e51b815260206004820152602660248201527f4f776e61626c653a206e6577206f776e657220697320746865207a65726f206160448201526564647265737360d01b60648201526084016102fd565b610ede81610ee1565b50565b600080546001600160a01b038381166001600160a01b0319831681178455604051919092169283917f8be0079c531659141344cd1fd0a4f28419497f9722a3daafe3b4186f6b6457e09190a35050565b604051806101000160405280600081526020016060815260200160608152602001606081526020016060815260200160006001600160a01b0316815260200160006001600160e01b0319168152602001610f9e604051806040016040528060008152602001606081525090565b905290565b828054610faf90611da3565b90600052602060002090601f016020900481019282610fd15760008555611017565b82601f10610fea57805160ff1916838001178555611017565b82800160010185558215611017579182015b82811115611017578251825591602001919060010190610ffc565b506110239291506110de565b5090565b82805461103390611da3565b90600052602060002090601f0160209004810192826110555760008555611017565b82601f1061106e5782800160ff19823516178555611017565b82800160010185558215611017579182015b82811115611017578235825591602001919060010190611080565b604051806080016040528060608152602001606081526020016110bc6110f3565b8152602001610f9e604051806040016040528060008152602001606081525090565b5b8082111561102357600081556001016110df565b60405180606001604052806060815260200160608152602001610f9e6040518060200160405280606081525090565b60008083601f84011261113457600080fd5b5081356001600160401b0381111561114b57600080fd5b60208301915083602082850101111561116357600080fd5b9250929050565b6001600160e01b031981168114610ede57600080fd5b60008060008060006060868803121561119857600080fd5b85356001600160401b03808211156111af57600080fd5b6111bb89838a01611122565b9097509550602088013591506111d08261116a565b909350604087013590808211156111e657600080fd5b506111f388828901611122565b969995985093965092949392505050565b60005b8381101561121f578181015183820152602001611207565b8381111561122e576000848401525b50505050565b6000815180845261124c816020860160208601611204565b601f01601f19169290920160200192915050565b634e487b7160e01b600052602160045260246000fd5b600082825180855260208086019550808260051b84010181860160005b848110156112e757601f19868403018952815160408151600981106112ba576112ba611260565b855290850151858501829052906112d381860183611234565b9a86019a9450505090830190600101611293565b5090979650505050505050565b8051825260006020820151604060208501526113136040850182611234565b949350505050565b602081528151602082015260006020830151610100806040850152611344610120850183611234565b91506040850151601f19808685030160608701526113628483611234565b9350606087015191508086850301608087015261137f8483611234565b935060808701519150808685030160a087015261139c8483611276565b935060a087015191506113ba60c08701836001600160a01b03169052565b60c08701516001600160e01b0319811660e0880152915060e08701519150808685030183870152506113ec83826112f4565b9695505050505050565b6001600160a01b0381168114610ede57600080fd5b60006020828403121561141d57600080fd5b8135611428816113f6565b9392505050565b60006020828403121561144157600080fd5b81356001600160401b0381111561145757600080fd5b82016020818503121561142857600080fd5b634e487b7160e01b600052604160045260246000fd5b604080519081016001600160401b03811182821017156114a1576114a1611469565b60405290565b60405161010081016001600160401b03811182821017156114a1576114a1611469565b604051601f8201601f191681016001600160401b03811182821017156114f2576114f2611469565b604052919050565b60006001600160401b0382111561151357611513611469565b50601f01601f191660200190565b600082601f83011261153257600080fd5b8135611545611540826114fa565b6114ca565b81815284602083860101111561155a57600080fd5b816020850160208301376000918101602001919091529392505050565b6000806040838503121561158a57600080fd5b82356001600160401b038111156115a057600080fd5b6115ac85828601611521565b95602094909401359450505050565b6080815260006115ce6080830187611234565b82810360208401526115e08187611234565b905082810360408401526115f48186611234565b905082810360608401526116088185611234565b979650505050505050565b6000806040838503121561162657600080fd5b82356001600160401b038082111561163d57600080fd5b61164986838701611521565b9350602085013591508082111561165f57600080fd5b5061166c85828601611521565b9150509250929050565b6060815260006116896060830186611234565b828103602084015261169b8186611234565b9150508215156040830152949350505050565b6000806000806000606086880312156116c657600080fd5b85356001600160401b03808211156116dd57600080fd5b6116e989838a01611122565b9097509550602088013591508082111561170257600080fd5b5061170f88828901611122565b90945092505060408601356117238161116a565b809150509295509295909350565b6000806000806000806000806080898b03121561174d57600080fd5b88356001600160401b038082111561176457600080fd5b6117708c838d01611122565b909a50985060208b013591508082111561178957600080fd5b6117958c838d01611122565b909850965060408b01359150808211156117ae57600080fd5b6117ba8c838d01611122565b909650945060608b01359150808211156117d357600080fd5b506117e08b828c01611122565b999c989b5096995094979396929594505050565b6000806000806040858703121561180a57600080fd5b84356001600160401b038082111561182157600080fd5b61182d88838901611122565b9096509450602087013591508082111561184657600080fd5b818701915087601f83011261185a57600080fd5b81358181111561186957600080fd5b8860208260051b850101111561187e57600080fd5b95989497505060200194505050565b600080604083850312156118a057600080fd5b82356001600160401b038111156118b657600080fd5b6118c285828601611521565b92505060208301356118d38161116a565b809150509250929050565b6020815260006114286020830184611234565b60006118ff611540846114fa565b905082815283838301111561191357600080fd5b611428836020830184611204565b600082601f83011261193257600080fd5b611428838351602085016118f1565b60006001600160401b0382111561195a5761195a611469565b5060051b60200190565b600082601f83011261197557600080fd5b8151602061198561154083611941565b82815260059290921b840181019181810190868411156119a457600080fd5b8286015b84811015611a335780516001600160401b03808211156119c85760008081fd5b908801906040828b03601f19018113156119e25760008081fd5b6119ea61147f565b87840151600981106119fc5760008081fd5b8152908301519082821115611a115760008081fd5b611a1f8c8984870101611921565b8189015286525050509183019183016119a8565b509695505050505050565b8051611a49816113f6565b919050565b8051611a498161116a565b600060408284031215611a6b57600080fd5b611a7361147f565b90508151815260208201516001600160401b03811115611a9257600080fd5b8201601f81018413611aa357600080fd5b611ab2848251602084016118f1565b60208301525092915050565b600060208284031215611ad057600080fd5b81516001600160401b0380821115611ae757600080fd5b908301906101008286031215611afc57600080fd5b611b046114a7565b82518152602083015182811115611b1a57600080fd5b611b2687828601611921565b602083015250604083015182811115611b3e57600080fd5b611b4a87828601611921565b604083015250606083015182811115611b6257600080fd5b611b6e87828601611921565b606083015250608083015182811115611b8657600080fd5b611b9287828601611964565b608083015250611ba460a08401611a3e565b60a0820152611bb560c08401611a4e565b60c082015260e083015182811115611bcc57600080fd5b611bd887828601611a59565b60e08301525095945050505050565b6020808252818101527f4f776e61626c653a2063616c6c6572206973206e6f7420746865206f776e6572604082015260600190565b6000808335601e19843603018112611c3357600080fd5b8301803591506001600160401b03821115611c4d57600080fd5b6020019150600581901b360382131561116357600080fd5b634e487b7160e01b600052603260045260246000fd5b60008235605e19833603018112611c9157600080fd5b9190910192915050565b6000808335601e19843603018112611cb257600080fd5b8301803591506001600160401b03821115611ccc57600080fd5b60200191503681900382131561116357600080fd5b60006020808385031215611cf457600080fd5b82356001600160401b0380821115611d0b57600080fd5b818501915085601f830112611d1f57600080fd5b8135611d2d61154082611941565b81815260059190911b83018401908481019088831115611d4c57600080fd5b8585015b83811015611d8457803585811115611d685760008081fd5b611d768b89838a0101611521565b845250918601918601611d50565b5098975050505050505050565b60008251611c91818460208701611204565b600181811c90821680611db757607f821691505b60208210811415611dd857634e487b7160e01b600052602260045260246000fd5b50919050565b8183823760009101908152919050565b81835281816020850137506000828201602090810191909152601f909101601f19169091010190565b60208082528181018390526000906040600585901b8401810190840186845b87811015611ea457868403603f190183528135368a9003601e19018112611e5c57600080fd5b890180356001600160401b03811115611e7457600080fd5b8036038b1315611e8357600080fd5b611e908682898501611dee565b955050509184019190840190600101611e36565b5091979650505050505050565b600060208083528351608082850152611ecd60a0850182611234565b905081850151601f196040818785030181880152611eeb8484611276565b935080880151925060608288860301818901528351818652611f0f82870182611234565b90508685015186820388880152611f268282611234565b9584015187870397850197909752505093518584528051868501819052600581901b850183019591870194908382019060005b81811015611fc157838903603f1901835287518051868b52611f7d878c0182611234565b90508b82015160168110611f9357611f93611260565b8b8d0152908701518a8203888c015290611fad8183611234565b9a5050509689019691890191600101611f59565b505050508801518785039092016080880152509250611fe2905081836112f4565b95945050505050565b600060208284031215611ffd57600080fd5b505191905056fea264697066735822122024debf9dae4463c3c0321660d17a242ba97f5a67f49f02745e6d0d8000c757be64736f6c634300080a0033",
  "immutableReferences": {},
  "source": "// SPDX-License-Identifier: MIT\npragma solidity >=0.8.0 <0.9.0;\n\nimport \"@openzeppelin/contracts/access/Ownable.sol\";\nimport \"./CrossChain/ContractBase.sol\";\n\n// `Greetings` is an example of multi-chain services with necessary implementations in `ContractBase`, without which the user defined contract cannot work.\n// And besides, `registerDestnContract` and `registerPermittedContract` are templete implementations make the management of some user defined informations easier.\ncontract Greetings is ContractBase {\n    // Destination contract info\n    struct DestnContract {\n        string contractAddress; // destination contract address\n        string funcName; // destination contract action name\n        bool used;\n    }\n\n    // greeting\n    struct Greeting {\n        string fromChain;\n        string title;\n        string content;\n        string date;\n    }\n\n    // Cross-chain destination contract map\n    mapping(string => mapping(string => DestnContract)) public destnContractMap;\n\n    // Cross-chain permitted contract map\n    mapping(string => mapping(bytes4 => string)) public permittedContractMap;\n\n    // Store greetings\n    mapping(string => mapping(uint256 => Greeting)) public greetings;\n\n    /**\n     * Receive greeting info from other chains\n     * @param _payload - payload which contains greeting message\n     */\n    function receiveGreeting(Payload calldata _payload) public {\n        require(\n            msg.sender == address(crossChainContract),\n            \"Locker: caller is not CrossChain\"\n        );\n\n        // `context` used for verify the operation authority\n        SimplifiedMessage memory context = getContext();\n        // verify sqos\n        // require(context.sqos.reveal == 1, \"SQoS invalid!\");\n\n        (string[] memory _value) = abi.decode(_payload.items[0].value, (string[]));\n        Greeting memory _greeting = Greeting(_value[0], _value[1], _value[2], _value[3]);\n        greetings[context.fromChain][context.id] = _greeting;\n    }\n\n    /**\n     * Send greeting info to other chains\n     * @param _toChain - to chain name\n     * @param _greeting - greeting sent to other chain\n     */\n    function sendGreeting(\n        string calldata _toChain,\n        string[] calldata _greeting\n    ) external {\n        mapping(string => DestnContract) storage map = destnContractMap[_toChain];\n        DestnContract storage destnContract = map[\"receiveGreeting\"];\n        require(destnContract.used, \"action not registered\");\n\n        // Construct payload\n        Payload memory data;\n        data.items = new PayloadItem[](1);\n        PayloadItem memory item = data.items[0];\n        item.name = \"greeting\";\n        item.msgType = MsgType.EvmStringArray;\n        item.value = abi.encode(_greeting);\n\n        ISentMessage memory message;\n        message.toChain = _toChain;\n        message.session = Session(0, \"\");\n        message.content = Content(destnContract.contractAddress, destnContract.funcName, data);\n\n        crossChainContract.sendMessage(message);\n    }\n\n    ///////////////////////////////////////////////\n    /////    Send messages to other chains   //////\n    ///////////////////////////////////////////////\n\n    /**\n     * Register destination contract info\n     * @param _funcName - function name to be called\n     * @param _toChain - destination chain name\n     * @param _contractAddress - destination contract address\n     * @param _contractFuncName - contract function name\n     */\n    function registerDestnContract(\n        string calldata _funcName,\n        string calldata _toChain,\n        string calldata _contractAddress,\n        string calldata _contractFuncName\n    ) external onlyOwner {\n        mapping(string => DestnContract) storage map = destnContractMap[_toChain];\n        DestnContract storage destnContract = map[_funcName];\n        destnContract.contractAddress = _contractAddress;\n        destnContract.funcName = _contractFuncName;\n        destnContract.used = true;\n    }\n\n    ///////////////////////////////////////////////\n    ///    Receive messages from other chains   ///\n    ///////////////////////////////////////////////\n\n    /**\n     * Authorize contracts of other chains to call the functions of this contract\n     * @param _chainName - from chain name\n     * @param _sender - sender of cross chain message\n     * @param _funcName - action name which allowed to be invoked\n     */\n    function registerPermittedContract(\n        string calldata _chainName,\n        string calldata _sender,\n        bytes4 _funcName\n    ) external onlyOwner {\n        mapping(bytes4 => string) storage map = permittedContractMap[\n            _chainName\n        ];\n        map[_funcName] = _sender;\n    }\n\n    /**\n     * This verify method will be invoked by the CrossChain contract automatically, ensure that only registered contract(registerSourceContract) calls are allowed\n     * @param _chainName - chain name of cross chain message\n     * @param _funcName - contract action name of cross chain message\n     * @param _sender - cross chain message sender\n     */\n    //  Will be deprecated soon\n    function verify(\n        string calldata _chainName,\n        bytes4 _funcName,\n        string calldata _sender\n    ) public view virtual returns (bool) {\n        // mapping(bytes4 => string) storage map = permittedContractMap[\n        //     _chainName\n        // ];\n        // string storage sender = map[_funcName];\n        // require(\n        //     keccak256(bytes(sender)) == keccak256(bytes(_sender)),\n        //     \"Sender does not match\"\n        // );\n        return true;\n    }\n}\n",
  "sourcePath": "/root/hthuang/work/solidity-contract-template/contracts/Greetings.sol",
  "compiler": {
    "name": "solc",
    "version": "0.8.10+commit.fc410830.Emscripten.clang"
  },
  "schemaVersion": "3.4.7",
  "updatedAt": "2022-07-07T06:13:43.990Z",
  "networkType": "ethereum",
  "devdoc": {
    "kind": "dev",
    "methods": {
      "owner()": {
        "details": "Returns the address of the current owner."
      },
      "receiveGreeting(((string,uint8,bytes)[]))": {
        "params": {
          "_payload": "- payload which contains greeting message"
        }
      },
      "registerDestnContract(string,string,string,string)": {
        "params": {
          "_contractAddress": "- destination contract address",
          "_contractFuncName": "- contract function name",
          "_funcName": "- function name to be called",
          "_toChain": "- destination chain name"
        }
      },
      "registerPermittedContract(string,string,bytes4)": {
        "params": {
          "_chainName": "- from chain name",
          "_funcName": "- action name which allowed to be invoked",
          "_sender": "- sender of cross chain message"
        }
      },
      "renounceOwnership()": {
        "details": "Leaves the contract without owner. It will not be possible to call `onlyOwner` functions anymore. Can only be called by the current owner. NOTE: Renouncing ownership will leave the contract without an owner, thereby removing any functionality that is only available to the owner."
      },
      "sendGreeting(string,string[])": {
        "params": {
          "_greeting": "- greeting sent to other chain",
          "_toChain": "- to chain name"
        }
      },
      "setCrossChainContract(address)": {
        "params": {
          "_address": "- cross chain contract address"
        }
      },
      "transferOwnership(address)": {
        "details": "Transfers ownership of the contract to a new account (`newOwner`). Can only be called by the current owner."
      },
      "verify(string,bytes4,string)": {
        "params": {
          "_chainName": "- chain name of cross chain message",
          "_funcName": "- contract action name of cross chain message",
          "_sender": "- cross chain message sender"
        }
      }
    },
    "version": 1
  },
  "userdoc": {
    "kind": "user",
    "methods": {
      "receiveGreeting(((string,uint8,bytes)[]))": {
        "notice": "Receive greeting info from other chains"
      },
      "registerDestnContract(string,string,string,string)": {
        "notice": "Register destination contract info"
      },
      "registerPermittedContract(string,string,bytes4)": {
        "notice": "Authorize contracts of other chains to call the functions of this contract"
      },
      "sendGreeting(string,string[])": {
        "notice": "Send greeting info to other chains"
      },
      "setCrossChainContract(address)": {
        "notice": "Set cross chain contract"
      },
      "verify(string,bytes4,string)": {
        "notice": "This verify method will be invoked by the CrossChain contract automatically, ensure that only registered contract(registerSourceContract) calls are allowed"
      }
    },
    "version": 1
  }
}