{
  "contractName": "OCComputing",
  "abi": [
    {
      "anonymous": false,
      "inputs": [
        {
          "indexed": true,
          "internalType": "address",
          "name": "previousOwner",
          "type": "address"
        },
        {
          "indexed": true,
          "internalType": "address",
          "name": "newOwner",
          "type": "address"
        }
      ],
      "name": "OwnershipTransferred",
      "type": "event"
    },
    {
      "inputs": [
        {
          "internalType": "bytes32",
          "name": "",
          "type": "bytes32"
        }
      ],
      "name": "callbackAbis",
      "outputs": [
        {
          "internalType": "string",
          "name": "",
          "type": "string"
        }
      ],
      "stateMutability": "view",
      "type": "function"
    },
    {
      "inputs": [],
      "name": "crossChainContract",
      "outputs": [
        {
          "internalType": "contract ICrossChain",
          "name": "",
          "type": "address"
        }
      ],
      "stateMutability": "view",
      "type": "function"
    },
    {
      "inputs": [],
      "name": "currentId",
      "outputs": [
        {
          "internalType": "uint256",
          "name": "",
          "type": "uint256"
        }
      ],
      "stateMutability": "view",
      "type": "function"
    },
    {
      "inputs": [
        {
          "internalType": "string",
          "name": "",
          "type": "string"
        },
        {
          "internalType": "string",
          "name": "",
          "type": "string"
        }
      ],
      "name": "destnContractMap",
      "outputs": [
        {
          "internalType": "string",
          "name": "contractAddress",
          "type": "string"
        },
        {
          "internalType": "string",
          "name": "funcName",
          "type": "string"
        },
        {
          "internalType": "bool",
          "name": "used",
          "type": "bool"
        }
      ],
      "stateMutability": "view",
      "type": "function"
    },
    {
      "inputs": [],
      "name": "getContext",
      "outputs": [
        {
          "components": [
            {
              "internalType": "uint256",
              "name": "id",
              "type": "uint256"
            },
            {
              "internalType": "string",
              "name": "fromChain",
              "type": "string"
            },
            {
              "internalType": "string",
              "name": "sender",
              "type": "string"
            },
            {
              "internalType": "string",
              "name": "signer",
              "type": "string"
            },
            {
              "components": [
                {
                  "internalType": "enum SQoSType",
                  "name": "t",
                  "type": "uint8"
                },
                {
                  "internalType": "string",
                  "name": "v",
                  "type": "string"
                }
              ],
              "internalType": "struct SQoS[]",
              "name": "sqos",
              "type": "tuple[]"
            },
            {
              "internalType": "address",
              "name": "contractAddress",
              "type": "address"
            },
            {
              "internalType": "bytes4",
              "name": "action",
              "type": "bytes4"
            },
            {
              "components": [
                {
                  "internalType": "uint256",
                  "name": "id",
                  "type": "uint256"
                },
                {
                  "internalType": "bytes",
                  "name": "callback",
                  "type": "bytes"
                }
              ],
              "internalType": "struct Session",
              "name": "session",
              "type": "tuple"
            }
          ],
          "internalType": "struct SimplifiedMessage",
          "name": "",
          "type": "tuple"
        }
      ],
      "stateMutability": "view",
      "type": "function"
    },
    {
      "inputs": [
        {
          "internalType": "string",
          "name": "",
          "type": "string"
        },
        {
          "internalType": "uint256",
          "name": "",
          "type": "uint256"
        }
      ],
      "name": "ocResult",
      "outputs": [
        {
          "internalType": "bool",
          "name": "used",
          "type": "bool"
        },
        {
          "internalType": "uint256",
          "name": "result",
          "type": "uint256"
        }
      ],
      "stateMutability": "view",
      "type": "function"
    },
    {
      "inputs": [],
      "name": "owner",
      "outputs": [
        {
          "internalType": "address",
          "name": "",
          "type": "address"
        }
      ],
      "stateMutability": "view",
      "type": "function"
    },
    {
      "inputs": [
        {
          "internalType": "string",
          "name": "",
          "type": "string"
        },
        {
          "internalType": "string",
          "name": "",
          "type": "string"
        }
      ],
      "name": "permittedContractMap",
      "outputs": [
        {
          "internalType": "string",
          "name": "",
          "type": "string"
        }
      ],
      "stateMutability": "view",
      "type": "function"
    },
    {
      "inputs": [],
      "name": "renounceOwnership",
      "outputs": [],
      "stateMutability": "nonpayable",
      "type": "function"
    },
    {
      "inputs": [
        {
          "internalType": "address",
          "name": "_address",
          "type": "address"
        }
      ],
      "name": "setCrossChainContract",
      "outputs": [],
      "stateMutability": "nonpayable",
      "type": "function"
    },
    {
      "inputs": [
        {
          "internalType": "address",
          "name": "newOwner",
          "type": "address"
        }
      ],
      "name": "transferOwnership",
      "outputs": [],
      "stateMutability": "nonpayable",
      "type": "function"
    },
    {
      "inputs": [
        {
          "internalType": "string",
          "name": "_toChain",
          "type": "string"
        },
        {
          "internalType": "uint32[]",
          "name": "_nums",
          "type": "uint32[]"
        }
      ],
      "name": "sendComputeTask",
      "outputs": [],
      "stateMutability": "nonpayable",
      "type": "function"
    },
    {
      "inputs": [
        {
          "components": [
            {
              "components": [
                {
                  "internalType": "string",
                  "name": "name",
                  "type": "string"
                },
                {
                  "internalType": "enum MsgType",
                  "name": "msgType",
                  "type": "uint8"
                },
                {
                  "internalType": "bytes",
                  "name": "value",
                  "type": "bytes"
                }
              ],
              "internalType": "struct PayloadItem[]",
              "name": "items",
              "type": "tuple[]"
            }
          ],
          "internalType": "struct Payload",
          "name": "_payload",
          "type": "tuple"
        }
      ],
      "name": "receiveComputeTask",
      "outputs": [],
      "stateMutability": "nonpayable",
      "type": "function"
    },
    {
      "inputs": [
        {
          "components": [
            {
              "components": [
                {
                  "internalType": "string",
                  "name": "name",
                  "type": "string"
                },
                {
                  "internalType": "enum MsgType",
                  "name": "msgType",
                  "type": "uint8"
                },
                {
                  "internalType": "bytes",
                  "name": "value",
                  "type": "bytes"
                }
              ],
              "internalType": "struct PayloadItem[]",
              "name": "items",
              "type": "tuple[]"
            }
          ],
          "internalType": "struct Payload",
          "name": "_payload",
          "type": "tuple"
        }
      ],
      "name": "receiveComputeTaskCallback",
      "outputs": [],
      "stateMutability": "nonpayable",
      "type": "function"
    },
    {
      "inputs": [
        {
          "internalType": "string",
          "name": "_funcName",
          "type": "string"
        },
        {
          "internalType": "string",
          "name": "_toChain",
          "type": "string"
        },
        {
          "internalType": "string",
          "name": "_contractAddress",
          "type": "string"
        },
        {
          "internalType": "string",
          "name": "_contractFuncName",
          "type": "string"
        }
      ],
      "name": "registerDestnContract",
      "outputs": [],
      "stateMutability": "nonpayable",
      "type": "function"
    },
    {
      "inputs": [
        {
          "internalType": "string",
          "name": "_chainName",
          "type": "string"
        },
        {
          "internalType": "string",
          "name": "_sender",
          "type": "string"
        },
        {
          "internalType": "string",
          "name": "_funcName",
          "type": "string"
        }
      ],
      "name": "registerPermittedContract",
      "outputs": [],
      "stateMutability": "nonpayable",
      "type": "function"
    },
    {
      "inputs": [
        {
          "internalType": "string",
          "name": "_chainName",
          "type": "string"
        },
        {
          "internalType": "bytes4",
          "name": "_funcName",
          "type": "bytes4"
        },
        {
          "internalType": "string",
          "name": "_sender",
          "type": "string"
        }
      ],
      "name": "verify",
      "outputs": [
        {
          "internalType": "bool",
          "name": "",
          "type": "bool"
        }
      ],
      "stateMutability": "view",
      "type": "function"
    }
  ],
  "bytecode": "0x608060405234801561001057600080fd5b5061001a3361001f565b61006f565b600080546001600160a01b038381166001600160a01b0319831681178455604051919092169283917f8be0079c531659141344cd1fd0a4f28419497f9722a3daafe3b4186f6b6457e09190a35050565b6120018061007e6000396000f3fe608060405234801561001057600080fd5b506004361061010b5760003560e01c80638da5cb5b116100a2578063d64bf05a11610071578063d64bf05a14610236578063dbc90de114610295578063e00dd161146102a8578063f2fde38b146102bf578063fab1564e146102d257600080fd5b80638da5cb5b146101cb578063955a5ba4146101f0578063babe5dd614610210578063bb45acd91461022357600080fd5b8063715018a6116100de578063715018a61461017b57806379f6793c146101835780637fac11271461019657806380899bba146101a957600080fd5b80630c5ae33514610110578063127f0f071461013e57806318d72b541461015357806347e50a4214610168575b600080fd5b61012961011e3660046111f0565b600195945050505050565b60405190151581526020015b60405180910390f35b6101466102e5565b604051610135919061138b565b61016661016136600461147b565b61036d565b005b61016661017636600461149f565b6103c2565b61016661057e565b6101666101913660046114d9565b6105b4565b6101666101a436600461149f565b610639565b6101bc6101b7366004611680565b610746565b604051610135939291906116e3565b6000546001600160a01b03165b6040516001600160a01b039091168152602001610135565b6102036101fe36600461171b565b6108a3565b6040516101359190611734565b61016661021e366004611747565b61093d565b610203610231366004611680565b6109e3565b61027e61024436600461180a565b8151602081840181018051600682529282019482019490942091909352909152600090815260409020805460019091015460ff9091169082565b604080519215158352602083019190915201610135565b6001546101d8906001600160a01b031681565b6102b160075481565b604051908152602001610135565b6101666102cd36600461147b565b610a24565b6101666102e036600461184e565b610abf565b6102ed610fd2565b600160009054906101000a90046001600160a01b03166001600160a01b0316639af7a48c6040518163ffffffff1660e01b8152600401600060405180830381865afa158015610340573d6000803e3d6000fd5b505050506040513d6000823e601f3d908101601f191682016040526103689190810190611ab4565b905090565b6000546001600160a01b031633146103a05760405162461bcd60e51b815260040161039790611bdd565b60405180910390fd5b600180546001600160a01b0319166001600160a01b0392909216919091179055565b6001546001600160a01b0316331461041c5760405162461bcd60e51b815260206004820181905260248201527f4c6f636b65723a2063616c6c6572206973206e6f742043726f7373436861696e6044820152606401610397565b60006104288280611c12565b600081811061043957610439611c5b565b905060200281019061044b9190611c71565b610459906040810190611c91565b8101906104669190611ceb565b90506000805b82518110156104b45782818151811061048757610487611c5b565b602002602001015163ffffffff16826104a09190611d98565b9150806104ac81611db0565b91505061046c565b506040805160208101825260608152815160018082528184019093529091816020015b604080516060808201835280825260006020830152918101919091528152602001906001900390816104d7575050808252805160009190829061051c5761051c611c5b565b60209081029190910181015160408051808201825260068152651c995cdd5b1d60d21b81850152825260038284015280518084018790528151808203909401845281018152810191909152905060606105758184610dae565b50505050505050565b6000546001600160a01b031633146105a85760405162461bcd60e51b815260040161039790611bdd565b6105b26000610e9a565b565b6000546001600160a01b031633146105de5760405162461bcd60e51b815260040161039790611bdd565b6000600487876040516105f2929190611dcb565b908152602001604051809103902090508484828585604051610615929190611dcb565b90815260405190819003602001902061062f929091611044565b5050505050505050565b6001546001600160a01b031633146106935760405162461bcd60e51b815260206004820181905260248201527f4c6f636b65723a2063616c6c6572206973206e6f742043726f7373436861696e6044820152606401610397565b600061069f8280611c12565b60008181106106b0576106b0611c5b565b90506020028101906106c29190611c71565b6106d0906040810190611c91565b8101906106dd9190611ddb565b905060006106e96102e5565b90506000600682602001516040516107019190611df6565b9081526040805191829003602090810190922060e09094015151600090815293909152909120805460ff19166001908117825563ffffffff9093169201919091555050565b8151602081840181018051600382529282019482019490942091909352815180830184018051928152908401929093019190912091528054819061078990611e08565b80601f01602080910402602001604051908101604052809291908181526020018280546107b590611e08565b80156108025780601f106107d757610100808354040283529160200191610802565b820191906000526020600020905b8154815290600101906020018083116107e557829003601f168201915b50505050509080600101805461081790611e08565b80601f016020809104026020016040519081016040528092919081815260200182805461084390611e08565b80156108905780601f1061086557610100808354040283529160200191610890565b820191906000526020600020905b81548152906001019060200180831161087357829003601f168201915b5050506002909301549192505060ff1683565b600260205260009081526040902080546108bc90611e08565b80601f01602080910402602001604051908101604052809291908181526020018280546108e890611e08565b80156109355780601f1061090a57610100808354040283529160200191610935565b820191906000526020600020905b81548152906001019060200180831161091857829003601f168201915b505050505081565b6000546001600160a01b031633146109675760405162461bcd60e51b815260040161039790611bdd565b60006003878760405161097b929190611dcb565b908152602001604051809103902090506000818a8a60405161099e929190611dcb565b90815260405190819003602001902090506109ba818787611044565b506109c9600182018585611044565b50600201805460ff19166001179055505050505050505050565b81516020818401810180516004825292820194820194909420919093528151808301840180519281529084019290930191909120915280546108bc90611e08565b6000546001600160a01b03163314610a4e5760405162461bcd60e51b815260040161039790611bdd565b6001600160a01b038116610ab35760405162461bcd60e51b815260206004820152602660248201527f4f776e61626c653a206e6577206f776e657220697320746865207a65726f206160448201526564647265737360d01b6064820152608401610397565b610abc81610e9a565b50565b600060038585604051610ad3929190611dcb565b9081526040519081900360200181207172656365697665436f6d707574655461736b60701b825291506000908290601201908152604051908190036020019020600281015490915060ff16610b625760405162461bcd60e51b81526020600482015260156024820152741858dd1a5bdb881b9bdd081c9959da5cdd195c9959605a1b6044820152606401610397565b6040805160208101825260608152815160018082528184019093529091816020015b60408051606080820183528082526000602083015291810191909152815260200190600190039081610b845750508082528051600091908290610bc957610bc9611c5b565b60209081029190910181015160408051808201825260048152636e756d7360e01b818501528252600e8284015251909250610c08918891889101611e43565b604051602081830303815290604052816040018190525060606000610d838a8a8080601f016020809104026020016040519081016040528093929190818152602001838380828437600092019190915250508854899250610c699150611e08565b80601f0160208091040260200160405190810160405280929190818152602001828054610c9590611e08565b8015610ce25780601f10610cb757610100808354040283529160200191610ce2565b820191906000526020600020905b815481529060010190602001808311610cc557829003601f168201915b5050505050876001018054610cf690611e08565b80601f0160208091040260200160405190810160405280929190818152602001828054610d2290611e08565b8015610d6f5780601f10610d4457610100808354040283529160200191610d6f565b820191906000526020600020905b815481529060010190602001808311610d5257829003601f168201915b50505050508588637fac112760e01b610eea565b6000818152600560205260409020909150610d9f9089896110c8565b50600755505050505050505050565b600080610db96102e5565b9050610dc361110b565b6020808301518252818101869052604080518082018252845181528151808401835260008152818401526060808501919091528151908101825281850151815260e085015183015192810192909252818101869052808301919091526001549051636e0520a160e01b81526001600160a01b0390911690636e0520a190610e4e908490600401611e81565b6020604051808303816000875af1158015610e6d573d6000803e3d6000fd5b505050506040513d601f19601f82011682018060405250810190610e919190611fb2565b95945050505050565b600080546001600160a01b038381166001600160a01b0319831681178455604051919092169283917f8be0079c531659141344cd1fd0a4f28419497f9722a3daafe3b4186f6b6457e09190a35050565b6000610ef461110b565b87815260208082018690526040805180820182526000815281516001600160e01b031987168185015282516004818303810182526024909201845282850152606080860192909252825191820183528a8252928101899052808201879052818401526001549051636e0520a160e01b81526001600160a01b0390911691636e0520a191610f8391859101611e81565b6020604051808303816000875af1158015610fa2573d6000803e3d6000fd5b505050506040513d601f19601f82011682018060405250810190610fc69190611fb2565b98975050505050505050565b604051806101000160405280600081526020016060815260200160608152602001606081526020016060815260200160006001600160a01b0316815260200160006001600160e01b031916815260200161103f604051806040016040528060008152602001606081525090565b905290565b82805461105090611e08565b90600052602060002090601f01602090048101928261107257600085556110b8565b82601f1061108b5782800160ff198235161785556110b8565b828001600101855582156110b8579182015b828111156110b857823582559160200191906001019061109d565b506110c492915061114e565b5090565b8280548282559060005260206000209081019282156110b8579160200282015b828111156110b85763ffffffff83351682556020909201916001909101906110e8565b6040518060800160405280606081526020016060815260200161112c611163565b815260200161103f604051806040016040528060008152602001606081525090565b5b808211156110c4576000815560010161114f565b6040518060600160405280606081526020016060815260200161103f6040518060200160405280606081525090565b60008083601f8401126111a457600080fd5b5081356001600160401b038111156111bb57600080fd5b6020830191508360208285010111156111d357600080fd5b9250929050565b6001600160e01b031981168114610abc57600080fd5b60008060008060006060868803121561120857600080fd5b85356001600160401b038082111561121f57600080fd5b61122b89838a01611192565b909750955060208801359150611240826111da565b9093506040870135908082111561125657600080fd5b5061126388828901611192565b969995985093965092949392505050565b60005b8381101561128f578181015183820152602001611277565b8381111561129e576000848401525b50505050565b600081518084526112bc816020860160208601611274565b601f01601f19169290920160200192915050565b634e487b7160e01b600052602160045260246000fd5b600082825180855260208086019550808260051b84010181860160005b8481101561135757601f198684030189528151604081516009811061132a5761132a6112d0565b85529085015185850182905290611343818601836112a4565b9a86019a9450505090830190600101611303565b5090979650505050505050565b80518252600060208201516040602085015261138360408501826112a4565b949350505050565b6020815281516020820152600060208301516101008060408501526113b46101208501836112a4565b91506040850151601f19808685030160608701526113d284836112a4565b935060608701519150808685030160808701526113ef84836112a4565b935060808701519150808685030160a087015261140c84836112e6565b935060a0870151915061142a60c08701836001600160a01b03169052565b60c08701516001600160e01b0319811660e0880152915060e087015191508086850301838701525061145c8382611364565b9695505050505050565b6001600160a01b0381168114610abc57600080fd5b60006020828403121561148d57600080fd5b813561149881611466565b9392505050565b6000602082840312156114b157600080fd5b81356001600160401b038111156114c757600080fd5b82016020818503121561149857600080fd5b600080600080600080606087890312156114f257600080fd5b86356001600160401b038082111561150957600080fd5b6115158a838b01611192565b9098509650602089013591508082111561152e57600080fd5b61153a8a838b01611192565b9096509450604089013591508082111561155357600080fd5b5061156089828a01611192565b979a9699509497509295939492505050565b634e487b7160e01b600052604160045260246000fd5b604080519081016001600160401b03811182821017156115aa576115aa611572565b60405290565b60405161010081016001600160401b03811182821017156115aa576115aa611572565b604051601f8201601f191681016001600160401b03811182821017156115fb576115fb611572565b604052919050565b60006001600160401b0382111561161c5761161c611572565b50601f01601f191660200190565b600082601f83011261163b57600080fd5b813561164e61164982611603565b6115d3565b81815284602083860101111561166357600080fd5b816020850160208301376000918101602001919091529392505050565b6000806040838503121561169357600080fd5b82356001600160401b03808211156116aa57600080fd5b6116b68683870161162a565b935060208501359150808211156116cc57600080fd5b506116d98582860161162a565b9150509250929050565b6060815260006116f660608301866112a4565b828103602084015261170881866112a4565b9150508215156040830152949350505050565b60006020828403121561172d57600080fd5b5035919050565b60208152600061149860208301846112a4565b6000806000806000806000806080898b03121561176357600080fd5b88356001600160401b038082111561177a57600080fd5b6117868c838d01611192565b909a50985060208b013591508082111561179f57600080fd5b6117ab8c838d01611192565b909850965060408b01359150808211156117c457600080fd5b6117d08c838d01611192565b909650945060608b01359150808211156117e957600080fd5b506117f68b828c01611192565b999c989b5096995094979396929594505050565b6000806040838503121561181d57600080fd5b82356001600160401b0381111561183357600080fd5b61183f8582860161162a565b95602094909401359450505050565b6000806000806040858703121561186457600080fd5b84356001600160401b038082111561187b57600080fd5b61188788838901611192565b909650945060208701359150808211156118a057600080fd5b818701915087601f8301126118b457600080fd5b8135818111156118c357600080fd5b8860208260051b85010111156118d857600080fd5b95989497505060200194505050565b60006118f561164984611603565b905082815283838301111561190957600080fd5b611498836020830184611274565b600082601f83011261192857600080fd5b611498838351602085016118e7565b60006001600160401b0382111561195057611950611572565b5060051b60200190565b600082601f83011261196b57600080fd5b8151602061197b61164983611937565b82815260059290921b8401810191818101908684111561199a57600080fd5b8286015b84811015611a295780516001600160401b03808211156119be5760008081fd5b908801906040828b03601f19018113156119d85760008081fd5b6119e0611588565b87840151600981106119f25760008081fd5b8152908301519082821115611a075760008081fd5b611a158c8984870101611917565b81890152865250505091830191830161199e565b509695505050505050565b8051611a3f81611466565b919050565b8051611a3f816111da565b600060408284031215611a6157600080fd5b611a69611588565b90508151815260208201516001600160401b03811115611a8857600080fd5b8201601f81018413611a9957600080fd5b611aa8848251602084016118e7565b60208301525092915050565b600060208284031215611ac657600080fd5b81516001600160401b0380821115611add57600080fd5b908301906101008286031215611af257600080fd5b611afa6115b0565b82518152602083015182811115611b1057600080fd5b611b1c87828601611917565b602083015250604083015182811115611b3457600080fd5b611b4087828601611917565b604083015250606083015182811115611b5857600080fd5b611b6487828601611917565b606083015250608083015182811115611b7c57600080fd5b611b888782860161195a565b608083015250611b9a60a08401611a34565b60a0820152611bab60c08401611a44565b60c082015260e083015182811115611bc257600080fd5b611bce87828601611a4f565b60e08301525095945050505050565b6020808252818101527f4f776e61626c653a2063616c6c6572206973206e6f7420746865206f776e6572604082015260600190565b6000808335601e19843603018112611c2957600080fd5b8301803591506001600160401b03821115611c4357600080fd5b6020019150600581901b36038213156111d357600080fd5b634e487b7160e01b600052603260045260246000fd5b60008235605e19833603018112611c8757600080fd5b9190910192915050565b6000808335601e19843603018112611ca857600080fd5b8301803591506001600160401b03821115611cc257600080fd5b6020019150368190038213156111d357600080fd5b803563ffffffff81168114611a3f57600080fd5b60006020808385031215611cfe57600080fd5b82356001600160401b03811115611d1457600080fd5b8301601f81018513611d2557600080fd5b8035611d3361164982611937565b81815260059190911b82018301908381019087831115611d5257600080fd5b928401925b82841015611d7757611d6884611cd7565b82529284019290840190611d57565b979650505050505050565b634e487b7160e01b600052601160045260246000fd5b60008219821115611dab57611dab611d82565b500190565b6000600019821415611dc457611dc4611d82565b5060010190565b8183823760009101908152919050565b600060208284031215611ded57600080fd5b61149882611cd7565b60008251611c87818460208701611274565b600181811c90821680611e1c57607f821691505b60208210811415611e3d57634e487b7160e01b600052602260045260246000fd5b50919050565b60208082528181018390526000908460408401835b86811015611a295763ffffffff611e6e84611cd7565b1682529183019190830190600101611e58565b600060208083528351608082850152611e9d60a08501826112a4565b905081850151601f196040818785030181880152611ebb84846112e6565b935080880151925060608288860301818901528351818652611edf828701826112a4565b90508685015186820388880152611ef682826112a4565b9584015187870397850197909752505093518584528051868501819052600581901b850183019591870194908382019060005b81811015611f9157838903603f1901835287518051868b52611f4d878c01826112a4565b90508b82015160168110611f6357611f636112d0565b8b8d0152908701518a8203888c015290611f7d81836112a4565b9a5050509689019691890191600101611f29565b505050508801518785039092016080880152509250610e9190508183611364565b600060208284031215611fc457600080fd5b505191905056fea2646970667358221220d8a8b73a31d4910e8b3bd136cc48a5db70a23524fb225548cd6fe5d24353d03564736f6c634300080a0033",
  "immutableReferences": {},
  "source": "// SPDX-License-Identifier: MIT\npragma solidity >=0.8.0 <0.9.0;\n\nimport \"@openzeppelin/contracts/access/Ownable.sol\";\nimport \"./CrossChain/ContractAdvanced.sol\";\n\n// `OCComputing` is an example of multi-chain services with necessary implementations in `ContractAdvanced`, which provides basic cross-chain call interfaces.\ncontract OCComputing is ContractAdvanced {\n    // Destination contract info\n    struct DestnContract {\n        string contractAddress; // destination contract address\n        string funcName; // destination contract action name\n        bool used;\n    }\n\n    struct OCResult {\n        bool used;\n        uint256 result;\n    }\n\n    // Cross-chain destination contract map\n    mapping(string => mapping(string => DestnContract)) public destnContractMap;\n\n    // Cross-chain permitted contract map\n    mapping(string => mapping(string => string)) public permittedContractMap;\n\n    // Outsourcing computing data cache\n    mapping(uint256 => uint256[]) cachedData;\n    // Outsourcing computing result\n    mapping(string => mapping(uint256 => OCResult)) public ocResult;\n\n    uint256 public currentId;\n    \n    /**\n     * Send outsourcing computing task to other chain\n     * @param _toChain - to chain name\n     * @param _nums - nums to be accumulated\n     */\n    function sendComputeTask(string calldata _toChain, uint32[] calldata _nums) external {\n        mapping(string => DestnContract) storage map = destnContractMap[_toChain];\n        DestnContract storage destnContract = map[\"receiveComputeTask\"];\n        require(destnContract.used, \"action not registered\");\n\n        // Construct payload\n        Payload memory data;\n        data.items = new PayloadItem[](1);\n        PayloadItem memory item = data.items[0];\n        item.name = \"nums\";\n        item.msgType = MsgType.EvmU32Array;\n        item.value = abi.encode(_nums);\n\n        SQoS[] memory sqos;\n        uint id = crossChainCall(\n            _toChain,\n            destnContract.contractAddress,\n            destnContract.funcName,\n            sqos,\n            data,\n            OCComputing.receiveComputeTaskCallback.selector\n        );\n        cachedData[id] = _nums;\n        currentId = id;\n    }\n\n    /**\n     * Receives outsourcing computing task from other chain\n     * @param _payload - payload which contains nums to be accumulated\n     */\n    function receiveComputeTask(Payload calldata _payload) external {\n        require(\n            msg.sender == address(crossChainContract),\n            \"Locker: caller is not CrossChain\"\n        );\n\n        // decode\n        (uint32[] memory _nums) = abi.decode(_payload.items[0].value, (uint32[]));\n        \n        // compute\n        uint ret = 0;\n        for (uint i = 0; i < _nums.length; i++) {\n            ret += _nums[i];\n        }\n\n        // Construct payload\n        Payload memory data;\n        data.items = new PayloadItem[](1);\n        PayloadItem memory item = data.items[0];\n        item.name = \"result\";\n        item.msgType = MsgType.EvmU32;\n        item.value = abi.encode(ret);\n        SQoS[] memory sqos;\n        crossChainRespond(sqos, data);\n    }\n\n    /**\n     * See IOCComputing\n     */\n    function receiveComputeTaskCallback(Payload calldata _payload) external {\n        require(\n            msg.sender == address(crossChainContract),\n            \"Locker: caller is not CrossChain\"\n        );\n\n        (uint32 _result) = abi.decode(_payload.items[0].value, (uint32));\n        SimplifiedMessage memory context = getContext();\n        OCResult storage result = ocResult[context.fromChain][context.session.id];\n        result.used = true;\n        result.result = _result;\n    }\n\n    ///////////////////////////////////////////////\n    /////    Send messages to other chains   //////\n    ///////////////////////////////////////////////\n\n    /**\n     * Register destination contract info\n     * @param _funcName - function name to be called\n     * @param _toChain - destination chain name\n     * @param _contractAddress - destination contract address\n     * @param _contractFuncName - contract function name\n     */\n    function registerDestnContract(\n        string calldata _funcName,\n        string calldata _toChain,\n        string calldata _contractAddress,\n        string calldata _contractFuncName\n    ) external onlyOwner {\n        mapping(string => DestnContract) storage map = destnContractMap[_toChain];\n        DestnContract storage destnContract = map[_funcName];\n        destnContract.contractAddress = _contractAddress;\n        destnContract.funcName = _contractFuncName;\n        destnContract.used = true;\n    }\n\n    ///////////////////////////////////////////////\n    ///    Receive messages from other chains   ///\n    ///////////////////////////////////////////////\n\n    /**\n     * Authorize contracts of other chains to call the functions of this contract\n     * @param _chainName - from chain name\n     * @param _sender - sender of cross chain message\n     * @param _funcName - action name which allowed to be invoked\n     */\n    function registerPermittedContract(\n        string calldata _chainName,\n        string calldata _sender,\n        string calldata _funcName\n    ) external onlyOwner {\n        mapping(string => string) storage map = permittedContractMap[\n            _chainName\n        ];\n        map[_funcName] = _sender;\n    }\n\n    /**\n     * This verify method will be invoked by the CrossChain contract automatically, ensure that only registered contract(registerSourceContract) calls are allowed\n     * @param _chainName - chain name of cross chain message\n     * @param _funcName - contract action name of cross chain message\n     * @param _sender - cross chain message sender\n     */\n    //  Will be deprecated soon\n    function verify(\n        string calldata _chainName,\n        bytes4 _funcName,\n        string calldata _sender\n    ) public view virtual returns (bool) {\n        // mapping(string => string) storage map = permittedContractMap[\n        //     _chainName\n        // ];\n        // string storage sender = map[_funcName];\n        // require(\n        //     keccak256(bytes(sender)) == keccak256(bytes(_sender)),\n        //     \"Sender does not match\"\n        // );\n        return true;\n    }\n}\n",
  "sourcePath": "/home/george/program/dante/solidity-contract-template/contracts/OCComputing.sol",
  "compiler": {
    "name": "solc",
    "version": "0.8.10+commit.fc410830.Emscripten.clang"
  },
  "schemaVersion": "3.4.6",
  "updatedAt": "2022-07-26T08:29:10.552Z",
  "devdoc": {
    "kind": "dev",
    "methods": {
      "owner()": {
        "details": "Returns the address of the current owner."
      },
      "receiveComputeTask(((string,uint8,bytes)[]))": {
        "params": {
          "_payload": "- payload which contains nums to be accumulated"
        }
      },
      "registerDestnContract(string,string,string,string)": {
        "params": {
          "_contractAddress": "- destination contract address",
          "_contractFuncName": "- contract function name",
          "_funcName": "- function name to be called",
          "_toChain": "- destination chain name"
        }
      },
      "registerPermittedContract(string,string,string)": {
        "params": {
          "_chainName": "- from chain name",
          "_funcName": "- action name which allowed to be invoked",
          "_sender": "- sender of cross chain message"
        }
      },
      "renounceOwnership()": {
        "details": "Leaves the contract without owner. It will not be possible to call `onlyOwner` functions anymore. Can only be called by the current owner. NOTE: Renouncing ownership will leave the contract without an owner, thereby removing any functionality that is only available to the owner."
      },
      "sendComputeTask(string,uint32[])": {
        "params": {
          "_nums": "- nums to be accumulated",
          "_toChain": "- to chain name"
        }
      },
      "setCrossChainContract(address)": {
        "params": {
          "_address": "- cross chain contract address"
        }
      },
      "transferOwnership(address)": {
        "details": "Transfers ownership of the contract to a new account (`newOwner`). Can only be called by the current owner."
      },
      "verify(string,bytes4,string)": {
        "params": {
          "_chainName": "- chain name of cross chain message",
          "_funcName": "- contract action name of cross chain message",
          "_sender": "- cross chain message sender"
        }
      }
    },
    "version": 1
  },
  "userdoc": {
    "kind": "user",
    "methods": {
      "receiveComputeTask(((string,uint8,bytes)[]))": {
        "notice": "Receives outsourcing computing task from other chain"
      },
      "receiveComputeTaskCallback(((string,uint8,bytes)[]))": {
        "notice": "See IOCComputing"
      },
      "registerDestnContract(string,string,string,string)": {
        "notice": "Register destination contract info"
      },
      "registerPermittedContract(string,string,string)": {
        "notice": "Authorize contracts of other chains to call the functions of this contract"
      },
      "sendComputeTask(string,uint32[])": {
        "notice": "Send outsourcing computing task to other chain"
      },
      "setCrossChainContract(address)": {
        "notice": "Set cross chain contract"
      },
      "verify(string,bytes4,string)": {
        "notice": "This verify method will be invoked by the CrossChain contract automatically, ensure that only registered contract(registerSourceContract) calls are allowed"
      }
    },
    "version": 1
  }
}