{
  "contractName": "OCComputing",
  "abi": [
    {
      "anonymous": false,
      "inputs": [
        {
          "indexed": true,
          "internalType": "address",
          "name": "previousOwner",
          "type": "address"
        },
        {
          "indexed": true,
          "internalType": "address",
          "name": "newOwner",
          "type": "address"
        }
      ],
      "name": "OwnershipTransferred",
      "type": "event"
    },
    {
      "inputs": [
        {
          "internalType": "bytes32",
          "name": "",
          "type": "bytes32"
        }
      ],
      "name": "callbackAbis",
      "outputs": [
        {
          "internalType": "string",
          "name": "",
          "type": "string"
        }
      ],
      "stateMutability": "view",
      "type": "function",
      "constant": true
    },
    {
      "inputs": [],
      "name": "crossChainContract",
      "outputs": [
        {
          "internalType": "contract ICrossChain",
          "name": "",
          "type": "address"
        }
      ],
      "stateMutability": "view",
      "type": "function",
      "constant": true
    },
    {
      "inputs": [
        {
          "internalType": "string",
          "name": "",
          "type": "string"
        },
        {
          "internalType": "string",
          "name": "",
          "type": "string"
        }
      ],
      "name": "destnContractMap",
      "outputs": [
        {
          "internalType": "bytes",
          "name": "contractAddress",
          "type": "bytes"
        },
        {
          "internalType": "bytes",
          "name": "funcName",
          "type": "bytes"
        },
        {
          "internalType": "bool",
          "name": "used",
          "type": "bool"
        }
      ],
      "stateMutability": "view",
      "type": "function",
      "constant": true
    },
    {
      "inputs": [],
      "name": "getContext",
      "outputs": [
        {
          "components": [
            {
              "internalType": "uint256",
              "name": "id",
              "type": "uint256"
            },
            {
              "internalType": "string",
              "name": "fromChain",
              "type": "string"
            },
            {
              "internalType": "bytes",
              "name": "sender",
              "type": "bytes"
            },
            {
              "internalType": "bytes",
              "name": "signer",
              "type": "bytes"
            },
            {
              "components": [
                {
                  "internalType": "enum SQoSType",
                  "name": "t",
                  "type": "uint8"
                },
                {
                  "internalType": "bytes",
                  "name": "v",
                  "type": "bytes"
                }
              ],
              "internalType": "struct SQoS[]",
              "name": "sqos",
              "type": "tuple[]"
            },
            {
              "internalType": "address",
              "name": "contractAddress",
              "type": "address"
            },
            {
              "internalType": "bytes4",
              "name": "action",
              "type": "bytes4"
            },
            {
              "components": [
                {
                  "internalType": "uint256",
                  "name": "id",
                  "type": "uint256"
                },
                {
                  "internalType": "uint8",
                  "name": "sessionType",
                  "type": "uint8"
                },
                {
                  "internalType": "bytes",
                  "name": "callback",
                  "type": "bytes"
                },
                {
                  "internalType": "bytes",
                  "name": "commitment",
                  "type": "bytes"
                },
                {
                  "internalType": "bytes",
                  "name": "answer",
                  "type": "bytes"
                }
              ],
              "internalType": "struct Session",
              "name": "session",
              "type": "tuple"
            }
          ],
          "internalType": "struct SimplifiedMessage",
          "name": "",
          "type": "tuple"
        }
      ],
      "stateMutability": "view",
      "type": "function",
      "constant": true
    },
    {
      "inputs": [
        {
          "internalType": "string",
          "name": "",
          "type": "string"
        },
        {
          "internalType": "uint256",
          "name": "",
          "type": "uint256"
        }
      ],
      "name": "ocResult",
      "outputs": [
        {
          "internalType": "bool",
          "name": "used",
          "type": "bool"
        },
        {
          "internalType": "uint32",
          "name": "result",
          "type": "uint32"
        },
        {
          "internalType": "uint32",
          "name": "expected",
          "type": "uint32"
        },
        {
          "internalType": "uint256",
          "name": "session",
          "type": "uint256"
        }
      ],
      "stateMutability": "view",
      "type": "function",
      "constant": true
    },
    {
      "inputs": [],
      "name": "owner",
      "outputs": [
        {
          "internalType": "address",
          "name": "",
          "type": "address"
        }
      ],
      "stateMutability": "view",
      "type": "function",
      "constant": true
    },
    {
      "inputs": [
        {
          "internalType": "string",
          "name": "",
          "type": "string"
        },
        {
          "internalType": "string",
          "name": "",
          "type": "string"
        }
      ],
      "name": "permittedContractMap",
      "outputs": [
        {
          "internalType": "string",
          "name": "",
          "type": "string"
        }
      ],
      "stateMutability": "view",
      "type": "function",
      "constant": true
    },
    {
      "inputs": [],
      "name": "renounceOwnership",
      "outputs": [],
      "stateMutability": "nonpayable",
      "type": "function"
    },
    {
      "inputs": [
        {
          "internalType": "address",
          "name": "_address",
          "type": "address"
        }
      ],
      "name": "setCrossChainContract",
      "outputs": [],
      "stateMutability": "nonpayable",
      "type": "function"
    },
    {
      "inputs": [
        {
          "internalType": "address",
          "name": "newOwner",
          "type": "address"
        }
      ],
      "name": "transferOwnership",
      "outputs": [],
      "stateMutability": "nonpayable",
      "type": "function"
    },
    {
      "inputs": [
        {
          "internalType": "string",
          "name": "_toChain",
          "type": "string"
        },
        {
          "internalType": "uint32[]",
          "name": "_nums",
          "type": "uint32[]"
        }
      ],
      "name": "sendComputeTask",
      "outputs": [],
      "stateMutability": "nonpayable",
      "type": "function"
    },
    {
      "inputs": [
        {
          "components": [
            {
              "components": [
                {
                  "internalType": "string",
                  "name": "name",
                  "type": "string"
                },
                {
                  "internalType": "enum MsgType",
                  "name": "msgType",
                  "type": "uint8"
                },
                {
                  "internalType": "bytes",
                  "name": "value",
                  "type": "bytes"
                }
              ],
              "internalType": "struct PayloadItem[]",
              "name": "items",
              "type": "tuple[]"
            }
          ],
          "internalType": "struct Payload",
          "name": "_payload",
          "type": "tuple"
        }
      ],
      "name": "receiveComputeTask",
      "outputs": [
        {
          "internalType": "uint256",
          "name": "",
          "type": "uint256"
        }
      ],
      "stateMutability": "nonpayable",
      "type": "function"
    },
    {
      "inputs": [
        {
          "internalType": "string",
          "name": "_chainName",
          "type": "string"
        }
      ],
      "name": "clear",
      "outputs": [],
      "stateMutability": "nonpayable",
      "type": "function"
    },
    {
      "inputs": [
        {
          "internalType": "string",
          "name": "_chainName",
          "type": "string"
        }
      ],
      "name": "getResults",
      "outputs": [
        {
          "components": [
            {
              "internalType": "bool",
              "name": "used",
              "type": "bool"
            },
            {
              "internalType": "uint32",
              "name": "result",
              "type": "uint32"
            },
            {
              "internalType": "uint32",
              "name": "expected",
              "type": "uint32"
            },
            {
              "internalType": "uint256",
              "name": "session",
              "type": "uint256"
            }
          ],
          "internalType": "struct OCComputing.OCResult[]",
          "name": "",
          "type": "tuple[]"
        }
      ],
      "stateMutability": "view",
      "type": "function",
      "constant": true
    },
    {
      "inputs": [
        {
          "components": [
            {
              "components": [
                {
                  "internalType": "string",
                  "name": "name",
                  "type": "string"
                },
                {
                  "internalType": "enum MsgType",
                  "name": "msgType",
                  "type": "uint8"
                },
                {
                  "internalType": "bytes",
                  "name": "value",
                  "type": "bytes"
                }
              ],
              "internalType": "struct PayloadItem[]",
              "name": "items",
              "type": "tuple[]"
            }
          ],
          "internalType": "struct Payload",
          "name": "_payload",
          "type": "tuple"
        }
      ],
      "name": "receiveComputeTaskCallback",
      "outputs": [
        {
          "internalType": "uint256",
          "name": "",
          "type": "uint256"
        }
      ],
      "stateMutability": "nonpayable",
      "type": "function"
    },
    {
      "inputs": [
        {
          "internalType": "string",
          "name": "_funcName",
          "type": "string"
        },
        {
          "internalType": "string",
          "name": "_toChain",
          "type": "string"
        },
        {
          "internalType": "bytes",
          "name": "_contractAddress",
          "type": "bytes"
        },
        {
          "internalType": "bytes",
          "name": "_contractFuncName",
          "type": "bytes"
        }
      ],
      "name": "registerDestnContract",
      "outputs": [],
      "stateMutability": "nonpayable",
      "type": "function"
    },
    {
      "inputs": [
        {
          "internalType": "string",
          "name": "_chainName",
          "type": "string"
        },
        {
          "internalType": "string",
          "name": "_sender",
          "type": "string"
        },
        {
          "internalType": "string",
          "name": "_funcName",
          "type": "string"
        }
      ],
      "name": "registerPermittedContract",
      "outputs": [],
      "stateMutability": "nonpayable",
      "type": "function"
    },
    {
      "inputs": [
        {
          "internalType": "string",
          "name": "_chainName",
          "type": "string"
        },
        {
          "internalType": "bytes4",
          "name": "_funcName",
          "type": "bytes4"
        },
        {
          "internalType": "bytes",
          "name": "_sender",
          "type": "bytes"
        }
      ],
      "name": "verify",
      "outputs": [
        {
          "internalType": "bool",
          "name": "",
          "type": "bool"
        }
      ],
      "stateMutability": "view",
      "type": "function",
      "constant": true
    }
  ],
  "bytecode": "0x608060405234801561001057600080fd5b5061001a3361001f565b61006f565b600080546001600160a01b038381166001600160a01b0319831681178455604051919092169283917f8be0079c531659141344cd1fd0a4f28419497f9722a3daafe3b4186f6b6457e09190a35050565b61241a8061007e6000396000f3fe608060405234801561001057600080fd5b50600436106101165760003560e01c806380899bba116100a2578063d64bf05a11610071578063d64bf05a14610273578063dbc90de1146102b5578063f2fde38b146102c8578063f50db507146102db578063fab1564e146102ee57600080fd5b806380899bba146101f95780638da5cb5b1461021b578063955a5ba414610240578063bb45acd91461026057600080fd5b806347e50a42116100e957806347e50a42146101815780634944e686146101a2578063715018a6146101cb57806379f6793c146101d35780637fac1127146101e657600080fd5b8063127f0f071461011b57806316cf503e1461013957806318d72b541461014e5780632ff20f0114610161575b600080fd5b610123610301565b60405161013091906115a6565b60405180910390f35b61014c6101473660046116c9565b610389565b005b61014c61015c36600461171f565b6103c1565b61017461016f3660046116c9565b6103eb565b6040516101309190611743565b61019461018f3660046117b2565b6104a1565b604051908152602001610130565b6101bb6101b0366004611802565b600195945050505050565b6040519015158152602001610130565b61014c610625565b61014c6101e1366004611886565b610639565b6101946101f43660046117b2565b61069c565b61020c610207366004611a4f565b610861565b60405161013093929190611ab2565b6000546001600160a01b03165b6040516001600160a01b039091168152602001610130565b61025361024e366004611aea565b6109be565b6040516101309190611b03565b61025361026e366004611a4f565b610a58565b610286610281366004611b16565b610a99565b6040516101309493929190931515845263ffffffff928316602085015291166040830152606082015260800190565b600154610228906001600160a01b031681565b61014c6102d636600461171f565b610b01565b61014c6102e9366004611b5a565b610b7a565b61014c6102fc366004611c1d565b610bfe565b610309611261565b600160009054906101000a90046001600160a01b03166001600160a01b0316639af7a48c6040518163ffffffff1660e01b8152600401600060405180830381865afa15801561035c573d6000803e3d6000fd5b505050506040513d6000823e601f3d908101601f191682016040526103849190810190611eda565b905090565b610391610f8a565b600582826040516103a3929190612003565b908152602001604051809103902060006103bd91906112eb565b5050565b6103c9610f8a565b600180546001600160a01b0319166001600160a01b0392909216919091179055565b6060600583836040516103ff929190612003565b9081526020016040518091039020805480602002602001604051908101604052809291908181526020016000905b828210156104955760008481526020908190206040805160808101825260028602909201805460ff81161515845263ffffffff61010082048116858701526501000000000090910416918301919091526001908101546060830152908352909201910161042d565b50505050905092915050565b6001546000906001600160a01b031633146104be57506064919050565b60006104ca8380612013565b60008181106104db576104db61205c565b90506020028101906104ed9190612072565b6104fb906040810190612092565b81019061050891906120ec565b90506000805b8251811015610556578281815181106105295761052961205c565b602002602001015163ffffffff16826105429190612199565b91508061054e816121b1565b91505061050e565b506040805160208101825260608152815160018082528184019093529091816020015b6040805160608082018352808252600060208301529181019190915281526020019060019003908161057957505080825280516000919082906105be576105be61205c565b60209081029190910181015160408051808201825260068152651c995cdd5b1d60d21b81850152825260038284015280518084018790528151808203909401845281018152810191909152905060606106178184610fe4565b506000979650505050505050565b61062d610f8a565b61063760006110fb565b565b610641610f8a565b600060048787604051610655929190612003565b908152602001604051809103902090508484828585604051610678929190612003565b90815260405190819003602001902061069292909161130c565b5050505050505050565b6001546000906001600160a01b031633146106b957506064919050565b60006106c58380612013565b60008181106106d6576106d661205c565b90506020028101906106e89190612072565b6106f6906040810190612092565b81019061070391906121cc565b9050600061070f610301565b905060008060005b6005846020015160405161072b91906121e7565b908152604051908190036020019020548110156107b15760e084015151602085015160405160059161075c916121e7565b9081526020016040518091039020828154811061077b5761077b61205c565b906000526020600020906002020160010154141561079f57600191508092506107b1565b806107a9816121b1565b915050610717565b50806107f05760405162461bcd60e51b8152602060048201526009602482015268139bdd08199bdd5b9960ba1b60448201526064015b60405180910390fd5b60006005846020015160405161080691906121e7565b908152602001604051809103902083815481106108255761082561205c565b600091825260208220600290910201805463ffffffff9097166101000264ffffffffff1990971696909617600117909555509295945050505050565b815160208184018101805160038252928201948201949094209190935281518083018401805192815290840192909301919091209152805481906108a4906121f9565b80601f01602080910402602001604051908101604052809291908181526020018280546108d0906121f9565b801561091d5780601f106108f25761010080835404028352916020019161091d565b820191906000526020600020905b81548152906001019060200180831161090057829003601f168201915b505050505090806001018054610932906121f9565b80601f016020809104026020016040519081016040528092919081815260200182805461095e906121f9565b80156109ab5780601f10610980576101008083540402835291602001916109ab565b820191906000526020600020905b81548152906001019060200180831161098e57829003601f168201915b5050506002909301549192505060ff1683565b600260205260009081526040902080546109d7906121f9565b80601f0160208091040260200160405190810160405280929190818152602001828054610a03906121f9565b8015610a505780601f10610a2557610100808354040283529160200191610a50565b820191906000526020600020905b815481529060010190602001808311610a3357829003601f168201915b505050505081565b81516020818401810180516004825292820194820194909420919093528151808301840180519281529084019290930191909120915280546109d7906121f9565b81516020818401810180516005825292820191850191909120919052805482908110610ac457600080fd5b60009182526020909120600290910201805460019091015460ff8216935063ffffffff610100830481169350650100000000009092049091169084565b610b09610f8a565b6001600160a01b038116610b6e5760405162461bcd60e51b815260206004820152602660248201527f4f776e61626c653a206e6577206f776e657220697320746865207a65726f206160448201526564647265737360d01b60648201526084016107e7565b610b77816110fb565b50565b610b82610f8a565b600060038787604051610b96929190612003565b908152602001604051809103902090506000818a8a604051610bb9929190612003565b9081526040519081900360200190209050610bd581878761130c565b50610be460018201858561130c565b50600201805460ff19166001179055505050505050505050565b600060038585604051610c12929190612003565b9081526040519081900360200181207172656365697665436f6d707574655461736b60701b825291506000908290601201908152604051908190036020019020600281015490915060ff16610ca15760405162461bcd60e51b81526020600482015260156024820152741858dd1a5bdb881b9bdd081c9959da5cdd195c9959605a1b60448201526064016107e7565b6040805160208101825260608152815160018082528184019093529091816020015b60408051606080820183528082526000602083015291810191909152815260200190600190039081610cc35750508082528051600091908290610d0857610d0861205c565b60209081029190910181015160408051808201825260048152636e756d7360e01b818501528252600e8284015251909250610d47918891889101612234565b604051602081830303815290604052816040018190525060606000610ec28a8a8080601f016020809104026020016040519081016040528093929190818152602001838380828437600092019190915250508854899250610da891506121f9565b80601f0160208091040260200160405190810160405280929190818152602001828054610dd4906121f9565b8015610e215780601f10610df657610100808354040283529160200191610e21565b820191906000526020600020905b815481529060010190602001808311610e0457829003601f168201915b5050505050876001018054610e35906121f9565b80601f0160208091040260200160405190810160405280929190818152602001828054610e61906121f9565b8015610eae5780601f10610e8357610100808354040283529160200191610eae565b820191906000526020600020905b815481529060010190602001808311610e9157829003601f168201915b50505050508588637fac112760e01b61114b565b9050600060058b8b604051610ed8929190612003565b908152602001604051809103902060018160018154018082558091505003906000526020600020906002020190506000805b89811015610f57578a8a82818110610f2457610f2461205c565b9050602002016020810190610f3991906121cc565b610f439083612272565b915080610f4f816121b1565b915050610f0a565b50815463ffffffff909116650100000000000268ffffffff00000000001990911617815560010155505050505050505050565b6000546001600160a01b031633146106375760405162461bcd60e51b815260206004820181905260248201527f4f776e61626c653a2063616c6c6572206973206e6f7420746865206f776e657260448201526064016107e7565b600080610fef610301565b9050610ff9611390565b60208083015182528181018690526040805160a081018252845181526000818401819052825180850184528181528284015282518085018452818152606080840191909152835180860185529182526080830191909152808501919091528151908101825281850151815260e085015182015192810192909252818101869052808301919091526001549051632f260fd760e01b81526001600160a01b0390911690632f260fd7906110af90849060040161229a565b6020604051808303816000875af11580156110ce573d6000803e3d6000fd5b505050506040513d601f19601f820116820180604052508101906110f291906123cb565b95945050505050565b600080546001600160a01b038381166001600160a01b0319831681178455604051919092169283917f8be0079c531659141344cd1fd0a4f28419497f9722a3daafe3b4186f6b6457e09190a35050565b6000611155611390565b87815260208082018690526040805160a081018252600080825281840181905282516001600160e01b0319881681860152835160048183038101825260249092018552838501528351808601855282815260608085019190915284518087018652928352608084019290925281860192909252825190810183528a8152928301899052828201879052818401929092526001549051632f260fd760e01b81526001600160a01b0390911691632f260fd7916112129185910161229a565b6020604051808303816000875af1158015611231573d6000803e3d6000fd5b505050506040513d601f19601f8201168201806040525081019061125591906123cb565b98975050505050505050565b604051806101000160405280600081526020016060815260200160608152602001606081526020016060815260200160006001600160a01b0316815260200160006001600160e01b03191681526020016112e66040518060a0016040528060008152602001600060ff1681526020016060815260200160608152602001606081525090565b905290565b5080546000825560020290600052602060002090810190610b7791906113eb565b828054611318906121f9565b90600052602060002090601f01602090048101928261133a5760008555611380565b82601f106113535782800160ff19823516178555611380565b82800160010185558215611380579182015b82811115611380578235825591602001919060010190611365565b5061138c929150611413565b5090565b604051806080016040528060608152602001606081526020016113b1611428565b81526020016112e66040518060a0016040528060008152602001600060ff1681526020016060815260200160608152602001606081525090565b5b8082111561138c57805468ffffffffffffffffff19168155600060018201556002016113ec565b5b8082111561138c5760008155600101611414565b604051806060016040528060608152602001606081526020016112e66040518060200160405280606081525090565b60005b8381101561147257818101518382015260200161145a565b83811115611481576000848401525b50505050565b6000815180845261149f816020860160208601611457565b601f01601f19169290920160200192915050565b634e487b7160e01b600052602160045260246000fd5b600082825180855260208086019550808260051b84010181860160005b8481101561153a57601f19868403018952815160408151600a811061150d5761150d6114b3565b8552908501518585018290529061152681860183611487565b9a86019a94505050908301906001016114e6565b5090979650505050505050565b8051825260ff60208201511660208301526000604082015160a0604085015261157360a0850182611487565b90506060830151848203606086015261158c8282611487565b915050608083015184820360808601526110f28282611487565b6020815281516020820152600060208301516101008060408501526115cf610120850183611487565b91506040850151601f19808685030160608701526115ed8483611487565b9350606087015191508086850301608087015261160a8483611487565b935060808701519150808685030160a087015261162784836114c9565b935060a0870151915061164560c08701836001600160a01b03169052565b60c08701516001600160e01b0319811660e0880152915060e08701519150808685030183870152506116778382611547565b9695505050505050565b60008083601f84011261169357600080fd5b5081356001600160401b038111156116aa57600080fd5b6020830191508360208285010111156116c257600080fd5b9250929050565b600080602083850312156116dc57600080fd5b82356001600160401b038111156116f257600080fd5b6116fe85828601611681565b90969095509350505050565b6001600160a01b0381168114610b7757600080fd5b60006020828403121561173157600080fd5b813561173c8161170a565b9392505050565b602080825282518282018190526000919060409081850190868401855b828110156117a55781518051151585528681015163ffffffff908116888701528682015116868601526060908101519085015260809093019290850190600101611760565b5091979650505050505050565b6000602082840312156117c457600080fd5b81356001600160401b038111156117da57600080fd5b82016020818503121561173c57600080fd5b6001600160e01b031981168114610b7757600080fd5b60008060008060006060868803121561181a57600080fd5b85356001600160401b038082111561183157600080fd5b61183d89838a01611681565b909750955060208801359150611852826117ec565b9093506040870135908082111561186857600080fd5b5061187588828901611681565b969995985093965092949392505050565b6000806000806000806060878903121561189f57600080fd5b86356001600160401b03808211156118b657600080fd5b6118c28a838b01611681565b909850965060208901359150808211156118db57600080fd5b6118e78a838b01611681565b9096509450604089013591508082111561190057600080fd5b5061190d89828a01611681565b979a9699509497509295939492505050565b634e487b7160e01b600052604160045260246000fd5b604080519081016001600160401b03811182821017156119575761195761191f565b60405290565b60405160a081016001600160401b03811182821017156119575761195761191f565b60405161010081016001600160401b03811182821017156119575761195761191f565b604051601f8201601f191681016001600160401b03811182821017156119ca576119ca61191f565b604052919050565b60006001600160401b038211156119eb576119eb61191f565b50601f01601f191660200190565b600082601f830112611a0a57600080fd5b8135611a1d611a18826119d2565b6119a2565b818152846020838601011115611a3257600080fd5b816020850160208301376000918101602001919091529392505050565b60008060408385031215611a6257600080fd5b82356001600160401b0380821115611a7957600080fd5b611a85868387016119f9565b93506020850135915080821115611a9b57600080fd5b50611aa8858286016119f9565b9150509250929050565b606081526000611ac56060830186611487565b8281036020840152611ad78186611487565b9150508215156040830152949350505050565b600060208284031215611afc57600080fd5b5035919050565b60208152600061173c6020830184611487565b60008060408385031215611b2957600080fd5b82356001600160401b03811115611b3f57600080fd5b611b4b858286016119f9565b95602094909401359450505050565b6000806000806000806000806080898b031215611b7657600080fd5b88356001600160401b0380821115611b8d57600080fd5b611b998c838d01611681565b909a50985060208b0135915080821115611bb257600080fd5b611bbe8c838d01611681565b909850965060408b0135915080821115611bd757600080fd5b611be38c838d01611681565b909650945060608b0135915080821115611bfc57600080fd5b50611c098b828c01611681565b999c989b5096995094979396929594505050565b60008060008060408587031215611c3357600080fd5b84356001600160401b0380821115611c4a57600080fd5b611c5688838901611681565b90965094506020870135915080821115611c6f57600080fd5b818701915087601f830112611c8357600080fd5b813581811115611c9257600080fd5b8860208260051b8501011115611ca757600080fd5b95989497505060200194505050565b600082601f830112611cc757600080fd5b8151611cd5611a18826119d2565b818152846020838601011115611cea57600080fd5b611cfb826020830160208701611457565b949350505050565b60006001600160401b03821115611d1c57611d1c61191f565b5060051b60200190565b600082601f830112611d3757600080fd5b81516020611d47611a1883611d03565b82815260059290921b84018101918181019086841115611d6657600080fd5b8286015b84811015611df55780516001600160401b0380821115611d8a5760008081fd5b908801906040828b03601f1901811315611da45760008081fd5b611dac611935565b87840151600a8110611dbe5760008081fd5b8152908301519082821115611dd35760008081fd5b611de18c8984870101611cb6565b818901528652505050918301918301611d6a565b509695505050505050565b8051611e0b8161170a565b919050565b8051611e0b816117ec565b805160ff81168114611e0b57600080fd5b600060a08284031215611e3e57600080fd5b611e4661195d565b905081518152611e5860208301611e1b565b602082015260408201516001600160401b0380821115611e7757600080fd5b611e8385838601611cb6565b60408401526060840151915080821115611e9c57600080fd5b611ea885838601611cb6565b60608401526080840151915080821115611ec157600080fd5b50611ece84828501611cb6565b60808301525092915050565b600060208284031215611eec57600080fd5b81516001600160401b0380821115611f0357600080fd5b908301906101008286031215611f1857600080fd5b611f2061197f565b82518152602083015182811115611f3657600080fd5b611f4287828601611cb6565b602083015250604083015182811115611f5a57600080fd5b611f6687828601611cb6565b604083015250606083015182811115611f7e57600080fd5b611f8a87828601611cb6565b606083015250608083015182811115611fa257600080fd5b611fae87828601611d26565b608083015250611fc060a08401611e00565b60a0820152611fd160c08401611e10565b60c082015260e083015182811115611fe857600080fd5b611ff487828601611e2c565b60e08301525095945050505050565b8183823760009101908152919050565b6000808335601e1984360301811261202a57600080fd5b8301803591506001600160401b0382111561204457600080fd5b6020019150600581901b36038213156116c257600080fd5b634e487b7160e01b600052603260045260246000fd5b60008235605e1983360301811261208857600080fd5b9190910192915050565b6000808335601e198436030181126120a957600080fd5b8301803591506001600160401b038211156120c357600080fd5b6020019150368190038213156116c257600080fd5b803563ffffffff81168114611e0b57600080fd5b600060208083850312156120ff57600080fd5b82356001600160401b0381111561211557600080fd5b8301601f8101851361212657600080fd5b8035612134611a1882611d03565b81815260059190911b8201830190838101908783111561215357600080fd5b928401925b8284101561217857612169846120d8565b82529284019290840190612158565b979650505050505050565b634e487b7160e01b600052601160045260246000fd5b600082198211156121ac576121ac612183565b500190565b60006000198214156121c5576121c5612183565b5060010190565b6000602082840312156121de57600080fd5b61173c826120d8565b60008251612088818460208701611457565b600181811c9082168061220d57607f821691505b6020821081141561222e57634e487b7160e01b600052602260045260246000fd5b50919050565b60208082528181018390526000908460408401835b86811015611df55763ffffffff61225f846120d8565b1682529183019190830190600101612249565b600063ffffffff80831681851680830382111561229157612291612183565b01949350505050565b6000602080835283516080828501526122b660a0850182611487565b905081850151601f1960408187850301818801526122d484846114c9565b9350808801519250606082888603018189015283518186526122f882870182611487565b9050868501518682038888015261230f8282611487565b9584015187870397850197909752505093518584528051868501819052600581901b850183019591870194908382019060005b818110156123aa57838903603f1901835287518051868b52612366878c0182611487565b90508b8201516017811061237c5761237c6114b3565b8b8d0152908701518a8203888c0152906123968183611487565b9a5050509689019691890191600101612342565b5050505088015187850390920160808801525092506110f290508183611547565b6000602082840312156123dd57600080fd5b505191905056fea26469706673582212201a5fbbd685769fe1585965fcabcd5dc26504f339dd5b38e06444a7d1ec7a830164736f6c634300080a0033",
  "immutableReferences": {},
  "source": "// SPDX-License-Identifier: MIT\npragma solidity >=0.8.0 <0.9.0;\n\nimport \"@openzeppelin/contracts/access/Ownable.sol\";\nimport \"./CrossChain/ContractAdvanced.sol\";\n\nuint256 constant CALLER_NOT_CROSS_CHAIN_CONTRACT = 100;\n\n// `OCComputing` is an example of multi-chain services with necessary implementations in `ContractAdvanced`, which provides basic cross-chain call interfaces.\ncontract OCComputing is ContractAdvanced {\n    // Destination contract info\n    struct DestnContract {\n        bytes contractAddress; // destination contract address\n        bytes funcName; // destination contract action name\n        bool used;\n    }\n\n    struct OCResult {\n        bool used;\n        uint32 result;\n        uint32 expected;\n        uint256 session;\n    }\n\n    // Cross-chain destination contract map\n    mapping(string => mapping(string => DestnContract)) public destnContractMap;\n\n    // Cross-chain permitted contract map\n    mapping(string => mapping(string => string)) public permittedContractMap;\n\n    // Outsourcing computing result\n    mapping(string => OCResult[]) public ocResult;\n    \n    /**\n     * Send outsourcing computing task to other chain\n     * @param _toChain - to chain name\n     * @param _nums - nums to be accumulated\n     */\n    function sendComputeTask(string calldata _toChain, uint32[] calldata _nums) external {\n        mapping(string => DestnContract) storage map = destnContractMap[_toChain];\n        DestnContract storage destnContract = map[\"receiveComputeTask\"];\n        require(destnContract.used, \"action not registered\");\n\n        // Construct payload\n        Payload memory data;\n        data.items = new PayloadItem[](1);\n        PayloadItem memory item = data.items[0];\n        item.name = \"nums\";\n        item.msgType = MsgType.EvmU32Array;\n        item.value = abi.encode(_nums);\n\n        SQoS[] memory sqos;\n        uint256 id = crossChainCall(\n            _toChain,\n            destnContract.contractAddress,\n            destnContract.funcName,\n            sqos,\n            data,\n            OCComputing.receiveComputeTaskCallback.selector\n        );\n        OCResult storage result = ocResult[_toChain].push();\n\n        uint32 sum = 0;\n        for (uint256 i = 0; i < _nums.length; i++) {\n            sum += _nums[i];\n        }\n        result.expected = sum;\n        result.session = id;\n    }\n\n    /**\n     * Receives outsourcing computing task from other chain\n     * @param _payload - payload which contains nums to be accumulated\n     */\n    function receiveComputeTask(Payload calldata _payload) external returns (uint256) {\n        if (msg.sender != address(crossChainContract)) {\n            return CALLER_NOT_CROSS_CHAIN_CONTRACT;\n        }\n\n        // decode\n        (uint32[] memory _nums) = abi.decode(_payload.items[0].value, (uint32[]));\n        \n        // compute\n        uint ret = 0;\n        for (uint i = 0; i < _nums.length; i++) {\n            ret += _nums[i];\n        }\n\n        // Construct payload\n        Payload memory data;\n        data.items = new PayloadItem[](1);\n        PayloadItem memory item = data.items[0];\n        item.name = \"result\";\n        item.msgType = MsgType.EvmU32;\n        item.value = abi.encode(ret);\n        SQoS[] memory sqos;\n        crossChainRespond(sqos, data);\n\n        return 0;\n    }\n\n    function clear(string calldata _chainName) external onlyOwner {\n        delete ocResult[_chainName];\n    }\n\n    function getResults(string calldata _chainName) external view returns (OCResult[] memory) {\n        return ocResult[_chainName];\n    }\n\n    /**\n     * See IOCComputing\n     */\n    function receiveComputeTaskCallback(Payload calldata _payload) external returns (uint256) {\n        if (msg.sender != address(crossChainContract)) {\n            return CALLER_NOT_CROSS_CHAIN_CONTRACT;\n        }\n\n        (uint32 _result) = abi.decode(_payload.items[0].value, (uint32));\n        SimplifiedMessage memory context = getContext();\n        uint256 index = 0;\n        bool found = false;\n        for (uint256 i = 0; i < ocResult[context.fromChain].length; i++) {\n            if (ocResult[context.fromChain][i].session == context.session.id) {\n                found = true;\n                index = i;\n                break;\n            }\n        }\n        require(found, \"Not found\");\n        OCResult storage result = ocResult[context.fromChain][index];\n        result.used = true;\n        result.result = _result;\n\n        return 0;\n    }\n\n    ///////////////////////////////////////////////\n    /////    Send messages to other chains   //////\n    ///////////////////////////////////////////////\n\n    /**\n     * Register destination contract info\n     * @param _funcName - function name to be called\n     * @param _toChain - destination chain name\n     * @param _contractAddress - destination contract address\n     * @param _contractFuncName - contract function name\n     */\n    function registerDestnContract(\n        string calldata _funcName,\n        string calldata _toChain,\n        bytes calldata _contractAddress,\n        bytes calldata _contractFuncName\n    ) external onlyOwner {\n        mapping(string => DestnContract) storage map = destnContractMap[_toChain];\n        DestnContract storage destnContract = map[_funcName];\n        destnContract.contractAddress = _contractAddress;\n        destnContract.funcName = _contractFuncName;\n        destnContract.used = true;\n    }\n\n    ///////////////////////////////////////////////\n    ///    Receive messages from other chains   ///\n    ///////////////////////////////////////////////\n\n    /**\n     * Authorize contracts of other chains to call the functions of this contract\n     * @param _chainName - from chain name\n     * @param _sender - sender of cross chain message\n     * @param _funcName - action name which allowed to be invoked\n     */\n    function registerPermittedContract(\n        string calldata _chainName,\n        string calldata _sender,\n        string calldata _funcName\n    ) external onlyOwner {\n        mapping(string => string) storage map = permittedContractMap[\n            _chainName\n        ];\n        map[_funcName] = _sender;\n    }\n\n    /**\n     * This verify method will be invoked by the CrossChain contract automatically, ensure that only registered contract(registerSourceContract) calls are allowed\n     * @param _chainName - chain name of cross chain message\n     * @param _funcName - contract action name of cross chain message\n     * @param _sender - cross chain message sender\n     */\n    //  Will be deprecated soon\n    function verify(\n        string calldata _chainName,\n        bytes4 _funcName,\n        bytes calldata _sender\n    ) public view virtual returns (bool) {\n        // mapping(string => string) storage map = permittedContractMap[\n        //     _chainName\n        // ];\n        // string storage sender = map[_funcName];\n        // require(\n        //     keccak256(bytes(sender)) == keccak256(bytes(_sender)),\n        //     \"Sender does not match\"\n        // );\n        return true;\n    }\n}\n",
  "sourcePath": "/home/george/program/dante/solidity-contract-template/contracts/OCComputing.sol",
  "compiler": {
    "name": "solc",
    "version": "0.8.10+commit.fc410830.Emscripten.clang"
  },
  "schemaVersion": "3.4.6",
  "updatedAt": "2022-09-20T15:02:15.763Z",
  "networkType": "ethereum",
  "devdoc": {
    "kind": "dev",
    "methods": {
      "owner()": {
        "details": "Returns the address of the current owner."
      },
      "receiveComputeTask(((string,uint8,bytes)[]))": {
        "params": {
          "_payload": "- payload which contains nums to be accumulated"
        }
      },
      "registerDestnContract(string,string,bytes,bytes)": {
        "params": {
          "_contractAddress": "- destination contract address",
          "_contractFuncName": "- contract function name",
          "_funcName": "- function name to be called",
          "_toChain": "- destination chain name"
        }
      },
      "registerPermittedContract(string,string,string)": {
        "params": {
          "_chainName": "- from chain name",
          "_funcName": "- action name which allowed to be invoked",
          "_sender": "- sender of cross chain message"
        }
      },
      "renounceOwnership()": {
        "details": "Leaves the contract without owner. It will not be possible to call `onlyOwner` functions anymore. Can only be called by the current owner. NOTE: Renouncing ownership will leave the contract without an owner, thereby removing any functionality that is only available to the owner."
      },
      "sendComputeTask(string,uint32[])": {
        "params": {
          "_nums": "- nums to be accumulated",
          "_toChain": "- to chain name"
        }
      },
      "setCrossChainContract(address)": {
        "params": {
          "_address": "- cross chain contract address"
        }
      },
      "transferOwnership(address)": {
        "details": "Transfers ownership of the contract to a new account (`newOwner`). Can only be called by the current owner."
      },
      "verify(string,bytes4,bytes)": {
        "params": {
          "_chainName": "- chain name of cross chain message",
          "_funcName": "- contract action name of cross chain message",
          "_sender": "- cross chain message sender"
        }
      }
    },
    "version": 1
  },
  "userdoc": {
    "kind": "user",
    "methods": {
      "receiveComputeTask(((string,uint8,bytes)[]))": {
        "notice": "Receives outsourcing computing task from other chain"
      },
      "receiveComputeTaskCallback(((string,uint8,bytes)[]))": {
        "notice": "See IOCComputing"
      },
      "registerDestnContract(string,string,bytes,bytes)": {
        "notice": "Register destination contract info"
      },
      "registerPermittedContract(string,string,string)": {
        "notice": "Authorize contracts of other chains to call the functions of this contract"
      },
      "sendComputeTask(string,uint32[])": {
        "notice": "Send outsourcing computing task to other chain"
      },
      "setCrossChainContract(address)": {
        "notice": "Set cross chain contract"
      },
      "verify(string,bytes4,bytes)": {
        "notice": "This verify method will be invoked by the CrossChain contract automatically, ensure that only registered contract(registerSourceContract) calls are allowed"
      }
    },
    "version": 1
  }
}