{
  "contractName": "OCComputing",
  "abi": [
    {
      "anonymous": false,
      "inputs": [
        {
          "indexed": true,
          "internalType": "address",
          "name": "previousOwner",
          "type": "address"
        },
        {
          "indexed": true,
          "internalType": "address",
          "name": "newOwner",
          "type": "address"
        }
      ],
      "name": "OwnershipTransferred",
      "type": "event"
    },
    {
      "inputs": [
        {
          "internalType": "bytes32",
          "name": "",
          "type": "bytes32"
        }
      ],
      "name": "callbackAbis",
      "outputs": [
        {
          "internalType": "string",
          "name": "",
          "type": "string"
        }
      ],
      "stateMutability": "view",
      "type": "function",
      "constant": true
    },
    {
      "inputs": [],
      "name": "crossChainContract",
      "outputs": [
        {
          "internalType": "contract ICrossChain",
          "name": "",
          "type": "address"
        }
      ],
      "stateMutability": "view",
      "type": "function",
      "constant": true
    },
    {
      "inputs": [
        {
          "internalType": "string",
          "name": "",
          "type": "string"
        },
        {
          "internalType": "string",
          "name": "",
          "type": "string"
        }
      ],
      "name": "destnContractMap",
      "outputs": [
        {
          "internalType": "string",
          "name": "contractAddress",
          "type": "string"
        },
        {
          "internalType": "string",
          "name": "funcName",
          "type": "string"
        },
        {
          "internalType": "bool",
          "name": "used",
          "type": "bool"
        }
      ],
      "stateMutability": "view",
      "type": "function",
      "constant": true
    },
    {
      "inputs": [],
      "name": "getContext",
      "outputs": [
        {
          "components": [
            {
              "internalType": "uint256",
              "name": "id",
              "type": "uint256"
            },
            {
              "internalType": "string",
              "name": "fromChain",
              "type": "string"
            },
            {
              "internalType": "string",
              "name": "sender",
              "type": "string"
            },
            {
              "internalType": "string",
              "name": "signer",
              "type": "string"
            },
            {
              "components": [
                {
                  "internalType": "enum SQoSType",
                  "name": "t",
                  "type": "uint8"
                },
                {
                  "internalType": "string",
                  "name": "v",
                  "type": "string"
                }
              ],
              "internalType": "struct SQoS[]",
              "name": "sqos",
              "type": "tuple[]"
            },
            {
              "internalType": "address",
              "name": "contractAddress",
              "type": "address"
            },
            {
              "internalType": "bytes4",
              "name": "action",
              "type": "bytes4"
            },
            {
              "components": [
                {
                  "internalType": "uint256",
                  "name": "id",
                  "type": "uint256"
                },
                {
                  "internalType": "bytes",
                  "name": "callback",
                  "type": "bytes"
                }
              ],
              "internalType": "struct Session",
              "name": "session",
              "type": "tuple"
            }
          ],
          "internalType": "struct SimplifiedMessage",
          "name": "",
          "type": "tuple"
        }
      ],
      "stateMutability": "view",
      "type": "function",
      "constant": true
    },
    {
      "inputs": [
        {
          "internalType": "string",
          "name": "",
          "type": "string"
        },
        {
          "internalType": "uint256",
          "name": "",
          "type": "uint256"
        }
      ],
      "name": "ocResult",
      "outputs": [
        {
          "internalType": "bool",
          "name": "used",
          "type": "bool"
        },
        {
          "internalType": "uint256",
          "name": "result",
          "type": "uint256"
        }
      ],
      "stateMutability": "view",
      "type": "function",
      "constant": true
    },
    {
      "inputs": [],
      "name": "owner",
      "outputs": [
        {
          "internalType": "address",
          "name": "",
          "type": "address"
        }
      ],
      "stateMutability": "view",
      "type": "function",
      "constant": true
    },
    {
      "inputs": [
        {
          "internalType": "string",
          "name": "",
          "type": "string"
        },
        {
          "internalType": "string",
          "name": "",
          "type": "string"
        }
      ],
      "name": "permittedContractMap",
      "outputs": [
        {
          "internalType": "string",
          "name": "",
          "type": "string"
        }
      ],
      "stateMutability": "view",
      "type": "function",
      "constant": true
    },
    {
      "inputs": [],
      "name": "renounceOwnership",
      "outputs": [],
      "stateMutability": "nonpayable",
      "type": "function"
    },
    {
      "inputs": [
        {
          "internalType": "address",
          "name": "_address",
          "type": "address"
        }
      ],
      "name": "setCrossChainContract",
      "outputs": [],
      "stateMutability": "nonpayable",
      "type": "function"
    },
    {
      "inputs": [
        {
          "internalType": "address",
          "name": "newOwner",
          "type": "address"
        }
      ],
      "name": "transferOwnership",
      "outputs": [],
      "stateMutability": "nonpayable",
      "type": "function"
    },
    {
      "inputs": [
        {
          "internalType": "string",
          "name": "_toChain",
          "type": "string"
        },
        {
          "internalType": "uint32[]",
          "name": "_nums",
          "type": "uint32[]"
        }
      ],
      "name": "sendComputeTask",
      "outputs": [],
      "stateMutability": "nonpayable",
      "type": "function"
    },
    {
      "inputs": [
        {
          "components": [
            {
              "components": [
                {
                  "internalType": "string",
                  "name": "name",
                  "type": "string"
                },
                {
                  "internalType": "enum MsgType",
                  "name": "msgType",
                  "type": "uint8"
                },
                {
                  "internalType": "bytes",
                  "name": "value",
                  "type": "bytes"
                }
              ],
              "internalType": "struct PayloadItem[]",
              "name": "items",
              "type": "tuple[]"
            }
          ],
          "internalType": "struct Payload",
          "name": "_payload",
          "type": "tuple"
        }
      ],
      "name": "receiveComputeTask",
      "outputs": [],
      "stateMutability": "nonpayable",
      "type": "function"
    },
    {
      "inputs": [
        {
          "components": [
            {
              "components": [
                {
                  "internalType": "string",
                  "name": "name",
                  "type": "string"
                },
                {
                  "internalType": "enum MsgType",
                  "name": "msgType",
                  "type": "uint8"
                },
                {
                  "internalType": "bytes",
                  "name": "value",
                  "type": "bytes"
                }
              ],
              "internalType": "struct PayloadItem[]",
              "name": "items",
              "type": "tuple[]"
            }
          ],
          "internalType": "struct Payload",
          "name": "_payload",
          "type": "tuple"
        }
      ],
      "name": "receiveComputeTaskCallback",
      "outputs": [],
      "stateMutability": "nonpayable",
      "type": "function"
    },
    {
      "inputs": [
        {
          "internalType": "string",
          "name": "_funcName",
          "type": "string"
        },
        {
          "internalType": "string",
          "name": "_toChain",
          "type": "string"
        },
        {
          "internalType": "string",
          "name": "_contractAddress",
          "type": "string"
        },
        {
          "internalType": "string",
          "name": "_contractFuncName",
          "type": "string"
        }
      ],
      "name": "registerDestnContract",
      "outputs": [],
      "stateMutability": "nonpayable",
      "type": "function"
    },
    {
      "inputs": [
        {
          "internalType": "string",
          "name": "_chainName",
          "type": "string"
        },
        {
          "internalType": "string",
          "name": "_sender",
          "type": "string"
        },
        {
          "internalType": "string",
          "name": "_funcName",
          "type": "string"
        }
      ],
      "name": "registerPermittedContract",
      "outputs": [],
      "stateMutability": "nonpayable",
      "type": "function"
    },
    {
      "inputs": [
        {
          "internalType": "string",
          "name": "_chainName",
          "type": "string"
        },
        {
          "internalType": "bytes4",
          "name": "_funcName",
          "type": "bytes4"
        },
        {
          "internalType": "string",
          "name": "_sender",
          "type": "string"
        }
      ],
      "name": "verify",
      "outputs": [
        {
          "internalType": "bool",
          "name": "",
          "type": "bool"
        }
      ],
      "stateMutability": "view",
      "type": "function",
      "constant": true
    }
  ],
  "bytecode": "0x608060405234801561001057600080fd5b5061001a3361001f565b61006f565b600080546001600160a01b038381166001600160a01b0319831681178455604051919092169283917f8be0079c531659141344cd1fd0a4f28419497f9722a3daafe3b4186f6b6457e09190a35050565b611fdd8061007e6000396000f3fe608060405234801561001057600080fd5b50600436106101005760003560e01c80638da5cb5b11610097578063d64bf05a11610066578063d64bf05a1461022b578063dbc90de11461028a578063f2fde38b1461029d578063fab1564e146102b057600080fd5b80638da5cb5b146101c0578063955a5ba4146101e5578063babe5dd614610205578063bb45acd91461021857600080fd5b8063715018a6116100d3578063715018a61461017057806379f6793c146101785780637fac11271461018b57806380899bba1461019e57600080fd5b80630c5ae33514610105578063127f0f071461013357806318d72b541461014857806347e50a421461015d575b600080fd5b61011e6101133660046111cc565b600195945050505050565b60405190151581526020015b60405180910390f35b61013b6102c3565b60405161012a9190611367565b61015b610156366004611457565b61034b565b005b61015b61016b36600461147b565b6103a0565b61015b61055c565b61015b6101863660046114b5565b610592565b61015b61019936600461147b565b610617565b6101b16101ac36600461165c565b610724565b60405161012a939291906116bf565b6000546001600160a01b03165b6040516001600160a01b03909116815260200161012a565b6101f86101f33660046116f7565b610881565b60405161012a9190611710565b61015b610213366004611723565b61091b565b6101f861022636600461165c565b6109c1565b6102736102393660046117e6565b8151602081840181018051600682529282019482019490942091909352909152600090815260409020805460019091015460ff9091169082565b60408051921515835260208301919091520161012a565b6001546101cd906001600160a01b031681565b61015b6102ab366004611457565b610a02565b61015b6102be36600461182a565b610a9d565b6102cb610fae565b600160009054906101000a90046001600160a01b03166001600160a01b0316639af7a48c6040518163ffffffff1660e01b8152600401600060405180830381865afa15801561031e573d6000803e3d6000fd5b505050506040513d6000823e601f3d908101601f191682016040526103469190810190611a90565b905090565b6000546001600160a01b0316331461037e5760405162461bcd60e51b815260040161037590611bb9565b60405180910390fd5b600180546001600160a01b0319166001600160a01b0392909216919091179055565b6001546001600160a01b031633146103fa5760405162461bcd60e51b815260206004820181905260248201527f4c6f636b65723a2063616c6c6572206973206e6f742043726f7373436861696e6044820152606401610375565b60006104068280611bee565b600081811061041757610417611c37565b90506020028101906104299190611c4d565b610437906040810190611c6d565b8101906104449190611cc7565b90506000805b82518110156104925782818151811061046557610465611c37565b602002602001015163ffffffff168261047e9190611d74565b91508061048a81611d8c565b91505061044a565b506040805160208101825260608152815160018082528184019093529091816020015b604080516060808201835280825260006020830152918101919091528152602001906001900390816104b557505080825280516000919082906104fa576104fa611c37565b60209081029190910181015160408051808201825260068152651c995cdd5b1d60d21b81850152825260038284015280518084018790528151808203909401845281018152810191909152905060606105538184610d8a565b50505050505050565b6000546001600160a01b031633146105865760405162461bcd60e51b815260040161037590611bb9565b6105906000610e76565b565b6000546001600160a01b031633146105bc5760405162461bcd60e51b815260040161037590611bb9565b6000600487876040516105d0929190611da7565b9081526020016040518091039020905084848285856040516105f3929190611da7565b90815260405190819003602001902061060d929091611020565b5050505050505050565b6001546001600160a01b031633146106715760405162461bcd60e51b815260206004820181905260248201527f4c6f636b65723a2063616c6c6572206973206e6f742043726f7373436861696e6044820152606401610375565b600061067d8280611bee565b600081811061068e5761068e611c37565b90506020028101906106a09190611c4d565b6106ae906040810190611c6d565b8101906106bb9190611db7565b905060006106c76102c3565b90506000600682602001516040516106df9190611dd2565b9081526040805191829003602090810190922060e09094015151600090815293909152909120805460ff19166001908117825563ffffffff9093169201919091555050565b8151602081840181018051600382529282019482019490942091909352815180830184018051928152908401929093019190912091528054819061076790611de4565b80601f016020809104026020016040519081016040528092919081815260200182805461079390611de4565b80156107e05780601f106107b5576101008083540402835291602001916107e0565b820191906000526020600020905b8154815290600101906020018083116107c357829003601f168201915b5050505050908060010180546107f590611de4565b80601f016020809104026020016040519081016040528092919081815260200182805461082190611de4565b801561086e5780601f106108435761010080835404028352916020019161086e565b820191906000526020600020905b81548152906001019060200180831161085157829003601f168201915b5050506002909301549192505060ff1683565b6002602052600090815260409020805461089a90611de4565b80601f01602080910402602001604051908101604052809291908181526020018280546108c690611de4565b80156109135780601f106108e857610100808354040283529160200191610913565b820191906000526020600020905b8154815290600101906020018083116108f657829003601f168201915b505050505081565b6000546001600160a01b031633146109455760405162461bcd60e51b815260040161037590611bb9565b600060038787604051610959929190611da7565b908152602001604051809103902090506000818a8a60405161097c929190611da7565b9081526040519081900360200190209050610998818787611020565b506109a7600182018585611020565b50600201805460ff19166001179055505050505050505050565b815160208184018101805160048252928201948201949094209190935281518083018401805192815290840192909301919091209152805461089a90611de4565b6000546001600160a01b03163314610a2c5760405162461bcd60e51b815260040161037590611bb9565b6001600160a01b038116610a915760405162461bcd60e51b815260206004820152602660248201527f4f776e61626c653a206e6577206f776e657220697320746865207a65726f206160448201526564647265737360d01b6064820152608401610375565b610a9a81610e76565b50565b600060038585604051610ab1929190611da7565b9081526040519081900360200181207172656365697665436f6d707574655461736b60701b825291506000908290601201908152604051908190036020019020600281015490915060ff16610b405760405162461bcd60e51b81526020600482015260156024820152741858dd1a5bdb881b9bdd081c9959da5cdd195c9959605a1b6044820152606401610375565b6040805160208101825260608152815160018082528184019093529091816020015b60408051606080820183528082526000602083015291810191909152815260200190600190039081610b625750508082528051600091908290610ba757610ba7611c37565b60209081029190910181015160408051808201825260048152636e756d7360e01b818501528252600e8284015251909250610be6918891889101611e1f565b604051602081830303815290604052816040018190525060606000610d618a8a8080601f016020809104026020016040519081016040528093929190818152602001838380828437600092019190915250508854899250610c479150611de4565b80601f0160208091040260200160405190810160405280929190818152602001828054610c7390611de4565b8015610cc05780601f10610c9557610100808354040283529160200191610cc0565b820191906000526020600020905b815481529060010190602001808311610ca357829003601f168201915b5050505050876001018054610cd490611de4565b80601f0160208091040260200160405190810160405280929190818152602001828054610d0090611de4565b8015610d4d5780601f10610d2257610100808354040283529160200191610d4d565b820191906000526020600020905b815481529060010190602001808311610d3057829003601f168201915b50505050508588637fac112760e01b610ec6565b6000818152600560205260409020909150610d7d9089896110a4565b5050505050505050505050565b600080610d956102c3565b9050610d9f6110e7565b6020808301518252818101869052604080518082018252845181528151808401835260008152818401526060808501919091528151908101825281850151815260e085015183015192810192909252818101869052808301919091526001549051636e0520a160e01b81526001600160a01b0390911690636e0520a190610e2a908490600401611e5d565b6020604051808303816000875af1158015610e49573d6000803e3d6000fd5b505050506040513d601f19601f82011682018060405250810190610e6d9190611f8e565b95945050505050565b600080546001600160a01b038381166001600160a01b0319831681178455604051919092169283917f8be0079c531659141344cd1fd0a4f28419497f9722a3daafe3b4186f6b6457e09190a35050565b6000610ed06110e7565b87815260208082018690526040805180820182526000815281516001600160e01b031987168185015282516004818303810182526024909201845282850152606080860192909252825191820183528a8252928101899052808201879052818401526001549051636e0520a160e01b81526001600160a01b0390911691636e0520a191610f5f91859101611e5d565b6020604051808303816000875af1158015610f7e573d6000803e3d6000fd5b505050506040513d601f19601f82011682018060405250810190610fa29190611f8e565b98975050505050505050565b604051806101000160405280600081526020016060815260200160608152602001606081526020016060815260200160006001600160a01b0316815260200160006001600160e01b031916815260200161101b604051806040016040528060008152602001606081525090565b905290565b82805461102c90611de4565b90600052602060002090601f01602090048101928261104e5760008555611094565b82601f106110675782800160ff19823516178555611094565b82800160010185558215611094579182015b82811115611094578235825591602001919060010190611079565b506110a092915061112a565b5090565b828054828255906000526020600020908101928215611094579160200282015b828111156110945763ffffffff83351682556020909201916001909101906110c4565b6040518060800160405280606081526020016060815260200161110861113f565b815260200161101b604051806040016040528060008152602001606081525090565b5b808211156110a0576000815560010161112b565b6040518060600160405280606081526020016060815260200161101b6040518060200160405280606081525090565b60008083601f84011261118057600080fd5b5081356001600160401b0381111561119757600080fd5b6020830191508360208285010111156111af57600080fd5b9250929050565b6001600160e01b031981168114610a9a57600080fd5b6000806000806000606086880312156111e457600080fd5b85356001600160401b03808211156111fb57600080fd5b61120789838a0161116e565b90975095506020880135915061121c826111b6565b9093506040870135908082111561123257600080fd5b5061123f8882890161116e565b969995985093965092949392505050565b60005b8381101561126b578181015183820152602001611253565b8381111561127a576000848401525b50505050565b60008151808452611298816020860160208601611250565b601f01601f19169290920160200192915050565b634e487b7160e01b600052602160045260246000fd5b600082825180855260208086019550808260051b84010181860160005b8481101561133357601f1986840301895281516040815160098110611306576113066112ac565b8552908501518585018290529061131f81860183611280565b9a86019a94505050908301906001016112df565b5090979650505050505050565b80518252600060208201516040602085015261135f6040850182611280565b949350505050565b602081528151602082015260006020830151610100806040850152611390610120850183611280565b91506040850151601f19808685030160608701526113ae8483611280565b935060608701519150808685030160808701526113cb8483611280565b935060808701519150808685030160a08701526113e884836112c2565b935060a0870151915061140660c08701836001600160a01b03169052565b60c08701516001600160e01b0319811660e0880152915060e08701519150808685030183870152506114388382611340565b9695505050505050565b6001600160a01b0381168114610a9a57600080fd5b60006020828403121561146957600080fd5b813561147481611442565b9392505050565b60006020828403121561148d57600080fd5b81356001600160401b038111156114a357600080fd5b82016020818503121561147457600080fd5b600080600080600080606087890312156114ce57600080fd5b86356001600160401b03808211156114e557600080fd5b6114f18a838b0161116e565b9098509650602089013591508082111561150a57600080fd5b6115168a838b0161116e565b9096509450604089013591508082111561152f57600080fd5b5061153c89828a0161116e565b979a9699509497509295939492505050565b634e487b7160e01b600052604160045260246000fd5b604080519081016001600160401b03811182821017156115865761158661154e565b60405290565b60405161010081016001600160401b03811182821017156115865761158661154e565b604051601f8201601f191681016001600160401b03811182821017156115d7576115d761154e565b604052919050565b60006001600160401b038211156115f8576115f861154e565b50601f01601f191660200190565b600082601f83011261161757600080fd5b813561162a611625826115df565b6115af565b81815284602083860101111561163f57600080fd5b816020850160208301376000918101602001919091529392505050565b6000806040838503121561166f57600080fd5b82356001600160401b038082111561168657600080fd5b61169286838701611606565b935060208501359150808211156116a857600080fd5b506116b585828601611606565b9150509250929050565b6060815260006116d26060830186611280565b82810360208401526116e48186611280565b9150508215156040830152949350505050565b60006020828403121561170957600080fd5b5035919050565b6020815260006114746020830184611280565b6000806000806000806000806080898b03121561173f57600080fd5b88356001600160401b038082111561175657600080fd5b6117628c838d0161116e565b909a50985060208b013591508082111561177b57600080fd5b6117878c838d0161116e565b909850965060408b01359150808211156117a057600080fd5b6117ac8c838d0161116e565b909650945060608b01359150808211156117c557600080fd5b506117d28b828c0161116e565b999c989b5096995094979396929594505050565b600080604083850312156117f957600080fd5b82356001600160401b0381111561180f57600080fd5b61181b85828601611606565b95602094909401359450505050565b6000806000806040858703121561184057600080fd5b84356001600160401b038082111561185757600080fd5b6118638883890161116e565b9096509450602087013591508082111561187c57600080fd5b818701915087601f83011261189057600080fd5b81358181111561189f57600080fd5b8860208260051b85010111156118b457600080fd5b95989497505060200194505050565b60006118d1611625846115df565b90508281528383830111156118e557600080fd5b611474836020830184611250565b600082601f83011261190457600080fd5b611474838351602085016118c3565b60006001600160401b0382111561192c5761192c61154e565b5060051b60200190565b600082601f83011261194757600080fd5b8151602061195761162583611913565b82815260059290921b8401810191818101908684111561197657600080fd5b8286015b84811015611a055780516001600160401b038082111561199a5760008081fd5b908801906040828b03601f19018113156119b45760008081fd5b6119bc611564565b87840151600981106119ce5760008081fd5b81529083015190828211156119e35760008081fd5b6119f18c89848701016118f3565b81890152865250505091830191830161197a565b509695505050505050565b8051611a1b81611442565b919050565b8051611a1b816111b6565b600060408284031215611a3d57600080fd5b611a45611564565b90508151815260208201516001600160401b03811115611a6457600080fd5b8201601f81018413611a7557600080fd5b611a84848251602084016118c3565b60208301525092915050565b600060208284031215611aa257600080fd5b81516001600160401b0380821115611ab957600080fd5b908301906101008286031215611ace57600080fd5b611ad661158c565b82518152602083015182811115611aec57600080fd5b611af8878286016118f3565b602083015250604083015182811115611b1057600080fd5b611b1c878286016118f3565b604083015250606083015182811115611b3457600080fd5b611b40878286016118f3565b606083015250608083015182811115611b5857600080fd5b611b6487828601611936565b608083015250611b7660a08401611a10565b60a0820152611b8760c08401611a20565b60c082015260e083015182811115611b9e57600080fd5b611baa87828601611a2b565b60e08301525095945050505050565b6020808252818101527f4f776e61626c653a2063616c6c6572206973206e6f7420746865206f776e6572604082015260600190565b6000808335601e19843603018112611c0557600080fd5b8301803591506001600160401b03821115611c1f57600080fd5b6020019150600581901b36038213156111af57600080fd5b634e487b7160e01b600052603260045260246000fd5b60008235605e19833603018112611c6357600080fd5b9190910192915050565b6000808335601e19843603018112611c8457600080fd5b8301803591506001600160401b03821115611c9e57600080fd5b6020019150368190038213156111af57600080fd5b803563ffffffff81168114611a1b57600080fd5b60006020808385031215611cda57600080fd5b82356001600160401b03811115611cf057600080fd5b8301601f81018513611d0157600080fd5b8035611d0f61162582611913565b81815260059190911b82018301908381019087831115611d2e57600080fd5b928401925b82841015611d5357611d4484611cb3565b82529284019290840190611d33565b979650505050505050565b634e487b7160e01b600052601160045260246000fd5b60008219821115611d8757611d87611d5e565b500190565b6000600019821415611da057611da0611d5e565b5060010190565b8183823760009101908152919050565b600060208284031215611dc957600080fd5b61147482611cb3565b60008251611c63818460208701611250565b600181811c90821680611df857607f821691505b60208210811415611e1957634e487b7160e01b600052602260045260246000fd5b50919050565b60208082528181018390526000908460408401835b86811015611a055763ffffffff611e4a84611cb3565b1682529183019190830190600101611e34565b600060208083528351608082850152611e7960a0850182611280565b905081850151601f196040818785030181880152611e9784846112c2565b935080880151925060608288860301818901528351818652611ebb82870182611280565b90508685015186820388880152611ed28282611280565b9584015187870397850197909752505093518584528051868501819052600581901b850183019591870194908382019060005b81811015611f6d57838903603f1901835287518051868b52611f29878c0182611280565b90508b82015160168110611f3f57611f3f6112ac565b8b8d0152908701518a8203888c015290611f598183611280565b9a5050509689019691890191600101611f05565b505050508801518785039092016080880152509250610e6d90508183611340565b600060208284031215611fa057600080fd5b505191905056fea264697066735822122007b8871dbf97b3c9e36d892d8096670e4020294b2ffd85f9b27a196f6391400e64736f6c634300080a0033",
  "immutableReferences": {},
  "source": "// SPDX-License-Identifier: MIT\npragma solidity >=0.8.0 <0.9.0;\n\nimport \"@openzeppelin/contracts/access/Ownable.sol\";\nimport \"./CrossChain/ContractAdvanced.sol\";\n\n// `OCComputing` is an example of multi-chain services with necessary implementations in `ContractAdvanced`, which provides basic cross-chain call interfaces.\ncontract OCComputing is ContractAdvanced {\n    // Destination contract info\n    struct DestnContract {\n        string contractAddress; // destination contract address\n        string funcName; // destination contract action name\n        bool used;\n    }\n\n    struct OCResult {\n        bool used;\n        uint256 result;\n    }\n\n    // Cross-chain destination contract map\n    mapping(string => mapping(string => DestnContract)) public destnContractMap;\n\n    // Cross-chain permitted contract map\n    mapping(string => mapping(string => string)) public permittedContractMap;\n\n    // Outsourcing computing data cache\n    mapping(uint256 => uint256[]) cachedData;\n    // Outsourcing computing result\n    mapping(string => mapping(uint256 => OCResult)) public ocResult;\n    \n    /**\n     * Send outsourcing computing task to other chain\n     * @param _toChain - to chain name\n     * @param _nums - nums to be accumulated\n     */\n    function sendComputeTask(string calldata _toChain, uint32[] calldata _nums) external {\n        mapping(string => DestnContract) storage map = destnContractMap[_toChain];\n        DestnContract storage destnContract = map[\"receiveComputeTask\"];\n        require(destnContract.used, \"action not registered\");\n\n        // Construct payload\n        Payload memory data;\n        data.items = new PayloadItem[](1);\n        PayloadItem memory item = data.items[0];\n        item.name = \"nums\";\n        item.msgType = MsgType.EvmU32Array;\n        item.value = abi.encode(_nums);\n\n        SQoS[] memory sqos;\n        uint id = crossChainCall(\n            _toChain,\n            destnContract.contractAddress,\n            destnContract.funcName,\n            sqos,\n            data,\n            OCComputing.receiveComputeTaskCallback.selector\n        );\n        cachedData[id] = _nums;\n    }\n\n    /**\n     * Receives outsourcing computing task from other chain\n     * @param _payload - payload which contains nums to be accumulated\n     */\n    function receiveComputeTask(Payload calldata _payload) external {\n        require(\n            msg.sender == address(crossChainContract),\n            \"Locker: caller is not CrossChain\"\n        );\n\n        // decode\n        (uint32[] memory _nums) = abi.decode(_payload.items[0].value, (uint32[]));\n        \n        // compute\n        uint ret = 0;\n        for (uint i = 0; i < _nums.length; i++) {\n            ret += _nums[i];\n        }\n\n        // Construct payload\n        Payload memory data;\n        data.items = new PayloadItem[](1);\n        PayloadItem memory item = data.items[0];\n        item.name = \"result\";\n        item.msgType = MsgType.EvmU32;\n        item.value = abi.encode(ret);\n        SQoS[] memory sqos;\n        crossChainRespond(sqos, data);\n    }\n\n    /**\n     * See IOCComputing\n     */\n    function receiveComputeTaskCallback(Payload calldata _payload) external {\n        require(\n            msg.sender == address(crossChainContract),\n            \"Locker: caller is not CrossChain\"\n        );\n\n        (uint32 _result) = abi.decode(_payload.items[0].value, (uint32));\n        SimplifiedMessage memory context = getContext();\n        OCResult storage result = ocResult[context.fromChain][context.session.id];\n        result.used = true;\n        result.result = _result;\n    }\n\n    ///////////////////////////////////////////////\n    /////    Send messages to other chains   //////\n    ///////////////////////////////////////////////\n\n    /**\n     * Register destination contract info\n     * @param _funcName - function name to be called\n     * @param _toChain - destination chain name\n     * @param _contractAddress - destination contract address\n     * @param _contractFuncName - contract function name\n     */\n    function registerDestnContract(\n        string calldata _funcName,\n        string calldata _toChain,\n        string calldata _contractAddress,\n        string calldata _contractFuncName\n    ) external onlyOwner {\n        mapping(string => DestnContract) storage map = destnContractMap[_toChain];\n        DestnContract storage destnContract = map[_funcName];\n        destnContract.contractAddress = _contractAddress;\n        destnContract.funcName = _contractFuncName;\n        destnContract.used = true;\n    }\n\n    ///////////////////////////////////////////////\n    ///    Receive messages from other chains   ///\n    ///////////////////////////////////////////////\n\n    /**\n     * Authorize contracts of other chains to call the functions of this contract\n     * @param _chainName - from chain name\n     * @param _sender - sender of cross chain message\n     * @param _funcName - action name which allowed to be invoked\n     */\n    function registerPermittedContract(\n        string calldata _chainName,\n        string calldata _sender,\n        string calldata _funcName\n    ) external onlyOwner {\n        mapping(string => string) storage map = permittedContractMap[\n            _chainName\n        ];\n        map[_funcName] = _sender;\n    }\n\n    /**\n     * This verify method will be invoked by the CrossChain contract automatically, ensure that only registered contract(registerSourceContract) calls are allowed\n     * @param _chainName - chain name of cross chain message\n     * @param _funcName - contract action name of cross chain message\n     * @param _sender - cross chain message sender\n     */\n    //  Will be deprecated soon\n    function verify(\n        string calldata _chainName,\n        bytes4 _funcName,\n        string calldata _sender\n    ) public view virtual returns (bool) {\n        // mapping(string => string) storage map = permittedContractMap[\n        //     _chainName\n        // ];\n        // string storage sender = map[_funcName];\n        // require(\n        //     keccak256(bytes(sender)) == keccak256(bytes(_sender)),\n        //     \"Sender does not match\"\n        // );\n        return true;\n    }\n}\n",
  "sourcePath": "/root/hthuang/work/solidity-contract-template/contracts/OCComputing.sol",
  "compiler": {
    "name": "solc",
    "version": "0.8.10+commit.fc410830.Emscripten.clang"
  },
  "schemaVersion": "3.4.7",
  "updatedAt": "2022-07-07T06:13:53.807Z",
  "networkType": "ethereum",
  "devdoc": {
    "kind": "dev",
    "methods": {
      "owner()": {
        "details": "Returns the address of the current owner."
      },
      "receiveComputeTask(((string,uint8,bytes)[]))": {
        "params": {
          "_payload": "- payload which contains nums to be accumulated"
        }
      },
      "registerDestnContract(string,string,string,string)": {
        "params": {
          "_contractAddress": "- destination contract address",
          "_contractFuncName": "- contract function name",
          "_funcName": "- function name to be called",
          "_toChain": "- destination chain name"
        }
      },
      "registerPermittedContract(string,string,string)": {
        "params": {
          "_chainName": "- from chain name",
          "_funcName": "- action name which allowed to be invoked",
          "_sender": "- sender of cross chain message"
        }
      },
      "renounceOwnership()": {
        "details": "Leaves the contract without owner. It will not be possible to call `onlyOwner` functions anymore. Can only be called by the current owner. NOTE: Renouncing ownership will leave the contract without an owner, thereby removing any functionality that is only available to the owner."
      },
      "sendComputeTask(string,uint32[])": {
        "params": {
          "_nums": "- nums to be accumulated",
          "_toChain": "- to chain name"
        }
      },
      "setCrossChainContract(address)": {
        "params": {
          "_address": "- cross chain contract address"
        }
      },
      "transferOwnership(address)": {
        "details": "Transfers ownership of the contract to a new account (`newOwner`). Can only be called by the current owner."
      },
      "verify(string,bytes4,string)": {
        "params": {
          "_chainName": "- chain name of cross chain message",
          "_funcName": "- contract action name of cross chain message",
          "_sender": "- cross chain message sender"
        }
      }
    },
    "version": 1
  },
  "userdoc": {
    "kind": "user",
    "methods": {
      "receiveComputeTask(((string,uint8,bytes)[]))": {
        "notice": "Receives outsourcing computing task from other chain"
      },
      "receiveComputeTaskCallback(((string,uint8,bytes)[]))": {
        "notice": "See IOCComputing"
      },
      "registerDestnContract(string,string,string,string)": {
        "notice": "Register destination contract info"
      },
      "registerPermittedContract(string,string,string)": {
        "notice": "Authorize contracts of other chains to call the functions of this contract"
      },
      "sendComputeTask(string,uint32[])": {
        "notice": "Send outsourcing computing task to other chain"
      },
      "setCrossChainContract(address)": {
        "notice": "Set cross chain contract"
      },
      "verify(string,bytes4,string)": {
        "notice": "This verify method will be invoked by the CrossChain contract automatically, ensure that only registered contract(registerSourceContract) calls are allowed"
      }
    },
    "version": 1
  }
}