{
  "contractName": "Greetings",
  "abi": [
    {
      "anonymous": false,
      "inputs": [
        {
          "indexed": true,
          "internalType": "address",
          "name": "previousOwner",
          "type": "address"
        },
        {
          "indexed": true,
          "internalType": "address",
          "name": "newOwner",
          "type": "address"
        }
      ],
      "name": "OwnershipTransferred",
      "type": "event"
    },
    {
      "inputs": [],
      "name": "crossChainContract",
      "outputs": [
        {
          "internalType": "contract CrossChain",
          "name": "",
          "type": "address"
        }
      ],
      "stateMutability": "view",
      "type": "function",
      "constant": true
    },
    {
      "inputs": [],
      "name": "currentSimplifiedMessage",
      "outputs": [
        {
          "internalType": "uint256",
          "name": "id",
          "type": "uint256"
        },
        {
          "internalType": "string",
          "name": "fromChain",
          "type": "string"
        },
        {
          "internalType": "string",
          "name": "sender",
          "type": "string"
        },
        {
          "internalType": "string",
          "name": "signer",
          "type": "string"
        },
        {
          "internalType": "address",
          "name": "contractAddress",
          "type": "address"
        },
        {
          "internalType": "string",
          "name": "action",
          "type": "string"
        }
      ],
      "stateMutability": "view",
      "type": "function",
      "constant": true
    },
    {
      "inputs": [],
      "name": "getCurrentMessage",
      "outputs": [
        {
          "components": [
            {
              "internalType": "uint256",
              "name": "id",
              "type": "uint256"
            },
            {
              "internalType": "string",
              "name": "fromChain",
              "type": "string"
            },
            {
              "internalType": "string",
              "name": "sender",
              "type": "string"
            },
            {
              "internalType": "string",
              "name": "signer",
              "type": "string"
            },
            {
              "internalType": "address",
              "name": "contractAddress",
              "type": "address"
            },
            {
              "internalType": "string",
              "name": "action",
              "type": "string"
            }
          ],
          "internalType": "struct SimplifiedMessage",
          "name": "",
          "type": "tuple"
        }
      ],
      "stateMutability": "view",
      "type": "function",
      "constant": true
    },
    {
      "inputs": [
        {
          "internalType": "uint256",
          "name": "",
          "type": "uint256"
        }
      ],
      "name": "greetings",
      "outputs": [
        {
          "internalType": "string",
          "name": "fromChain",
          "type": "string"
        },
        {
          "internalType": "string",
          "name": "title",
          "type": "string"
        },
        {
          "internalType": "string",
          "name": "content",
          "type": "string"
        },
        {
          "internalType": "string",
          "name": "date",
          "type": "string"
        }
      ],
      "stateMutability": "view",
      "type": "function",
      "constant": true
    },
    {
      "inputs": [
        {
          "internalType": "string",
          "name": "",
          "type": "string"
        }
      ],
      "name": "methodMap",
      "outputs": [
        {
          "internalType": "string",
          "name": "contractAddress",
          "type": "string"
        },
        {
          "internalType": "string",
          "name": "methodName",
          "type": "string"
        },
        {
          "internalType": "bool",
          "name": "used",
          "type": "bool"
        }
      ],
      "stateMutability": "view",
      "type": "function",
      "constant": true
    },
    {
      "inputs": [],
      "name": "owner",
      "outputs": [
        {
          "internalType": "address",
          "name": "",
          "type": "address"
        }
      ],
      "stateMutability": "view",
      "type": "function",
      "constant": true
    },
    {
      "inputs": [
        {
          "internalType": "string",
          "name": "_toChain",
          "type": "string"
        },
        {
          "internalType": "string",
          "name": "_contractAddress",
          "type": "string"
        },
        {
          "internalType": "string",
          "name": "_methodName",
          "type": "string"
        }
      ],
      "name": "registerDestinationMethod",
      "outputs": [],
      "stateMutability": "nonpayable",
      "type": "function"
    },
    {
      "inputs": [
        {
          "internalType": "string",
          "name": "_chainName",
          "type": "string"
        },
        {
          "internalType": "string",
          "name": "_sender",
          "type": "string"
        },
        {
          "internalType": "string",
          "name": "_methodName",
          "type": "string"
        }
      ],
      "name": "registerSourceSender",
      "outputs": [],
      "stateMutability": "nonpayable",
      "type": "function"
    },
    {
      "inputs": [
        {
          "internalType": "string",
          "name": "_funcName",
          "type": "string"
        },
        {
          "internalType": "string",
          "name": "_abiString",
          "type": "string"
        },
        {
          "internalType": "string",
          "name": "_paramName",
          "type": "string"
        },
        {
          "internalType": "string",
          "name": "_paramType",
          "type": "string"
        }
      ],
      "name": "registerTarget",
      "outputs": [],
      "stateMutability": "nonpayable",
      "type": "function"
    },
    {
      "inputs": [],
      "name": "renounceOwnership",
      "outputs": [],
      "stateMutability": "nonpayable",
      "type": "function"
    },
    {
      "inputs": [
        {
          "internalType": "string",
          "name": "",
          "type": "string"
        },
        {
          "internalType": "string",
          "name": "",
          "type": "string"
        }
      ],
      "name": "senderMap",
      "outputs": [
        {
          "internalType": "string",
          "name": "",
          "type": "string"
        }
      ],
      "stateMutability": "view",
      "type": "function",
      "constant": true
    },
    {
      "inputs": [
        {
          "internalType": "address",
          "name": "_address",
          "type": "address"
        }
      ],
      "name": "setCrossChainContract",
      "outputs": [],
      "stateMutability": "nonpayable",
      "type": "function"
    },
    {
      "inputs": [
        {
          "internalType": "address",
          "name": "newOwner",
          "type": "address"
        }
      ],
      "name": "transferOwnership",
      "outputs": [],
      "stateMutability": "nonpayable",
      "type": "function"
    },
    {
      "inputs": [
        {
          "internalType": "string",
          "name": "_chainName",
          "type": "string"
        },
        {
          "internalType": "string",
          "name": "_methodName",
          "type": "string"
        },
        {
          "internalType": "string",
          "name": "_sender",
          "type": "string"
        }
      ],
      "name": "verify",
      "outputs": [
        {
          "internalType": "bool",
          "name": "",
          "type": "bool"
        }
      ],
      "stateMutability": "view",
      "type": "function",
      "constant": true
    },
    {
      "inputs": [
        {
          "internalType": "string",
          "name": "_funcName",
          "type": "string"
        },
        {
          "internalType": "string",
          "name": "_interface",
          "type": "string"
        }
      ],
      "name": "registerInterface",
      "outputs": [],
      "stateMutability": "nonpayable",
      "type": "function"
    },
    {
      "inputs": [
        {
          "internalType": "string",
          "name": "_fromChain",
          "type": "string"
        },
        {
          "internalType": "string",
          "name": "_title",
          "type": "string"
        },
        {
          "internalType": "string",
          "name": "_content",
          "type": "string"
        },
        {
          "internalType": "string",
          "name": "_date",
          "type": "string"
        }
      ],
      "name": "receiveGreeting",
      "outputs": [],
      "stateMutability": "nonpayable",
      "type": "function"
    },
    {
      "inputs": [
        {
          "internalType": "string",
          "name": "_toChain",
          "type": "string"
        },
        {
          "internalType": "string",
          "name": "_title",
          "type": "string"
        },
        {
          "internalType": "string",
          "name": "_content",
          "type": "string"
        },
        {
          "internalType": "string",
          "name": "_date",
          "type": "string"
        }
      ],
      "name": "sendGreeting",
      "outputs": [],
      "stateMutability": "nonpayable",
      "type": "function"
    },
    {
      "inputs": [],
      "name": "getLastMessage",
      "outputs": [
        {
          "components": [
            {
              "internalType": "uint256",
              "name": "id",
              "type": "uint256"
            },
            {
              "internalType": "string",
              "name": "fromChain",
              "type": "string"
            },
            {
              "internalType": "string",
              "name": "sender",
              "type": "string"
            },
            {
              "internalType": "string",
              "name": "signer",
              "type": "string"
            },
            {
              "internalType": "address",
              "name": "contractAddress",
              "type": "address"
            },
            {
              "internalType": "string",
              "name": "action",
              "type": "string"
            }
          ],
          "internalType": "struct SimplifiedMessage",
          "name": "",
          "type": "tuple"
        }
      ],
      "stateMutability": "view",
      "type": "function",
      "constant": true
    }
  ],
  "bytecode": "0x608060405234801561001057600080fd5b5061001a3361001f565b61006f565b600080546001600160a01b038381166001600160a01b0319831681178455604051919092169283917f8be0079c531659141344cd1fd0a4f28419497f9722a3daafe3b4186f6b6457e09190a35050565b611f848061007e6000396000f3fe608060405234801561001057600080fd5b50600436106101165760003560e01c80638da5cb5b116100a2578063e528d4d111610071578063e528d4d114610228578063f2fde38b1461024a578063f87c9ea91461025d578063ff38c0b914610280578063ff96254b1461029a57600080fd5b80638da5cb5b146101d55780639af7a48c146101fa578063cf3e4ed714610202578063dbc90de11461021557600080fd5b806345406584116100e95780634540658414610169578063526bf76e1461017c5780635f76e9e31461019a578063715018a6146101ba578063791fd40d146101c257600080fd5b80630b88c97d1461011b57806318d72b54146101305780631dea9205146101435780634380aa3a14610156575b600080fd5b61012e610129366004611582565b6102bd565b005b61012e61013e366004611631565b61034b565b61012e610151366004611655565b610397565b61012e610164366004611719565b61057c565b61012e610177366004611655565b61060a565b6101846106a0565b60405161019191906117e1565b60405180910390f35b6101ad6101a836600461196c565b610920565b60405161019191906119d0565b61012e6109e2565b61012e6101d0366004611655565b610a18565b6000546001600160a01b03165b6040516001600160a01b039091168152602001610191565b610184610b3c565b61012e610210366004611582565b610bc4565b6001546101e2906001600160a01b031681565b61023b6102363660046119e3565b610c44565b60405161019193929190611a20565b61012e610258366004611631565b610d84565b61027061026b366004611a58565b610e1f565b6040516101919493929190611a71565b61028861107f565b60405161019196959493929190611ac9565b6102ad6102a8366004611582565b6112d5565b6040519015158152602001610191565b6000546001600160a01b031633146102f05760405162461bcd60e51b81526004016102e790611b38565b60405180910390fd5b600060038787604051610304929190611b6d565b908152602001604051809103902090508484828585604051610327929190611b6d565b9081526040519081900360200190206103419290916113ed565b5050505050505050565b6000546001600160a01b031633146103755760405162461bcd60e51b81526004016102e790611b38565b600180546001600160a01b0319166001600160a01b0392909216919091179055565b6001546001600160a01b031633146103f15760405162461bcd60e51b815260206004820181905260248201527f4c6f636b65723a2063616c6c6572206973206e6f742043726f7373436861696e60448201526064016102e7565b600480546001810182556000829052027f8a35acfbc15ff81a39ae7d344fd709f28e8600b4aa8c65c6b64bfe7fe36bd19b0161042e818a8a6113ed565b5061043d6001820188886113ed565b5061044c6002820186866113ed565b5061045b6003820184846113ed565b50600160009054906101000a90046001600160a01b03166001600160a01b0316639af7a48c6040518163ffffffff1660e01b8152600401600060405180830381865afa1580156104af573d6000803e3d6000fd5b505050506040513d6000823e601f3d908101601f191682016040526104d79190810190611bd2565b8051600590815560208083015180516104f4926006920190611471565b5060408201518051610510916002840191602090910190611471565b506060820151805161052c916003840191602090910190611471565b5060808201516004820180546001600160a01b0319166001600160a01b0390921691909117905560a0820151805161056e916005840191602090910190611471565b505050505050505050505050565b6000546001600160a01b031633146105a65760405162461bcd60e51b81526004016102e790611b38565b6001546040516321c0551d60e11b81526001600160a01b0390911690634380aa3a906105dc908790879087908790600401611cef565b600060405180830381600087803b1580156105f657600080fd5b505af1158015610341573d6000803e3d6000fd5b6000546001600160a01b031633146106345760405162461bcd60e51b81526004016102e790611b38565b600154604051631150196160e21b81526001600160a01b0390911690634540658490610672908b908b908b908b908b908b908b908b90600401611d16565b600060405180830381600087803b15801561068c57600080fd5b505af115801561056e573d6000803e3d6000fd5b6106a86114e5565b6040805160c08101909152600580548252600680546020840191906106cc90611d76565b80601f01602080910402602001604051908101604052809291908181526020018280546106f890611d76565b80156107455780601f1061071a57610100808354040283529160200191610745565b820191906000526020600020905b81548152906001019060200180831161072857829003601f168201915b5050505050815260200160028201805461075e90611d76565b80601f016020809104026020016040519081016040528092919081815260200182805461078a90611d76565b80156107d75780601f106107ac576101008083540402835291602001916107d7565b820191906000526020600020905b8154815290600101906020018083116107ba57829003601f168201915b505050505081526020016003820180546107f090611d76565b80601f016020809104026020016040519081016040528092919081815260200182805461081c90611d76565b80156108695780601f1061083e57610100808354040283529160200191610869565b820191906000526020600020905b81548152906001019060200180831161084c57829003601f168201915b505050918352505060048201546001600160a01b0316602082015260058201805460409092019161089990611d76565b80601f01602080910402602001604051908101604052809291908181526020018280546108c590611d76565b80156109125780601f106108e757610100808354040283529160200191610912565b820191906000526020600020905b8154815290600101906020018083116108f557829003601f168201915b505050505081525050905090565b815160208184018101805160038252928201948201949094209190935281518083018401805192815290840192909301919091209152805461096190611d76565b80601f016020809104026020016040519081016040528092919081815260200182805461098d90611d76565b80156109da5780601f106109af576101008083540402835291602001916109da565b820191906000526020600020905b8154815290600101906020018083116109bd57829003601f168201915b505050505081565b6000546001600160a01b03163314610a0c5760405162461bcd60e51b81526004016102e790611b38565b610a16600061139d565b565b600060028989604051610a2c929190611b6d565b908152604051908190036020019020600281015490915060ff16610a8a5760405162461bcd60e51b81526020600482015260156024820152741b595d1a1bd9081b9bdd081c9959da5cdd195c9959605a1b60448201526064016102e7565b6000878787878787604051602001610aa796959493929190611db1565b60408051601f198184030181526020830182526000835260018054925163ef565bbf60e01b81529194506001600160a01b039092169163ef565bbf91610afd918f918f9189919082019088908a90600401611e84565b600060405180830381600087803b158015610b1757600080fd5b505af1158015610b2b573d6000803e3d6000fd5b505050505050505050505050505050565b610b446114e5565b600160009054906101000a90046001600160a01b03166001600160a01b0316639af7a48c6040518163ffffffff1660e01b8152600401600060405180830381865afa158015610b97573d6000803e3d6000fd5b505050506040513d6000823e601f3d908101601f19168201604052610bbf9190810190611bd2565b905090565b6000546001600160a01b03163314610bee5760405162461bcd60e51b81526004016102e790611b38565b600060028787604051610c02929190611b6d565b9081526040519081900360200190209050610c1e8186866113ed565b50610c2d6001820184846113ed565b50600201805460ff19166001179055505050505050565b8051602081830181018051600282529282019190930120915280548190610c6a90611d76565b80601f0160208091040260200160405190810160405280929190818152602001828054610c9690611d76565b8015610ce35780601f10610cb857610100808354040283529160200191610ce3565b820191906000526020600020905b815481529060010190602001808311610cc657829003601f168201915b505050505090806001018054610cf890611d76565b80601f0160208091040260200160405190810160405280929190818152602001828054610d2490611d76565b8015610d715780601f10610d4657610100808354040283529160200191610d71565b820191906000526020600020905b815481529060010190602001808311610d5457829003601f168201915b5050506002909301549192505060ff1683565b6000546001600160a01b03163314610dae5760405162461bcd60e51b81526004016102e790611b38565b6001600160a01b038116610e135760405162461bcd60e51b815260206004820152602660248201527f4f776e61626c653a206e6577206f776e657220697320746865207a65726f206160448201526564647265737360d01b60648201526084016102e7565b610e1c8161139d565b50565b60048181548110610e2f57600080fd5b9060005260206000209060040201600091509050806000018054610e5290611d76565b80601f0160208091040260200160405190810160405280929190818152602001828054610e7e90611d76565b8015610ecb5780601f10610ea057610100808354040283529160200191610ecb565b820191906000526020600020905b815481529060010190602001808311610eae57829003601f168201915b505050505090806001018054610ee090611d76565b80601f0160208091040260200160405190810160405280929190818152602001828054610f0c90611d76565b8015610f595780601f10610f2e57610100808354040283529160200191610f59565b820191906000526020600020905b815481529060010190602001808311610f3c57829003601f168201915b505050505090806002018054610f6e90611d76565b80601f0160208091040260200160405190810160405280929190818152602001828054610f9a90611d76565b8015610fe75780601f10610fbc57610100808354040283529160200191610fe7565b820191906000526020600020905b815481529060010190602001808311610fca57829003601f168201915b505050505090806003018054610ffc90611d76565b80601f016020809104026020016040519081016040528092919081815260200182805461102890611d76565b80156110755780601f1061104a57610100808354040283529160200191611075565b820191906000526020600020905b81548152906001019060200180831161105857829003601f168201915b5050505050905084565b600580546006805491929161109390611d76565b80601f01602080910402602001604051908101604052809291908181526020018280546110bf90611d76565b801561110c5780601f106110e15761010080835404028352916020019161110c565b820191906000526020600020905b8154815290600101906020018083116110ef57829003601f168201915b50505050509080600201805461112190611d76565b80601f016020809104026020016040519081016040528092919081815260200182805461114d90611d76565b801561119a5780601f1061116f5761010080835404028352916020019161119a565b820191906000526020600020905b81548152906001019060200180831161117d57829003601f168201915b5050505050908060030180546111af90611d76565b80601f01602080910402602001604051908101604052809291908181526020018280546111db90611d76565b80156112285780601f106111fd57610100808354040283529160200191611228565b820191906000526020600020905b81548152906001019060200180831161120b57829003601f168201915b505050600484015460058501805494956001600160a01b0390921694919350915061125290611d76565b80601f016020809104026020016040519081016040528092919081815260200182805461127e90611d76565b80156112cb5780601f106112a0576101008083540402835291602001916112cb565b820191906000526020600020905b8154815290600101906020018083116112ae57829003601f168201915b5050505050905086565b600080600388886040516112ea929190611b6d565b90815260200160405180910390209050600081878760405161130d929190611b6d565b908152604051908190036020018120915061132b9086908690611b6d565b6040518091039020816040516113419190611edc565b60405180910390201461138e5760405162461bcd60e51b81526020600482015260156024820152740a6cadcc8cae440c8decae640dcdee840dac2e8c6d605b1b60448201526064016102e7565b50600198975050505050505050565b600080546001600160a01b038381166001600160a01b0319831681178455604051919092169283917f8be0079c531659141344cd1fd0a4f28419497f9722a3daafe3b4186f6b6457e09190a35050565b8280546113f990611d76565b90600052602060002090601f01602090048101928261141b5760008555611461565b82601f106114345782800160ff19823516178555611461565b82800160010185558215611461579182015b82811115611461578235825591602001919060010190611446565b5061146d929150611524565b5090565b82805461147d90611d76565b90600052602060002090601f01602090048101928261149f5760008555611461565b82601f106114b857805160ff1916838001178555611461565b82800160010185558215611461579182015b828111156114615782518255916020019190600101906114ca565b6040518060c001604052806000815260200160608152602001606081526020016060815260200160006001600160a01b03168152602001606081525090565b5b8082111561146d5760008155600101611525565b60008083601f84011261154b57600080fd5b50813567ffffffffffffffff81111561156357600080fd5b60208301915083602082850101111561157b57600080fd5b9250929050565b6000806000806000806060878903121561159b57600080fd5b863567ffffffffffffffff808211156115b357600080fd5b6115bf8a838b01611539565b909850965060208901359150808211156115d857600080fd5b6115e48a838b01611539565b909650945060408901359150808211156115fd57600080fd5b5061160a89828a01611539565b979a9699509497509295939492505050565b6001600160a01b0381168114610e1c57600080fd5b60006020828403121561164357600080fd5b813561164e8161161c565b9392505050565b6000806000806000806000806080898b03121561167157600080fd5b883567ffffffffffffffff8082111561168957600080fd5b6116958c838d01611539565b909a50985060208b01359150808211156116ae57600080fd5b6116ba8c838d01611539565b909850965060408b01359150808211156116d357600080fd5b6116df8c838d01611539565b909650945060608b01359150808211156116f857600080fd5b506117058b828c01611539565b999c989b5096995094979396929594505050565b6000806000806040858703121561172f57600080fd5b843567ffffffffffffffff8082111561174757600080fd5b61175388838901611539565b9096509450602087013591508082111561176c57600080fd5b5061177987828801611539565b95989497509550505050565b60005b838110156117a0578181015183820152602001611788565b838111156117af576000848401525b50505050565b600081518084526117cd816020860160208601611785565b601f01601f19169290920160200192915050565b60208152815160208201526000602083015160c0604084015261180760e08401826117b5565b90506040840151601f198085840301606086015261182583836117b5565b9250606086015191508085840301608086015261184283836117b5565b60808701516001600160a01b031660a08781019190915287015186820390920160c08701529250905061187582826117b5565b95945050505050565b634e487b7160e01b600052604160045260246000fd5b60405160c0810167ffffffffffffffff811182821017156118b7576118b761187e565b60405290565b604051601f8201601f1916810167ffffffffffffffff811182821017156118e6576118e661187e565b604052919050565b600067ffffffffffffffff8211156119085761190861187e565b50601f01601f191660200190565b600082601f83011261192757600080fd5b813561193a611935826118ee565b6118bd565b81815284602083860101111561194f57600080fd5b816020850160208301376000918101602001919091529392505050565b6000806040838503121561197f57600080fd5b823567ffffffffffffffff8082111561199757600080fd5b6119a386838701611916565b935060208501359150808211156119b957600080fd5b506119c685828601611916565b9150509250929050565b60208152600061164e60208301846117b5565b6000602082840312156119f557600080fd5b813567ffffffffffffffff811115611a0c57600080fd5b611a1884828501611916565b949350505050565b606081526000611a3360608301866117b5565b8281036020840152611a4581866117b5565b9150508215156040830152949350505050565b600060208284031215611a6a57600080fd5b5035919050565b608081526000611a8460808301876117b5565b8281036020840152611a9681876117b5565b90508281036040840152611aaa81866117b5565b90508281036060840152611abe81856117b5565b979650505050505050565b86815260c060208201526000611ae260c08301886117b5565b8281036040840152611af481886117b5565b90508281036060840152611b0881876117b5565b6001600160a01b038616608085015283810360a08501529050611b2b81856117b5565b9998505050505050505050565b6020808252818101527f4f776e61626c653a2063616c6c6572206973206e6f7420746865206f776e6572604082015260600190565b8183823760009101908152919050565b600082601f830112611b8e57600080fd5b8151611b9c611935826118ee565b818152846020838601011115611bb157600080fd5b611a18826020830160208701611785565b8051611bcd8161161c565b919050565b600060208284031215611be457600080fd5b815167ffffffffffffffff80821115611bfc57600080fd5b9083019060c08286031215611c1057600080fd5b611c18611894565b82518152602083015182811115611c2e57600080fd5b611c3a87828601611b7d565b602083015250604083015182811115611c5257600080fd5b611c5e87828601611b7d565b604083015250606083015182811115611c7657600080fd5b611c8287828601611b7d565b606083015250611c9460808401611bc2565b608082015260a083015182811115611cab57600080fd5b611cb787828601611b7d565b60a08301525095945050505050565b81835281816020850137506000828201602090810191909152601f909101601f19169091010190565b604081526000611d03604083018688611cc6565b8281036020840152611abe818587611cc6565b608081526000611d2a608083018a8c611cc6565b8281036020840152611d3d81898b611cc6565b90508281036040840152611d52818789611cc6565b90508281036060840152611d67818587611cc6565b9b9a5050505050505050505050565b600181811c90821680611d8a57607f821691505b60208210811415611dab57634e487b7160e01b600052602260045260246000fd5b50919050565b6080815260096080820152684176616c616e63686560b81b60a082015260c060208201526000611de560c08301888a611cc6565b8281036040840152611df8818789611cc6565b90508281036060840152611b2b818587611cc6565b60008154611e1a81611d76565b808552602060018381168015611e375760018114611e4b57611e79565b60ff19851688840152604088019550611e79565b866000528260002060005b85811015611e715781548a8201860152908301908401611e56565b890184019650505b505050505092915050565b60a081526000611e9860a08301888a611cc6565b8281036020840152611eaa8188611e0d565b90508281036040840152611ebe8187611e0d565b905060ff85511660608401528281036080840152611b2b81856117b5565b6000808354611eea81611d76565b60018281168015611f025760018114611f1357611f42565b60ff19841687528287019450611f42565b8760005260208060002060005b85811015611f395781548a820152908401908201611f20565b50505082870194505b5092969550505050505056fea2646970667358221220261245e9f243ecae56949ccebe30be2032b1e7e0116c38cd7efd2ce5524c904464736f6c634300080a0033",
  "immutableReferences": {},
  "source": "// SPDX-License-Identifier: MIT\npragma solidity >=0.8.0 <0.9.0;\n\nimport \"@openzeppelin/contracts/access/Ownable.sol\";\nimport \"./../ConsumerBase.sol\";\n\ncontract Greetings is ConsumerBase {\n    struct Greeting {\n        string fromChain;\n        string title;\n        string content;\n        string date;\n    }\n    \n    // Store greetings\n    Greeting[] public greetings;\n\n    // Store last message info\n    SimplifiedMessage public currentSimplifiedMessage;\n\n    function registerInterface(string calldata _funcName, string calldata _interface) onlyOwner override external {\n        crossChainContract.registerInterface(_funcName, _interface);\n    }\n\n    function receiveGreeting(string calldata _fromChain, string calldata _title, string calldata _content, string calldata _date) external {\n        require(msg.sender == address(crossChainContract), \"Locker: caller is not CrossChain\");\n        Greeting storage g = greetings.push();\n        g.fromChain = _fromChain;\n        g.title = _title;\n        g.content = _content;\n        g.date = _date;\n\n        currentSimplifiedMessage = crossChainContract.getCurrentMessage();\n    }\n\n    function sendGreeting(string calldata _toChain, string calldata _title, string calldata _content, string calldata _date) external {\n        DestinationMethod storage method = methodMap[_toChain];\n        require(method.used, \"method not registered\");\n\n        bytes memory data = abi.encode(\"Avalanche\", _title, _content, _date);\n        SQOS memory sqos = SQOS(0);\n        crossChainContract.sendMessage(_toChain, method.contractAddress, method.methodName, sqos, data);\n    }\n\n    // return last simplify message info\n    function getLastMessage() view external returns (SimplifiedMessage memory) {\n        return currentSimplifiedMessage;\n    }\n}",
  "sourcePath": "/home/george/hthuang/dante-cross-chain/avalanche/contracts/examples/Greetings.sol",
  "compiler": {
    "name": "solc",
    "version": "0.8.10+commit.fc410830.Emscripten.clang"
  },
  "schemaVersion": "3.4.4",
  "updatedAt": "2022-03-08T07:59:45.109Z",
  "networkType": "ethereum",
  "devdoc": {
    "kind": "dev",
    "methods": {
      "owner()": {
        "details": "Returns the address of the current owner."
      },
      "renounceOwnership()": {
        "details": "Leaves the contract without owner. It will not be possible to call `onlyOwner` functions anymore. Can only be called by the current owner. NOTE: Renouncing ownership will leave the contract without an owner, thereby removing any functionality that is only available to the owner."
      },
      "transferOwnership(address)": {
        "details": "Transfers ownership of the contract to a new account (`newOwner`). Can only be called by the current owner."
      }
    },
    "version": 1
  },
  "userdoc": {
    "kind": "user",
    "methods": {},
    "version": 1
  }
}