{
  "contractName": "Greetings",
  "abi": [
    {
      "anonymous": false,
      "inputs": [
        {
          "indexed": true,
          "internalType": "address",
          "name": "previousOwner",
          "type": "address"
        },
        {
          "indexed": true,
          "internalType": "address",
          "name": "newOwner",
          "type": "address"
        }
      ],
      "name": "OwnershipTransferred",
      "type": "event"
    },
    {
      "inputs": [
        {
          "internalType": "string",
          "name": "",
          "type": "string"
        }
      ],
      "name": "contractABIMap",
      "outputs": [
        {
          "internalType": "string",
          "name": "",
          "type": "string"
        }
      ],
      "stateMutability": "view",
      "type": "function"
    },
    {
      "inputs": [],
      "name": "crossChainContract",
      "outputs": [
        {
          "internalType": "contract ICrossChain",
          "name": "",
          "type": "address"
        }
      ],
      "stateMutability": "view",
      "type": "function"
    },
    {
      "inputs": [
        {
          "internalType": "string",
          "name": "",
          "type": "string"
        },
        {
          "internalType": "string",
          "name": "",
          "type": "string"
        }
      ],
      "name": "destnContractMap",
      "outputs": [
        {
          "internalType": "string",
          "name": "contractAddress",
          "type": "string"
        },
        {
          "internalType": "string",
          "name": "funcName",
          "type": "string"
        },
        {
          "internalType": "bool",
          "name": "used",
          "type": "bool"
        }
      ],
      "stateMutability": "view",
      "type": "function"
    },
    {
      "inputs": [],
      "name": "getContext",
      "outputs": [
        {
          "components": [
            {
              "internalType": "uint256",
              "name": "id",
              "type": "uint256"
            },
            {
              "internalType": "string",
              "name": "fromChain",
              "type": "string"
            },
            {
              "internalType": "string",
              "name": "sender",
              "type": "string"
            },
            {
              "internalType": "string",
              "name": "signer",
              "type": "string"
            },
            {
              "components": [
                {
                  "internalType": "uint8",
                  "name": "reveal",
                  "type": "uint8"
                }
              ],
              "internalType": "struct SQOS",
              "name": "sqos",
              "type": "tuple"
            },
            {
              "internalType": "address",
              "name": "contractAddress",
              "type": "address"
            },
            {
              "internalType": "string",
              "name": "action",
              "type": "string"
            }
          ],
          "internalType": "struct SimplifiedMessage",
          "name": "",
          "type": "tuple"
        }
      ],
      "stateMutability": "view",
      "type": "function"
    },
    {
      "inputs": [
        {
          "internalType": "string",
          "name": "_destnChainName",
          "type": "string"
        },
        {
          "internalType": "string",
          "name": "_destnContractName",
          "type": "string"
        },
        {
          "internalType": "string",
          "name": "_funcName",
          "type": "string"
        }
      ],
      "name": "getMessageABI",
      "outputs": [
        {
          "components": [
            {
              "internalType": "string",
              "name": "parametertypes",
              "type": "string"
            },
            {
              "internalType": "string",
              "name": "parameterNames",
              "type": "string"
            }
          ],
          "internalType": "struct ContractBase.MessageABI",
          "name": "",
          "type": "tuple"
        }
      ],
      "stateMutability": "view",
      "type": "function"
    },
    {
      "inputs": [
        {
          "internalType": "uint256",
          "name": "",
          "type": "uint256"
        }
      ],
      "name": "greetings",
      "outputs": [
        {
          "internalType": "string",
          "name": "fromChain",
          "type": "string"
        },
        {
          "internalType": "string",
          "name": "title",
          "type": "string"
        },
        {
          "internalType": "string",
          "name": "content",
          "type": "string"
        },
        {
          "internalType": "string",
          "name": "date",
          "type": "string"
        }
      ],
      "stateMutability": "view",
      "type": "function"
    },
    {
      "inputs": [
        {
          "internalType": "bytes",
          "name": "",
          "type": "bytes"
        }
      ],
      "name": "messageABIMap",
      "outputs": [
        {
          "internalType": "string",
          "name": "parametertypes",
          "type": "string"
        },
        {
          "internalType": "string",
          "name": "parameterNames",
          "type": "string"
        }
      ],
      "stateMutability": "view",
      "type": "function"
    },
    {
      "inputs": [],
      "name": "ocResult",
      "outputs": [
        {
          "internalType": "uint256",
          "name": "",
          "type": "uint256"
        }
      ],
      "stateMutability": "view",
      "type": "function"
    },
    {
      "inputs": [],
      "name": "owner",
      "outputs": [
        {
          "internalType": "address",
          "name": "",
          "type": "address"
        }
      ],
      "stateMutability": "view",
      "type": "function"
    },
    {
      "inputs": [
        {
          "internalType": "string",
          "name": "",
          "type": "string"
        },
        {
          "internalType": "string",
          "name": "",
          "type": "string"
        }
      ],
      "name": "permittedContractMap",
      "outputs": [
        {
          "internalType": "string",
          "name": "",
          "type": "string"
        }
      ],
      "stateMutability": "view",
      "type": "function"
    },
    {
      "inputs": [
        {
          "internalType": "string",
          "name": "_funcName",
          "type": "string"
        },
        {
          "internalType": "string",
          "name": "_contractABI",
          "type": "string"
        }
      ],
      "name": "registerContractABI",
      "outputs": [],
      "stateMutability": "nonpayable",
      "type": "function"
    },
    {
      "inputs": [
        {
          "internalType": "string",
          "name": "_destnChainName",
          "type": "string"
        },
        {
          "internalType": "string",
          "name": "_destnContractName",
          "type": "string"
        },
        {
          "internalType": "string",
          "name": "_funcName",
          "type": "string"
        },
        {
          "internalType": "string",
          "name": "_paramType",
          "type": "string"
        },
        {
          "internalType": "string",
          "name": "_paramName",
          "type": "string"
        }
      ],
      "name": "registerMessageABI",
      "outputs": [],
      "stateMutability": "nonpayable",
      "type": "function"
    },
    {
      "inputs": [],
      "name": "renounceOwnership",
      "outputs": [],
      "stateMutability": "nonpayable",
      "type": "function"
    },
    {
      "inputs": [
        {
          "internalType": "address",
          "name": "_address",
          "type": "address"
        }
      ],
      "name": "setCrossChainContract",
      "outputs": [],
      "stateMutability": "nonpayable",
      "type": "function"
    },
    {
      "inputs": [
        {
          "internalType": "address",
          "name": "newOwner",
          "type": "address"
        }
      ],
      "name": "transferOwnership",
      "outputs": [],
      "stateMutability": "nonpayable",
      "type": "function"
    },
    {
      "inputs": [
        {
          "components": [
            {
              "internalType": "string",
              "name": "fromChain",
              "type": "string"
            },
            {
              "internalType": "string",
              "name": "title",
              "type": "string"
            },
            {
              "internalType": "string",
              "name": "content",
              "type": "string"
            },
            {
              "internalType": "string",
              "name": "date",
              "type": "string"
            }
          ],
          "internalType": "struct Greetings.Greeting",
          "name": "_greeting",
          "type": "tuple"
        }
      ],
      "name": "receiveGreeting",
      "outputs": [],
      "stateMutability": "nonpayable",
      "type": "function"
    },
    {
      "inputs": [
        {
          "internalType": "string",
          "name": "_toChain",
          "type": "string"
        },
        {
          "components": [
            {
              "internalType": "string",
              "name": "fromChain",
              "type": "string"
            },
            {
              "internalType": "string",
              "name": "title",
              "type": "string"
            },
            {
              "internalType": "string",
              "name": "content",
              "type": "string"
            },
            {
              "internalType": "string",
              "name": "date",
              "type": "string"
            }
          ],
          "internalType": "struct Greetings.Greeting",
          "name": "_greeting",
          "type": "tuple"
        }
      ],
      "name": "sendGreeting",
      "outputs": [],
      "stateMutability": "nonpayable",
      "type": "function"
    },
    {
      "inputs": [
        {
          "internalType": "string",
          "name": "_toChain",
          "type": "string"
        },
        {
          "internalType": "uint256[]",
          "name": "_nums",
          "type": "uint256[]"
        }
      ],
      "name": "sendComputeTask",
      "outputs": [],
      "stateMutability": "nonpayable",
      "type": "function"
    },
    {
      "inputs": [
        {
          "internalType": "uint256[]",
          "name": "_nums",
          "type": "uint256[]"
        }
      ],
      "name": "receiveComputeTask",
      "outputs": [],
      "stateMutability": "nonpayable",
      "type": "function"
    },
    {
      "inputs": [
        {
          "internalType": "uint256",
          "name": "_result",
          "type": "uint256"
        }
      ],
      "name": "receiveComputeResult",
      "outputs": [],
      "stateMutability": "nonpayable",
      "type": "function"
    },
    {
      "inputs": [
        {
          "internalType": "string",
          "name": "_funcName",
          "type": "string"
        },
        {
          "internalType": "string",
          "name": "_toChain",
          "type": "string"
        },
        {
          "internalType": "string",
          "name": "_contractAddress",
          "type": "string"
        },
        {
          "internalType": "string",
          "name": "_contractFuncName",
          "type": "string"
        }
      ],
      "name": "registerDestnContract",
      "outputs": [],
      "stateMutability": "nonpayable",
      "type": "function"
    },
    {
      "inputs": [
        {
          "internalType": "string",
          "name": "_chainName",
          "type": "string"
        },
        {
          "internalType": "string",
          "name": "_sender",
          "type": "string"
        },
        {
          "internalType": "string",
          "name": "_funcName",
          "type": "string"
        }
      ],
      "name": "registerPermittedContract",
      "outputs": [],
      "stateMutability": "nonpayable",
      "type": "function"
    },
    {
      "inputs": [
        {
          "internalType": "string",
          "name": "_chainName",
          "type": "string"
        },
        {
          "internalType": "string",
          "name": "_funcName",
          "type": "string"
        },
        {
          "internalType": "string",
          "name": "_sender",
          "type": "string"
        }
      ],
      "name": "verify",
      "outputs": [
        {
          "internalType": "bool",
          "name": "",
          "type": "bool"
        }
      ],
      "stateMutability": "view",
      "type": "function"
    }
  ],
  "bytecode": "0x608060405234801561001057600080fd5b5061001a3361001f565b61006f565b600080546001600160a01b038381166001600160a01b0319831681178455604051919092169283917f8be0079c531659141344cd1fd0a4f28419497f9722a3daafe3b4186f6b6457e09190a35050565b6129298061007e6000396000f3fe608060405234801561001057600080fd5b506004361061014d5760003560e01c80638da5cb5b116100c3578063d46927031161007c578063d4692703146102e4578063dbc90de1146102f7578063e432d53a1461030a578063f2fde38b1461031d578063f87c9ea914610330578063ff96254b1461035357600080fd5b80638da5cb5b1461025c578063a24cbdf314610281578063a6b2b83014610294578063b02fe88f146102a7578063babe5dd6146102be578063bb45acd9146102d157600080fd5b80634c236819116101155780634c236819146101d95780635fe78c6c146101ec57806366e1f8201461020c578063715018a61461021f57806379f6793c1461022757806380899bba1461023a57600080fd5b8063127f0f071461015257806318d72b54146101705780632639c423146101855780633ad16b7a146101a6578063424a6b23146101c6575b600080fd5b61015a610376565b60405161016791906117aa565b60405180910390f35b61018361017e366004611872565b6103fe565b005b610198610193366004611969565b610453565b6040516101679291906119b9565b6101b96101b4366004611a26565b61058a565b6040516101679190611abf565b6101836101d4366004611b10565b61071e565b6101836101e7366004611b88565b6108a3565b6101ff6101fa366004611be9565b610a44565b6040516101679190611c1d565b61018361021a366004611c30565b610ae9565b610183610b81565b610183610235366004611a26565b610bb7565b61024d610248366004611c9b565b610c32565b60405161016793929190611cfe565b6000546001600160a01b03165b6040516001600160a01b039091168152602001610167565b61018361028f366004611d36565b610d8f565b6101836102a2366004611d4f565b610dbe565b6102b060075481565b604051908152602001610167565b6101836102cc366004611dae565b610ea4565b6101ff6102df366004611c9b565b610f4a565b6101836102f2366004611e71565b610f8b565b600354610269906001600160a01b031681565b610183610318366004611f61565b6110be565b61018361032b366004611872565b6111da565b61034361033e366004611d36565b611275565b6040516101679493929190611fc9565b610366610361366004611a26565b6114d5565b6040519015158152602001610167565b61037e6115ed565b600360009054906101000a90046001600160a01b03166001600160a01b0316639af7a48c6040518163ffffffff1660e01b8152600401600060405180830381865afa1580156103d1573d6000803e3d6000fd5b505050506040513d6000823e601f3d908101601f191682016040526103f991908101906120cb565b905090565b6000546001600160a01b031633146104315760405162461bcd60e51b8152600401610428906121d0565b60405180910390fd5b600380546001600160a01b0319166001600160a01b0392909216919091179055565b805160208183018101805160018252928201919093012091528054819061047990612205565b80601f01602080910402602001604051908101604052809291908181526020018280546104a590612205565b80156104f25780601f106104c7576101008083540402835291602001916104f2565b820191906000526020600020905b8154815290600101906020018083116104d557829003601f168201915b50505050509080600101805461050790612205565b80601f016020809104026020016040519081016040528092919081815260200182805461053390612205565b80156105805780601f1061055557610100808354040283529160200191610580565b820191906000526020600020905b81548152906001019060200180831161056357829003601f168201915b5050505050905082565b604080518082019091526060808252602082015260018787878787876040516020016105bb9695949392919061223a565b60408051601f19818403018152908290526105d59161226a565b90815260200160405180910390206040518060400160405290816000820180546105fe90612205565b80601f016020809104026020016040519081016040528092919081815260200182805461062a90612205565b80156106775780601f1061064c57610100808354040283529160200191610677565b820191906000526020600020905b81548152906001019060200180831161065a57829003601f168201915b5050505050815260200160018201805461069090612205565b80601f01602080910402602001604051908101604052809291908181526020018280546106bc90612205565b80156107095780601f106106de57610100808354040283529160200191610709565b820191906000526020600020905b8154815290600101906020018083116106ec57829003601f168201915b50505050508152505090509695505050505050565b6003546001600160a01b031633146107485760405162461bcd60e51b815260040161042890612286565b6000610752610376565b905080608001516000015160ff1660011461079f5760405162461bcd60e51b815260206004820152600d60248201526c53516f5320696e76616c69642160981b6044820152606401610428565b6000600582602001516040516107b5919061226a565b90815260200160405180910390209050816040015180519060200120818360c001516040516107e4919061226a565b9081526040519081900360200181206107fc916122bb565b60405180910390201461085b5760405162461bcd60e51b815260206004820152602160248201527f6d6573736167652073656e646572206973206e6f7420726567697374657265646044820152602160f81b6064820152608401610428565b6006805460018101825560009190915283906004027ff652222313e28459528d920b65115c16c04f3efc82aaedc97be59f3f377c0d3f0161089c8282612481565b5050505050565b6003546001600160a01b031633146108cd5760405162461bcd60e51b815260040161042890612286565b6000805b82811015610911578383828181106108eb576108eb61259d565b90506020020135826108fd91906125c9565b915080610909816125e1565b9150506108d1565b50600061091c610376565b9050600060048260200151604051610934919061226a565b908152604051908190036020018120731c9958d95a5d9950dbdb5c1d5d1954995cdd5b1d60621b825291506000908290601401908152604051908190036020019020600281015490915060ff1661099d5760405162461bcd60e51b8152600401610428906125fc565b6000846040516020016109b291815260200190565b60408051601f19818403018152602083810183526000845260035490880151925163ef565bbf60e01b81529194506001600160a01b03169163ef565bbf91610a08919087906001820190879089906004016126a2565b600060405180830381600087803b158015610a2257600080fd5b505af1158015610a36573d6000803e3d6000fd5b505050505050505050505050565b805160208183018101805160028252928201919093012091528054610a6890612205565b80601f0160208091040260200160405190810160405280929190818152602001828054610a9490612205565b8015610ae15780601f10610ab657610100808354040283529160200191610ae1565b820191906000526020600020905b815481529060010190602001808311610ac457829003601f168201915b505050505081565b6000546001600160a01b03163314610b135760405162461bcd60e51b8152600401610428906121d0565b6003546040516321c0551d60e11b81526001600160a01b0390911690634380aa3a90610b4990879087908790879060040161272e565b600060405180830381600087803b158015610b6357600080fd5b505af1158015610b77573d6000803e3d6000fd5b5050505050505050565b6000546001600160a01b03163314610bab5760405162461bcd60e51b8152600401610428906121d0565b610bb5600061159d565b565b6000546001600160a01b03163314610be15760405162461bcd60e51b8152600401610428906121d0565b600060058787604051610bf5929190612755565b908152602001604051809103902090508484828585604051610c18929190612755565b908152604051908190036020019020610b77929091611641565b81516020818401810180516004825292820194820194909420919093528151808301840180519281529084019290930191909120915280548190610c7590612205565b80601f0160208091040260200160405190810160405280929190818152602001828054610ca190612205565b8015610cee5780601f10610cc357610100808354040283529160200191610cee565b820191906000526020600020905b815481529060010190602001808311610cd157829003601f168201915b505050505090806001018054610d0390612205565b80601f0160208091040260200160405190810160405280929190818152602001828054610d2f90612205565b8015610d7c5780601f10610d5157610100808354040283529160200191610d7c565b820191906000526020600020905b815481529060010190602001808311610d5f57829003601f168201915b5050506002909301549192505060ff1683565b6003546001600160a01b03163314610db95760405162461bcd60e51b815260040161042890612286565b600755565b600060048585604051610dd2929190612755565b9081526040519081900360200181207172656365697665436f6d707574655461736b60701b825291506000908290601201908152604051908190036020019020600281015490915060ff16610e395760405162461bcd60e51b8152600401610428906125fc565b60008484604051602001610e4e929190612765565b60408051601f1981840301815260208301825260008352600354915163ef565bbf60e01b81529093506001600160a01b039091169063ef565bbf90610a08908b908b908890600182019088908a906004016127a1565b6000546001600160a01b03163314610ece5760405162461bcd60e51b8152600401610428906121d0565b600060048787604051610ee2929190612755565b908152602001604051809103902090506000818a8a604051610f05929190612755565b9081526040519081900360200190209050610f21818787611641565b50610f30600182018585611641565b50600201805460ff19166001179055505050505050505050565b8151602081840181018051600582529282019482019490942091909352815180830184018051928152908401929093019190912091528054610a6890612205565b6000546001600160a01b03163314610fb55760405162461bcd60e51b8152600401610428906121d0565b6040805160606020601f8701819004028201810183529181018581526000928291908890889081908501838280828437600092019190915250505090825250604080516020601f87018190048102820181019092528581529181019190869086908190840183828082843760009201919091525050509152506040519091508190600190611051908e908e908e908e908e908e9060200161223a565b60408051601f198184030181529082905261106b9161226a565b908152602001604051809103902060008201518160000190805190602001906110959291906116c5565b5060208281015180516110ae92600185019201906116c5565b5050505050505050505050505050565b6000600484846040516110d2929190612755565b9081526040519081900360200181206e726563656976654772656574696e6760881b825291506000908290600f01908152604051908190036020019020600281015490915060ff166111365760405162461bcd60e51b8152600401610428906125fc565b600083604051602001611149919061284b565b60408051601f198184030181526020830182526001808452600354925163ef565bbf60e01b81529194506001600160a01b039092169163ef565bbf9161119f918b918b9189919082019088908a906004016127a1565b600060405180830381600087803b1580156111b957600080fd5b505af11580156111cd573d6000803e3d6000fd5b5050505050505050505050565b6000546001600160a01b031633146112045760405162461bcd60e51b8152600401610428906121d0565b6001600160a01b0381166112695760405162461bcd60e51b815260206004820152602660248201527f4f776e61626c653a206e6577206f776e657220697320746865207a65726f206160448201526564647265737360d01b6064820152608401610428565b6112728161159d565b50565b6006818154811061128557600080fd5b90600052602060002090600402016000915090508060000180546112a890612205565b80601f01602080910402602001604051908101604052809291908181526020018280546112d490612205565b80156113215780601f106112f657610100808354040283529160200191611321565b820191906000526020600020905b81548152906001019060200180831161130457829003601f168201915b50505050509080600101805461133690612205565b80601f016020809104026020016040519081016040528092919081815260200182805461136290612205565b80156113af5780601f10611384576101008083540402835291602001916113af565b820191906000526020600020905b81548152906001019060200180831161139257829003601f168201915b5050505050908060020180546113c490612205565b80601f01602080910402602001604051908101604052809291908181526020018280546113f090612205565b801561143d5780601f106114125761010080835404028352916020019161143d565b820191906000526020600020905b81548152906001019060200180831161142057829003601f168201915b50505050509080600301805461145290612205565b80601f016020809104026020016040519081016040528092919081815260200182805461147e90612205565b80156114cb5780601f106114a0576101008083540402835291602001916114cb565b820191906000526020600020905b8154815290600101906020018083116114ae57829003601f168201915b5050505050905084565b600080600588886040516114ea929190612755565b90815260200160405180910390209050600081878760405161150d929190612755565b908152604051908190036020018120915061152b9086908690612755565b60405180910390208160405161154191906122bb565b60405180910390201461158e5760405162461bcd60e51b81526020600482015260156024820152740a6cadcc8cae440c8decae640dcdee840dac2e8c6d605b1b6044820152606401610428565b50600198975050505050505050565b600080546001600160a01b038381166001600160a01b0319831681178455604051919092169283917f8be0079c531659141344cd1fd0a4f28419497f9722a3daafe3b4186f6b6457e09190a35050565b6040518060e001604052806000815260200160608152602001606081526020016060815260200161162d6040518060200160405280600060ff1681525090565b815260006020820152606060409091015290565b82805461164d90612205565b90600052602060002090601f01602090048101928261166f57600085556116b5565b82601f106116885782800160ff198235161785556116b5565b828001600101855582156116b5579182015b828111156116b557823582559160200191906001019061169a565b506116c1929150611739565b5090565b8280546116d190612205565b90600052602060002090601f0160209004810192826116f357600085556116b5565b82601f1061170c57805160ff19168380011785556116b5565b828001600101855582156116b5579182015b828111156116b557825182559160200191906001019061171e565b5b808211156116c1576000815560010161173a565b60005b83811015611769578181015183820152602001611751565b83811115611778576000848401525b50505050565b6000815180845261179681602086016020860161174e565b601f01601f19169290920160200192915050565b60208152815160208201526000602083015160e060408401526117d161010084018261177e565b90506040840151601f19808584030160608601526117ef838361177e565b9250606086015191508085840301608086015261180c838361177e565b925060ff6080870151511660a086015260a0860151915061183860c08601836001600160a01b03169052565b60c08601519150808584030160e086015250611854828261177e565b95945050505050565b6001600160a01b038116811461127257600080fd5b60006020828403121561188457600080fd5b813561188f8161185d565b9392505050565b634e487b7160e01b600052604160045260246000fd5b60405160e081016001600160401b03811182821017156118ce576118ce611896565b60405290565b604051601f8201601f191681016001600160401b03811182821017156118fc576118fc611896565b604052919050565b60006001600160401b0382111561191d5761191d611896565b50601f01601f191660200190565b600061193e61193984611904565b6118d4565b905082815283838301111561195257600080fd5b828260208301376000602084830101529392505050565b60006020828403121561197b57600080fd5b81356001600160401b0381111561199157600080fd5b8201601f810184136119a257600080fd5b6119b18482356020840161192b565b949350505050565b6040815260006119cc604083018561177e565b8281036020840152611854818561177e565b60008083601f8401126119f057600080fd5b5081356001600160401b03811115611a0757600080fd5b602083019150836020828501011115611a1f57600080fd5b9250929050565b60008060008060008060608789031215611a3f57600080fd5b86356001600160401b0380821115611a5657600080fd5b611a628a838b016119de565b90985096506020890135915080821115611a7b57600080fd5b611a878a838b016119de565b90965094506040890135915080821115611aa057600080fd5b50611aad89828a016119de565b979a9699509497509295939492505050565b602081526000825160406020840152611adb606084018261177e565b90506020840151601f19848303016040850152611854828261177e565b600060808284031215611b0a57600080fd5b50919050565b600060208284031215611b2257600080fd5b81356001600160401b03811115611b3857600080fd5b6119b184828501611af8565b60008083601f840112611b5657600080fd5b5081356001600160401b03811115611b6d57600080fd5b6020830191508360208260051b8501011115611a1f57600080fd5b60008060208385031215611b9b57600080fd5b82356001600160401b03811115611bb157600080fd5b611bbd85828601611b44565b90969095509350505050565b600082601f830112611bda57600080fd5b61188f8383356020850161192b565b600060208284031215611bfb57600080fd5b81356001600160401b03811115611c1157600080fd5b6119b184828501611bc9565b60208152600061188f602083018461177e565b60008060008060408587031215611c4657600080fd5b84356001600160401b0380821115611c5d57600080fd5b611c69888389016119de565b90965094506020870135915080821115611c8257600080fd5b50611c8f878288016119de565b95989497509550505050565b60008060408385031215611cae57600080fd5b82356001600160401b0380821115611cc557600080fd5b611cd186838701611bc9565b93506020850135915080821115611ce757600080fd5b50611cf485828601611bc9565b9150509250929050565b606081526000611d11606083018661177e565b8281036020840152611d23818661177e565b9150508215156040830152949350505050565b600060208284031215611d4857600080fd5b5035919050565b60008060008060408587031215611d6557600080fd5b84356001600160401b0380821115611d7c57600080fd5b611d88888389016119de565b90965094506020870135915080821115611da157600080fd5b50611c8f87828801611b44565b6000806000806000806000806080898b031215611dca57600080fd5b88356001600160401b0380821115611de157600080fd5b611ded8c838d016119de565b909a50985060208b0135915080821115611e0657600080fd5b611e128c838d016119de565b909850965060408b0135915080821115611e2b57600080fd5b611e378c838d016119de565b909650945060608b0135915080821115611e5057600080fd5b50611e5d8b828c016119de565b999c989b5096995094979396929594505050565b60008060008060008060008060008060a08b8d031215611e9057600080fd5b8a356001600160401b0380821115611ea757600080fd5b611eb38e838f016119de565b909c509a5060208d0135915080821115611ecc57600080fd5b611ed88e838f016119de565b909a50985060408d0135915080821115611ef157600080fd5b611efd8e838f016119de565b909850965060608d0135915080821115611f1657600080fd5b611f228e838f016119de565b909650945060808d0135915080821115611f3b57600080fd5b50611f488d828e016119de565b915080935050809150509295989b9194979a5092959850565b600080600060408486031215611f7657600080fd5b83356001600160401b0380821115611f8d57600080fd5b611f99878388016119de565b90955093506020860135915080821115611fb257600080fd5b50611fbf86828701611af8565b9150509250925092565b608081526000611fdc608083018761177e565b8281036020840152611fee818761177e565b90508281036040840152612002818661177e565b90508281036060840152612016818561177e565b979650505050505050565b600082601f83011261203257600080fd5b815161204061193982611904565b81815284602083860101111561205557600080fd5b6119b182602083016020870161174e565b60006020828403121561207857600080fd5b604051602081018181106001600160401b038211171561209a5761209a611896565b8060405250809150825160ff811681146120b357600080fd5b905292915050565b80516120c68161185d565b919050565b6000602082840312156120dd57600080fd5b81516001600160401b03808211156120f457600080fd5b9083019060e0828603121561210857600080fd5b6121106118ac565b8251815260208301518281111561212657600080fd5b61213287828601612021565b60208301525060408301518281111561214a57600080fd5b61215687828601612021565b60408301525060608301518281111561216e57600080fd5b61217a87828601612021565b60608301525061218d8660808501612066565b608082015261219e60a084016120bb565b60a082015260c0830151828111156121b557600080fd5b6121c187828601612021565b60c08301525095945050505050565b6020808252818101527f4f776e61626c653a2063616c6c6572206973206e6f7420746865206f776e6572604082015260600190565b600181811c9082168061221957607f821691505b60208210811415611b0a57634e487b7160e01b600052602260045260246000fd5b85878237600086820160008152858782376000908601908152838582376000930192835250909695505050505050565b6000825161227c81846020870161174e565b9190910192915050565b6020808252818101527f4c6f636b65723a2063616c6c6572206973206e6f742043726f7373436861696e604082015260600190565b60008083546122c981612205565b600182811680156122e157600181146122f257612321565b60ff19841687528287019450612321565b8760005260208060002060005b858110156123185781548a8201529084019082016122ff565b50505082870194505b50929695505050505050565b6000808335601e1984360301811261234457600080fd5b8301803591506001600160401b0382111561235e57600080fd5b602001915036819003821315611a1f57600080fd5b601f8211156123bd57600081815260208120601f850160051c8101602086101561239a5750805b601f850160051c820191505b818110156123b9578281556001016123a6565b5050505b505050565b6001600160401b038311156123d9576123d9611896565b6123ed836123e78354612205565b83612373565b6000601f84116001811461242157600085156124095750838201355b600019600387901b1c1916600186901b17835561089c565b600083815260209020601f19861690835b828110156124525786850135825560209485019460019092019101612432565b508682101561246f5760001960f88860031b161c19848701351681555b505060018560011b0183555050505050565b61248b828361232d565b6001600160401b038111156124a2576124a2611896565b6124b6816124b08554612205565b85612373565b6000601f8211600181146124ea57600083156124d25750838201355b600019600385901b1c1916600184901b178555612544565b600085815260209020601f19841690835b8281101561251b57868501358255602094850194600190920191016124fb565b50848210156125385760001960f88660031b161c19848701351681555b505060018360011b0185555b50505050612555602083018361232d565b6125638183600186016123c2565b5050612572604083018361232d565b6125808183600286016123c2565b505061258f606083018361232d565b6117788183600386016123c2565b634e487b7160e01b600052603260045260246000fd5b634e487b7160e01b600052601160045260246000fd5b600082198211156125dc576125dc6125b3565b500190565b60006000198214156125f5576125f56125b3565b5060010190565b6020808252601590820152741858dd1a5bdb881b9bdd081c9959da5cdd195c9959605a1b604082015260600190565b6000815461263881612205565b808552602060018381168015612655576001811461266957612697565b60ff19851688840152604088019550612697565b866000528260002060005b8581101561268f5781548a8201860152908301908401612674565b890184019650505b505050505092915050565b60a0815260006126b560a083018861177e565b82810360208401526126c7818861262b565b905082810360408401526126db818761262b565b905060ff855116606084015282810360808401526126f9818561177e565b98975050505050505050565b81835281816020850137506000828201602090810191909152601f909101601f19169091010190565b604081526000612742604083018688612705565b8281036020840152612016818587612705565b8183823760009101908152919050565b6020808252810182905260006001600160fb1b0383111561278557600080fd5b8260051b80856040850137600092016040019182525092915050565b60a0815260006127b560a08301888a612705565b82810360208401526127c7818861262b565b905082810360408401526127db818761262b565b905060ff855116606084015282810360808401526127f9818561177e565b9998505050505050505050565b6000808335601e1984360301811261281d57600080fd5b83016020810192503590506001600160401b0381111561283c57600080fd5b803603831315611a1f57600080fd5b60208152600061285b8384612806565b6080602085015261287060a085018284612705565b9150506128806020850185612806565b601f1980868503016040870152612898848385612705565b93506128a76040880188612806565b93509150808685030160608701526128c0848484612705565b93506128cf6060880188612806565b9350915080868503016080870152506128e9838383612705565b969550505050505056fea2646970667358221220e0648f5bca9431ba5eff743b981f1b27dfb90cd482e6f9c3d4a79c46af4dffda64736f6c634300080a0033",
  "immutableReferences": {},
  "source": "// SPDX-License-Identifier: MIT\npragma solidity >=0.8.0 <0.9.0;\n\nimport \"@openzeppelin/contracts/access/Ownable.sol\";\nimport \"./CrossChain/ContractBase.sol\";\n\n// `Greetings` is an example of multi-chain services with necessary implementations in `ContractBase`, without which the user defined contract cannot work.\n// And besides, `registerDestnContract` and `registerPermittedContract` are templete implementations make the management of some user defined informations easier.\ncontract Greetings is ContractBase {\n    // Destination contract info\n    struct DestnContract {\n        string contractAddress; // destination contract address\n        string funcName; // destination contract action name\n        bool used;\n    }\n\n    // greeting\n    struct Greeting {\n        string fromChain;\n        string title;\n        string content;\n        string date;\n    }\n\n    // Cross-chain destination contract map\n    mapping(string => mapping(string => DestnContract)) public destnContractMap;\n\n    // Cross-chain permitted contract map\n    mapping(string => mapping(string => string)) public permittedContractMap;\n\n    // Store greetings\n    Greeting[] public greetings;\n\n    // Outsourcing computing result\n    uint256 public ocResult;\n\n    // Store context of cross chain contract\n    // SimplifiedMessage public context;\n\n    /**\n     * Receive greeting info from other chains\n     * @param _greeting - greeting sent from other chain\n     */\n    function receiveGreeting(\n        Greeting calldata _greeting\n    ) public {\n        require(\n            msg.sender == address(crossChainContract),\n            \"Locker: caller is not CrossChain\"\n        );\n\n        // `context` used for verify the operation authority\n        SimplifiedMessage memory context = getContext();\n        // verify sqos\n        require(context.sqos.reveal == 1, \"SQoS invalid!\");\n\n        // verify the sender from the registered chain\n        mapping(string => string)\n            storage permittedContract = permittedContractMap[context.fromChain];\n\n        require(\n            keccak256(bytes(permittedContract[context.action])) ==\n                keccak256(bytes(context.sender)),\n            \"message sender is not registered!\"\n        );\n\n        greetings.push(_greeting);\n    }\n\n    /**\n     * Send greeting info to other chains\n     * @param _toChain - to chain name\n     * @param _greeting - greeting sent to other chain\n     */\n    function sendGreeting(\n        string calldata _toChain,\n        Greeting calldata _greeting\n    ) external {\n        mapping(string => DestnContract) storage map = destnContractMap[_toChain];\n        DestnContract storage destnContract = map[\"receiveGreeting\"];\n        require(destnContract.used, \"action not registered\");\n\n        bytes memory data = abi.encode(_greeting);\n        SQOS memory sqos = SQOS(1);\n        crossChainContract.sendMessage(\n            _toChain,\n            destnContract.contractAddress,\n            destnContract.funcName,\n            sqos,\n            data\n        );\n    }\n\n    /**\n     * Send outsourcing computing task to other chain\n     * @param _toChain - to chain name\n     * @param _nums - nums to be accumulated\n     */\n    function sendComputeTask(string calldata _toChain, uint[] calldata _nums) external {\n        mapping(string => DestnContract) storage map = destnContractMap[_toChain];\n        DestnContract storage destnContract = map[\"receiveComputeTask\"];\n        require(destnContract.used, \"action not registered\");\n\n        bytes memory data = abi.encode(_nums);\n        SQOS memory sqos = SQOS(0);\n        crossChainContract.sendMessage(\n            _toChain,\n            destnContract.contractAddress,\n            destnContract.funcName,\n            sqos,\n            data\n        );\n    }\n\n    /**\n     * Receives outsourcing computing task from other chain\n     * @param _nums - nums to be accumulated\n     */\n    function receiveComputeTask(uint[] calldata _nums) external {\n        require(\n            msg.sender == address(crossChainContract),\n            \"Locker: caller is not CrossChain\"\n        );\n        \n        // compute\n        uint ret = 0;\n        for (uint i = 0; i < _nums.length; i++) {\n            ret += _nums[i];\n        }\n\n        SimplifiedMessage memory context = getContext();\n\n        // send result back\n        mapping(string => DestnContract) storage map = destnContractMap[context.fromChain];\n        DestnContract storage destnContract = map[\"receiveComputeResult\"];\n        require(destnContract.used, \"action not registered\");\n\n        bytes memory data = abi.encode(ret);\n        SQOS memory sqos = SQOS(0);\n        crossChainContract.sendMessage(context.fromChain, destnContract.contractAddress, destnContract.funcName, sqos, data);\n    }\n\n    /**\n     * Receives outsourcing computing result\n     * @param _result - accumulating result\n     */\n    function receiveComputeResult(uint _result) external {\n        require(\n            msg.sender == address(crossChainContract),\n            \"Locker: caller is not CrossChain\"\n        );\n        ocResult = _result;\n    }\n\n    ///////////////////////////////////////////////\n    /////    Send messages to other chains   //////\n    ///////////////////////////////////////////////\n\n    /**\n     * Register destination contract info\n     * @param _funcName - function name to be called\n     * @param _toChain - destination chain name\n     * @param _contractAddress - destination contract address\n     * @param _contractFuncName - contract function name\n     */\n    function registerDestnContract(\n        string calldata _funcName,\n        string calldata _toChain,\n        string calldata _contractAddress,\n        string calldata _contractFuncName\n    ) external onlyOwner {\n        mapping(string => DestnContract) storage map = destnContractMap[_toChain];\n        DestnContract storage destnContract = map[_funcName];\n        destnContract.contractAddress = _contractAddress;\n        destnContract.funcName = _contractFuncName;\n        destnContract.used = true;\n    }\n\n    ///////////////////////////////////////////////\n    ///    Receive messages from other chains   ///\n    ///////////////////////////////////////////////\n\n    /**\n     * Authorize contracts of other chains to call the functions of this contract\n     * @param _chainName - from chain name\n     * @param _sender - sender of cross chain message\n     * @param _funcName - action name which allowed to be invoked\n     */\n    function registerPermittedContract(\n        string calldata _chainName,\n        string calldata _sender,\n        string calldata _funcName\n    ) external onlyOwner {\n        mapping(string => string) storage map = permittedContractMap[\n            _chainName\n        ];\n        map[_funcName] = _sender;\n    }\n\n    /**\n     * This verify method will be invoked by the CrossChain contract automatically, ensure that only registered contract(registerSourceContract) calls are allowed\n     * @param _chainName - chain name of cross chain message\n     * @param _funcName - contract action name of cross chain message\n     * @param _sender - cross chain message sender\n     */\n    //  Will be deprecated soon\n    function verify(\n        string calldata _chainName,\n        string calldata _funcName,\n        string calldata _sender\n    ) public view virtual returns (bool) {\n        mapping(string => string) storage map = permittedContractMap[\n            _chainName\n        ];\n        string storage sender = map[_funcName];\n        require(\n            keccak256(bytes(sender)) == keccak256(bytes(_sender)),\n            \"Sender does not match\"\n        );\n        return true;\n    }\n}\n",
  "sourcePath": "/home/george/program/dante/solidity-contract-template/contracts/Greetings.sol",
  "compiler": {
    "name": "solc",
    "version": "0.8.10+commit.fc410830.Emscripten.clang"
  },
  "schemaVersion": "3.4.6",
  "updatedAt": "2022-03-22T09:05:13.511Z",
  "devdoc": {
    "kind": "dev",
    "methods": {
      "getMessageABI(string,string,string)": {
        "params": {
          "_destnChainName": "- destination chain name",
          "_destnContractName": "- destination contract name",
          "_funcName": "- destination contract function name"
        }
      },
      "owner()": {
        "details": "Returns the address of the current owner."
      },
      "receiveComputeResult(uint256)": {
        "params": {
          "_result": "- accumulating result"
        }
      },
      "receiveComputeTask(uint256[])": {
        "params": {
          "_nums": "- nums to be accumulated"
        }
      },
      "receiveGreeting((string,string,string,string))": {
        "params": {
          "_greeting": "- greeting sent from other chain"
        }
      },
      "registerContractABI(string,string)": {
        "params": {
          "_contractABI": "- contract action abi",
          "_funcName": "- contract action name"
        }
      },
      "registerDestnContract(string,string,string,string)": {
        "params": {
          "_contractAddress": "- destination contract address",
          "_contractFuncName": "- contract function name",
          "_funcName": "- function name to be called",
          "_toChain": "- destination chain name"
        }
      },
      "registerMessageABI(string,string,string,string,string)": {
        "params": {
          "_destnChainName": "- destination chain name",
          "_destnContractName": "- destination contract name",
          "_funcName": "- destination contract function name",
          "_paramName": "- action param name",
          "_paramType": "- action param types"
        }
      },
      "registerPermittedContract(string,string,string)": {
        "params": {
          "_chainName": "- from chain name",
          "_funcName": "- action name which allowed to be invoked",
          "_sender": "- sender of cross chain message"
        }
      },
      "renounceOwnership()": {
        "details": "Leaves the contract without owner. It will not be possible to call `onlyOwner` functions anymore. Can only be called by the current owner. NOTE: Renouncing ownership will leave the contract without an owner, thereby removing any functionality that is only available to the owner."
      },
      "sendComputeTask(string,uint256[])": {
        "params": {
          "_nums": "- nums to be accumulated",
          "_toChain": "- to chain name"
        }
      },
      "sendGreeting(string,(string,string,string,string))": {
        "params": {
          "_greeting": "- greeting sent to other chain",
          "_toChain": "- to chain name"
        }
      },
      "setCrossChainContract(address)": {
        "params": {
          "_address": "- cross chain contract address"
        }
      },
      "transferOwnership(address)": {
        "details": "Transfers ownership of the contract to a new account (`newOwner`). Can only be called by the current owner."
      },
      "verify(string,string,string)": {
        "params": {
          "_chainName": "- chain name of cross chain message",
          "_funcName": "- contract action name of cross chain message",
          "_sender": "- cross chain message sender"
        }
      }
    },
    "version": 1
  },
  "userdoc": {
    "kind": "user",
    "methods": {
      "getMessageABI(string,string,string)": {
        "notice": "Get Registered message ABI to encode/decode message"
      },
      "receiveComputeResult(uint256)": {
        "notice": "Receives outsourcing computing result"
      },
      "receiveComputeTask(uint256[])": {
        "notice": "Receives outsourcing computing task from other chain"
      },
      "receiveGreeting((string,string,string,string))": {
        "notice": "Receive greeting info from other chains"
      },
      "registerContractABI(string,string)": {
        "notice": "contract ABI used to encode/decode messages sent to this contract"
      },
      "registerDestnContract(string,string,string,string)": {
        "notice": "Register destination contract info"
      },
      "registerMessageABI(string,string,string,string,string)": {
        "notice": "message ABI used to encode/decode messages sent from this contract"
      },
      "registerPermittedContract(string,string,string)": {
        "notice": "Authorize contracts of other chains to call the functions of this contract"
      },
      "sendComputeTask(string,uint256[])": {
        "notice": "Send outsourcing computing task to other chain"
      },
      "sendGreeting(string,(string,string,string,string))": {
        "notice": "Send greeting info to other chains"
      },
      "setCrossChainContract(address)": {
        "notice": "Set cross chain contract"
      },
      "verify(string,string,string)": {
        "notice": "This verify method will be invoked by the CrossChain contract automatically, ensure that only registered contract(registerSourceContract) calls are allowed"
      }
    },
    "version": 1
  }
}