{
  "contractName": "Greetings",
  "abi": [
    {
      "anonymous": false,
      "inputs": [
        {
          "indexed": true,
          "internalType": "address",
          "name": "previousOwner",
          "type": "address"
        },
        {
          "indexed": true,
          "internalType": "address",
          "name": "newOwner",
          "type": "address"
        }
      ],
      "name": "OwnershipTransferred",
      "type": "event"
    },
    {
      "inputs": [
        {
          "internalType": "string",
          "name": "",
          "type": "string"
        }
      ],
      "name": "contractABIMap",
      "outputs": [
        {
          "internalType": "string",
          "name": "",
          "type": "string"
        }
      ],
      "stateMutability": "view",
      "type": "function",
      "constant": true
    },
    {
      "inputs": [],
      "name": "crossChainContract",
      "outputs": [
        {
          "internalType": "contract ICrossChain",
          "name": "",
          "type": "address"
        }
      ],
      "stateMutability": "view",
      "type": "function",
      "constant": true
    },
    {
      "inputs": [
        {
          "internalType": "string",
          "name": "",
          "type": "string"
        },
        {
          "internalType": "string",
          "name": "",
          "type": "string"
        }
      ],
      "name": "destnContractMap",
      "outputs": [
        {
          "internalType": "string",
          "name": "contractAddress",
          "type": "string"
        },
        {
          "internalType": "string",
          "name": "funcName",
          "type": "string"
        },
        {
          "internalType": "bool",
          "name": "used",
          "type": "bool"
        }
      ],
      "stateMutability": "view",
      "type": "function",
      "constant": true
    },
    {
      "inputs": [],
      "name": "getContext",
      "outputs": [
        {
          "components": [
            {
              "internalType": "uint256",
              "name": "id",
              "type": "uint256"
            },
            {
              "internalType": "string",
              "name": "fromChain",
              "type": "string"
            },
            {
              "internalType": "string",
              "name": "sender",
              "type": "string"
            },
            {
              "internalType": "string",
              "name": "signer",
              "type": "string"
            },
            {
              "components": [
                {
                  "internalType": "uint8",
                  "name": "reveal",
                  "type": "uint8"
                }
              ],
              "internalType": "struct SQOS",
              "name": "sqos",
              "type": "tuple"
            },
            {
              "internalType": "address",
              "name": "contractAddress",
              "type": "address"
            },
            {
              "internalType": "string",
              "name": "action",
              "type": "string"
            },
            {
              "components": [
                {
                  "internalType": "uint8",
                  "name": "resType",
                  "type": "uint8"
                },
                {
                  "internalType": "uint256",
                  "name": "id",
                  "type": "uint256"
                }
              ],
              "internalType": "struct Session",
              "name": "session",
              "type": "tuple"
            }
          ],
          "internalType": "struct SimplifiedMessage",
          "name": "",
          "type": "tuple"
        }
      ],
      "stateMutability": "view",
      "type": "function",
      "constant": true
    },
    {
      "inputs": [
        {
          "internalType": "string",
          "name": "_destnChainName",
          "type": "string"
        },
        {
          "internalType": "string",
          "name": "_destnContractName",
          "type": "string"
        },
        {
          "internalType": "string",
          "name": "_funcName",
          "type": "string"
        }
      ],
      "name": "getMessageABI",
      "outputs": [
        {
          "components": [
            {
              "internalType": "string",
              "name": "parametertypes",
              "type": "string"
            },
            {
              "internalType": "string",
              "name": "parameterNames",
              "type": "string"
            }
          ],
          "internalType": "struct ContractBase.MessageABI",
          "name": "",
          "type": "tuple"
        }
      ],
      "stateMutability": "view",
      "type": "function",
      "constant": true
    },
    {
      "inputs": [
        {
          "internalType": "uint256",
          "name": "",
          "type": "uint256"
        }
      ],
      "name": "greetings",
      "outputs": [
        {
          "internalType": "string",
          "name": "fromChain",
          "type": "string"
        },
        {
          "internalType": "string",
          "name": "title",
          "type": "string"
        },
        {
          "internalType": "string",
          "name": "content",
          "type": "string"
        },
        {
          "internalType": "string",
          "name": "date",
          "type": "string"
        },
        {
          "internalType": "string",
          "name": "extra",
          "type": "string"
        }
      ],
      "stateMutability": "view",
      "type": "function",
      "constant": true
    },
    {
      "inputs": [
        {
          "internalType": "bytes",
          "name": "",
          "type": "bytes"
        }
      ],
      "name": "messageABIMap",
      "outputs": [
        {
          "internalType": "string",
          "name": "parametertypes",
          "type": "string"
        },
        {
          "internalType": "string",
          "name": "parameterNames",
          "type": "string"
        }
      ],
      "stateMutability": "view",
      "type": "function",
      "constant": true
    },
    {
      "inputs": [],
      "name": "ocResult",
      "outputs": [
        {
          "internalType": "uint256",
          "name": "",
          "type": "uint256"
        }
      ],
      "stateMutability": "view",
      "type": "function",
      "constant": true
    },
    {
      "inputs": [],
      "name": "owner",
      "outputs": [
        {
          "internalType": "address",
          "name": "",
          "type": "address"
        }
      ],
      "stateMutability": "view",
      "type": "function",
      "constant": true
    },
    {
      "inputs": [
        {
          "internalType": "string",
          "name": "",
          "type": "string"
        },
        {
          "internalType": "string",
          "name": "",
          "type": "string"
        }
      ],
      "name": "permittedContractMap",
      "outputs": [
        {
          "internalType": "string",
          "name": "",
          "type": "string"
        }
      ],
      "stateMutability": "view",
      "type": "function",
      "constant": true
    },
    {
      "inputs": [
        {
          "internalType": "string",
          "name": "_funcName",
          "type": "string"
        },
        {
          "internalType": "string",
          "name": "_contractABI",
          "type": "string"
        }
      ],
      "name": "registerContractABI",
      "outputs": [],
      "stateMutability": "nonpayable",
      "type": "function"
    },
    {
      "inputs": [
        {
          "internalType": "string",
          "name": "_destnChainName",
          "type": "string"
        },
        {
          "internalType": "string",
          "name": "_destnContractName",
          "type": "string"
        },
        {
          "internalType": "string",
          "name": "_funcName",
          "type": "string"
        },
        {
          "internalType": "string",
          "name": "_paramType",
          "type": "string"
        },
        {
          "internalType": "string",
          "name": "_paramName",
          "type": "string"
        }
      ],
      "name": "registerMessageABI",
      "outputs": [],
      "stateMutability": "nonpayable",
      "type": "function"
    },
    {
      "inputs": [],
      "name": "renounceOwnership",
      "outputs": [],
      "stateMutability": "nonpayable",
      "type": "function"
    },
    {
      "inputs": [
        {
          "internalType": "address",
          "name": "_address",
          "type": "address"
        }
      ],
      "name": "setCrossChainContract",
      "outputs": [],
      "stateMutability": "nonpayable",
      "type": "function"
    },
    {
      "inputs": [
        {
          "internalType": "address",
          "name": "newOwner",
          "type": "address"
        }
      ],
      "name": "transferOwnership",
      "outputs": [],
      "stateMutability": "nonpayable",
      "type": "function"
    },
    {
      "inputs": [
        {
          "components": [
            {
              "internalType": "string",
              "name": "fromChain",
              "type": "string"
            },
            {
              "internalType": "string",
              "name": "title",
              "type": "string"
            },
            {
              "internalType": "string",
              "name": "content",
              "type": "string"
            },
            {
              "internalType": "string",
              "name": "date",
              "type": "string"
            },
            {
              "internalType": "string",
              "name": "extra",
              "type": "string"
            }
          ],
          "internalType": "struct Greetings.Greeting",
          "name": "_greeting",
          "type": "tuple"
        }
      ],
      "name": "receiveGreeting",
      "outputs": [],
      "stateMutability": "nonpayable",
      "type": "function"
    },
    {
      "inputs": [
        {
          "internalType": "string",
          "name": "_toChain",
          "type": "string"
        },
        {
          "components": [
            {
              "internalType": "string",
              "name": "fromChain",
              "type": "string"
            },
            {
              "internalType": "string",
              "name": "title",
              "type": "string"
            },
            {
              "internalType": "string",
              "name": "content",
              "type": "string"
            },
            {
              "internalType": "string",
              "name": "date",
              "type": "string"
            },
            {
              "internalType": "string",
              "name": "extra",
              "type": "string"
            }
          ],
          "internalType": "struct Greetings.Greeting",
          "name": "_greeting",
          "type": "tuple"
        }
      ],
      "name": "sendGreeting",
      "outputs": [],
      "stateMutability": "nonpayable",
      "type": "function"
    },
    {
      "inputs": [
        {
          "internalType": "string",
          "name": "_toChain",
          "type": "string"
        },
        {
          "internalType": "uint256[]",
          "name": "_nums",
          "type": "uint256[]"
        }
      ],
      "name": "sendComputeTask",
      "outputs": [],
      "stateMutability": "nonpayable",
      "type": "function"
    },
    {
      "inputs": [
        {
          "internalType": "uint256[]",
          "name": "_nums",
          "type": "uint256[]"
        }
      ],
      "name": "receiveComputeTask",
      "outputs": [],
      "stateMutability": "nonpayable",
      "type": "function"
    },
    {
      "inputs": [
        {
          "internalType": "uint256",
          "name": "_result",
          "type": "uint256"
        }
      ],
      "name": "receiveComputeResult",
      "outputs": [],
      "stateMutability": "nonpayable",
      "type": "function"
    },
    {
      "inputs": [
        {
          "internalType": "string",
          "name": "_funcName",
          "type": "string"
        },
        {
          "internalType": "string",
          "name": "_toChain",
          "type": "string"
        },
        {
          "internalType": "string",
          "name": "_contractAddress",
          "type": "string"
        },
        {
          "internalType": "string",
          "name": "_contractFuncName",
          "type": "string"
        }
      ],
      "name": "registerDestnContract",
      "outputs": [],
      "stateMutability": "nonpayable",
      "type": "function"
    },
    {
      "inputs": [
        {
          "internalType": "string",
          "name": "_chainName",
          "type": "string"
        },
        {
          "internalType": "string",
          "name": "_sender",
          "type": "string"
        },
        {
          "internalType": "string",
          "name": "_funcName",
          "type": "string"
        }
      ],
      "name": "registerPermittedContract",
      "outputs": [],
      "stateMutability": "nonpayable",
      "type": "function"
    },
    {
      "inputs": [
        {
          "internalType": "string",
          "name": "_chainName",
          "type": "string"
        },
        {
          "internalType": "string",
          "name": "_funcName",
          "type": "string"
        },
        {
          "internalType": "string",
          "name": "_sender",
          "type": "string"
        }
      ],
      "name": "verify",
      "outputs": [
        {
          "internalType": "bool",
          "name": "",
          "type": "bool"
        }
      ],
      "stateMutability": "view",
      "type": "function",
      "constant": true
    }
  ],
  "bytecode": "0x608060405234801561001057600080fd5b5061001a3361001f565b61006f565b600080546001600160a01b038381166001600160a01b0319831681178455604051919092169283917f8be0079c531659141344cd1fd0a4f28419497f9722a3daafe3b4186f6b6457e09190a35050565b612b7c806200007f6000396000f3fe608060405234801561001057600080fd5b506004361061014d5760003560e01c80638da5cb5b116100c3578063bb45acd91161007c578063bb45acd9146102e4578063d4692703146102f7578063dbc90de11461030a578063f2fde38b1461031d578063f87c9ea914610330578063ff96254b1461035457600080fd5b80638da5cb5b1461025c57806390fda94714610281578063a24cbdf314610294578063a6b2b830146102a7578063b02fe88f146102ba578063babe5dd6146102d157600080fd5b80634c236819116101155780634c236819146101d95780635fe78c6c146101ec57806366e1f8201461020c578063715018a61461021f57806379f6793c1461022757806380899bba1461023a57600080fd5b806306be806714610152578063127f0f071461016757806318d72b54146101855780632639c423146101985780633ad16b7a146101b9575b600080fd5b61016561016036600461187a565b610377565b005b61016f610505565b60405161017c9190611912565b60405180910390f35b610165610193366004611a00565b61058d565b6101ab6101a6366004611af8565b6105d9565b60405161017c929190611b40565b6101cc6101c7366004611bb6565b610710565b60405161017c9190611c4f565b6101656101e7366004611ccc565b6108a4565b6101ff6101fa366004611d2d565b610a6b565b60405161017c9190611d61565b61016561021a366004611d74565b610b10565b610165610ba8565b610165610235366004611bb6565b610bde565b61024d610248366004611ddf565b610c59565b60405161017c93929190611e42565b6000546001600160a01b03165b6040516001600160a01b03909116815260200161017c565b61016561028f366004611e7a565b610db6565b6101656102a2366004611ee2565b610eef565b6101656102b5366004611efb565b610f1e565b6102c360075481565b60405190815260200161017c565b6101656102df366004611f5a565b611018565b6101ff6102f2366004611ddf565b6110be565b61016561030536600461201d565b6110ff565b600354610269906001600160a01b031681565b61016561032b366004611a00565b611232565b61034361033e366004611ee2565b6112cd565b60405161017c95949392919061210d565b610367610362366004611bb6565b6115bb565b604051901515815260200161017c565b6003546001600160a01b031633146103aa5760405162461bcd60e51b81526004016103a19061217a565b60405180910390fd5b60006103b4610505565b905080608001516000015160ff166001146104015760405162461bcd60e51b815260206004820152600d60248201526c53516f5320696e76616c69642160981b60448201526064016103a1565b60006005826020015160405161041791906121af565b90815260200160405180910390209050816040015180519060200120818360c0015160405161044691906121af565b90815260405190819003602001812061045e91612200565b6040518091039020146104bd5760405162461bcd60e51b815260206004820152602160248201527f6d6573736167652073656e646572206973206e6f7420726567697374657265646044820152602160f81b60648201526084016103a1565b6006805460018101825560009190915283906005027ff652222313e28459528d920b65115c16c04f3efc82aaedc97be59f3f377c0d3f016104fe82826123c6565b5050505050565b61050d6116d3565b600360009054906101000a90046001600160a01b03166001600160a01b0316639af7a48c6040518163ffffffff1660e01b8152600401600060405180830381865afa158015610560573d6000803e3d6000fd5b505050506040513d6000823e601f3d908101601f191682016040526105889190810190612606565b905090565b6000546001600160a01b031633146105b75760405162461bcd60e51b81526004016103a19061271e565b600380546001600160a01b0319166001600160a01b0392909216919091179055565b80516020818301810180516001825292820191909301209152805481906105ff906121cb565b80601f016020809104026020016040519081016040528092919081815260200182805461062b906121cb565b80156106785780601f1061064d57610100808354040283529160200191610678565b820191906000526020600020905b81548152906001019060200180831161065b57829003601f168201915b50505050509080600101805461068d906121cb565b80601f01602080910402602001604051908101604052809291908181526020018280546106b9906121cb565b80156107065780601f106106db57610100808354040283529160200191610706565b820191906000526020600020905b8154815290600101906020018083116106e957829003601f168201915b5050505050905082565b6040805180820190915260608082526020820152600187878787878760405160200161074196959493929190612753565b60408051601f198184030181529082905261075b916121af565b9081526020016040518091039020604051806040016040529081600082018054610784906121cb565b80601f01602080910402602001604051908101604052809291908181526020018280546107b0906121cb565b80156107fd5780601f106107d2576101008083540402835291602001916107fd565b820191906000526020600020905b8154815290600101906020018083116107e057829003601f168201915b50505050508152602001600182018054610816906121cb565b80601f0160208091040260200160405190810160405280929190818152602001828054610842906121cb565b801561088f5780601f106108645761010080835404028352916020019161088f565b820191906000526020600020905b81548152906001019060200180831161087257829003601f168201915b50505050508152505090509695505050505050565b6003546001600160a01b031633146108ce5760405162461bcd60e51b81526004016103a19061217a565b6000805b82811015610912578383828181106108ec576108ec612783565b90506020020135826108fe91906127af565b91508061090a816127c7565b9150506108d2565b50600061091d610505565b905060006004826020015160405161093591906121af565b908152604051908190036020018120731c9958d95a5d9950dbdb5c1d5d1954995cdd5b1d60621b825291506000908290601401908152604051908190036020019020600281015490915060ff1661099e5760405162461bcd60e51b81526004016103a1906127e2565b6000846040516020016109b391815260200190565b60408051601f198184030181526020838101835260008085526003548983015185518087018752838152938401929092529351633ec320f960e11b81529295506001600160a01b0390931692637d8641f292610a1d928891600183019188918a9190600401612888565b6020604051808303816000875af1158015610a3c573d6000803e3d6000fd5b505050506040513d601f19601f82011682018060405250810190610a609190612907565b505050505050505050565b805160208183018101805160028252928201919093012091528054610a8f906121cb565b80601f0160208091040260200160405190810160405280929190818152602001828054610abb906121cb565b8015610b085780601f10610add57610100808354040283529160200191610b08565b820191906000526020600020905b815481529060010190602001808311610aeb57829003601f168201915b505050505081565b6000546001600160a01b03163314610b3a5760405162461bcd60e51b81526004016103a19061271e565b6003546040516321c0551d60e11b81526001600160a01b0390911690634380aa3a90610b70908790879087908790600401612949565b600060405180830381600087803b158015610b8a57600080fd5b505af1158015610b9e573d6000803e3d6000fd5b5050505050505050565b6000546001600160a01b03163314610bd25760405162461bcd60e51b81526004016103a19061271e565b610bdc6000611683565b565b6000546001600160a01b03163314610c085760405162461bcd60e51b81526004016103a19061271e565b600060058787604051610c1c929190612970565b908152602001604051809103902090508484828585604051610c3f929190612970565b908152604051908190036020019020610b9e929091611755565b81516020818401810180516004825292820194820194909420919093528151808301840180519281529084019290930191909120915280548190610c9c906121cb565b80601f0160208091040260200160405190810160405280929190818152602001828054610cc8906121cb565b8015610d155780601f10610cea57610100808354040283529160200191610d15565b820191906000526020600020905b815481529060010190602001808311610cf857829003601f168201915b505050505090806001018054610d2a906121cb565b80601f0160208091040260200160405190810160405280929190818152602001828054610d56906121cb565b8015610da35780601f10610d7857610100808354040283529160200191610da3565b820191906000526020600020905b815481529060010190602001808311610d8657829003601f168201915b5050506002909301549192505060ff1683565b600060048484604051610dca929190612970565b9081526040519081900360200181206e726563656976654772656574696e6760881b825291506000908290600f01908152604051908190036020019020600281015490915060ff16610e2e5760405162461bcd60e51b81526004016103a1906127e2565b600083604051602001610e4191906129c5565b60408051601f19818403018152602083810183526001808552600354845180860186526000808252938101939093529351633ec320f960e11b81529295506001600160a01b0390931692637d8641f292610eac928c928c928a929183019189918b9190600401612a95565b6020604051808303816000875af1158015610ecb573d6000803e3d6000fd5b505050506040513d601f19601f82011682018060405250810190610b9e9190612907565b6003546001600160a01b03163314610f195760405162461bcd60e51b81526004016103a19061217a565b600755565b600060048585604051610f32929190612970565b9081526040519081900360200181207172656365697665436f6d707574655461736b60701b825291506000908290601201908152604051908190036020019020600281015490915060ff16610f995760405162461bcd60e51b81526004016103a1906127e2565b60008484604051602001610fae929190612b0a565b60408051601f1981840301815260208381018352600080855260035484518086018652828152928301919091529251633ec320f960e11b81529194506001600160a01b0390921691637d8641f291610a1d918c918c918991600183019189918b9190600401612a95565b6000546001600160a01b031633146110425760405162461bcd60e51b81526004016103a19061271e565b600060048787604051611056929190612970565b908152602001604051809103902090506000818a8a604051611079929190612970565b9081526040519081900360200190209050611095818787611755565b506110a4600182018585611755565b50600201805460ff19166001179055505050505050505050565b8151602081840181018051600582529282019482019490942091909352815180830184018051928152908401929093019190912091528054610a8f906121cb565b6000546001600160a01b031633146111295760405162461bcd60e51b81526004016103a19061271e565b6040805160606020601f8701819004028201810183529181018581526000928291908890889081908501838280828437600092019190915250505090825250604080516020601f870181900481028201810190925285815291810191908690869081908401838280828437600092019190915250505091525060405190915081906001906111c5908e908e908e908e908e908e90602001612753565b60408051601f19818403018152908290526111df916121af565b908152602001604051809103902060008201518160000190805190602001906112099291906117d9565b50602082810151805161122292600185019201906117d9565b5050505050505050505050505050565b6000546001600160a01b0316331461125c5760405162461bcd60e51b81526004016103a19061271e565b6001600160a01b0381166112c15760405162461bcd60e51b815260206004820152602660248201527f4f776e61626c653a206e6577206f776e657220697320746865207a65726f206160448201526564647265737360d01b60648201526084016103a1565b6112ca81611683565b50565b600681815481106112dd57600080fd5b9060005260206000209060050201600091509050806000018054611300906121cb565b80601f016020809104026020016040519081016040528092919081815260200182805461132c906121cb565b80156113795780601f1061134e57610100808354040283529160200191611379565b820191906000526020600020905b81548152906001019060200180831161135c57829003601f168201915b50505050509080600101805461138e906121cb565b80601f01602080910402602001604051908101604052809291908181526020018280546113ba906121cb565b80156114075780601f106113dc57610100808354040283529160200191611407565b820191906000526020600020905b8154815290600101906020018083116113ea57829003601f168201915b50505050509080600201805461141c906121cb565b80601f0160208091040260200160405190810160405280929190818152602001828054611448906121cb565b80156114955780601f1061146a57610100808354040283529160200191611495565b820191906000526020600020905b81548152906001019060200180831161147857829003601f168201915b5050505050908060030180546114aa906121cb565b80601f01602080910402602001604051908101604052809291908181526020018280546114d6906121cb565b80156115235780601f106114f857610100808354040283529160200191611523565b820191906000526020600020905b81548152906001019060200180831161150657829003601f168201915b505050505090806004018054611538906121cb565b80601f0160208091040260200160405190810160405280929190818152602001828054611564906121cb565b80156115b15780601f10611586576101008083540402835291602001916115b1565b820191906000526020600020905b81548152906001019060200180831161159457829003601f168201915b5050505050905085565b600080600588886040516115d0929190612970565b9081526020016040518091039020905060008187876040516115f3929190612970565b90815260405190819003602001812091506116119086908690612970565b6040518091039020816040516116279190612200565b6040518091039020146116745760405162461bcd60e51b81526020600482015260156024820152740a6cadcc8cae440c8decae640dcdee840dac2e8c6d605b1b60448201526064016103a1565b50600198975050505050505050565b600080546001600160a01b038381166001600160a01b0319831681178455604051919092169283917f8be0079c531659141344cd1fd0a4f28419497f9722a3daafe3b4186f6b6457e09190a35050565b604051806101000160405280600081526020016060815260200160608152602001606081526020016117146040518060200160405280600060ff1681525090565b815260200160006001600160a01b03168152602001606081526020016117506040518060400160405280600060ff168152602001600081525090565b905290565b828054611761906121cb565b90600052602060002090601f01602090048101928261178357600085556117c9565b82601f1061179c5782800160ff198235161785556117c9565b828001600101855582156117c9579182015b828111156117c95782358255916020019190600101906117ae565b506117d592915061184d565b5090565b8280546117e5906121cb565b90600052602060002090601f01602090048101928261180757600085556117c9565b82601f1061182057805160ff19168380011785556117c9565b828001600101855582156117c9579182015b828111156117c9578251825591602001919060010190611832565b5b808211156117d5576000815560010161184e565b600060a0828403121561187457600080fd5b50919050565b60006020828403121561188c57600080fd5b81356001600160401b038111156118a257600080fd5b6118ae84828501611862565b949350505050565b60005b838110156118d15781810151838201526020016118b9565b838111156118e0576000848401525b50505050565b600081518084526118fe8160208601602086016118b6565b601f01601f19169290920160200192915050565b602081528151602082015260006020830151610120604084015261193a6101408401826118e6565b90506040840151601f198085840301606086015261195883836118e6565b9250606086015191508085840301608086015261197583836118e6565b92506080860151915061198e60a08601835160ff169052565b60a08601516001600160a01b03811660c0870152915060c08601519150808584030160e0860152506119c082826118e6565b91505060e08401516119e3610100850182805160ff168252602090810151910152565b509392505050565b6001600160a01b03811681146112ca57600080fd5b600060208284031215611a1257600080fd5b8135611a1d816119eb565b9392505050565b634e487b7160e01b600052604160045260246000fd5b60405161010081016001600160401b0381118282101715611a5d57611a5d611a24565b60405290565b604051601f8201601f191681016001600160401b0381118282101715611a8b57611a8b611a24565b604052919050565b60006001600160401b03821115611aac57611aac611a24565b50601f01601f191660200190565b6000611acd611ac884611a93565b611a63565b9050828152838383011115611ae157600080fd5b828260208301376000602084830101529392505050565b600060208284031215611b0a57600080fd5b81356001600160401b03811115611b2057600080fd5b8201601f81018413611b3157600080fd5b6118ae84823560208401611aba565b604081526000611b5360408301856118e6565b8281036020840152611b6581856118e6565b95945050505050565b60008083601f840112611b8057600080fd5b5081356001600160401b03811115611b9757600080fd5b602083019150836020828501011115611baf57600080fd5b9250929050565b60008060008060008060608789031215611bcf57600080fd5b86356001600160401b0380821115611be657600080fd5b611bf28a838b01611b6e565b90985096506020890135915080821115611c0b57600080fd5b611c178a838b01611b6e565b90965094506040890135915080821115611c3057600080fd5b50611c3d89828a01611b6e565b979a9699509497509295939492505050565b602081526000825160406020840152611c6b60608401826118e6565b90506020840151601f19848303016040850152611b6582826118e6565b60008083601f840112611c9a57600080fd5b5081356001600160401b03811115611cb157600080fd5b6020830191508360208260051b8501011115611baf57600080fd5b60008060208385031215611cdf57600080fd5b82356001600160401b03811115611cf557600080fd5b611d0185828601611c88565b90969095509350505050565b600082601f830112611d1e57600080fd5b611a1d83833560208501611aba565b600060208284031215611d3f57600080fd5b81356001600160401b03811115611d5557600080fd5b6118ae84828501611d0d565b602081526000611a1d60208301846118e6565b60008060008060408587031215611d8a57600080fd5b84356001600160401b0380821115611da157600080fd5b611dad88838901611b6e565b90965094506020870135915080821115611dc657600080fd5b50611dd387828801611b6e565b95989497509550505050565b60008060408385031215611df257600080fd5b82356001600160401b0380821115611e0957600080fd5b611e1586838701611d0d565b93506020850135915080821115611e2b57600080fd5b50611e3885828601611d0d565b9150509250929050565b606081526000611e5560608301866118e6565b8281036020840152611e6781866118e6565b9150508215156040830152949350505050565b600080600060408486031215611e8f57600080fd5b83356001600160401b0380821115611ea657600080fd5b611eb287838801611b6e565b90955093506020860135915080821115611ecb57600080fd5b50611ed886828701611862565b9150509250925092565b600060208284031215611ef457600080fd5b5035919050565b60008060008060408587031215611f1157600080fd5b84356001600160401b0380821115611f2857600080fd5b611f3488838901611b6e565b90965094506020870135915080821115611f4d57600080fd5b50611dd387828801611c88565b6000806000806000806000806080898b031215611f7657600080fd5b88356001600160401b0380821115611f8d57600080fd5b611f998c838d01611b6e565b909a50985060208b0135915080821115611fb257600080fd5b611fbe8c838d01611b6e565b909850965060408b0135915080821115611fd757600080fd5b611fe38c838d01611b6e565b909650945060608b0135915080821115611ffc57600080fd5b506120098b828c01611b6e565b999c989b5096995094979396929594505050565b60008060008060008060008060008060a08b8d03121561203c57600080fd5b8a356001600160401b038082111561205357600080fd5b61205f8e838f01611b6e565b909c509a5060208d013591508082111561207857600080fd5b6120848e838f01611b6e565b909a50985060408d013591508082111561209d57600080fd5b6120a98e838f01611b6e565b909850965060608d01359150808211156120c257600080fd5b6120ce8e838f01611b6e565b909650945060808d01359150808211156120e757600080fd5b506120f48d828e01611b6e565b915080935050809150509295989b9194979a5092959850565b60a08152600061212060a08301886118e6565b828103602084015261213281886118e6565b9050828103604084015261214681876118e6565b9050828103606084015261215a81866118e6565b9050828103608084015261216e81856118e6565b98975050505050505050565b6020808252818101527f4c6f636b65723a2063616c6c6572206973206e6f742043726f7373436861696e604082015260600190565b600082516121c18184602087016118b6565b9190910192915050565b600181811c908216806121df57607f821691505b6020821081141561187457634e487b7160e01b600052602260045260246000fd5b600080835461220e816121cb565b60018281168015612226576001811461223757612266565b60ff19841687528287019450612266565b8760005260208060002060005b8581101561225d5781548a820152908401908201612244565b50505082870194505b50929695505050505050565b6000808335601e1984360301811261228957600080fd5b8301803591506001600160401b038211156122a357600080fd5b602001915036819003821315611baf57600080fd5b601f82111561230257600081815260208120601f850160051c810160208610156122df5750805b601f850160051c820191505b818110156122fe578281556001016122eb565b5050505b505050565b6001600160401b0383111561231e5761231e611a24565b6123328361232c83546121cb565b836122b8565b6000601f841160018114612366576000851561234e5750838201355b600019600387901b1c1916600186901b1783556104fe565b600083815260209020601f19861690835b828110156123975786850135825560209485019460019092019101612377565b50868210156123b45760001960f88860031b161c19848701351681555b505060018560011b0183555050505050565b6123d08283612272565b6001600160401b038111156123e7576123e7611a24565b6123fb816123f585546121cb565b856122b8565b6000601f82116001811461242f57600083156124175750838201355b600019600385901b1c1916600184901b178555612489565b600085815260209020601f19841690835b828110156124605786850135825560209485019460019092019101612440565b508482101561247d5760001960f88660031b161c19848701351681555b505060018360011b0185555b5050505061249a6020830183612272565b6124a8818360018601612307565b50506124b76040830183612272565b6124c5818360028601612307565b50506124d46060830183612272565b6124e2818360038601612307565b50506124f16080830183612272565b6118e0818360048601612307565b600082601f83011261251057600080fd5b815161251e611ac882611a93565b81815284602083860101111561253357600080fd5b6118ae8260208301602087016118b6565b805160ff8116811461255557600080fd5b919050565b60006020828403121561256c57600080fd5b604051602081018181106001600160401b038211171561258e5761258e611a24565b60405290508061259d83612544565b905292915050565b8051612555816119eb565b6000604082840312156125c257600080fd5b604051604081018181106001600160401b03821117156125e4576125e4611a24565b6040529050806125f383612544565b8152602083015160208201525092915050565b60006020828403121561261857600080fd5b81516001600160401b038082111561262f57600080fd5b90830190610120828603121561264457600080fd5b61264c611a3a565b8251815260208301518281111561266257600080fd5b61266e878286016124ff565b60208301525060408301518281111561268657600080fd5b612692878286016124ff565b6040830152506060830151828111156126aa57600080fd5b6126b6878286016124ff565b6060830152506126c9866080850161255a565b60808201526126da60a084016125a5565b60a082015260c0830151828111156126f157600080fd5b6126fd878286016124ff565b60c0830152506127108660e085016125b0565b60e082015295945050505050565b6020808252818101527f4f776e61626c653a2063616c6c6572206973206e6f7420746865206f776e6572604082015260600190565b85878237600086820160008152858782376000908601908152838582376000930192835250909695505050505050565b634e487b7160e01b600052603260045260246000fd5b634e487b7160e01b600052601160045260246000fd5b600082198211156127c2576127c2612799565b500190565b60006000198214156127db576127db612799565b5060010190565b6020808252601590820152741858dd1a5bdb881b9bdd081c9959da5cdd195c9959605a1b604082015260600190565b6000815461281e816121cb565b80855260206001838116801561283b576001811461284f5761287d565b60ff1985168884015260408801955061287d565b866000528260002060005b858110156128755781548a820186015290830190840161285a565b890184019650505b505050505092915050565b60e08152600061289b60e08301896118e6565b82810360208401526128ad8189612811565b905082810360408401526128c18188612811565b905060ff865116606084015282810360808401526128df81866118e6565b845160ff1660a0850152602085015160c085015291506128fc9050565b979650505050505050565b60006020828403121561291957600080fd5b5051919050565b81835281816020850137506000828201602090810191909152601f909101601f19169091010190565b60408152600061295d604083018688612920565b82810360208401526128fc818587612920565b8183823760009101908152919050565b6000808335601e1984360301811261299757600080fd5b83016020810192503590506001600160401b038111156129b657600080fd5b803603831315611baf57600080fd5b6020815260006129d58384612980565b60a060208501526129ea60c085018284612920565b9150506129fa6020850185612980565b601f1980868503016040870152612a12848385612920565b9350612a216040880188612980565b9350915080868503016060870152612a3a848484612920565b9350612a496060880188612980565b9350915080868503016080870152612a62848484612920565b9350612a716080880188612980565b93509150808685030160a087015250612a8b838383612920565b9695505050505050565b60e081526000612aa960e08301898b612920565b8281036020840152612abb8189612811565b90508281036040840152612acf8188612811565b905060ff86511660608401528281036080840152612aed81866118e6565b845160ff1660a0850152602085015160c0850152915061216e9050565b6020808252810182905260006001600160fb1b03831115612b2a57600080fd5b8260051b8085604085013760009201604001918252509291505056fea264697066735822122020243c603baa5ee3ea45cff27e493b2c8fea60e25f59658915d3058be5cd17b864736f6c634300080a0033",
  "immutableReferences": {},
  "source": "// SPDX-License-Identifier: MIT\npragma solidity >=0.8.0 <0.9.0;\n\nimport \"@openzeppelin/contracts/access/Ownable.sol\";\nimport \"./CrossChain/ContractBase.sol\";\n\n// `Greetings` is an example of multi-chain services with necessary implementations in `ContractBase`, without which the user defined contract cannot work.\n// And besides, `registerDestnContract` and `registerPermittedContract` are templete implementations make the management of some user defined informations easier.\ncontract Greetings is ContractBase {\n    // Destination contract info\n    struct DestnContract {\n        string contractAddress; // destination contract address\n        string funcName; // destination contract action name\n        bool used;\n    }\n\n    // greeting\n    struct Greeting {\n        string fromChain;\n        string title;\n        string content;\n        string date;\n        string extra;\n    }\n\n    // Cross-chain destination contract map\n    mapping(string => mapping(string => DestnContract)) public destnContractMap;\n\n    // Cross-chain permitted contract map\n    mapping(string => mapping(string => string)) public permittedContractMap;\n\n    // Store greetings\n    Greeting[] public greetings;\n\n    // Outsourcing computing result\n    uint256 public ocResult;\n\n    // Store context of cross chain contract\n    // SimplifiedMessage public context;\n\n    /**\n     * Receive greeting info from other chains\n     * @param _greeting - greeting sent from other chain\n     */\n    function receiveGreeting(\n        Greeting calldata _greeting\n    ) public {\n        require(\n            msg.sender == address(crossChainContract),\n            \"Locker: caller is not CrossChain\"\n        );\n\n        // `context` used for verify the operation authority\n        SimplifiedMessage memory context = getContext();\n        // verify sqos\n        require(context.sqos.reveal == 1, \"SQoS invalid!\");\n\n        // verify the sender from the registered chain\n        mapping(string => string)\n            storage permittedContract = permittedContractMap[context.fromChain];\n\n        require(\n            keccak256(bytes(permittedContract[context.action])) ==\n                keccak256(bytes(context.sender)),\n            \"message sender is not registered!\"\n        );\n\n        greetings.push(_greeting);\n    }\n\n    /**\n     * Send greeting info to other chains\n     * @param _toChain - to chain name\n     * @param _greeting - greeting sent to other chain\n     */\n    function sendGreeting(\n        string calldata _toChain,\n        Greeting calldata _greeting\n    ) external {\n        mapping(string => DestnContract) storage map = destnContractMap[_toChain];\n        DestnContract storage destnContract = map[\"receiveGreeting\"];\n        require(destnContract.used, \"action not registered\");\n\n        bytes memory data = abi.encode(_greeting);\n        SQOS memory sqos = SQOS(1);\n        crossChainContract.sendMessage(\n            _toChain,\n            destnContract.contractAddress,\n            destnContract.funcName,\n            sqos,\n            data,\n            Session(0, 0)\n        );\n    }\n\n    /**\n     * Send outsourcing computing task to other chain\n     * @param _toChain - to chain name\n     * @param _nums - nums to be accumulated\n     */\n    function sendComputeTask(string calldata _toChain, uint[] calldata _nums) external {\n        mapping(string => DestnContract) storage map = destnContractMap[_toChain];\n        DestnContract storage destnContract = map[\"receiveComputeTask\"];\n        require(destnContract.used, \"action not registered\");\n\n        bytes memory data = abi.encode(_nums);\n        SQOS memory sqos = SQOS(0);\n        crossChainContract.sendMessage(\n            _toChain,\n            destnContract.contractAddress,\n            destnContract.funcName,\n            sqos,\n            data,\n            Session(0, 0)\n        );\n    }\n\n    /**\n     * Receives outsourcing computing task from other chain\n     * @param _nums - nums to be accumulated\n     */\n    function receiveComputeTask(uint[] calldata _nums) external {\n        require(\n            msg.sender == address(crossChainContract),\n            \"Locker: caller is not CrossChain\"\n        );\n        \n        // compute\n        uint ret = 0;\n        for (uint i = 0; i < _nums.length; i++) {\n            ret += _nums[i];\n        }\n\n        SimplifiedMessage memory context = getContext();\n\n        // send result back\n        mapping(string => DestnContract) storage map = destnContractMap[context.fromChain];\n        DestnContract storage destnContract = map[\"receiveComputeResult\"];\n        require(destnContract.used, \"action not registered\");\n\n        bytes memory data = abi.encode(ret);\n        SQOS memory sqos = SQOS(0);\n        crossChainContract.sendMessage(context.fromChain, destnContract.contractAddress, destnContract.funcName, sqos, data, Session(0, 0));\n    }\n\n    /**\n     * Receives outsourcing computing result\n     * @param _result - accumulating result\n     */\n    function receiveComputeResult(uint _result) external {\n        require(\n            msg.sender == address(crossChainContract),\n            \"Locker: caller is not CrossChain\"\n        );\n        ocResult = _result;\n    }\n\n    ///////////////////////////////////////////////\n    /////    Send messages to other chains   //////\n    ///////////////////////////////////////////////\n\n    /**\n     * Register destination contract info\n     * @param _funcName - function name to be called\n     * @param _toChain - destination chain name\n     * @param _contractAddress - destination contract address\n     * @param _contractFuncName - contract function name\n     */\n    function registerDestnContract(\n        string calldata _funcName,\n        string calldata _toChain,\n        string calldata _contractAddress,\n        string calldata _contractFuncName\n    ) external onlyOwner {\n        mapping(string => DestnContract) storage map = destnContractMap[_toChain];\n        DestnContract storage destnContract = map[_funcName];\n        destnContract.contractAddress = _contractAddress;\n        destnContract.funcName = _contractFuncName;\n        destnContract.used = true;\n    }\n\n    ///////////////////////////////////////////////\n    ///    Receive messages from other chains   ///\n    ///////////////////////////////////////////////\n\n    /**\n     * Authorize contracts of other chains to call the functions of this contract\n     * @param _chainName - from chain name\n     * @param _sender - sender of cross chain message\n     * @param _funcName - action name which allowed to be invoked\n     */\n    function registerPermittedContract(\n        string calldata _chainName,\n        string calldata _sender,\n        string calldata _funcName\n    ) external onlyOwner {\n        mapping(string => string) storage map = permittedContractMap[\n            _chainName\n        ];\n        map[_funcName] = _sender;\n    }\n\n    /**\n     * This verify method will be invoked by the CrossChain contract automatically, ensure that only registered contract(registerSourceContract) calls are allowed\n     * @param _chainName - chain name of cross chain message\n     * @param _funcName - contract action name of cross chain message\n     * @param _sender - cross chain message sender\n     */\n    //  Will be deprecated soon\n    function verify(\n        string calldata _chainName,\n        string calldata _funcName,\n        string calldata _sender\n    ) public view virtual returns (bool) {\n        mapping(string => string) storage map = permittedContractMap[\n            _chainName\n        ];\n        string storage sender = map[_funcName];\n        require(\n            keccak256(bytes(sender)) == keccak256(bytes(_sender)),\n            \"Sender does not match\"\n        );\n        return true;\n    }\n}\n",
  "sourcePath": "/home/george/program/dante/solidity-contract-template/contracts/Greetings.sol",
  "compiler": {
    "name": "solc",
    "version": "0.8.10+commit.fc410830.Emscripten.clang"
  },
  "schemaVersion": "3.4.6",
  "updatedAt": "2022-06-08T03:07:27.257Z",
  "networkType": "ethereum",
  "devdoc": {
    "kind": "dev",
    "methods": {
      "getMessageABI(string,string,string)": {
        "params": {
          "_destnChainName": "- destination chain name",
          "_destnContractName": "- destination contract name",
          "_funcName": "- destination contract function name"
        }
      },
      "owner()": {
        "details": "Returns the address of the current owner."
      },
      "receiveComputeResult(uint256)": {
        "params": {
          "_result": "- accumulating result"
        }
      },
      "receiveComputeTask(uint256[])": {
        "params": {
          "_nums": "- nums to be accumulated"
        }
      },
      "receiveGreeting((string,string,string,string,string))": {
        "params": {
          "_greeting": "- greeting sent from other chain"
        }
      },
      "registerContractABI(string,string)": {
        "params": {
          "_contractABI": "- contract action abi",
          "_funcName": "- contract action name"
        }
      },
      "registerDestnContract(string,string,string,string)": {
        "params": {
          "_contractAddress": "- destination contract address",
          "_contractFuncName": "- contract function name",
          "_funcName": "- function name to be called",
          "_toChain": "- destination chain name"
        }
      },
      "registerMessageABI(string,string,string,string,string)": {
        "params": {
          "_destnChainName": "- destination chain name",
          "_destnContractName": "- destination contract name",
          "_funcName": "- destination contract function name",
          "_paramName": "- action param name",
          "_paramType": "- action param types"
        }
      },
      "registerPermittedContract(string,string,string)": {
        "params": {
          "_chainName": "- from chain name",
          "_funcName": "- action name which allowed to be invoked",
          "_sender": "- sender of cross chain message"
        }
      },
      "renounceOwnership()": {
        "details": "Leaves the contract without owner. It will not be possible to call `onlyOwner` functions anymore. Can only be called by the current owner. NOTE: Renouncing ownership will leave the contract without an owner, thereby removing any functionality that is only available to the owner."
      },
      "sendComputeTask(string,uint256[])": {
        "params": {
          "_nums": "- nums to be accumulated",
          "_toChain": "- to chain name"
        }
      },
      "sendGreeting(string,(string,string,string,string,string))": {
        "params": {
          "_greeting": "- greeting sent to other chain",
          "_toChain": "- to chain name"
        }
      },
      "setCrossChainContract(address)": {
        "params": {
          "_address": "- cross chain contract address"
        }
      },
      "transferOwnership(address)": {
        "details": "Transfers ownership of the contract to a new account (`newOwner`). Can only be called by the current owner."
      },
      "verify(string,string,string)": {
        "params": {
          "_chainName": "- chain name of cross chain message",
          "_funcName": "- contract action name of cross chain message",
          "_sender": "- cross chain message sender"
        }
      }
    },
    "version": 1
  },
  "userdoc": {
    "kind": "user",
    "methods": {
      "getMessageABI(string,string,string)": {
        "notice": "Get Registered message ABI to encode/decode message"
      },
      "receiveComputeResult(uint256)": {
        "notice": "Receives outsourcing computing result"
      },
      "receiveComputeTask(uint256[])": {
        "notice": "Receives outsourcing computing task from other chain"
      },
      "receiveGreeting((string,string,string,string,string))": {
        "notice": "Receive greeting info from other chains"
      },
      "registerContractABI(string,string)": {
        "notice": "contract ABI used to encode/decode messages sent to this contract"
      },
      "registerDestnContract(string,string,string,string)": {
        "notice": "Register destination contract info"
      },
      "registerMessageABI(string,string,string,string,string)": {
        "notice": "message ABI used to encode/decode messages sent from this contract"
      },
      "registerPermittedContract(string,string,string)": {
        "notice": "Authorize contracts of other chains to call the functions of this contract"
      },
      "sendComputeTask(string,uint256[])": {
        "notice": "Send outsourcing computing task to other chain"
      },
      "sendGreeting(string,(string,string,string,string,string))": {
        "notice": "Send greeting info to other chains"
      },
      "setCrossChainContract(address)": {
        "notice": "Set cross chain contract"
      },
      "verify(string,string,string)": {
        "notice": "This verify method will be invoked by the CrossChain contract automatically, ensure that only registered contract(registerSourceContract) calls are allowed"
      }
    },
    "version": 1
  }
}