{
  "contractName": "Greetings",
  "abi": [
    {
      "anonymous": false,
      "inputs": [
        {
          "indexed": true,
          "internalType": "address",
          "name": "previousOwner",
          "type": "address"
        },
        {
          "indexed": true,
          "internalType": "address",
          "name": "newOwner",
          "type": "address"
        }
      ],
      "name": "OwnershipTransferred",
      "type": "event"
    },
    {
      "inputs": [],
      "name": "crossChainContract",
      "outputs": [
        {
          "internalType": "contract CrossChain",
          "name": "",
          "type": "address"
        }
      ],
      "stateMutability": "view",
      "type": "function"
    },
    {
      "inputs": [],
      "name": "currentSimplifiedMessage",
      "outputs": [
        {
          "internalType": "uint256",
          "name": "id",
          "type": "uint256"
        },
        {
          "internalType": "string",
          "name": "fromChain",
          "type": "string"
        },
        {
          "internalType": "string",
          "name": "sender",
          "type": "string"
        },
        {
          "internalType": "string",
          "name": "signer",
          "type": "string"
        },
        {
          "internalType": "address",
          "name": "contractAddress",
          "type": "address"
        },
        {
          "internalType": "string",
          "name": "action",
          "type": "string"
        }
      ],
      "stateMutability": "view",
      "type": "function"
    },
    {
      "inputs": [],
      "name": "getCurrentMessage",
      "outputs": [
        {
          "components": [
            {
              "internalType": "uint256",
              "name": "id",
              "type": "uint256"
            },
            {
              "internalType": "string",
              "name": "fromChain",
              "type": "string"
            },
            {
              "internalType": "string",
              "name": "sender",
              "type": "string"
            },
            {
              "internalType": "string",
              "name": "signer",
              "type": "string"
            },
            {
              "internalType": "address",
              "name": "contractAddress",
              "type": "address"
            },
            {
              "internalType": "string",
              "name": "action",
              "type": "string"
            }
          ],
          "internalType": "struct SimplifiedMessage",
          "name": "",
          "type": "tuple"
        }
      ],
      "stateMutability": "view",
      "type": "function"
    },
    {
      "inputs": [
        {
          "internalType": "uint256",
          "name": "",
          "type": "uint256"
        }
      ],
      "name": "greetings",
      "outputs": [
        {
          "internalType": "string",
          "name": "fromChain",
          "type": "string"
        },
        {
          "internalType": "string",
          "name": "title",
          "type": "string"
        },
        {
          "internalType": "string",
          "name": "content",
          "type": "string"
        },
        {
          "internalType": "string",
          "name": "date",
          "type": "string"
        }
      ],
      "stateMutability": "view",
      "type": "function"
    },
    {
      "inputs": [
        {
          "internalType": "string",
          "name": "",
          "type": "string"
        },
        {
          "internalType": "string",
          "name": "",
          "type": "string"
        }
      ],
      "name": "methodMap",
      "outputs": [
        {
          "internalType": "string",
          "name": "contractAddress",
          "type": "string"
        },
        {
          "internalType": "string",
          "name": "methodName",
          "type": "string"
        },
        {
          "internalType": "bool",
          "name": "used",
          "type": "bool"
        }
      ],
      "stateMutability": "view",
      "type": "function"
    },
    {
      "inputs": [],
      "name": "ocResult",
      "outputs": [
        {
          "internalType": "uint256",
          "name": "",
          "type": "uint256"
        }
      ],
      "stateMutability": "view",
      "type": "function"
    },
    {
      "inputs": [],
      "name": "owner",
      "outputs": [
        {
          "internalType": "address",
          "name": "",
          "type": "address"
        }
      ],
      "stateMutability": "view",
      "type": "function"
    },
    {
      "inputs": [
        {
          "internalType": "string",
          "name": "_toChain",
          "type": "string"
        },
        {
          "internalType": "string",
          "name": "_contractAddress",
          "type": "string"
        },
        {
          "internalType": "string",
          "name": "_methodName",
          "type": "string"
        },
        {
          "internalType": "string",
          "name": "_destinationMethodName",
          "type": "string"
        }
      ],
      "name": "registerDestinationMethod",
      "outputs": [],
      "stateMutability": "nonpayable",
      "type": "function"
    },
    {
      "inputs": [
        {
          "internalType": "string",
          "name": "_chainName",
          "type": "string"
        },
        {
          "internalType": "string",
          "name": "_sender",
          "type": "string"
        },
        {
          "internalType": "string",
          "name": "_methodName",
          "type": "string"
        }
      ],
      "name": "registerSourceSender",
      "outputs": [],
      "stateMutability": "nonpayable",
      "type": "function"
    },
    {
      "inputs": [
        {
          "internalType": "string",
          "name": "_funcName",
          "type": "string"
        },
        {
          "internalType": "string",
          "name": "_abiString",
          "type": "string"
        },
        {
          "internalType": "string",
          "name": "_paramName",
          "type": "string"
        },
        {
          "internalType": "string",
          "name": "_paramType",
          "type": "string"
        }
      ],
      "name": "registerTarget",
      "outputs": [],
      "stateMutability": "nonpayable",
      "type": "function"
    },
    {
      "inputs": [],
      "name": "renounceOwnership",
      "outputs": [],
      "stateMutability": "nonpayable",
      "type": "function"
    },
    {
      "inputs": [
        {
          "internalType": "string",
          "name": "",
          "type": "string"
        },
        {
          "internalType": "string",
          "name": "",
          "type": "string"
        }
      ],
      "name": "senderMap",
      "outputs": [
        {
          "internalType": "string",
          "name": "",
          "type": "string"
        }
      ],
      "stateMutability": "view",
      "type": "function"
    },
    {
      "inputs": [
        {
          "internalType": "address",
          "name": "_address",
          "type": "address"
        }
      ],
      "name": "setCrossChainContract",
      "outputs": [],
      "stateMutability": "nonpayable",
      "type": "function"
    },
    {
      "inputs": [
        {
          "internalType": "address",
          "name": "newOwner",
          "type": "address"
        }
      ],
      "name": "transferOwnership",
      "outputs": [],
      "stateMutability": "nonpayable",
      "type": "function"
    },
    {
      "inputs": [
        {
          "internalType": "string",
          "name": "_chainName",
          "type": "string"
        },
        {
          "internalType": "string",
          "name": "_methodName",
          "type": "string"
        },
        {
          "internalType": "string",
          "name": "_sender",
          "type": "string"
        }
      ],
      "name": "verify",
      "outputs": [
        {
          "internalType": "bool",
          "name": "",
          "type": "bool"
        }
      ],
      "stateMutability": "view",
      "type": "function"
    },
    {
      "inputs": [
        {
          "internalType": "string",
          "name": "_funcName",
          "type": "string"
        },
        {
          "internalType": "string",
          "name": "_interface",
          "type": "string"
        }
      ],
      "name": "registerInterface",
      "outputs": [],
      "stateMutability": "nonpayable",
      "type": "function"
    },
    {
      "inputs": [
        {
          "internalType": "string",
          "name": "_fromChain",
          "type": "string"
        },
        {
          "internalType": "string",
          "name": "_title",
          "type": "string"
        },
        {
          "internalType": "string",
          "name": "_content",
          "type": "string"
        },
        {
          "internalType": "string",
          "name": "_date",
          "type": "string"
        }
      ],
      "name": "receiveGreeting",
      "outputs": [],
      "stateMutability": "nonpayable",
      "type": "function"
    },
    {
      "inputs": [
        {
          "internalType": "string",
          "name": "_toChain",
          "type": "string"
        },
        {
          "internalType": "string",
          "name": "_title",
          "type": "string"
        },
        {
          "internalType": "string",
          "name": "_content",
          "type": "string"
        },
        {
          "internalType": "string",
          "name": "_date",
          "type": "string"
        }
      ],
      "name": "sendGreeting",
      "outputs": [],
      "stateMutability": "nonpayable",
      "type": "function"
    },
    {
      "inputs": [
        {
          "internalType": "string",
          "name": "_toChain",
          "type": "string"
        },
        {
          "internalType": "uint256[]",
          "name": "_nums",
          "type": "uint256[]"
        }
      ],
      "name": "sendComputeTask",
      "outputs": [],
      "stateMutability": "nonpayable",
      "type": "function"
    },
    {
      "inputs": [
        {
          "internalType": "uint256[]",
          "name": "_nums",
          "type": "uint256[]"
        }
      ],
      "name": "receiveComputeTask",
      "outputs": [],
      "stateMutability": "nonpayable",
      "type": "function"
    },
    {
      "inputs": [
        {
          "internalType": "uint256",
          "name": "_result",
          "type": "uint256"
        }
      ],
      "name": "receiveComputeResult",
      "outputs": [],
      "stateMutability": "nonpayable",
      "type": "function"
    },
    {
      "inputs": [],
      "name": "getLastMessage",
      "outputs": [
        {
          "components": [
            {
              "internalType": "uint256",
              "name": "id",
              "type": "uint256"
            },
            {
              "internalType": "string",
              "name": "fromChain",
              "type": "string"
            },
            {
              "internalType": "string",
              "name": "sender",
              "type": "string"
            },
            {
              "internalType": "string",
              "name": "signer",
              "type": "string"
            },
            {
              "internalType": "address",
              "name": "contractAddress",
              "type": "address"
            },
            {
              "internalType": "string",
              "name": "action",
              "type": "string"
            }
          ],
          "internalType": "struct SimplifiedMessage",
          "name": "",
          "type": "tuple"
        }
      ],
      "stateMutability": "view",
      "type": "function"
    }
  ],
  "bytecode": "0x608060405234801561001057600080fd5b5061001a3361001f565b61006f565b600080546001600160a01b038381166001600160a01b0319831681178455604051919092169283917f8be0079c531659141344cd1fd0a4f28419497f9722a3daafe3b4186f6b6457e09190a35050565b6126158061007e6000396000f3fe608060405234801561001057600080fd5b50600436106101425760003560e01c80638da5cb5b116100b8578063dbc90de11161007c578063dbc90de1146102a0578063eb18b2ce146102b3578063f2fde38b146102c6578063f87c9ea9146102d9578063ff38c0b9146102fc578063ff96254b1461031657600080fd5b80638da5cb5b146102365780639af7a48c1461025b578063a24cbdf314610263578063a6b2b83014610276578063b02fe88f1461028957600080fd5b8063454065841161010a57806345406584146101c05780634c236819146101d3578063526bf76e146101e65780635f76e9e3146101fb578063715018a61461021b578063791fd40d1461022357600080fd5b80630b88c97d1461014757806318d72b541461015c5780631dea92051461016f57806320fe4e69146101825780634380aa3a146101ad575b600080fd5b61015a6101553660046119f6565b610339565b005b61015a61016a366004611aa5565b6103c7565b61015a61017d366004611ac9565b610413565b610195610190366004611c7b565b6105c8565b6040516101a493929190611d3b565b60405180910390f35b61015a6101bb366004611d73565b610725565b61015a6101ce366004611ac9565b6107b3565b61015a6101e1366004611e24565b610849565b6101ee610aef565b6040516101a49190611e66565b61020e610209366004611c7b565b610d6f565b6040516101a49190611f03565b61015a610e31565b61015a610231366004611ac9565b610e67565b6000546001600160a01b03165b6040516001600160a01b0390911681526020016101a4565b6101ee610fb5565b61015a610271366004611f16565b61103d565b61015a610284366004611f2f565b61106c565b610292600b5481565b6040519081526020016101a4565b600154610243906001600160a01b031681565b61015a6102c1366004611ac9565b611152565b61015a6102d4366004611aa5565b6111f8565b6102ec6102e7366004611f16565b611293565b6040516101a49493929190611f8f565b6103046114f3565b6040516101a496959493929190611fe7565b6103296103243660046119f6565b611749565b60405190151581526020016101a4565b6000546001600160a01b0316331461036c5760405162461bcd60e51b815260040161036390612056565b60405180910390fd5b60006003878760405161038092919061208b565b9081526020016040518091039020905084848285856040516103a392919061208b565b9081526040519081900360200190206103bd929091611861565b5050505050505050565b6000546001600160a01b031633146103f15760405162461bcd60e51b815260040161036390612056565b600180546001600160a01b0319166001600160a01b0392909216919091179055565b6001546001600160a01b0316331461043d5760405162461bcd60e51b81526004016103639061209b565b600480546001810182556000829052027f8a35acfbc15ff81a39ae7d344fd709f28e8600b4aa8c65c6b64bfe7fe36bd19b0161047a818a8a611861565b50610489600182018888611861565b50610498600282018686611861565b506104a7600382018484611861565b50600160009054906101000a90046001600160a01b03166001600160a01b0316639af7a48c6040518163ffffffff1660e01b8152600401600060405180830381865afa1580156104fb573d6000803e3d6000fd5b505050506040513d6000823e601f3d908101601f19168201604052610523919081019061212d565b8051600590815560208083015180516105409260069201906118e5565b506040820151805161055c9160028401916020909101906118e5565b50606082015180516105789160038401916020909101906118e5565b5060808201516004820180546001600160a01b0319166001600160a01b0390921691909117905560a082015180516105ba9160058401916020909101906118e5565b505050505050505050505050565b8151602081840181018051600282529282019482019490942091909352815180830184018051928152908401929093019190912091528054819061060b90612221565b80601f016020809104026020016040519081016040528092919081815260200182805461063790612221565b80156106845780601f1061065957610100808354040283529160200191610684565b820191906000526020600020905b81548152906001019060200180831161066757829003601f168201915b50505050509080600101805461069990612221565b80601f01602080910402602001604051908101604052809291908181526020018280546106c590612221565b80156107125780601f106106e757610100808354040283529160200191610712565b820191906000526020600020905b8154815290600101906020018083116106f557829003601f168201915b5050506002909301549192505060ff1683565b6000546001600160a01b0316331461074f5760405162461bcd60e51b815260040161036390612056565b6001546040516321c0551d60e11b81526001600160a01b0390911690634380aa3a90610785908790879087908790600401612285565b600060405180830381600087803b15801561079f57600080fd5b505af11580156103bd573d6000803e3d6000fd5b6000546001600160a01b031633146107dd5760405162461bcd60e51b815260040161036390612056565b600154604051631150196160e21b81526001600160a01b039091169063454065849061081b908b908b908b908b908b908b908b908b906004016122ac565b600060405180830381600087803b15801561083557600080fd5b505af11580156105ba573d6000803e3d6000fd5b6001546001600160a01b031633146108735760405162461bcd60e51b81526004016103639061209b565b6000805b828110156108b7578383828181106108915761089161230c565b90506020020135826108a39190612338565b9150806108af81612350565b915050610877565b50600160009054906101000a90046001600160a01b03166001600160a01b0316639af7a48c6040518163ffffffff1660e01b8152600401600060405180830381865afa15801561090b573d6000803e3d6000fd5b505050506040513d6000823e601f3d908101601f19168201604052610933919081019061212d565b8051600590815560208083015180516109509260069201906118e5565b506040820151805161096c9160028401916020909101906118e5565b50606082015180516109889160038401916020909101906118e5565b5060808201516004820180546001600160a01b0319166001600160a01b0390921691909117905560a082015180516109ca9160058401916020909101906118e5565b5050604051600091506002906109e2906006906123da565b908152604051908190036020018120731c9958d95a5d9950dbdb5c1d5d1954995cdd5b1d60621b825291506000908290601401908152604051908190036020019020600281015490915060ff16610a4b5760405162461bcd60e51b8152600401610363906123e6565b600083604051602001610a6091815260200190565b60408051601f198184030181526020830182526000835260018054925163ef565bbf60e01b81529194506001600160a01b039092169163ef565bbf91610ab49160069188918201908790899060040161248c565b600060405180830381600087803b158015610ace57600080fd5b505af1158015610ae2573d6000803e3d6000fd5b5050505050505050505050565b610af7611959565b6040805160c0810190915260058054825260068054602084019190610b1b90612221565b80601f0160208091040260200160405190810160405280929190818152602001828054610b4790612221565b8015610b945780601f10610b6957610100808354040283529160200191610b94565b820191906000526020600020905b815481529060010190602001808311610b7757829003601f168201915b50505050508152602001600282018054610bad90612221565b80601f0160208091040260200160405190810160405280929190818152602001828054610bd990612221565b8015610c265780601f10610bfb57610100808354040283529160200191610c26565b820191906000526020600020905b815481529060010190602001808311610c0957829003601f168201915b50505050508152602001600382018054610c3f90612221565b80601f0160208091040260200160405190810160405280929190818152602001828054610c6b90612221565b8015610cb85780601f10610c8d57610100808354040283529160200191610cb8565b820191906000526020600020905b815481529060010190602001808311610c9b57829003601f168201915b505050918352505060048201546001600160a01b03166020820152600582018054604090920191610ce890612221565b80601f0160208091040260200160405190810160405280929190818152602001828054610d1490612221565b8015610d615780601f10610d3657610100808354040283529160200191610d61565b820191906000526020600020905b815481529060010190602001808311610d4457829003601f168201915b505050505081525050905090565b8151602081840181018051600382529282019482019490942091909352815180830184018051928152908401929093019190912091528054610db090612221565b80601f0160208091040260200160405190810160405280929190818152602001828054610ddc90612221565b8015610e295780601f10610dfe57610100808354040283529160200191610e29565b820191906000526020600020905b815481529060010190602001808311610e0c57829003601f168201915b505050505081565b6000546001600160a01b03163314610e5b5760405162461bcd60e51b815260040161036390612056565b610e656000611811565b565b600060028989604051610e7b92919061208b565b9081526040519081900360200181206e726563656976654772656574696e6760881b825291506000908290600f01908152604051908190036020019020600281015490915060ff16610edf5760405162461bcd60e51b8152600401610363906123e6565b6000888888888888604051602001610efc969594939291906124ef565b604051602081830303815290604052905060006040518060200160405280600060ff168152509050600160009054906101000a90046001600160a01b03166001600160a01b031663ef565bbf8d8d866000018760010186886040518763ffffffff1660e01b8152600401610f759695949392919061254b565b600060405180830381600087803b158015610f8f57600080fd5b505af1158015610fa3573d6000803e3d6000fd5b50505050505050505050505050505050565b610fbd611959565b600160009054906101000a90046001600160a01b03166001600160a01b0316639af7a48c6040518163ffffffff1660e01b8152600401600060405180830381865afa158015611010573d6000803e3d6000fd5b505050506040513d6000823e601f3d908101601f19168201604052611038919081019061212d565b905090565b6001546001600160a01b031633146110675760405162461bcd60e51b81526004016103639061209b565b600b55565b60006002858560405161108092919061208b565b9081526040519081900360200181207172656365697665436f6d707574655461736b60701b825291506000908290601201908152604051908190036020019020600281015490915060ff166110e75760405162461bcd60e51b8152600401610363906123e6565b600084846040516020016110fc9291906125a3565b60408051601f198184030181526020830182526000835260018054925163ef565bbf60e01b81529194506001600160a01b039092169163ef565bbf9161081b918c918c9189919082019088908a9060040161254b565b6000546001600160a01b0316331461117c5760405162461bcd60e51b815260040161036390612056565b60006002898960405161119092919061208b565b9081526020016040518091039020905060008186866040516111b392919061208b565b90815260405190819003602001902090506111cf818989611861565b506111de600182018585611861565b50600201805460ff19166001179055505050505050505050565b6000546001600160a01b031633146112225760405162461bcd60e51b815260040161036390612056565b6001600160a01b0381166112875760405162461bcd60e51b815260206004820152602660248201527f4f776e61626c653a206e6577206f776e657220697320746865207a65726f206160448201526564647265737360d01b6064820152608401610363565b61129081611811565b50565b600481815481106112a357600080fd5b90600052602060002090600402016000915090508060000180546112c690612221565b80601f01602080910402602001604051908101604052809291908181526020018280546112f290612221565b801561133f5780601f106113145761010080835404028352916020019161133f565b820191906000526020600020905b81548152906001019060200180831161132257829003601f168201915b50505050509080600101805461135490612221565b80601f016020809104026020016040519081016040528092919081815260200182805461138090612221565b80156113cd5780601f106113a2576101008083540402835291602001916113cd565b820191906000526020600020905b8154815290600101906020018083116113b057829003601f168201915b5050505050908060020180546113e290612221565b80601f016020809104026020016040519081016040528092919081815260200182805461140e90612221565b801561145b5780601f106114305761010080835404028352916020019161145b565b820191906000526020600020905b81548152906001019060200180831161143e57829003601f168201915b50505050509080600301805461147090612221565b80601f016020809104026020016040519081016040528092919081815260200182805461149c90612221565b80156114e95780601f106114be576101008083540402835291602001916114e9565b820191906000526020600020905b8154815290600101906020018083116114cc57829003601f168201915b5050505050905084565b600580546006805491929161150790612221565b80601f016020809104026020016040519081016040528092919081815260200182805461153390612221565b80156115805780601f1061155557610100808354040283529160200191611580565b820191906000526020600020905b81548152906001019060200180831161156357829003601f168201915b50505050509080600201805461159590612221565b80601f01602080910402602001604051908101604052809291908181526020018280546115c190612221565b801561160e5780601f106115e35761010080835404028352916020019161160e565b820191906000526020600020905b8154815290600101906020018083116115f157829003601f168201915b50505050509080600301805461162390612221565b80601f016020809104026020016040519081016040528092919081815260200182805461164f90612221565b801561169c5780601f106116715761010080835404028352916020019161169c565b820191906000526020600020905b81548152906001019060200180831161167f57829003601f168201915b505050600484015460058501805494956001600160a01b039092169491935091506116c690612221565b80601f01602080910402602001604051908101604052809291908181526020018280546116f290612221565b801561173f5780601f106117145761010080835404028352916020019161173f565b820191906000526020600020905b81548152906001019060200180831161172257829003601f168201915b5050505050905086565b6000806003888860405161175e92919061208b565b90815260200160405180910390209050600081878760405161178192919061208b565b908152604051908190036020018120915061179f908690869061208b565b6040518091039020816040516117b591906123da565b6040518091039020146118025760405162461bcd60e51b81526020600482015260156024820152740a6cadcc8cae440c8decae640dcdee840dac2e8c6d605b1b6044820152606401610363565b50600198975050505050505050565b600080546001600160a01b038381166001600160a01b0319831681178455604051919092169283917f8be0079c531659141344cd1fd0a4f28419497f9722a3daafe3b4186f6b6457e09190a35050565b82805461186d90612221565b90600052602060002090601f01602090048101928261188f57600085556118d5565b82601f106118a85782800160ff198235161785556118d5565b828001600101855582156118d5579182015b828111156118d55782358255916020019190600101906118ba565b506118e1929150611998565b5090565b8280546118f190612221565b90600052602060002090601f01602090048101928261191357600085556118d5565b82601f1061192c57805160ff19168380011785556118d5565b828001600101855582156118d5579182015b828111156118d557825182559160200191906001019061193e565b6040518060c001604052806000815260200160608152602001606081526020016060815260200160006001600160a01b03168152602001606081525090565b5b808211156118e15760008155600101611999565b60008083601f8401126119bf57600080fd5b50813567ffffffffffffffff8111156119d757600080fd5b6020830191508360208285010111156119ef57600080fd5b9250929050565b60008060008060008060608789031215611a0f57600080fd5b863567ffffffffffffffff80821115611a2757600080fd5b611a338a838b016119ad565b90985096506020890135915080821115611a4c57600080fd5b611a588a838b016119ad565b90965094506040890135915080821115611a7157600080fd5b50611a7e89828a016119ad565b979a9699509497509295939492505050565b6001600160a01b038116811461129057600080fd5b600060208284031215611ab757600080fd5b8135611ac281611a90565b9392505050565b6000806000806000806000806080898b031215611ae557600080fd5b883567ffffffffffffffff80821115611afd57600080fd5b611b098c838d016119ad565b909a50985060208b0135915080821115611b2257600080fd5b611b2e8c838d016119ad565b909850965060408b0135915080821115611b4757600080fd5b611b538c838d016119ad565b909650945060608b0135915080821115611b6c57600080fd5b50611b798b828c016119ad565b999c989b5096995094979396929594505050565b634e487b7160e01b600052604160045260246000fd5b60405160c0810167ffffffffffffffff81118282101715611bc657611bc6611b8d565b60405290565b604051601f8201601f1916810167ffffffffffffffff81118282101715611bf557611bf5611b8d565b604052919050565b600067ffffffffffffffff821115611c1757611c17611b8d565b50601f01601f191660200190565b600082601f830112611c3657600080fd5b8135611c49611c4482611bfd565b611bcc565b818152846020838601011115611c5e57600080fd5b816020850160208301376000918101602001919091529392505050565b60008060408385031215611c8e57600080fd5b823567ffffffffffffffff80821115611ca657600080fd5b611cb286838701611c25565b93506020850135915080821115611cc857600080fd5b50611cd585828601611c25565b9150509250929050565b60005b83811015611cfa578181015183820152602001611ce2565b83811115611d09576000848401525b50505050565b60008151808452611d27816020860160208601611cdf565b601f01601f19169290920160200192915050565b606081526000611d4e6060830186611d0f565b8281036020840152611d608186611d0f565b9150508215156040830152949350505050565b60008060008060408587031215611d8957600080fd5b843567ffffffffffffffff80821115611da157600080fd5b611dad888389016119ad565b90965094506020870135915080821115611dc657600080fd5b50611dd3878288016119ad565b95989497509550505050565b60008083601f840112611df157600080fd5b50813567ffffffffffffffff811115611e0957600080fd5b6020830191508360208260051b85010111156119ef57600080fd5b60008060208385031215611e3757600080fd5b823567ffffffffffffffff811115611e4e57600080fd5b611e5a85828601611ddf565b90969095509350505050565b60208152815160208201526000602083015160c06040840152611e8c60e0840182611d0f565b90506040840151601f1980858403016060860152611eaa8383611d0f565b92506060860151915080858403016080860152611ec78383611d0f565b60808701516001600160a01b031660a08781019190915287015186820390920160c087015292509050611efa8282611d0f565b95945050505050565b602081526000611ac26020830184611d0f565b600060208284031215611f2857600080fd5b5035919050565b60008060008060408587031215611f4557600080fd5b843567ffffffffffffffff80821115611f5d57600080fd5b611f69888389016119ad565b90965094506020870135915080821115611f8257600080fd5b50611dd387828801611ddf565b608081526000611fa26080830187611d0f565b8281036020840152611fb48187611d0f565b90508281036040840152611fc88186611d0f565b90508281036060840152611fdc8185611d0f565b979650505050505050565b86815260c06020820152600061200060c0830188611d0f565b82810360408401526120128188611d0f565b905082810360608401526120268187611d0f565b6001600160a01b038616608085015283810360a085015290506120498185611d0f565b9998505050505050505050565b6020808252818101527f4f776e61626c653a2063616c6c6572206973206e6f7420746865206f776e6572604082015260600190565b8183823760009101908152919050565b6020808252818101527f4c6f636b65723a2063616c6c6572206973206e6f742043726f7373436861696e604082015260600190565b600082601f8301126120e157600080fd5b81516120ef611c4482611bfd565b81815284602083860101111561210457600080fd5b612115826020830160208701611cdf565b949350505050565b805161212881611a90565b919050565b60006020828403121561213f57600080fd5b815167ffffffffffffffff8082111561215757600080fd5b9083019060c0828603121561216b57600080fd5b612173611ba3565b8251815260208301518281111561218957600080fd5b612195878286016120d0565b6020830152506040830151828111156121ad57600080fd5b6121b9878286016120d0565b6040830152506060830151828111156121d157600080fd5b6121dd878286016120d0565b6060830152506121ef6080840161211d565b608082015260a08301518281111561220657600080fd5b612212878286016120d0565b60a08301525095945050505050565b600181811c9082168061223557607f821691505b6020821081141561225657634e487b7160e01b600052602260045260246000fd5b50919050565b81835281816020850137506000828201602090810191909152601f909101601f19169091010190565b60408152600061229960408301868861225c565b8281036020840152611fdc81858761225c565b6080815260006122c0608083018a8c61225c565b82810360208401526122d381898b61225c565b905082810360408401526122e881878961225c565b905082810360608401526122fd81858761225c565b9b9a5050505050505050505050565b634e487b7160e01b600052603260045260246000fd5b634e487b7160e01b600052601160045260246000fd5b6000821982111561234b5761234b612322565b500190565b600060001982141561236457612364612322565b5060010190565b6000815461237881612221565b6001828116801561239057600181146123a1576123d0565b60ff198416875282870194506123d0565b8560005260208060002060005b858110156123c75781548a8201529084019082016123ae565b50505082870194505b5050505092915050565b6000611ac2828461236b565b6020808252601590820152741b595d1a1bd9081b9bdd081c9959da5cdd195c9959605a1b604082015260600190565b6000815461242281612221565b80855260206001838116801561243f576001811461245357612481565b60ff19851688840152604088019550612481565b866000528260002060005b858110156124795781548a820186015290830190840161245e565b890184019650505b505050505092915050565b60a08152600061249f60a0830188612415565b82810360208401526124b18188612415565b905082810360408401526124c58187612415565b905060ff855116606084015282810360808401526124e38185611d0f565b98975050505050505050565b6080815260096080820152684176616c616e63686560b81b60a082015260c06020820152600061252360c08301888a61225c565b828103604084015261253681878961225c565b9050828103606084015261204981858761225c565b60a08152600061255f60a08301888a61225c565b82810360208401526125718188612415565b905082810360408401526125858187612415565b905060ff855116606084015282810360808401526120498185611d0f565b6020808252810182905260006001600160fb1b038311156125c357600080fd5b8260051b8085604085013760009201604001918252509291505056fea26469706673582212208711a51f6803f334218fa3ba682cda628d32c7345445d44b1931467e97197b6064736f6c634300080a0033",
  "immutableReferences": {},
  "source": "// SPDX-License-Identifier: MIT\npragma solidity >=0.8.0 <0.9.0;\n\nimport \"@openzeppelin/contracts/access/Ownable.sol\";\nimport \"./../ConsumerBase.sol\";\n\ncontract Greetings is ConsumerBase {\n    struct Greeting {\n        string fromChain;\n        string title;\n        string content;\n        string date;\n    }\n    \n    // Store greetings\n    Greeting[] public greetings;\n\n    // Store last message info\n    SimplifiedMessage public currentSimplifiedMessage;\n\n    // Outsourcing computing result\n    uint public ocResult;\n\n    function registerInterface(string calldata _funcName, string calldata _interface) onlyOwner override external {\n        crossChainContract.registerInterface(_funcName, _interface);\n    }\n\n    function receiveGreeting(string calldata _fromChain, string calldata _title, string calldata _content, string calldata _date) external {\n        require(msg.sender == address(crossChainContract), \"Locker: caller is not CrossChain\");\n        Greeting storage g = greetings.push();\n        g.fromChain = _fromChain;\n        g.title = _title;\n        g.content = _content;\n        g.date = _date;\n\n        currentSimplifiedMessage = crossChainContract.getCurrentMessage();\n    }\n\n    function sendGreeting(string calldata _toChain, string calldata _title, string calldata _content, string calldata _date) external {\n        mapping(string => DestinationMethod) storage map = methodMap[_toChain];\n        DestinationMethod storage method = map[\"receiveGreeting\"];\n        require(method.used, \"method not registered\");\n\n        bytes memory data = abi.encode(\"Avalanche\", _title, _content, _date);\n        SQOS memory sqos = SQOS(0);\n        crossChainContract.sendMessage(_toChain, method.contractAddress, method.methodName, sqos, data);\n    }\n\n    // Sends oursourcing computing task to other chain\n    function sendComputeTask(string calldata _toChain, uint[] calldata _nums) external {\n        mapping(string => DestinationMethod) storage map = methodMap[_toChain];\n        DestinationMethod storage method = map[\"receiveComputeTask\"];\n        require(method.used, \"method not registered\");\n\n        bytes memory data = abi.encode(_nums);\n        SQOS memory sqos = SQOS(0);\n        crossChainContract.sendMessage(_toChain, method.contractAddress, method.methodName, sqos, data);\n    }\n\n    // Receives outsourcing computing task from other chain\n    function receiveComputeTask(uint[] calldata _nums) external {\n        require(msg.sender == address(crossChainContract), \"Locker: caller is not CrossChain\");\n        // compute\n        uint ret = 0;\n        for (uint i = 0; i < _nums.length; i++) {\n            ret += _nums[i];\n        }\n\n        currentSimplifiedMessage = crossChainContract.getCurrentMessage();\n\n        // send result back\n        mapping(string => DestinationMethod) storage map = methodMap[currentSimplifiedMessage.fromChain];\n        DestinationMethod storage method = map[\"receiveComputeResult\"];\n        require(method.used, \"method not registered\");\n\n        bytes memory data = abi.encode(ret);\n        SQOS memory sqos = SQOS(0);\n        crossChainContract.sendMessage(currentSimplifiedMessage.fromChain, method.contractAddress, method.methodName, sqos, data);\n    }\n\n    // Receives outsourcing computing result\n    function receiveComputeResult(uint _result) external {\n        require(msg.sender == address(crossChainContract), \"Locker: caller is not CrossChain\");\n        ocResult = _result;\n    }\n\n    // return last simplify message info\n    function getLastMessage() view external returns (SimplifiedMessage memory) {\n        return currentSimplifiedMessage;\n    }\n}",
  "sourcePath": "/home/george/hthuang/dante-cross-chain/avalanche/contracts/examples/Greetings.sol",
  "compiler": {
    "name": "solc",
    "version": "0.8.10+commit.fc410830.Emscripten.clang"
  },
  "schemaVersion": "3.4.4",
  "updatedAt": "2022-03-09T03:09:40.600Z",
  "devdoc": {
    "kind": "dev",
    "methods": {
      "owner()": {
        "details": "Returns the address of the current owner."
      },
      "renounceOwnership()": {
        "details": "Leaves the contract without owner. It will not be possible to call `onlyOwner` functions anymore. Can only be called by the current owner. NOTE: Renouncing ownership will leave the contract without an owner, thereby removing any functionality that is only available to the owner."
      },
      "transferOwnership(address)": {
        "details": "Transfers ownership of the contract to a new account (`newOwner`). Can only be called by the current owner."
      }
    },
    "version": 1
  },
  "userdoc": {
    "kind": "user",
    "methods": {},
    "version": 1
  }
}