{
  "contractName": "Greetings",
  "abi": [
    {
      "anonymous": false,
      "inputs": [
        {
          "indexed": true,
          "internalType": "address",
          "name": "previousOwner",
          "type": "address"
        },
        {
          "indexed": true,
          "internalType": "address",
          "name": "newOwner",
          "type": "address"
        }
      ],
      "name": "OwnershipTransferred",
      "type": "event"
    },
    {
      "inputs": [
        {
          "internalType": "string",
          "name": "",
          "type": "string"
        }
      ],
      "name": "contractABIMap",
      "outputs": [
        {
          "internalType": "string",
          "name": "",
          "type": "string"
        }
      ],
      "stateMutability": "view",
      "type": "function",
      "constant": true
    },
    {
      "inputs": [],
      "name": "crossChainContract",
      "outputs": [
        {
          "internalType": "contract ICrossChain",
          "name": "",
          "type": "address"
        }
      ],
      "stateMutability": "view",
      "type": "function",
      "constant": true
    },
    {
      "inputs": [
        {
          "internalType": "string",
          "name": "",
          "type": "string"
        },
        {
          "internalType": "string",
          "name": "",
          "type": "string"
        }
      ],
      "name": "destnContractMap",
      "outputs": [
        {
          "internalType": "string",
          "name": "contractAddress",
          "type": "string"
        },
        {
          "internalType": "string",
          "name": "funcName",
          "type": "string"
        },
        {
          "internalType": "bool",
          "name": "used",
          "type": "bool"
        }
      ],
      "stateMutability": "view",
      "type": "function",
      "constant": true
    },
    {
      "inputs": [],
      "name": "getContext",
      "outputs": [
        {
          "components": [
            {
              "internalType": "uint256",
              "name": "id",
              "type": "uint256"
            },
            {
              "internalType": "string",
              "name": "fromChain",
              "type": "string"
            },
            {
              "internalType": "string",
              "name": "sender",
              "type": "string"
            },
            {
              "internalType": "string",
              "name": "signer",
              "type": "string"
            },
            {
              "components": [
                {
                  "internalType": "uint8",
                  "name": "reveal",
                  "type": "uint8"
                }
              ],
              "internalType": "struct SQOS",
              "name": "sqos",
              "type": "tuple"
            },
            {
              "internalType": "address",
              "name": "contractAddress",
              "type": "address"
            },
            {
              "internalType": "string",
              "name": "action",
              "type": "string"
            }
          ],
          "internalType": "struct SimplifiedMessage",
          "name": "",
          "type": "tuple"
        }
      ],
      "stateMutability": "view",
      "type": "function",
      "constant": true
    },
    {
      "inputs": [
        {
          "internalType": "string",
          "name": "_destnChainName",
          "type": "string"
        },
        {
          "internalType": "string",
          "name": "_destnContractName",
          "type": "string"
        },
        {
          "internalType": "string",
          "name": "_funcName",
          "type": "string"
        }
      ],
      "name": "getMessageABI",
      "outputs": [
        {
          "components": [
            {
              "internalType": "string",
              "name": "parametertypes",
              "type": "string"
            },
            {
              "internalType": "string",
              "name": "parameterNames",
              "type": "string"
            }
          ],
          "internalType": "struct ContractBase.MessageABI",
          "name": "",
          "type": "tuple"
        }
      ],
      "stateMutability": "view",
      "type": "function",
      "constant": true
    },
    {
      "inputs": [
        {
          "internalType": "uint256",
          "name": "",
          "type": "uint256"
        }
      ],
      "name": "greetings",
      "outputs": [
        {
          "internalType": "string",
          "name": "fromChain",
          "type": "string"
        },
        {
          "internalType": "string",
          "name": "title",
          "type": "string"
        },
        {
          "internalType": "string",
          "name": "content",
          "type": "string"
        },
        {
          "internalType": "string",
          "name": "date",
          "type": "string"
        }
      ],
      "stateMutability": "view",
      "type": "function",
      "constant": true
    },
    {
      "inputs": [
        {
          "internalType": "bytes",
          "name": "",
          "type": "bytes"
        }
      ],
      "name": "messageABIMap",
      "outputs": [
        {
          "internalType": "string",
          "name": "parametertypes",
          "type": "string"
        },
        {
          "internalType": "string",
          "name": "parameterNames",
          "type": "string"
        }
      ],
      "stateMutability": "view",
      "type": "function",
      "constant": true
    },
    {
      "inputs": [],
      "name": "ocResult",
      "outputs": [
        {
          "internalType": "uint256",
          "name": "",
          "type": "uint256"
        }
      ],
      "stateMutability": "view",
      "type": "function",
      "constant": true
    },
    {
      "inputs": [],
      "name": "owner",
      "outputs": [
        {
          "internalType": "address",
          "name": "",
          "type": "address"
        }
      ],
      "stateMutability": "view",
      "type": "function",
      "constant": true
    },
    {
      "inputs": [
        {
          "internalType": "string",
          "name": "",
          "type": "string"
        },
        {
          "internalType": "string",
          "name": "",
          "type": "string"
        }
      ],
      "name": "permittedContractMap",
      "outputs": [
        {
          "internalType": "string",
          "name": "",
          "type": "string"
        }
      ],
      "stateMutability": "view",
      "type": "function",
      "constant": true
    },
    {
      "inputs": [
        {
          "internalType": "string",
          "name": "_funcName",
          "type": "string"
        },
        {
          "internalType": "string",
          "name": "_contractABI",
          "type": "string"
        }
      ],
      "name": "registerContractABI",
      "outputs": [],
      "stateMutability": "nonpayable",
      "type": "function"
    },
    {
      "inputs": [
        {
          "internalType": "string",
          "name": "_destnChainName",
          "type": "string"
        },
        {
          "internalType": "string",
          "name": "_destnContractName",
          "type": "string"
        },
        {
          "internalType": "string",
          "name": "_funcName",
          "type": "string"
        },
        {
          "internalType": "string",
          "name": "_paramType",
          "type": "string"
        },
        {
          "internalType": "string",
          "name": "_paramName",
          "type": "string"
        }
      ],
      "name": "registerMessageABI",
      "outputs": [],
      "stateMutability": "nonpayable",
      "type": "function"
    },
    {
      "inputs": [],
      "name": "renounceOwnership",
      "outputs": [],
      "stateMutability": "nonpayable",
      "type": "function"
    },
    {
      "inputs": [
        {
          "internalType": "address",
          "name": "_address",
          "type": "address"
        }
      ],
      "name": "setCrossChainContract",
      "outputs": [],
      "stateMutability": "nonpayable",
      "type": "function"
    },
    {
      "inputs": [
        {
          "internalType": "address",
          "name": "newOwner",
          "type": "address"
        }
      ],
      "name": "transferOwnership",
      "outputs": [],
      "stateMutability": "nonpayable",
      "type": "function"
    },
    {
      "inputs": [
        {
          "internalType": "string",
          "name": "_fromChain",
          "type": "string"
        },
        {
          "internalType": "string",
          "name": "_title",
          "type": "string"
        },
        {
          "internalType": "string",
          "name": "_content",
          "type": "string"
        },
        {
          "internalType": "string",
          "name": "_date",
          "type": "string"
        }
      ],
      "name": "receiveGreeting",
      "outputs": [],
      "stateMutability": "nonpayable",
      "type": "function"
    },
    {
      "inputs": [
        {
          "internalType": "string",
          "name": "_toChain",
          "type": "string"
        },
        {
          "internalType": "string",
          "name": "_title",
          "type": "string"
        },
        {
          "internalType": "string",
          "name": "_content",
          "type": "string"
        },
        {
          "internalType": "string",
          "name": "_date",
          "type": "string"
        }
      ],
      "name": "sendGreeting",
      "outputs": [],
      "stateMutability": "nonpayable",
      "type": "function"
    },
    {
      "inputs": [
        {
          "internalType": "string",
          "name": "_toChain",
          "type": "string"
        },
        {
          "internalType": "uint256[]",
          "name": "_nums",
          "type": "uint256[]"
        }
      ],
      "name": "sendComputeTask",
      "outputs": [],
      "stateMutability": "nonpayable",
      "type": "function"
    },
    {
      "inputs": [
        {
          "internalType": "uint256[]",
          "name": "_nums",
          "type": "uint256[]"
        }
      ],
      "name": "receiveComputeTask",
      "outputs": [],
      "stateMutability": "nonpayable",
      "type": "function"
    },
    {
      "inputs": [
        {
          "internalType": "uint256",
          "name": "_result",
          "type": "uint256"
        }
      ],
      "name": "receiveComputeResult",
      "outputs": [],
      "stateMutability": "nonpayable",
      "type": "function"
    },
    {
      "inputs": [
        {
          "internalType": "string",
          "name": "_funcName",
          "type": "string"
        },
        {
          "internalType": "string",
          "name": "_toChain",
          "type": "string"
        },
        {
          "internalType": "string",
          "name": "_contractAddress",
          "type": "string"
        },
        {
          "internalType": "string",
          "name": "_contractFuncName",
          "type": "string"
        }
      ],
      "name": "registerDestnContract",
      "outputs": [],
      "stateMutability": "nonpayable",
      "type": "function"
    },
    {
      "inputs": [
        {
          "internalType": "string",
          "name": "_chainName",
          "type": "string"
        },
        {
          "internalType": "string",
          "name": "_sender",
          "type": "string"
        },
        {
          "internalType": "string",
          "name": "_funcName",
          "type": "string"
        }
      ],
      "name": "registerPermittedContract",
      "outputs": [],
      "stateMutability": "nonpayable",
      "type": "function"
    },
    {
      "inputs": [
        {
          "internalType": "string",
          "name": "_chainName",
          "type": "string"
        },
        {
          "internalType": "string",
          "name": "_funcName",
          "type": "string"
        },
        {
          "internalType": "string",
          "name": "_sender",
          "type": "string"
        }
      ],
      "name": "verify",
      "outputs": [
        {
          "internalType": "bool",
          "name": "",
          "type": "bool"
        }
      ],
      "stateMutability": "view",
      "type": "function",
      "constant": true
    }
  ],
  "bytecode": "0x608060405234801561001057600080fd5b5061001a3361001f565b61006f565b600080546001600160a01b038381166001600160a01b0319831681178455604051919092169283917f8be0079c531659141344cd1fd0a4f28419497f9722a3daafe3b4186f6b6457e09190a35050565b6125ce8061007e6000396000f3fe608060405234801561001057600080fd5b506004361061014d5760003560e01c806380899bba116100c3578063bb45acd91161007c578063bb45acd9146102e4578063d4692703146102f7578063dbc90de11461030a578063f2fde38b1461031d578063f87c9ea914610330578063ff96254b1461035357600080fd5b806380899bba1461024d5780638da5cb5b1461026f578063a24cbdf314610294578063a6b2b830146102a7578063b02fe88f146102ba578063babe5dd6146102d157600080fd5b80634c236819116101155780634c236819146101d95780635fe78c6c146101ec57806366e1f8201461020c578063715018a61461021f578063791fd40d1461022757806379f6793c1461023a57600080fd5b8063127f0f071461015257806318d72b54146101705780631dea9205146101855780632639c423146101985780633ad16b7a146101b9575b600080fd5b61015a610376565b60405161016791906117fe565b60405180910390f35b61018361017e3660046118c6565b6103fe565b005b610183610193366004611932565b610453565b6101ab6101a6366004611ac8565b61060b565b604051610167929190611b18565b6101cc6101c7366004611b3d565b610742565b6040516101679190611bd6565b6101836101e7366004611c53565b6108d6565b6101ff6101fa366004611cb4565b610a69565b6040516101679190611ce8565b61018361021a366004611cfb565b610b0e565b610183610ba6565b610183610235366004611932565b610bdc565b610183610248366004611b3d565b610d27565b61026061025b366004611d66565b610da2565b60405161016793929190611dc9565b6000546001600160a01b03165b6040516001600160a01b039091168152602001610167565b6101836102a2366004611e01565b610eff565b6101836102b5366004611e1a565b610f2e565b6102c360075481565b604051908152602001610167565b6101836102df366004611932565b611014565b6101ff6102f2366004611d66565b6110ba565b610183610305366004611e79565b6110fb565b60035461027c906001600160a01b031681565b61018361032b3660046118c6565b61122e565b61034361033e366004611e01565b6112c9565b6040516101679493929190611f69565b610366610361366004611b3d565b611529565b6040519015158152602001610167565b61037e611641565b600360009054906101000a90046001600160a01b03166001600160a01b0316639af7a48c6040518163ffffffff1660e01b8152600401600060405180830381865afa1580156103d1573d6000803e3d6000fd5b505050506040513d6000823e601f3d908101601f191682016040526103f9919081019061206b565b905090565b6000546001600160a01b031633146104315760405162461bcd60e51b815260040161042890612170565b60405180910390fd5b600380546001600160a01b0319166001600160a01b0392909216919091179055565b6003546001600160a01b0316331461047d5760405162461bcd60e51b8152600401610428906121a5565b6000610487610376565b905080608001516000015160ff166001146104d45760405162461bcd60e51b815260206004820152600d60248201526c53516f5320696e76616c69642160981b6044820152606401610428565b6000600582602001516040516104ea91906121da565b90815260200160405180910390209050816040015180519060200120818360c0015160405161051991906121da565b90815260405190819003602001812061053191612231565b6040518091039020146105905760405162461bcd60e51b815260206004820152602160248201527f6d6573736167652073656e646572206973206e6f7420726567697374657265646044820152602160f81b6064820152608401610428565b600680546001810182556000919091526004027ff652222313e28459528d920b65115c16c04f3efc82aaedc97be59f3f377c0d3f016105d0818c8c611695565b506105df600182018a8a611695565b506105ee600282018888611695565b506105fd600382018686611695565b505050505050505050505050565b8051602081830181018051600182529282019190930120915280548190610631906121f6565b80601f016020809104026020016040519081016040528092919081815260200182805461065d906121f6565b80156106aa5780601f1061067f576101008083540402835291602001916106aa565b820191906000526020600020905b81548152906001019060200180831161068d57829003601f168201915b5050505050908060010180546106bf906121f6565b80601f01602080910402602001604051908101604052809291908181526020018280546106eb906121f6565b80156107385780601f1061070d57610100808354040283529160200191610738565b820191906000526020600020905b81548152906001019060200180831161071b57829003601f168201915b5050505050905082565b60408051808201909152606080825260208201526001878787878787604051602001610773969594939291906122a3565b60408051601f198184030181529082905261078d916121da565b90815260200160405180910390206040518060400160405290816000820180546107b6906121f6565b80601f01602080910402602001604051908101604052809291908181526020018280546107e2906121f6565b801561082f5780601f106108045761010080835404028352916020019161082f565b820191906000526020600020905b81548152906001019060200180831161081257829003601f168201915b50505050508152602001600182018054610848906121f6565b80601f0160208091040260200160405190810160405280929190818152602001828054610874906121f6565b80156108c15780601f10610896576101008083540402835291602001916108c1565b820191906000526020600020905b8154815290600101906020018083116108a457829003601f168201915b50505050508152505090509695505050505050565b6003546001600160a01b031633146109005760405162461bcd60e51b8152600401610428906121a5565b6000805b828110156109445783838281811061091e5761091e6122d3565b905060200201358261093091906122ff565b91508061093c81612317565b915050610904565b50600061094f610376565b905060006004826020015160405161096791906121da565b908152604051908190036020018120731c9958d95a5d9950dbdb5c1d5d1954995cdd5b1d60621b825291506000908290601401908152604051908190036020019020600281015490915060ff166109d05760405162461bcd60e51b815260040161042890612332565b6000846040516020016109e591815260200190565b60408051601f19818403018152602083810183526000845260035490880151925163ef565bbf60e01b81529194506001600160a01b03169163ef565bbf91610a3b919087906001820190879089906004016123d8565b600060405180830381600087803b158015610a5557600080fd5b505af11580156105fd573d6000803e3d6000fd5b805160208183018101805160028252928201919093012091528054610a8d906121f6565b80601f0160208091040260200160405190810160405280929190818152602001828054610ab9906121f6565b8015610b065780601f10610adb57610100808354040283529160200191610b06565b820191906000526020600020905b815481529060010190602001808311610ae957829003601f168201915b505050505081565b6000546001600160a01b03163314610b385760405162461bcd60e51b815260040161042890612170565b6003546040516321c0551d60e11b81526001600160a01b0390911690634380aa3a90610b6e908790879087908790600401612464565b600060405180830381600087803b158015610b8857600080fd5b505af1158015610b9c573d6000803e3d6000fd5b5050505050505050565b6000546001600160a01b03163314610bd05760405162461bcd60e51b815260040161042890612170565b610bda60006115f1565b565b600060048989604051610bf092919061248b565b9081526040519081900360200181206b73656e644772656574696e6760a01b825291506000908290600c01908152604051908190036020019020600281015490915060ff16610c515760405162461bcd60e51b815260040161042890612332565b6000888888888888604051602001610c6e9695949392919061249b565b604051602081830303815290604052905060006040518060200160405280600160ff168152509050600360009054906101000a90046001600160a01b03166001600160a01b031663ef565bbf8d8d866000018760010186886040518763ffffffff1660e01b8152600401610ce796959493929190612504565b600060405180830381600087803b158015610d0157600080fd5b505af1158015610d15573d6000803e3d6000fd5b50505050505050505050505050505050565b6000546001600160a01b03163314610d515760405162461bcd60e51b815260040161042890612170565b600060058787604051610d6592919061248b565b908152602001604051809103902090508484828585604051610d8892919061248b565b908152604051908190036020019020610b9c929091611695565b81516020818401810180516004825292820194820194909420919093528151808301840180519281529084019290930191909120915280548190610de5906121f6565b80601f0160208091040260200160405190810160405280929190818152602001828054610e11906121f6565b8015610e5e5780601f10610e3357610100808354040283529160200191610e5e565b820191906000526020600020905b815481529060010190602001808311610e4157829003601f168201915b505050505090806001018054610e73906121f6565b80601f0160208091040260200160405190810160405280929190818152602001828054610e9f906121f6565b8015610eec5780601f10610ec157610100808354040283529160200191610eec565b820191906000526020600020905b815481529060010190602001808311610ecf57829003601f168201915b5050506002909301549192505060ff1683565b6003546001600160a01b03163314610f295760405162461bcd60e51b8152600401610428906121a5565b600755565b600060048585604051610f4292919061248b565b9081526040519081900360200181207172656365697665436f6d707574655461736b60701b825291506000908290601201908152604051908190036020019020600281015490915060ff16610fa95760405162461bcd60e51b815260040161042890612332565b60008484604051602001610fbe92919061255c565b60408051601f1981840301815260208301825260008352600354915163ef565bbf60e01b81529093506001600160a01b039091169063ef565bbf90610a3b908b908b908890600182019088908a90600401612504565b6000546001600160a01b0316331461103e5760405162461bcd60e51b815260040161042890612170565b60006004878760405161105292919061248b565b908152602001604051809103902090506000818a8a60405161107592919061248b565b9081526040519081900360200190209050611091818787611695565b506110a0600182018585611695565b50600201805460ff19166001179055505050505050505050565b8151602081840181018051600582529282019482019490942091909352815180830184018051928152908401929093019190912091528054610a8d906121f6565b6000546001600160a01b031633146111255760405162461bcd60e51b815260040161042890612170565b6040805160606020601f8701819004028201810183529181018581526000928291908890889081908501838280828437600092019190915250505090825250604080516020601f870181900481028201810190925285815291810191908690869081908401838280828437600092019190915250505091525060405190915081906001906111c1908e908e908e908e908e908e906020016122a3565b60408051601f19818403018152908290526111db916121da565b90815260200160405180910390206000820151816000019080519060200190611205929190611719565b50602082810151805161121e9260018501920190611719565b5050505050505050505050505050565b6000546001600160a01b031633146112585760405162461bcd60e51b815260040161042890612170565b6001600160a01b0381166112bd5760405162461bcd60e51b815260206004820152602660248201527f4f776e61626c653a206e6577206f776e657220697320746865207a65726f206160448201526564647265737360d01b6064820152608401610428565b6112c6816115f1565b50565b600681815481106112d957600080fd5b90600052602060002090600402016000915090508060000180546112fc906121f6565b80601f0160208091040260200160405190810160405280929190818152602001828054611328906121f6565b80156113755780601f1061134a57610100808354040283529160200191611375565b820191906000526020600020905b81548152906001019060200180831161135857829003601f168201915b50505050509080600101805461138a906121f6565b80601f01602080910402602001604051908101604052809291908181526020018280546113b6906121f6565b80156114035780601f106113d857610100808354040283529160200191611403565b820191906000526020600020905b8154815290600101906020018083116113e657829003601f168201915b505050505090806002018054611418906121f6565b80601f0160208091040260200160405190810160405280929190818152602001828054611444906121f6565b80156114915780601f1061146657610100808354040283529160200191611491565b820191906000526020600020905b81548152906001019060200180831161147457829003601f168201915b5050505050908060030180546114a6906121f6565b80601f01602080910402602001604051908101604052809291908181526020018280546114d2906121f6565b801561151f5780601f106114f45761010080835404028352916020019161151f565b820191906000526020600020905b81548152906001019060200180831161150257829003601f168201915b5050505050905084565b6000806005888860405161153e92919061248b565b90815260200160405180910390209050600081878760405161156192919061248b565b908152604051908190036020018120915061157f908690869061248b565b6040518091039020816040516115959190612231565b6040518091039020146115e25760405162461bcd60e51b81526020600482015260156024820152740a6cadcc8cae440c8decae640dcdee840dac2e8c6d605b1b6044820152606401610428565b50600198975050505050505050565b600080546001600160a01b038381166001600160a01b0319831681178455604051919092169283917f8be0079c531659141344cd1fd0a4f28419497f9722a3daafe3b4186f6b6457e09190a35050565b6040518060e00160405280600081526020016060815260200160608152602001606081526020016116816040518060200160405280600060ff1681525090565b815260006020820152606060409091015290565b8280546116a1906121f6565b90600052602060002090601f0160209004810192826116c35760008555611709565b82601f106116dc5782800160ff19823516178555611709565b82800160010185558215611709579182015b828111156117095782358255916020019190600101906116ee565b5061171592915061178d565b5090565b828054611725906121f6565b90600052602060002090601f0160209004810192826117475760008555611709565b82601f1061176057805160ff1916838001178555611709565b82800160010185558215611709579182015b82811115611709578251825591602001919060010190611772565b5b80821115611715576000815560010161178e565b60005b838110156117bd5781810151838201526020016117a5565b838111156117cc576000848401525b50505050565b600081518084526117ea8160208601602086016117a2565b601f01601f19169290920160200192915050565b60208152815160208201526000602083015160e060408401526118256101008401826117d2565b90506040840151601f198085840301606086015261184383836117d2565b9250606086015191508085840301608086015261186083836117d2565b925060ff6080870151511660a086015260a0860151915061188c60c08601836001600160a01b03169052565b60c08601519150808584030160e0860152506118a882826117d2565b95945050505050565b6001600160a01b03811681146112c657600080fd5b6000602082840312156118d857600080fd5b81356118e3816118b1565b9392505050565b60008083601f8401126118fc57600080fd5b5081356001600160401b0381111561191357600080fd5b60208301915083602082850101111561192b57600080fd5b9250929050565b6000806000806000806000806080898b03121561194e57600080fd5b88356001600160401b038082111561196557600080fd5b6119718c838d016118ea565b909a50985060208b013591508082111561198a57600080fd5b6119968c838d016118ea565b909850965060408b01359150808211156119af57600080fd5b6119bb8c838d016118ea565b909650945060608b01359150808211156119d457600080fd5b506119e18b828c016118ea565b999c989b5096995094979396929594505050565b634e487b7160e01b600052604160045260246000fd5b60405160e081016001600160401b0381118282101715611a2d57611a2d6119f5565b60405290565b604051601f8201601f191681016001600160401b0381118282101715611a5b57611a5b6119f5565b604052919050565b60006001600160401b03821115611a7c57611a7c6119f5565b50601f01601f191660200190565b6000611a9d611a9884611a63565b611a33565b9050828152838383011115611ab157600080fd5b828260208301376000602084830101529392505050565b600060208284031215611ada57600080fd5b81356001600160401b03811115611af057600080fd5b8201601f81018413611b0157600080fd5b611b1084823560208401611a8a565b949350505050565b604081526000611b2b60408301856117d2565b82810360208401526118a881856117d2565b60008060008060008060608789031215611b5657600080fd5b86356001600160401b0380821115611b6d57600080fd5b611b798a838b016118ea565b90985096506020890135915080821115611b9257600080fd5b611b9e8a838b016118ea565b90965094506040890135915080821115611bb757600080fd5b50611bc489828a016118ea565b979a9699509497509295939492505050565b602081526000825160406020840152611bf260608401826117d2565b90506020840151601f198483030160408501526118a882826117d2565b60008083601f840112611c2157600080fd5b5081356001600160401b03811115611c3857600080fd5b6020830191508360208260051b850101111561192b57600080fd5b60008060208385031215611c6657600080fd5b82356001600160401b03811115611c7c57600080fd5b611c8885828601611c0f565b90969095509350505050565b600082601f830112611ca557600080fd5b6118e383833560208501611a8a565b600060208284031215611cc657600080fd5b81356001600160401b03811115611cdc57600080fd5b611b1084828501611c94565b6020815260006118e360208301846117d2565b60008060008060408587031215611d1157600080fd5b84356001600160401b0380821115611d2857600080fd5b611d34888389016118ea565b90965094506020870135915080821115611d4d57600080fd5b50611d5a878288016118ea565b95989497509550505050565b60008060408385031215611d7957600080fd5b82356001600160401b0380821115611d9057600080fd5b611d9c86838701611c94565b93506020850135915080821115611db257600080fd5b50611dbf85828601611c94565b9150509250929050565b606081526000611ddc60608301866117d2565b8281036020840152611dee81866117d2565b9150508215156040830152949350505050565b600060208284031215611e1357600080fd5b5035919050565b60008060008060408587031215611e3057600080fd5b84356001600160401b0380821115611e4757600080fd5b611e53888389016118ea565b90965094506020870135915080821115611e6c57600080fd5b50611d5a87828801611c0f565b60008060008060008060008060008060a08b8d031215611e9857600080fd5b8a356001600160401b0380821115611eaf57600080fd5b611ebb8e838f016118ea565b909c509a5060208d0135915080821115611ed457600080fd5b611ee08e838f016118ea565b909a50985060408d0135915080821115611ef957600080fd5b611f058e838f016118ea565b909850965060608d0135915080821115611f1e57600080fd5b611f2a8e838f016118ea565b909650945060808d0135915080821115611f4357600080fd5b50611f508d828e016118ea565b915080935050809150509295989b9194979a5092959850565b608081526000611f7c60808301876117d2565b8281036020840152611f8e81876117d2565b90508281036040840152611fa281866117d2565b90508281036060840152611fb681856117d2565b979650505050505050565b600082601f830112611fd257600080fd5b8151611fe0611a9882611a63565b818152846020838601011115611ff557600080fd5b611b108260208301602087016117a2565b60006020828403121561201857600080fd5b604051602081018181106001600160401b038211171561203a5761203a6119f5565b8060405250809150825160ff8116811461205357600080fd5b905292915050565b8051612066816118b1565b919050565b60006020828403121561207d57600080fd5b81516001600160401b038082111561209457600080fd5b9083019060e082860312156120a857600080fd5b6120b0611a0b565b825181526020830151828111156120c657600080fd5b6120d287828601611fc1565b6020830152506040830151828111156120ea57600080fd5b6120f687828601611fc1565b60408301525060608301518281111561210e57600080fd5b61211a87828601611fc1565b60608301525061212d8660808501612006565b608082015261213e60a0840161205b565b60a082015260c08301518281111561215557600080fd5b61216187828601611fc1565b60c08301525095945050505050565b6020808252818101527f4f776e61626c653a2063616c6c6572206973206e6f7420746865206f776e6572604082015260600190565b6020808252818101527f4c6f636b65723a2063616c6c6572206973206e6f742043726f7373436861696e604082015260600190565b600082516121ec8184602087016117a2565b9190910192915050565b600181811c9082168061220a57607f821691505b6020821081141561222b57634e487b7160e01b600052602260045260246000fd5b50919050565b600080835461223f816121f6565b60018281168015612257576001811461226857612297565b60ff19841687528287019450612297565b8760005260208060002060005b8581101561228e5781548a820152908401908201612275565b50505082870194505b50929695505050505050565b85878237600086820160008152858782376000908601908152838582376000930192835250909695505050505050565b634e487b7160e01b600052603260045260246000fd5b634e487b7160e01b600052601160045260246000fd5b60008219821115612312576123126122e9565b500190565b600060001982141561232b5761232b6122e9565b5060010190565b6020808252601590820152741858dd1a5bdb881b9bdd081c9959da5cdd195c9959605a1b604082015260600190565b6000815461236e816121f6565b80855260206001838116801561238b576001811461239f576123cd565b60ff198516888401526040880195506123cd565b866000528260002060005b858110156123c55781548a82018601529083019084016123aa565b890184019650505b505050505092915050565b60a0815260006123eb60a08301886117d2565b82810360208401526123fd8188612361565b905082810360408401526124118187612361565b905060ff8551166060840152828103608084015261242f81856117d2565b98975050505050505050565b81835281816020850137506000828201602090810191909152601f909101601f19169091010190565b60408152600061247860408301868861243b565b8281036020840152611fb681858761243b565b8183823760009101908152919050565b6080815260096080820152684176616c616e63686560b81b60a082015260c0602082015260006124cf60c08301888a61243b565b82810360408401526124e281878961243b565b905082810360608401526124f781858761243b565b9998505050505050505050565b60a08152600061251860a08301888a61243b565b828103602084015261252a8188612361565b9050828103604084015261253e8187612361565b905060ff855116606084015282810360808401526124f781856117d2565b6020808252810182905260006001600160fb1b0383111561257c57600080fd5b8260051b8085604085013760009201604001918252509291505056fea264697066735822122084be066ffdd23b380809f1ece0f377face7bb111f91fc6254c12fc22aacabe4064736f6c634300080a0033",
  "immutableReferences": {},
  "source": "// SPDX-License-Identifier: MIT\npragma solidity >=0.8.0 <0.9.0;\n\nimport \"@openzeppelin/contracts/access/Ownable.sol\";\nimport \"./CrossChain/ContractBase.sol\";\n\n// `Greetings` is an example of multi-chain services with necessary implementations in `ContractBase`, without which the user defined contract cannot work.\n// And besides, `registerDestnContract` and `registerPermittedContract` are templete implementations make the management of some user defined informations easier.\ncontract Greetings is ContractBase {\n    // Destination contract info\n    struct DestnContract {\n        string contractAddress; // destination contract address\n        string funcName; // destination contract action name\n        bool used;\n    }\n\n    // greeting\n    struct Greeting {\n        string fromChain;\n        string title;\n        string content;\n        string date;\n    }\n\n    // Cross-chain destination contract map\n    mapping(string => mapping(string => DestnContract)) public destnContractMap;\n\n    // Cross-chain permitted contract map\n    mapping(string => mapping(string => string)) public permittedContractMap;\n\n    // Store greetings\n    Greeting[] public greetings;\n\n    // Outsourcing computing result\n    uint256 public ocResult;\n\n    // Store context of cross chain contract\n    // SimplifiedMessage public context;\n\n    /**\n     * Receive greeting info from other chains\n     * @param _fromChain - from chain name\n     * @param _title - greeting title\n     * @param _content - greeting content\n     * @param _date - date\n     */\n    function receiveGreeting(\n        string calldata _fromChain,\n        string calldata _title,\n        string calldata _content,\n        string calldata _date\n    ) public {\n        require(\n            msg.sender == address(crossChainContract),\n            \"Locker: caller is not CrossChain\"\n        );\n\n        // `context` used for verify the operation authority\n        SimplifiedMessage memory context = getContext();\n        // verify sqos\n        require(context.sqos.reveal == 1, \"SQoS invalid!\");\n\n        // verify the sender from the registered chain\n        mapping(string => string)\n            storage permittedContract = permittedContractMap[context.fromChain];\n\n        require(\n            keccak256(bytes(permittedContract[context.action])) ==\n                keccak256(bytes(context.sender)),\n            \"message sender is not registered!\"\n        );\n\n        Greeting storage g = greetings.push();\n        g.fromChain = _fromChain;\n        g.title = _title;\n        g.content = _content;\n        g.date = _date;\n    }\n\n    /**\n     * Send greeting info to other chains\n     * @param _toChain - to chain name\n     * @param _title - greeting title\n     * @param _content - greeting content\n     * @param _date - date\n     */\n    function sendGreeting(\n        string calldata _toChain,\n        string calldata _title,\n        string calldata _content,\n        string calldata _date\n    ) external {\n        mapping(string => DestnContract) storage map = destnContractMap[_toChain];\n        DestnContract storage destnContract = map[\"sendGreeting\"];\n        require(destnContract.used, \"action not registered\");\n\n        bytes memory data = abi.encode(\"Avalanche\", _title, _content, _date);\n        SQOS memory sqos = SQOS(1);\n        crossChainContract.sendMessage(\n            _toChain,\n            destnContract.contractAddress,\n            destnContract.funcName,\n            sqos,\n            data\n        );\n    }\n\n    /**\n     * Send outsourcing computing task to other chain\n     * @param _toChain - to chain name\n     * @param _nums - nums to be accumulated\n     */\n    function sendComputeTask(string calldata _toChain, uint[] calldata _nums) external {\n        mapping(string => DestnContract) storage map = destnContractMap[_toChain];\n        DestnContract storage destnContract = map[\"receiveComputeTask\"];\n        require(destnContract.used, \"action not registered\");\n\n        bytes memory data = abi.encode(_nums);\n        SQOS memory sqos = SQOS(0);\n        crossChainContract.sendMessage(\n            _toChain,\n            destnContract.contractAddress,\n            destnContract.funcName,\n            sqos,\n            data\n        );\n    }\n\n    /**\n     * Receives outsourcing computing task from other chain\n     * @param _nums - nums to be accumulated\n     */\n    function receiveComputeTask(uint[] calldata _nums) external {\n        require(\n            msg.sender == address(crossChainContract),\n            \"Locker: caller is not CrossChain\"\n        );\n        \n        // compute\n        uint ret = 0;\n        for (uint i = 0; i < _nums.length; i++) {\n            ret += _nums[i];\n        }\n\n        SimplifiedMessage memory context = getContext();\n\n        // send result back\n        mapping(string => DestnContract) storage map = destnContractMap[context.fromChain];\n        DestnContract storage destnContract = map[\"receiveComputeResult\"];\n        require(destnContract.used, \"action not registered\");\n\n        bytes memory data = abi.encode(ret);\n        SQOS memory sqos = SQOS(0);\n        crossChainContract.sendMessage(context.fromChain, destnContract.contractAddress, destnContract.funcName, sqos, data);\n    }\n\n    /**\n     * Receives outsourcing computing result\n     * @param _result - accumulating result\n     */\n    function receiveComputeResult(uint _result) external {\n        require(\n            msg.sender == address(crossChainContract),\n            \"Locker: caller is not CrossChain\"\n        );\n        ocResult = _result;\n    }\n\n    ///////////////////////////////////////////////\n    /////    Send messages to other chains   //////\n    ///////////////////////////////////////////////\n\n    /**\n     * Register destination contract info\n     * @param _funcName - function name to be called\n     * @param _toChain - destination chain name\n     * @param _contractAddress - destination contract address\n     * @param _contractFuncName - contract function name\n     */\n    function registerDestnContract(\n        string calldata _funcName,\n        string calldata _toChain,\n        string calldata _contractAddress,\n        string calldata _contractFuncName\n    ) external onlyOwner {\n        mapping(string => DestnContract) storage map = destnContractMap[_toChain];\n        DestnContract storage destnContract = map[_funcName];\n        destnContract.contractAddress = _contractAddress;\n        destnContract.funcName = _contractFuncName;\n        destnContract.used = true;\n    }\n\n    ///////////////////////////////////////////////\n    ///    Receive messages from other chains   ///\n    ///////////////////////////////////////////////\n\n    /**\n     * Authorize contracts of other chains to call the functions of this contract\n     * @param _chainName - from chain name\n     * @param _sender - sender of cross chain message\n     * @param _funcName - action name which allowed to be invoked\n     */\n    function registerPermittedContract(\n        string calldata _chainName,\n        string calldata _sender,\n        string calldata _funcName\n    ) external onlyOwner {\n        mapping(string => string) storage map = permittedContractMap[\n            _chainName\n        ];\n        map[_funcName] = _sender;\n    }\n\n    /**\n     * This verify method will be invoked by the CrossChain contract automatically, ensure that only registered contract(registerSourceContract) calls are allowed\n     * @param _chainName - chain name of cross chain message\n     * @param _funcName - contract action name of cross chain message\n     * @param _sender - cross chain message sender\n     */\n    //  Will be deprecated soon\n    function verify(\n        string calldata _chainName,\n        string calldata _funcName,\n        string calldata _sender\n    ) public view virtual returns (bool) {\n        mapping(string => string) storage map = permittedContractMap[\n            _chainName\n        ];\n        string storage sender = map[_funcName];\n        require(\n            keccak256(bytes(sender)) == keccak256(bytes(_sender)),\n            \"Sender does not match\"\n        );\n        return true;\n    }\n}\n",
  "sourcePath": "/home/george/hthuang/solidity-contract-template/contracts/Greetings.sol",
  "compiler": {
    "name": "solc",
    "version": "0.8.10+commit.fc410830.Emscripten.clang"
  },
  "schemaVersion": "3.4.4",
  "updatedAt": "2022-03-11T06:28:07.927Z",
  "networkType": "ethereum",
  "devdoc": {
    "kind": "dev",
    "methods": {
      "getMessageABI(string,string,string)": {
        "params": {
          "_destnChainName": "- destination chain name",
          "_destnContractName": "- destination contract name",
          "_funcName": "- destination contract function name"
        }
      },
      "owner()": {
        "details": "Returns the address of the current owner."
      },
      "receiveComputeResult(uint256)": {
        "params": {
          "_result": "- accumulating result"
        }
      },
      "receiveComputeTask(uint256[])": {
        "params": {
          "_nums": "- nums to be accumulated"
        }
      },
      "receiveGreeting(string,string,string,string)": {
        "params": {
          "_content": "- greeting content",
          "_date": "- date",
          "_fromChain": "- from chain name",
          "_title": "- greeting title"
        }
      },
      "registerContractABI(string,string)": {
        "params": {
          "_contractABI": "- contract action abi",
          "_funcName": "- contract action name"
        }
      },
      "registerDestnContract(string,string,string,string)": {
        "params": {
          "_contractAddress": "- destination contract address",
          "_contractFuncName": "- contract function name",
          "_funcName": "- function name to be called",
          "_toChain": "- destination chain name"
        }
      },
      "registerMessageABI(string,string,string,string,string)": {
        "params": {
          "_destnChainName": "- destination chain name",
          "_destnContractName": "- destination contract name",
          "_funcName": "- destination contract function name",
          "_paramName": "- action param name",
          "_paramType": "- action param types"
        }
      },
      "registerPermittedContract(string,string,string)": {
        "params": {
          "_chainName": "- from chain name",
          "_funcName": "- action name which allowed to be invoked",
          "_sender": "- sender of cross chain message"
        }
      },
      "renounceOwnership()": {
        "details": "Leaves the contract without owner. It will not be possible to call `onlyOwner` functions anymore. Can only be called by the current owner. NOTE: Renouncing ownership will leave the contract without an owner, thereby removing any functionality that is only available to the owner."
      },
      "sendComputeTask(string,uint256[])": {
        "params": {
          "_nums": "- nums to be accumulated",
          "_toChain": "- to chain name"
        }
      },
      "sendGreeting(string,string,string,string)": {
        "params": {
          "_content": "- greeting content",
          "_date": "- date",
          "_title": "- greeting title",
          "_toChain": "- to chain name"
        }
      },
      "setCrossChainContract(address)": {
        "params": {
          "_address": "- cross chain contract address"
        }
      },
      "transferOwnership(address)": {
        "details": "Transfers ownership of the contract to a new account (`newOwner`). Can only be called by the current owner."
      },
      "verify(string,string,string)": {
        "params": {
          "_chainName": "- chain name of cross chain message",
          "_funcName": "- contract action name of cross chain message",
          "_sender": "- cross chain message sender"
        }
      }
    },
    "version": 1
  },
  "userdoc": {
    "kind": "user",
    "methods": {
      "getMessageABI(string,string,string)": {
        "notice": "Get Registered message ABI to encode/decode message"
      },
      "receiveComputeResult(uint256)": {
        "notice": "Receives outsourcing computing result"
      },
      "receiveComputeTask(uint256[])": {
        "notice": "Receives outsourcing computing task from other chain"
      },
      "receiveGreeting(string,string,string,string)": {
        "notice": "Receive greeting info from other chains"
      },
      "registerContractABI(string,string)": {
        "notice": "contract ABI used to encode/decode messages sent to this contract"
      },
      "registerDestnContract(string,string,string,string)": {
        "notice": "Register destination contract info"
      },
      "registerMessageABI(string,string,string,string,string)": {
        "notice": "message ABI used to encode/decode messages sent from this contract"
      },
      "registerPermittedContract(string,string,string)": {
        "notice": "Authorize contracts of other chains to call the functions of this contract"
      },
      "sendComputeTask(string,uint256[])": {
        "notice": "Send outsourcing computing task to other chain"
      },
      "sendGreeting(string,string,string,string)": {
        "notice": "Send greeting info to other chains"
      },
      "setCrossChainContract(address)": {
        "notice": "Set cross chain contract"
      },
      "verify(string,string,string)": {
        "notice": "This verify method will be invoked by the CrossChain contract automatically, ensure that only registered contract(registerSourceContract) calls are allowed"
      }
    },
    "version": 1
  }
}