{
  "contractName": "GreetingAdvanced",
  "abi": [
    {
      "anonymous": false,
      "inputs": [
        {
          "indexed": true,
          "internalType": "address",
          "name": "previousOwner",
          "type": "address"
        },
        {
          "indexed": true,
          "internalType": "address",
          "name": "newOwner",
          "type": "address"
        }
      ],
      "name": "OwnershipTransferred",
      "type": "event"
    },
    {
      "inputs": [
        {
          "internalType": "string",
          "name": "",
          "type": "string"
        }
      ],
      "name": "contractABIMap",
      "outputs": [
        {
          "internalType": "string",
          "name": "",
          "type": "string"
        }
      ],
      "stateMutability": "view",
      "type": "function",
      "constant": true
    },
    {
      "inputs": [],
      "name": "crossChainContract",
      "outputs": [
        {
          "internalType": "contract ICrossChain",
          "name": "",
          "type": "address"
        }
      ],
      "stateMutability": "view",
      "type": "function",
      "constant": true
    },
    {
      "inputs": [
        {
          "internalType": "bytes32",
          "name": "",
          "type": "bytes32"
        }
      ],
      "name": "dataAbis",
      "outputs": [
        {
          "internalType": "string",
          "name": "",
          "type": "string"
        }
      ],
      "stateMutability": "view",
      "type": "function",
      "constant": true
    },
    {
      "inputs": [
        {
          "internalType": "string",
          "name": "",
          "type": "string"
        },
        {
          "internalType": "string",
          "name": "",
          "type": "string"
        }
      ],
      "name": "destnContractMap",
      "outputs": [
        {
          "internalType": "string",
          "name": "contractAddress",
          "type": "string"
        },
        {
          "internalType": "string",
          "name": "funcName",
          "type": "string"
        },
        {
          "internalType": "bool",
          "name": "used",
          "type": "bool"
        }
      ],
      "stateMutability": "view",
      "type": "function",
      "constant": true
    },
    {
      "inputs": [],
      "name": "getContext",
      "outputs": [
        {
          "components": [
            {
              "internalType": "uint256",
              "name": "id",
              "type": "uint256"
            },
            {
              "internalType": "string",
              "name": "fromChain",
              "type": "string"
            },
            {
              "internalType": "string",
              "name": "sender",
              "type": "string"
            },
            {
              "internalType": "string",
              "name": "signer",
              "type": "string"
            },
            {
              "components": [
                {
                  "internalType": "uint8",
                  "name": "reveal",
                  "type": "uint8"
                }
              ],
              "internalType": "struct SQOS",
              "name": "sqos",
              "type": "tuple"
            },
            {
              "internalType": "address",
              "name": "contractAddress",
              "type": "address"
            },
            {
              "internalType": "string",
              "name": "action",
              "type": "string"
            },
            {
              "components": [
                {
                  "internalType": "uint8",
                  "name": "resType",
                  "type": "uint8"
                },
                {
                  "internalType": "uint256",
                  "name": "id",
                  "type": "uint256"
                }
              ],
              "internalType": "struct Response",
              "name": "response",
              "type": "tuple"
            }
          ],
          "internalType": "struct SimplifiedMessage",
          "name": "",
          "type": "tuple"
        }
      ],
      "stateMutability": "view",
      "type": "function",
      "constant": true
    },
    {
      "inputs": [],
      "name": "getDataAbi",
      "outputs": [
        {
          "internalType": "string",
          "name": "",
          "type": "string"
        }
      ],
      "stateMutability": "view",
      "type": "function",
      "constant": true
    },
    {
      "inputs": [
        {
          "internalType": "string",
          "name": "_destnChainName",
          "type": "string"
        },
        {
          "internalType": "string",
          "name": "_destnContractName",
          "type": "string"
        },
        {
          "internalType": "string",
          "name": "_funcName",
          "type": "string"
        }
      ],
      "name": "getMessageABI",
      "outputs": [
        {
          "components": [
            {
              "internalType": "string",
              "name": "parametertypes",
              "type": "string"
            },
            {
              "internalType": "string",
              "name": "parameterNames",
              "type": "string"
            }
          ],
          "internalType": "struct ContractBase.MessageABI",
          "name": "",
          "type": "tuple"
        }
      ],
      "stateMutability": "view",
      "type": "function",
      "constant": true
    },
    {
      "inputs": [
        {
          "internalType": "bytes",
          "name": "",
          "type": "bytes"
        }
      ],
      "name": "messageABIMap",
      "outputs": [
        {
          "internalType": "string",
          "name": "parametertypes",
          "type": "string"
        },
        {
          "internalType": "string",
          "name": "parameterNames",
          "type": "string"
        }
      ],
      "stateMutability": "view",
      "type": "function",
      "constant": true
    },
    {
      "inputs": [],
      "name": "ocResult",
      "outputs": [
        {
          "internalType": "uint256",
          "name": "",
          "type": "uint256"
        }
      ],
      "stateMutability": "view",
      "type": "function",
      "constant": true
    },
    {
      "inputs": [],
      "name": "owner",
      "outputs": [
        {
          "internalType": "address",
          "name": "",
          "type": "address"
        }
      ],
      "stateMutability": "view",
      "type": "function",
      "constant": true
    },
    {
      "inputs": [
        {
          "internalType": "string",
          "name": "",
          "type": "string"
        },
        {
          "internalType": "string",
          "name": "",
          "type": "string"
        }
      ],
      "name": "permittedContractMap",
      "outputs": [
        {
          "internalType": "string",
          "name": "",
          "type": "string"
        }
      ],
      "stateMutability": "view",
      "type": "function",
      "constant": true
    },
    {
      "inputs": [
        {
          "internalType": "string",
          "name": "_funcName",
          "type": "string"
        },
        {
          "internalType": "string",
          "name": "_contractABI",
          "type": "string"
        }
      ],
      "name": "registerContractABI",
      "outputs": [],
      "stateMutability": "nonpayable",
      "type": "function"
    },
    {
      "inputs": [
        {
          "internalType": "string",
          "name": "_destnChainName",
          "type": "string"
        },
        {
          "internalType": "string",
          "name": "_destnContractName",
          "type": "string"
        },
        {
          "internalType": "string",
          "name": "_funcName",
          "type": "string"
        },
        {
          "internalType": "string",
          "name": "_dataAbi",
          "type": "string"
        }
      ],
      "name": "registerDataABI",
      "outputs": [],
      "stateMutability": "nonpayable",
      "type": "function"
    },
    {
      "inputs": [
        {
          "internalType": "string",
          "name": "_destnChainName",
          "type": "string"
        },
        {
          "internalType": "string",
          "name": "_destnContractName",
          "type": "string"
        },
        {
          "internalType": "string",
          "name": "_funcName",
          "type": "string"
        },
        {
          "internalType": "string",
          "name": "_paramType",
          "type": "string"
        },
        {
          "internalType": "string",
          "name": "_paramName",
          "type": "string"
        }
      ],
      "name": "registerMessageABI",
      "outputs": [],
      "stateMutability": "nonpayable",
      "type": "function"
    },
    {
      "inputs": [],
      "name": "renounceOwnership",
      "outputs": [],
      "stateMutability": "nonpayable",
      "type": "function"
    },
    {
      "inputs": [
        {
          "internalType": "address",
          "name": "_address",
          "type": "address"
        }
      ],
      "name": "setCrossChainContract",
      "outputs": [],
      "stateMutability": "nonpayable",
      "type": "function"
    },
    {
      "inputs": [
        {
          "internalType": "address",
          "name": "newOwner",
          "type": "address"
        }
      ],
      "name": "transferOwnership",
      "outputs": [],
      "stateMutability": "nonpayable",
      "type": "function"
    },
    {
      "inputs": [
        {
          "internalType": "string",
          "name": "_toChain",
          "type": "string"
        },
        {
          "internalType": "uint256[]",
          "name": "_nums",
          "type": "uint256[]"
        }
      ],
      "name": "sendComputeTask",
      "outputs": [],
      "stateMutability": "nonpayable",
      "type": "function"
    },
    {
      "inputs": [
        {
          "internalType": "uint256[]",
          "name": "_nums",
          "type": "uint256[]"
        }
      ],
      "name": "receiveComputeTask",
      "outputs": [],
      "stateMutability": "nonpayable",
      "type": "function"
    },
    {
      "inputs": [
        {
          "internalType": "bytes",
          "name": "_data",
          "type": "bytes"
        }
      ],
      "name": "crossChainCallback",
      "outputs": [],
      "stateMutability": "nonpayable",
      "type": "function"
    },
    {
      "inputs": [
        {
          "internalType": "string",
          "name": "_funcName",
          "type": "string"
        },
        {
          "internalType": "string",
          "name": "_toChain",
          "type": "string"
        },
        {
          "internalType": "string",
          "name": "_contractAddress",
          "type": "string"
        },
        {
          "internalType": "string",
          "name": "_contractFuncName",
          "type": "string"
        }
      ],
      "name": "registerDestnContract",
      "outputs": [],
      "stateMutability": "nonpayable",
      "type": "function"
    },
    {
      "inputs": [
        {
          "internalType": "string",
          "name": "_chainName",
          "type": "string"
        },
        {
          "internalType": "string",
          "name": "_sender",
          "type": "string"
        },
        {
          "internalType": "string",
          "name": "_funcName",
          "type": "string"
        }
      ],
      "name": "registerPermittedContract",
      "outputs": [],
      "stateMutability": "nonpayable",
      "type": "function"
    },
    {
      "inputs": [
        {
          "internalType": "string",
          "name": "_chainName",
          "type": "string"
        },
        {
          "internalType": "string",
          "name": "_funcName",
          "type": "string"
        },
        {
          "internalType": "string",
          "name": "_sender",
          "type": "string"
        }
      ],
      "name": "verify",
      "outputs": [
        {
          "internalType": "bool",
          "name": "",
          "type": "bool"
        }
      ],
      "stateMutability": "view",
      "type": "function",
      "constant": true
    }
  ],
  "bytecode": "0x608060405234801561001057600080fd5b5061001a3361001f565b61006f565b600080546001600160a01b038381166001600160a01b0319831681178455604051919092169283917f8be0079c531659141344cd1fd0a4f28419497f9722a3daafe3b4186f6b6457e09190a35050565b6128468061007e6000396000f3fe608060405234801561001057600080fd5b506004361061014d5760003560e01c806380899bba116100c3578063bb45acd91161007c578063bb45acd9146102d9578063d4692703146102ec578063dbc90de1146102ff578063e15ac07414610312578063f2fde38b14610325578063ff96254b1461033857600080fd5b806380899bba146102425780638da5cb5b14610264578063a6b2b83014610289578063ae8f71771461029c578063b02fe88f146102af578063babe5dd6146102c657600080fd5b80634bd8ca7e116101155780634bd8ca7e146101e65780634c236819146101ee5780635fe78c6c1461020157806366e1f82014610214578063715018a61461022757806379f6793c1461022f57600080fd5b8063127f0f071461015257806318d72b54146101705780632639c4231461018557806335279da3146101a65780633ad16b7a146101c6575b600080fd5b61015a61035b565b60405161016791906118de565b60405180910390f35b61018361017e3660046119cc565b6103e3565b005b610198610193366004611b08565b610438565b604051610167929190611b58565b6101b96101b4366004611b86565b61056f565b6040516101679190611b9f565b6101d96101d4366004611bfa565b610609565b6040516101679190611c93565b6101b961079d565b6101836101fc366004611d10565b61096c565b6101b961020f366004611d71565b610c1e565b610183610222366004611da5565b610c42565b610183610cd0565b61018361023d366004611bfa565b610d06565b610255610250366004611e10565b610d81565b60405161016793929190611e73565b6000546001600160a01b03165b6040516001600160a01b039091168152602001610167565b610183610297366004611eab565b610ede565b6101836102aa366004611f0a565b611104565b6102b860075481565b604051908152602001610167565b6101836102d4366004611f0a565b611189565b6101b96102e7366004611e10565b61122f565b6101836102fa366004611fcd565b611270565b600354610271906001600160a01b031681565b6101836103203660046120bd565b6113a3565b6101836103333660046119cc565b6113c3565b61034b610346366004611bfa565b61145e565b6040519015158152602001610167565b6103636116f3565b600360009054906101000a90046001600160a01b03166001600160a01b0316639af7a48c6040518163ffffffff1660e01b8152600401600060405180830381865afa1580156103b6573d6000803e3d6000fd5b505050506040513d6000823e601f3d908101601f191682016040526103de9190810190612204565b905090565b6000546001600160a01b031633146104165760405162461bcd60e51b815260040161040d9061231c565b60405180910390fd5b600380546001600160a01b0319166001600160a01b0392909216919091179055565b805160208183018101805160018252928201919093012091528054819061045e90612351565b80601f016020809104026020016040519081016040528092919081815260200182805461048a90612351565b80156104d75780601f106104ac576101008083540402835291602001916104d7565b820191906000526020600020905b8154815290600101906020018083116104ba57829003601f168201915b5050505050908060010180546104ec90612351565b80601f016020809104026020016040519081016040528092919081815260200182805461051890612351565b80156105655780601f1061053a57610100808354040283529160200191610565565b820191906000526020600020905b81548152906001019060200180831161054857829003601f168201915b5050505050905082565b6004602052600090815260409020805461058890612351565b80601f01602080910402602001604051908101604052809291908181526020018280546105b490612351565b80156106015780601f106105d657610100808354040283529160200191610601565b820191906000526020600020905b8154815290600101906020018083116105e457829003601f168201915b505050505081565b6040805180820190915260608082526020820152600187878787878760405160200161063a9695949392919061238c565b60408051601f1981840301815290829052610654916123bc565b908152602001604051809103902060405180604001604052908160008201805461067d90612351565b80601f01602080910402602001604051908101604052809291908181526020018280546106a990612351565b80156106f65780601f106106cb576101008083540402835291602001916106f6565b820191906000526020600020905b8154815290600101906020018083116106d957829003601f168201915b5050505050815260200160018201805461070f90612351565b80601f016020809104026020016040519081016040528092919081815260200182805461073b90612351565b80156107885780601f1061075d57610100808354040283529160200191610788565b820191906000526020600020905b81548152906001019060200180831161076b57829003601f168201915b50505050508152505090509695505050505050565b606060006107a961035b565b90508060e001516000015160ff166002146108065760405162461bcd60e51b815260206004820152601d60248201527f4974206d757374206265206120726573706f6e7365206d657373616765000000604482015260640161040d565b60035460208083015160e084015190910151604051638e3db31360e01b81526000936001600160a01b031692638e3db31392610844926004016123d8565b600060405180830381865afa158015610861573d6000803e3d6000fd5b505050506040513d6000823e601f3d908101601f1916820160405261088991908101906124d3565b60408082015160c0830151805160209182015193519495506000946108b0949192016125b7565b6040516020818303038152906040528051906020012090506004600082815260200190815260200160002080546108e690612351565b80601f016020809104026020016040519081016040528092919081815260200182805461091290612351565b801561095f5780601f106109345761010080835404028352916020019161095f565b820191906000526020600020905b81548152906001019060200180831161094257829003601f168201915b5050505050935050505090565b6003546001600160a01b031633146109c65760405162461bcd60e51b815260206004820181905260248201527f4c6f636b65723a2063616c6c6572206973206e6f742043726f7373436861696e604482015260640161040d565b6000805b82811015610a0a578383828181106109e4576109e46125fa565b90506020020135826109f69190612626565b915080610a028161263e565b9150506109ca565b506000610a1561035b565b9050600060058260200151604051610a2d91906123bc565b9081526040519081900360200181207163726f7373436861696e43616c6c6261636b60701b825291506000908290601201908152604051908190036020019020600281015490915060ff16610abc5760405162461bcd60e51b81526020600482015260156024820152741858dd1a5bdb881b9bdd081c9959da5cdd195c9959605a1b604482015260640161040d565b600084604051602001610ad191815260200190565b60408051601f19818403018152602083810190925260008352908601518454919350610c14918590610b0290612351565b80601f0160208091040260200160405190810160405280929190818152602001828054610b2e90612351565b8015610b7b5780601f10610b5057610100808354040283529160200191610b7b565b820191906000526020600020905b815481529060010190602001808311610b5e57829003601f168201915b5050505050856001018054610b8f90612351565b80601f0160208091040260200160405190810160405280929190818152602001828054610bbb90612351565b8015610c085780601f10610bdd57610100808354040283529160200191610c08565b820191906000526020600020905b815481529060010190602001808311610beb57829003601f168201915b50505050508486611526565b5050505050505050565b80516020818301810180516002825292820191909301209152805461058890612351565b6000546001600160a01b03163314610c6c5760405162461bcd60e51b815260040161040d9061231c565b6003546040516321c0551d60e11b81526001600160a01b0390911690634380aa3a90610ca2908790879087908790600401612682565b600060405180830381600087803b158015610cbc57600080fd5b505af1158015610c14573d6000803e3d6000fd5b6000546001600160a01b03163314610cfa5760405162461bcd60e51b815260040161040d9061231c565b610d0460006115ad565b565b6000546001600160a01b03163314610d305760405162461bcd60e51b815260040161040d9061231c565b600060068787604051610d449291906126b4565b908152602001604051809103902090508484828585604051610d679291906126b4565b908152604051908190036020019020610c14929091611775565b81516020818401810180516005825292820194820194909420919093528151808301840180519281529084019290930191909120915280548190610dc490612351565b80601f0160208091040260200160405190810160405280929190818152602001828054610df090612351565b8015610e3d5780601f10610e1257610100808354040283529160200191610e3d565b820191906000526020600020905b815481529060010190602001808311610e2057829003601f168201915b505050505090806001018054610e5290612351565b80601f0160208091040260200160405190810160405280929190818152602001828054610e7e90612351565b8015610ecb5780601f10610ea057610100808354040283529160200191610ecb565b820191906000526020600020905b815481529060010190602001808311610eae57829003601f168201915b5050506002909301549192505060ff1683565b600060058585604051610ef29291906126b4565b9081526040519081900360200181207172656365697665436f6d707574655461736b60701b825291506000908290601201908152604051908190036020019020600281015490915060ff16610f815760405162461bcd60e51b81526020600482015260156024820152741858dd1a5bdb881b9bdd081c9959da5cdd195c9959605a1b604482015260640161040d565b60008484604051602001610f969291906126c4565b60408051601f1981840301815260208381018352600084528251601f8b01829004820281018201909352898352909350610c1491908a908a9081908401838280828437600092019190915250508654879250610ff29150612351565b80601f016020809104026020016040519081016040528092919081815260200182805461101e90612351565b801561106b5780601f106110405761010080835404028352916020019161106b565b820191906000526020600020905b81548152906001019060200180831161104e57829003601f168201915b505050505085600101805461107f90612351565b80601f01602080910402602001604051908101604052809291908181526020018280546110ab90612351565b80156110f85780601f106110cd576101008083540402835291602001916110f8565b820191906000526020600020905b8154815290600101906020018083116110db57829003601f168201915b505050505084866115fd565b6000546001600160a01b0316331461112e5760405162461bcd60e51b815260040161040d9061231c565b600088888888888860405160200161114b9695949392919061238c565b60408051601f19818403018152918152815160209283012060008181526004909352912090915061117d908484611775565b50505050505050505050565b6000546001600160a01b031633146111b35760405162461bcd60e51b815260040161040d9061231c565b6000600587876040516111c79291906126b4565b908152602001604051809103902090506000818a8a6040516111ea9291906126b4565b9081526040519081900360200190209050611206818787611775565b50611215600182018585611775565b50600201805460ff19166001179055505050505050505050565b815160208184018101805160068252928201948201949094209190935281518083018401805192815290840192909301919091209152805461058890612351565b6000546001600160a01b0316331461129a5760405162461bcd60e51b815260040161040d9061231c565b6040805160606020601f8701819004028201810183529181018581526000928291908890889081908501838280828437600092019190915250505090825250604080516020601f87018190048102820181019092528581529181019190869086908190840183828082843760009201919091525050509152506040519091508190600190611336908e908e908e908e908e908e9060200161238c565b60408051601f1981840301815290829052611350916123bc565b9081526020016040518091039020600082015181600001908051906020019061137a9291906117f9565b50602082810151805161139392600185019201906117f9565b5050505050505050505050505050565b6113ad8282611682565b60006113bb82840184611b86565b600755505050565b6000546001600160a01b031633146113ed5760405162461bcd60e51b815260040161040d9061231c565b6001600160a01b0381166114525760405162461bcd60e51b815260206004820152602660248201527f4f776e61626c653a206e6577206f776e657220697320746865207a65726f206160448201526564647265737360d01b606482015260840161040d565b61145b816115ad565b50565b600080600688886040516114739291906126b4565b9081526020016040518091039020905060008187876040516114969291906126b4565b90815260405190819003602001812091506114b490869086906126b4565b6040518091039020816040516114ca9190612700565b6040518091039020146115175760405162461bcd60e51b81526020600482015260156024820152740a6cadcc8cae440c8decae640dcdee840dac2e8c6d605b1b604482015260640161040d565b50600198975050505050505050565b600061153061035b565b60035460408051808201825260028152835160208201529051633ec320f960e11b81529293506001600160a01b0390911691637d8641f29161157f918a918a918a918a918a919060040161279c565b600060405180830381600087803b15801561159957600080fd5b505af115801561117d573d6000803e3d6000fd5b600080546001600160a01b038381166001600160a01b0319831681178455604051919092169283917f8be0079c531659141344cd1fd0a4f28419497f9722a3daafe3b4186f6b6457e09190a35050565b60035460408051808201825260018152600060208201529051633ec320f960e11b81526001600160a01b0390921691637d8641f29161164991899189918991899189919060040161279c565b600060405180830381600087803b15801561166357600080fd5b505af1158015611677573d6000803e3d6000fd5b505050505050505050565b6003546001600160a01b031633146116ef5760405162461bcd60e51b815260206004820152602a60248201527f436f6e7472616374416476616e6365643a2063616c6c6572206973206e6f742060448201526921b937b9b9a1b430b4b760b11b606482015260840161040d565b5050565b604051806101000160405280600081526020016060815260200160608152602001606081526020016117346040518060200160405280600060ff1681525090565b815260200160006001600160a01b03168152602001606081526020016117706040518060400160405280600060ff168152602001600081525090565b905290565b82805461178190612351565b90600052602060002090601f0160209004810192826117a357600085556117e9565b82601f106117bc5782800160ff198235161785556117e9565b828001600101855582156117e9579182015b828111156117e95782358255916020019190600101906117ce565b506117f592915061186d565b5090565b82805461180590612351565b90600052602060002090601f01602090048101928261182757600085556117e9565b82601f1061184057805160ff19168380011785556117e9565b828001600101855582156117e9579182015b828111156117e9578251825591602001919060010190611852565b5b808211156117f5576000815560010161186e565b60005b8381101561189d578181015183820152602001611885565b838111156118ac576000848401525b50505050565b600081518084526118ca816020860160208601611882565b601f01601f19169290920160200192915050565b60208152815160208201526000602083015161012060408401526119066101408401826118b2565b90506040840151601f198085840301606086015261192483836118b2565b9250606086015191508085840301608086015261194183836118b2565b92506080860151915061195a60a08601835160ff169052565b60a08601516001600160a01b03811660c0870152915060c08601519150808584030160e08601525061198c82826118b2565b91505060e08401516119af610100850182805160ff168252602090810151910152565b509392505050565b6001600160a01b038116811461145b57600080fd5b6000602082840312156119de57600080fd5b81356119e9816119b7565b9392505050565b634e487b7160e01b600052604160045260246000fd5b60405161010081016001600160401b0381118282101715611a2957611a296119f0565b60405290565b604051606081016001600160401b0381118282101715611a2957611a296119f0565b604051602081016001600160401b0381118282101715611a2957611a296119f0565b604051601f8201601f191681016001600160401b0381118282101715611a9b57611a9b6119f0565b604052919050565b60006001600160401b03821115611abc57611abc6119f0565b50601f01601f191660200190565b6000611add611ad884611aa3565b611a73565b9050828152838383011115611af157600080fd5b828260208301376000602084830101529392505050565b600060208284031215611b1a57600080fd5b81356001600160401b03811115611b3057600080fd5b8201601f81018413611b4157600080fd5b611b5084823560208401611aca565b949350505050565b604081526000611b6b60408301856118b2565b8281036020840152611b7d81856118b2565b95945050505050565b600060208284031215611b9857600080fd5b5035919050565b6020815260006119e960208301846118b2565b60008083601f840112611bc457600080fd5b5081356001600160401b03811115611bdb57600080fd5b602083019150836020828501011115611bf357600080fd5b9250929050565b60008060008060008060608789031215611c1357600080fd5b86356001600160401b0380821115611c2a57600080fd5b611c368a838b01611bb2565b90985096506020890135915080821115611c4f57600080fd5b611c5b8a838b01611bb2565b90965094506040890135915080821115611c7457600080fd5b50611c8189828a01611bb2565b979a9699509497509295939492505050565b602081526000825160406020840152611caf60608401826118b2565b90506020840151601f19848303016040850152611b7d82826118b2565b60008083601f840112611cde57600080fd5b5081356001600160401b03811115611cf557600080fd5b6020830191508360208260051b8501011115611bf357600080fd5b60008060208385031215611d2357600080fd5b82356001600160401b03811115611d3957600080fd5b611d4585828601611ccc565b90969095509350505050565b600082601f830112611d6257600080fd5b6119e983833560208501611aca565b600060208284031215611d8357600080fd5b81356001600160401b03811115611d9957600080fd5b611b5084828501611d51565b60008060008060408587031215611dbb57600080fd5b84356001600160401b0380821115611dd257600080fd5b611dde88838901611bb2565b90965094506020870135915080821115611df757600080fd5b50611e0487828801611bb2565b95989497509550505050565b60008060408385031215611e2357600080fd5b82356001600160401b0380821115611e3a57600080fd5b611e4686838701611d51565b93506020850135915080821115611e5c57600080fd5b50611e6985828601611d51565b9150509250929050565b606081526000611e8660608301866118b2565b8281036020840152611e9881866118b2565b9150508215156040830152949350505050565b60008060008060408587031215611ec157600080fd5b84356001600160401b0380821115611ed857600080fd5b611ee488838901611bb2565b90965094506020870135915080821115611efd57600080fd5b50611e0487828801611ccc565b6000806000806000806000806080898b031215611f2657600080fd5b88356001600160401b0380821115611f3d57600080fd5b611f498c838d01611bb2565b909a50985060208b0135915080821115611f6257600080fd5b611f6e8c838d01611bb2565b909850965060408b0135915080821115611f8757600080fd5b611f938c838d01611bb2565b909650945060608b0135915080821115611fac57600080fd5b50611fb98b828c01611bb2565b999c989b5096995094979396929594505050565b60008060008060008060008060008060a08b8d031215611fec57600080fd5b8a356001600160401b038082111561200357600080fd5b61200f8e838f01611bb2565b909c509a5060208d013591508082111561202857600080fd5b6120348e838f01611bb2565b909a50985060408d013591508082111561204d57600080fd5b6120598e838f01611bb2565b909850965060608d013591508082111561207257600080fd5b61207e8e838f01611bb2565b909650945060808d013591508082111561209757600080fd5b506120a48d828e01611bb2565b915080935050809150509295989b9194979a5092959850565b600080602083850312156120d057600080fd5b82356001600160401b038111156120e657600080fd5b611d4585828601611bb2565b6000612100611ad884611aa3565b905082815283838301111561211457600080fd5b6119e9836020830184611882565b600082601f83011261213357600080fd5b6119e9838351602085016120f2565b805160ff8116811461215357600080fd5b919050565b60006020828403121561216a57600080fd5b604051602081018181106001600160401b038211171561218c5761218c6119f0565b60405290508061219b83612142565b905292915050565b8051612153816119b7565b6000604082840312156121c057600080fd5b604051604081018181106001600160401b03821117156121e2576121e26119f0565b6040529050806121f183612142565b8152602083015160208201525092915050565b60006020828403121561221657600080fd5b81516001600160401b038082111561222d57600080fd5b90830190610120828603121561224257600080fd5b61224a611a06565b8251815260208301518281111561226057600080fd5b61226c87828601612122565b60208301525060408301518281111561228457600080fd5b61229087828601612122565b6040830152506060830151828111156122a857600080fd5b6122b487828601612122565b6060830152506122c78660808501612158565b60808201526122d860a084016121a3565b60a082015260c0830151828111156122ef57600080fd5b6122fb87828601612122565b60c08301525061230e8660e085016121ae565b60e082015295945050505050565b6020808252818101527f4f776e61626c653a2063616c6c6572206973206e6f7420746865206f776e6572604082015260600190565b600181811c9082168061236557607f821691505b6020821081141561238657634e487b7160e01b600052602260045260246000fd5b50919050565b85878237600086820160008152858782376000908601908152838582376000930192835250909695505050505050565b600082516123ce818460208701611882565b9190910192915050565b6040815260006123eb60408301856118b2565b90508260208301529392505050565b60006060828403121561240c57600080fd5b612414611a2f565b905081516001600160401b038082111561242d57600080fd5b61243985838601612122565b8352602084015191508082111561244f57600080fd5b61245b85838601612122565b6020840152604084015191508082111561247457600080fd5b908301906020828603121561248857600080fd5b612490611a51565b82518281111561249f57600080fd5b80840193505085601f8401126124b457600080fd5b6124c3868451602086016120f2565b8152604084015250909392505050565b6000602082840312156124e557600080fd5b81516001600160401b03808211156124fc57600080fd5b90830190610120828603121561251157600080fd5b612519611a06565b8251815260208301518281111561252f57600080fd5b61253b87828601612122565b60208301525060408301518281111561255357600080fd5b61255f87828601612122565b604083015250612571606084016121a3565b6060820152612582608084016121a3565b60808201526125948660a08501612158565b60a082015260c0830151828111156125ab57600080fd5b6122fb878286016123fa565b600084516125c9818460208901611882565b8451908301906125dd818360208901611882565b84519101906125f0818360208801611882565b0195945050505050565b634e487b7160e01b600052603260045260246000fd5b634e487b7160e01b600052601160045260246000fd5b6000821982111561263957612639612610565b500190565b600060001982141561265257612652612610565b5060010190565b81835281816020850137506000828201602090810191909152601f909101601f19169091010190565b604081526000612696604083018688612659565b82810360208401526126a9818587612659565b979650505050505050565b8183823760009101908152919050565b6020808252810182905260006001600160fb1b038311156126e457600080fd5b8260051b80856040850137600092016040019182525092915050565b600080835481600182811c91508083168061271c57607f831692505b602080841082141561273c57634e487b7160e01b86526022600452602486fd5b81801561275057600181146127615761278e565b60ff1986168952848901965061278e565b60008a81526020902060005b868110156127865781548b82015290850190830161276d565b505084890196505b509498975050505050505050565b60e0815260006127af60e08301896118b2565b82810360208401526127c181896118b2565b905082810360408401526127d581886118b2565b905060ff865116606084015282810360808401526127f381866118b2565b845160ff1660a0850152602085015160c085015291506126a9905056fea2646970667358221220568f130912d9360e7d6fabea7612372cab587f62e72f09d86caefb468dea676e64736f6c634300080a0033",
  "immutableReferences": {},
  "source": "// SPDX-License-Identifier: MIT\npragma solidity >=0.8.0 <0.9.0;\n\nimport \"@openzeppelin/contracts/access/Ownable.sol\";\nimport \"./CrossChain/ContractAdvanced.sol\";\n\n// `Greetings` is an example of multi-chain services with necessary implementations in `ContractBase`, without which the user defined contract cannot work.\n// And besides, `registerDestnContract` and `registerPermittedContract` are templete implementations make the management of some user defined informations easier.\ncontract GreetingAdvanced is ContractAdvanced {\n    // Destination contract info\n    struct DestnContract {\n        string contractAddress; // destination contract address\n        string funcName; // destination contract action name\n        bool used;\n    }\n\n    // Cross-chain destination contract map\n    mapping(string => mapping(string => DestnContract)) public destnContractMap;\n\n    // Cross-chain permitted contract map\n    mapping(string => mapping(string => string)) public permittedContractMap;\n\n    // Outsourcing computing result\n    uint256 public ocResult;\n\n    // Store context of cross chain contract\n    // SimplifiedMessage public context;\n    \n    /**\n     * Send outsourcing computing task to other chain\n     * @param _toChain - to chain name\n     * @param _nums - nums to be accumulated\n     */\n    function sendComputeTask(string calldata _toChain, uint[] calldata _nums) external {\n        mapping(string => DestnContract) storage map = destnContractMap[_toChain];\n        DestnContract storage destnContract = map[\"receiveComputeTask\"];\n        require(destnContract.used, \"action not registered\");\n\n        bytes memory data = abi.encode(_nums);\n        SQOS memory sqos = SQOS(0);\n        crossChainCall(\n            _toChain,\n            destnContract.contractAddress,\n            destnContract.funcName,\n            sqos,\n            data\n        );\n    }\n\n    /**\n     * Receives outsourcing computing task from other chain\n     * @param _nums - nums to be accumulated\n     */\n    function receiveComputeTask(uint[] calldata _nums) external {\n        require(\n            msg.sender == address(crossChainContract),\n            \"Locker: caller is not CrossChain\"\n        );\n        \n        // compute\n        uint ret = 0;\n        for (uint i = 0; i < _nums.length; i++) {\n            ret += _nums[i];\n        }\n\n        SimplifiedMessage memory context = getContext();\n\n        // send result back\n        mapping(string => DestnContract) storage map = destnContractMap[context.fromChain];\n        DestnContract storage destnContract = map[\"crossChainCallback\"];\n        require(destnContract.used, \"action not registered\");\n\n        bytes memory data = abi.encode(ret);\n        SQOS memory sqos = SQOS(0);\n        crossChainRespond(context.fromChain, destnContract.contractAddress, destnContract.funcName, sqos, data);\n    }\n\n    /**\n     * Receives outsourcing computing result\n     * @param _data - accumulating result\n     */\n    function crossChainCallback(bytes calldata _data) override public {\n        super.crossChainCallback(_data);\n        (uint _result) = abi.decode(_data, (uint));\n        ocResult = _result;\n    }\n\n    ///////////////////////////////////////////////\n    /////    Send messages to other chains   //////\n    ///////////////////////////////////////////////\n\n    /**\n     * Register destination contract info\n     * @param _funcName - function name to be called\n     * @param _toChain - destination chain name\n     * @param _contractAddress - destination contract address\n     * @param _contractFuncName - contract function name\n     */\n    function registerDestnContract(\n        string calldata _funcName,\n        string calldata _toChain,\n        string calldata _contractAddress,\n        string calldata _contractFuncName\n    ) external onlyOwner {\n        mapping(string => DestnContract) storage map = destnContractMap[_toChain];\n        DestnContract storage destnContract = map[_funcName];\n        destnContract.contractAddress = _contractAddress;\n        destnContract.funcName = _contractFuncName;\n        destnContract.used = true;\n    }\n\n    ///////////////////////////////////////////////\n    ///    Receive messages from other chains   ///\n    ///////////////////////////////////////////////\n\n    /**\n     * Authorize contracts of other chains to call the functions of this contract\n     * @param _chainName - from chain name\n     * @param _sender - sender of cross chain message\n     * @param _funcName - action name which allowed to be invoked\n     */\n    function registerPermittedContract(\n        string calldata _chainName,\n        string calldata _sender,\n        string calldata _funcName\n    ) external onlyOwner {\n        mapping(string => string) storage map = permittedContractMap[\n            _chainName\n        ];\n        map[_funcName] = _sender;\n    }\n\n    /**\n     * This verify method will be invoked by the CrossChain contract automatically, ensure that only registered contract(registerSourceContract) calls are allowed\n     * @param _chainName - chain name of cross chain message\n     * @param _funcName - contract action name of cross chain message\n     * @param _sender - cross chain message sender\n     */\n    //  Will be deprecated soon\n    function verify(\n        string calldata _chainName,\n        string calldata _funcName,\n        string calldata _sender\n    ) public view virtual returns (bool) {\n        mapping(string => string) storage map = permittedContractMap[\n            _chainName\n        ];\n        string storage sender = map[_funcName];\n        require(\n            keccak256(bytes(sender)) == keccak256(bytes(_sender)),\n            \"Sender does not match\"\n        );\n        return true;\n    }\n}\n",
  "sourcePath": "/home/george/program/dante/solidity-contract-template/contracts/GreetingAdvanced.sol",
  "compiler": {
    "name": "solc",
    "version": "0.8.10+commit.fc410830.Emscripten.clang"
  },
  "schemaVersion": "3.4.6",
  "updatedAt": "2022-03-23T09:49:53.391Z",
  "networkType": "ethereum",
  "devdoc": {
    "kind": "dev",
    "methods": {
      "crossChainCallback(bytes)": {
        "params": {
          "_data": "- accumulating result"
        }
      },
      "getMessageABI(string,string,string)": {
        "params": {
          "_destnChainName": "- destination chain name",
          "_destnContractName": "- destination contract name",
          "_funcName": "- destination contract function name"
        }
      },
      "owner()": {
        "details": "Returns the address of the current owner."
      },
      "receiveComputeTask(uint256[])": {
        "params": {
          "_nums": "- nums to be accumulated"
        }
      },
      "registerContractABI(string,string)": {
        "params": {
          "_contractABI": "- contract action abi",
          "_funcName": "- contract action name"
        }
      },
      "registerDataABI(string,string,string,string)": {
        "params": {
          "_dataAbi": "- data abi",
          "_destnChainName": "- destination chain name",
          "_destnContractName": "- destination contract name",
          "_funcName": "- destination contract function name"
        }
      },
      "registerDestnContract(string,string,string,string)": {
        "params": {
          "_contractAddress": "- destination contract address",
          "_contractFuncName": "- contract function name",
          "_funcName": "- function name to be called",
          "_toChain": "- destination chain name"
        }
      },
      "registerMessageABI(string,string,string,string,string)": {
        "params": {
          "_destnChainName": "- destination chain name",
          "_destnContractName": "- destination contract name",
          "_funcName": "- destination contract function name",
          "_paramName": "- action param name",
          "_paramType": "- action param types"
        }
      },
      "registerPermittedContract(string,string,string)": {
        "params": {
          "_chainName": "- from chain name",
          "_funcName": "- action name which allowed to be invoked",
          "_sender": "- sender of cross chain message"
        }
      },
      "renounceOwnership()": {
        "details": "Leaves the contract without owner. It will not be possible to call `onlyOwner` functions anymore. Can only be called by the current owner. NOTE: Renouncing ownership will leave the contract without an owner, thereby removing any functionality that is only available to the owner."
      },
      "sendComputeTask(string,uint256[])": {
        "params": {
          "_nums": "- nums to be accumulated",
          "_toChain": "- to chain name"
        }
      },
      "setCrossChainContract(address)": {
        "params": {
          "_address": "- cross chain contract address"
        }
      },
      "transferOwnership(address)": {
        "details": "Transfers ownership of the contract to a new account (`newOwner`). Can only be called by the current owner."
      },
      "verify(string,string,string)": {
        "params": {
          "_chainName": "- chain name of cross chain message",
          "_funcName": "- contract action name of cross chain message",
          "_sender": "- cross chain message sender"
        }
      }
    },
    "version": 1
  },
  "userdoc": {
    "kind": "user",
    "methods": {
      "crossChainCallback(bytes)": {
        "notice": "Receives outsourcing computing result"
      },
      "getDataAbi()": {
        "notice": "Get data abi of current message"
      },
      "getMessageABI(string,string,string)": {
        "notice": "Get Registered message ABI to encode/decode message"
      },
      "receiveComputeTask(uint256[])": {
        "notice": "Receives outsourcing computing task from other chain"
      },
      "registerContractABI(string,string)": {
        "notice": "contract ABI used to encode/decode messages sent to this contract"
      },
      "registerDataABI(string,string,string,string)": {
        "notice": "data ABI used to decode data responded by other chain"
      },
      "registerDestnContract(string,string,string,string)": {
        "notice": "Register destination contract info"
      },
      "registerMessageABI(string,string,string,string,string)": {
        "notice": "message ABI used to encode/decode messages sent from this contract"
      },
      "registerPermittedContract(string,string,string)": {
        "notice": "Authorize contracts of other chains to call the functions of this contract"
      },
      "sendComputeTask(string,uint256[])": {
        "notice": "Send outsourcing computing task to other chain"
      },
      "setCrossChainContract(address)": {
        "notice": "Set cross chain contract"
      },
      "verify(string,string,string)": {
        "notice": "This verify method will be invoked by the CrossChain contract automatically, ensure that only registered contract(registerSourceContract) calls are allowed"
      }
    },
    "version": 1
  }
}