{
  "contractName": "GreetingAdvanced",
  "abi": [
    {
      "anonymous": false,
      "inputs": [
        {
          "indexed": true,
          "internalType": "address",
          "name": "previousOwner",
          "type": "address"
        },
        {
          "indexed": true,
          "internalType": "address",
          "name": "newOwner",
          "type": "address"
        }
      ],
      "name": "OwnershipTransferred",
      "type": "event"
    },
    {
      "inputs": [
        {
          "internalType": "bytes32",
          "name": "",
          "type": "bytes32"
        }
      ],
      "name": "callbackAbis",
      "outputs": [
        {
          "internalType": "string",
          "name": "",
          "type": "string"
        }
      ],
      "stateMutability": "view",
      "type": "function",
      "constant": true
    },
    {
      "inputs": [
        {
          "internalType": "string",
          "name": "",
          "type": "string"
        }
      ],
      "name": "contractABIMap",
      "outputs": [
        {
          "internalType": "string",
          "name": "",
          "type": "string"
        }
      ],
      "stateMutability": "view",
      "type": "function",
      "constant": true
    },
    {
      "inputs": [],
      "name": "crossChainContract",
      "outputs": [
        {
          "internalType": "contract ICrossChain",
          "name": "",
          "type": "address"
        }
      ],
      "stateMutability": "view",
      "type": "function",
      "constant": true
    },
    {
      "inputs": [
        {
          "internalType": "string",
          "name": "",
          "type": "string"
        },
        {
          "internalType": "string",
          "name": "",
          "type": "string"
        }
      ],
      "name": "destnContractMap",
      "outputs": [
        {
          "internalType": "string",
          "name": "contractAddress",
          "type": "string"
        },
        {
          "internalType": "string",
          "name": "funcName",
          "type": "string"
        },
        {
          "internalType": "bool",
          "name": "used",
          "type": "bool"
        }
      ],
      "stateMutability": "view",
      "type": "function",
      "constant": true
    },
    {
      "inputs": [],
      "name": "getContext",
      "outputs": [
        {
          "components": [
            {
              "internalType": "uint256",
              "name": "id",
              "type": "uint256"
            },
            {
              "internalType": "string",
              "name": "fromChain",
              "type": "string"
            },
            {
              "internalType": "string",
              "name": "sender",
              "type": "string"
            },
            {
              "internalType": "string",
              "name": "signer",
              "type": "string"
            },
            {
              "components": [
                {
                  "internalType": "uint8",
                  "name": "reveal",
                  "type": "uint8"
                }
              ],
              "internalType": "struct SQOS",
              "name": "sqos",
              "type": "tuple"
            },
            {
              "internalType": "address",
              "name": "contractAddress",
              "type": "address"
            },
            {
              "internalType": "string",
              "name": "action",
              "type": "string"
            },
            {
              "components": [
                {
                  "internalType": "uint8",
                  "name": "resType",
                  "type": "uint8"
                },
                {
                  "internalType": "uint256",
                  "name": "id",
                  "type": "uint256"
                }
              ],
              "internalType": "struct Response",
              "name": "response",
              "type": "tuple"
            }
          ],
          "internalType": "struct SimplifiedMessage",
          "name": "",
          "type": "tuple"
        }
      ],
      "stateMutability": "view",
      "type": "function",
      "constant": true
    },
    {
      "inputs": [
        {
          "internalType": "string",
          "name": "_destnChainName",
          "type": "string"
        },
        {
          "internalType": "string",
          "name": "_destnContractName",
          "type": "string"
        },
        {
          "internalType": "string",
          "name": "_funcName",
          "type": "string"
        }
      ],
      "name": "getMessageABI",
      "outputs": [
        {
          "components": [
            {
              "internalType": "string",
              "name": "parametertypes",
              "type": "string"
            },
            {
              "internalType": "string",
              "name": "parameterNames",
              "type": "string"
            }
          ],
          "internalType": "struct ContractBase.MessageABI",
          "name": "",
          "type": "tuple"
        }
      ],
      "stateMutability": "view",
      "type": "function",
      "constant": true
    },
    {
      "inputs": [
        {
          "internalType": "bytes",
          "name": "",
          "type": "bytes"
        }
      ],
      "name": "messageABIMap",
      "outputs": [
        {
          "internalType": "string",
          "name": "parametertypes",
          "type": "string"
        },
        {
          "internalType": "string",
          "name": "parameterNames",
          "type": "string"
        }
      ],
      "stateMutability": "view",
      "type": "function",
      "constant": true
    },
    {
      "inputs": [],
      "name": "ocResult",
      "outputs": [
        {
          "internalType": "uint256",
          "name": "",
          "type": "uint256"
        }
      ],
      "stateMutability": "view",
      "type": "function",
      "constant": true
    },
    {
      "inputs": [],
      "name": "owner",
      "outputs": [
        {
          "internalType": "address",
          "name": "",
          "type": "address"
        }
      ],
      "stateMutability": "view",
      "type": "function",
      "constant": true
    },
    {
      "inputs": [
        {
          "internalType": "string",
          "name": "",
          "type": "string"
        },
        {
          "internalType": "string",
          "name": "",
          "type": "string"
        }
      ],
      "name": "permittedContractMap",
      "outputs": [
        {
          "internalType": "string",
          "name": "",
          "type": "string"
        }
      ],
      "stateMutability": "view",
      "type": "function",
      "constant": true
    },
    {
      "inputs": [
        {
          "internalType": "string",
          "name": "_destnChainName",
          "type": "string"
        },
        {
          "internalType": "string",
          "name": "_destnContractName",
          "type": "string"
        },
        {
          "internalType": "string",
          "name": "_funcName",
          "type": "string"
        },
        {
          "internalType": "string",
          "name": "_callbackAbi",
          "type": "string"
        }
      ],
      "name": "registerCallbackAbi",
      "outputs": [],
      "stateMutability": "nonpayable",
      "type": "function"
    },
    {
      "inputs": [
        {
          "internalType": "string",
          "name": "_funcName",
          "type": "string"
        },
        {
          "internalType": "string",
          "name": "_contractABI",
          "type": "string"
        }
      ],
      "name": "registerContractABI",
      "outputs": [],
      "stateMutability": "nonpayable",
      "type": "function"
    },
    {
      "inputs": [
        {
          "internalType": "string",
          "name": "_destnChainName",
          "type": "string"
        },
        {
          "internalType": "string",
          "name": "_destnContractName",
          "type": "string"
        },
        {
          "internalType": "string",
          "name": "_funcName",
          "type": "string"
        },
        {
          "internalType": "string",
          "name": "_paramType",
          "type": "string"
        },
        {
          "internalType": "string",
          "name": "_paramName",
          "type": "string"
        }
      ],
      "name": "registerMessageABI",
      "outputs": [],
      "stateMutability": "nonpayable",
      "type": "function"
    },
    {
      "inputs": [],
      "name": "renounceOwnership",
      "outputs": [],
      "stateMutability": "nonpayable",
      "type": "function"
    },
    {
      "inputs": [
        {
          "internalType": "address",
          "name": "_address",
          "type": "address"
        }
      ],
      "name": "setCrossChainContract",
      "outputs": [],
      "stateMutability": "nonpayable",
      "type": "function"
    },
    {
      "inputs": [
        {
          "internalType": "address",
          "name": "newOwner",
          "type": "address"
        }
      ],
      "name": "transferOwnership",
      "outputs": [],
      "stateMutability": "nonpayable",
      "type": "function"
    },
    {
      "inputs": [
        {
          "internalType": "string",
          "name": "_toChain",
          "type": "string"
        },
        {
          "internalType": "uint256[]",
          "name": "_nums",
          "type": "uint256[]"
        }
      ],
      "name": "sendComputeTask",
      "outputs": [],
      "stateMutability": "nonpayable",
      "type": "function"
    },
    {
      "inputs": [
        {
          "internalType": "uint256[]",
          "name": "_nums",
          "type": "uint256[]"
        }
      ],
      "name": "receiveComputeTask",
      "outputs": [],
      "stateMutability": "nonpayable",
      "type": "function"
    },
    {
      "inputs": [
        {
          "internalType": "uint256",
          "name": "_result",
          "type": "uint256"
        }
      ],
      "name": "receiveComputeResult",
      "outputs": [],
      "stateMutability": "nonpayable",
      "type": "function"
    },
    {
      "inputs": [
        {
          "internalType": "string",
          "name": "_funcName",
          "type": "string"
        },
        {
          "internalType": "string",
          "name": "_toChain",
          "type": "string"
        },
        {
          "internalType": "string",
          "name": "_contractAddress",
          "type": "string"
        },
        {
          "internalType": "string",
          "name": "_contractFuncName",
          "type": "string"
        }
      ],
      "name": "registerDestnContract",
      "outputs": [],
      "stateMutability": "nonpayable",
      "type": "function"
    },
    {
      "inputs": [
        {
          "internalType": "string",
          "name": "_chainName",
          "type": "string"
        },
        {
          "internalType": "string",
          "name": "_sender",
          "type": "string"
        },
        {
          "internalType": "string",
          "name": "_funcName",
          "type": "string"
        }
      ],
      "name": "registerPermittedContract",
      "outputs": [],
      "stateMutability": "nonpayable",
      "type": "function"
    },
    {
      "inputs": [
        {
          "internalType": "string",
          "name": "_chainName",
          "type": "string"
        },
        {
          "internalType": "string",
          "name": "_funcName",
          "type": "string"
        },
        {
          "internalType": "string",
          "name": "_sender",
          "type": "string"
        }
      ],
      "name": "verify",
      "outputs": [
        {
          "internalType": "bool",
          "name": "",
          "type": "bool"
        }
      ],
      "stateMutability": "view",
      "type": "function",
      "constant": true
    }
  ],
  "bytecode": "0x608060405234801561001057600080fd5b5061001a3361001f565b61006f565b600080546001600160a01b038381166001600160a01b0319831681178455604051919092169283917f8be0079c531659141344cd1fd0a4f28419497f9722a3daafe3b4186f6b6457e09190a35050565b61232d8061007e6000396000f3fe608060405234801561001057600080fd5b50600436106101425760003560e01c8063955a5ba4116100b8578063bb45acd91161007c578063bb45acd9146102c6578063d4692703146102d9578063dbc90de1146102ec578063f2fde38b146102ff578063f7d9623714610312578063ff96254b1461032557600080fd5b8063955a5ba414610263578063a24cbdf314610276578063a6b2b83014610289578063b02fe88f1461029c578063babe5dd6146102b357600080fd5b80635fe78c6c1161010a5780635fe78c6c146101ce57806366e1f820146101ee578063715018a61461020157806379f6793c1461020957806380899bba1461021c5780638da5cb5b1461023e57600080fd5b8063127f0f071461014757806318d72b54146101655780632639c4231461017a5780633ad16b7a1461019b5780634c236819146101bb575b600080fd5b61014f610348565b60405161015c919061166b565b60405180910390f35b610178610173366004611759565b6103d0565b005b61018d610188366004611851565b610425565b60405161015c9291906118a1565b6101ae6101a9366004611917565b61055c565b60405161015c91906119b0565b6101786101c9366004611a2d565b6106f0565b6101e16101dc366004611a8e565b6109a2565b60405161015c9190611ac2565b6101786101fc366004611ad5565b610a47565b610178610ad5565b610178610217366004611917565b610b0b565b61022f61022a366004611b40565b610b86565b60405161015c93929190611ba3565b6000546001600160a01b03165b6040516001600160a01b03909116815260200161015c565b6101e1610271366004611bdb565b610ce3565b610178610284366004611bdb565b600755565b610178610297366004611bf4565b610cfc565b6102a560075481565b60405190815260200161015c565b6101786102c1366004611c53565b610f22565b6101e16102d4366004611b40565b610fc8565b6101786102e7366004611d16565b611009565b60035461024b906001600160a01b031681565b61017861030d366004611759565b61113c565b610178610320366004611c53565b6111d7565b610338610333366004611917565b61125c565b604051901515815260200161015c565b610350611480565b600360009054906101000a90046001600160a01b03166001600160a01b0316639af7a48c6040518163ffffffff1660e01b8152600401600060405180830381865afa1580156103a3573d6000803e3d6000fd5b505050506040513d6000823e601f3d908101601f191682016040526103cb9190810190611f0d565b905090565b6000546001600160a01b031633146104035760405162461bcd60e51b81526004016103fa90612025565b60405180910390fd5b600380546001600160a01b0319166001600160a01b0392909216919091179055565b805160208183018101805160018252928201919093012091528054819061044b9061205a565b80601f01602080910402602001604051908101604052809291908181526020018280546104779061205a565b80156104c45780601f10610499576101008083540402835291602001916104c4565b820191906000526020600020905b8154815290600101906020018083116104a757829003601f168201915b5050505050908060010180546104d99061205a565b80601f01602080910402602001604051908101604052809291908181526020018280546105059061205a565b80156105525780601f1061052757610100808354040283529160200191610552565b820191906000526020600020905b81548152906001019060200180831161053557829003601f168201915b5050505050905082565b6040805180820190915260608082526020820152600187878787878760405160200161058d96959493929190612095565b60408051601f19818403018152908290526105a7916120c5565b90815260200160405180910390206040518060400160405290816000820180546105d09061205a565b80601f01602080910402602001604051908101604052809291908181526020018280546105fc9061205a565b80156106495780601f1061061e57610100808354040283529160200191610649565b820191906000526020600020905b81548152906001019060200180831161062c57829003601f168201915b505050505081526020016001820180546106629061205a565b80601f016020809104026020016040519081016040528092919081815260200182805461068e9061205a565b80156106db5780601f106106b0576101008083540402835291602001916106db565b820191906000526020600020905b8154815290600101906020018083116106be57829003601f168201915b50505050508152505090509695505050505050565b6003546001600160a01b0316331461074a5760405162461bcd60e51b815260206004820181905260248201527f4c6f636b65723a2063616c6c6572206973206e6f742043726f7373436861696e60448201526064016103fa565b6000805b8281101561078e57838382818110610768576107686120e1565b905060200201358261077a919061210d565b91508061078681612125565b91505061074e565b506000610799610348565b90506000600582602001516040516107b191906120c5565b9081526040519081900360200181207163726f7373436861696e43616c6c6261636b60701b825291506000908290601201908152604051908190036020019020600281015490915060ff166108405760405162461bcd60e51b81526020600482015260156024820152741858dd1a5bdb881b9bdd081c9959da5cdd195c9959605a1b60448201526064016103fa565b60008460405160200161085591815260200190565b60408051601f198184030181526020838101909252600083529086015184549193506109989185906108869061205a565b80601f01602080910402602001604051908101604052809291908181526020018280546108b29061205a565b80156108ff5780601f106108d4576101008083540402835291602001916108ff565b820191906000526020600020905b8154815290600101906020018083116108e257829003601f168201915b50505050508560010180546109139061205a565b80601f016020809104026020016040519081016040528092919081815260200182805461093f9061205a565b801561098c5780601f106109615761010080835404028352916020019161098c565b820191906000526020600020905b81548152906001019060200180831161096f57829003601f168201915b50505050508486611324565b5050505050505050565b8051602081830181018051600282529282019190930120915280546109c69061205a565b80601f01602080910402602001604051908101604052809291908181526020018280546109f29061205a565b8015610a3f5780601f10610a1457610100808354040283529160200191610a3f565b820191906000526020600020905b815481529060010190602001808311610a2257829003601f168201915b505050505081565b6000546001600160a01b03163314610a715760405162461bcd60e51b81526004016103fa90612025565b6003546040516321c0551d60e11b81526001600160a01b0390911690634380aa3a90610aa7908790879087908790600401612169565b600060405180830381600087803b158015610ac157600080fd5b505af1158015610998573d6000803e3d6000fd5b6000546001600160a01b03163314610aff5760405162461bcd60e51b81526004016103fa90612025565b610b0960006113ab565b565b6000546001600160a01b03163314610b355760405162461bcd60e51b81526004016103fa90612025565b600060068787604051610b4992919061219b565b908152602001604051809103902090508484828585604051610b6c92919061219b565b908152604051908190036020019020610998929091611502565b81516020818401810180516005825292820194820194909420919093528151808301840180519281529084019290930191909120915280548190610bc99061205a565b80601f0160208091040260200160405190810160405280929190818152602001828054610bf59061205a565b8015610c425780601f10610c1757610100808354040283529160200191610c42565b820191906000526020600020905b815481529060010190602001808311610c2557829003601f168201915b505050505090806001018054610c579061205a565b80601f0160208091040260200160405190810160405280929190818152602001828054610c839061205a565b8015610cd05780601f10610ca557610100808354040283529160200191610cd0565b820191906000526020600020905b815481529060010190602001808311610cb357829003601f168201915b5050506002909301549192505060ff1683565b600460205260009081526040902080546109c69061205a565b600060058585604051610d1092919061219b565b9081526040519081900360200181207172656365697665436f6d707574655461736b60701b825291506000908290601201908152604051908190036020019020600281015490915060ff16610d9f5760405162461bcd60e51b81526020600482015260156024820152741858dd1a5bdb881b9bdd081c9959da5cdd195c9959605a1b60448201526064016103fa565b60008484604051602001610db49291906121ab565b60408051601f1981840301815260208381018352600084528251601f8b0182900482028101820190935289835290935061099891908a908a9081908401838280828437600092019190915250508654879250610e10915061205a565b80601f0160208091040260200160405190810160405280929190818152602001828054610e3c9061205a565b8015610e895780601f10610e5e57610100808354040283529160200191610e89565b820191906000526020600020905b815481529060010190602001808311610e6c57829003601f168201915b5050505050856001018054610e9d9061205a565b80601f0160208091040260200160405190810160405280929190818152602001828054610ec99061205a565b8015610f165780601f10610eeb57610100808354040283529160200191610f16565b820191906000526020600020905b815481529060010190602001808311610ef957829003601f168201915b505050505084866113fb565b6000546001600160a01b03163314610f4c5760405162461bcd60e51b81526004016103fa90612025565b600060058787604051610f6092919061219b565b908152602001604051809103902090506000818a8a604051610f8392919061219b565b9081526040519081900360200190209050610f9f818787611502565b50610fae600182018585611502565b50600201805460ff19166001179055505050505050505050565b81516020818401810180516006825292820194820194909420919093528151808301840180519281529084019290930191909120915280546109c69061205a565b6000546001600160a01b031633146110335760405162461bcd60e51b81526004016103fa90612025565b6040805160606020601f8701819004028201810183529181018581526000928291908890889081908501838280828437600092019190915250505090825250604080516020601f870181900481028201810190925285815291810191908690869081908401838280828437600092019190915250505091525060405190915081906001906110cf908e908e908e908e908e908e90602001612095565b60408051601f19818403018152908290526110e9916120c5565b90815260200160405180910390206000820151816000019080519060200190611113929190611586565b50602082810151805161112c9260018501920190611586565b5050505050505050505050505050565b6000546001600160a01b031633146111665760405162461bcd60e51b81526004016103fa90612025565b6001600160a01b0381166111cb5760405162461bcd60e51b815260206004820152602660248201527f4f776e61626c653a206e6577206f776e657220697320746865207a65726f206160448201526564647265737360d01b60648201526084016103fa565b6111d4816113ab565b50565b6000546001600160a01b031633146112015760405162461bcd60e51b81526004016103fa90612025565b600088888888888860405160200161121e96959493929190612095565b60408051601f198184030181529181528151602092830120600081815260049093529120909150611250908484611502565b50505050505050505050565b6000806006888860405161127192919061219b565b90815260200160405180910390209050600081878760405161129492919061219b565b90815260405190819003602001812091506112b2908690869061219b565b6040518091039020816040516112c891906121e7565b6040518091039020146113155760405162461bcd60e51b81526020600482015260156024820152740a6cadcc8cae440c8decae640dcdee840dac2e8c6d605b1b60448201526064016103fa565b50600198975050505050505050565b600061132e610348565b60035460408051808201825260028152835160208201529051633ec320f960e11b81529293506001600160a01b0390911691637d8641f29161137d918a918a918a918a918a9190600401612283565b600060405180830381600087803b15801561139757600080fd5b505af1158015611250573d6000803e3d6000fd5b600080546001600160a01b038381166001600160a01b0319831681178455604051919092169283917f8be0079c531659141344cd1fd0a4f28419497f9722a3daafe3b4186f6b6457e09190a35050565b60035460408051808201825260018152600060208201529051633ec320f960e11b81526001600160a01b0390921691637d8641f291611447918991899189918991899190600401612283565b600060405180830381600087803b15801561146157600080fd5b505af1158015611475573d6000803e3d6000fd5b505050505050505050565b604051806101000160405280600081526020016060815260200160608152602001606081526020016114c16040518060200160405280600060ff1681525090565b815260200160006001600160a01b03168152602001606081526020016114fd6040518060400160405280600060ff168152602001600081525090565b905290565b82805461150e9061205a565b90600052602060002090601f0160209004810192826115305760008555611576565b82601f106115495782800160ff19823516178555611576565b82800160010185558215611576579182015b8281111561157657823582559160200191906001019061155b565b506115829291506115fa565b5090565b8280546115929061205a565b90600052602060002090601f0160209004810192826115b45760008555611576565b82601f106115cd57805160ff1916838001178555611576565b82800160010185558215611576579182015b828111156115765782518255916020019190600101906115df565b5b8082111561158257600081556001016115fb565b60005b8381101561162a578181015183820152602001611612565b83811115611639576000848401525b50505050565b6000815180845261165781602086016020860161160f565b601f01601f19169290920160200192915050565b602081528151602082015260006020830151610120604084015261169361014084018261163f565b90506040840151601f19808584030160608601526116b1838361163f565b925060608601519150808584030160808601526116ce838361163f565b9250608086015191506116e760a08601835160ff169052565b60a08601516001600160a01b03811660c0870152915060c08601519150808584030160e086015250611719828261163f565b91505060e084015161173c610100850182805160ff168252602090810151910152565b509392505050565b6001600160a01b03811681146111d457600080fd5b60006020828403121561176b57600080fd5b813561177681611744565b9392505050565b634e487b7160e01b600052604160045260246000fd5b60405161010081016001600160401b03811182821017156117b6576117b661177d565b60405290565b604051601f8201601f191681016001600160401b03811182821017156117e4576117e461177d565b604052919050565b60006001600160401b038211156118055761180561177d565b50601f01601f191660200190565b6000611826611821846117ec565b6117bc565b905082815283838301111561183a57600080fd5b828260208301376000602084830101529392505050565b60006020828403121561186357600080fd5b81356001600160401b0381111561187957600080fd5b8201601f8101841361188a57600080fd5b61189984823560208401611813565b949350505050565b6040815260006118b4604083018561163f565b82810360208401526118c6818561163f565b95945050505050565b60008083601f8401126118e157600080fd5b5081356001600160401b038111156118f857600080fd5b60208301915083602082850101111561191057600080fd5b9250929050565b6000806000806000806060878903121561193057600080fd5b86356001600160401b038082111561194757600080fd5b6119538a838b016118cf565b9098509650602089013591508082111561196c57600080fd5b6119788a838b016118cf565b9096509450604089013591508082111561199157600080fd5b5061199e89828a016118cf565b979a9699509497509295939492505050565b6020815260008251604060208401526119cc606084018261163f565b90506020840151601f198483030160408501526118c6828261163f565b60008083601f8401126119fb57600080fd5b5081356001600160401b03811115611a1257600080fd5b6020830191508360208260051b850101111561191057600080fd5b60008060208385031215611a4057600080fd5b82356001600160401b03811115611a5657600080fd5b611a62858286016119e9565b90969095509350505050565b600082601f830112611a7f57600080fd5b61177683833560208501611813565b600060208284031215611aa057600080fd5b81356001600160401b03811115611ab657600080fd5b61189984828501611a6e565b602081526000611776602083018461163f565b60008060008060408587031215611aeb57600080fd5b84356001600160401b0380821115611b0257600080fd5b611b0e888389016118cf565b90965094506020870135915080821115611b2757600080fd5b50611b34878288016118cf565b95989497509550505050565b60008060408385031215611b5357600080fd5b82356001600160401b0380821115611b6a57600080fd5b611b7686838701611a6e565b93506020850135915080821115611b8c57600080fd5b50611b9985828601611a6e565b9150509250929050565b606081526000611bb6606083018661163f565b8281036020840152611bc8818661163f565b9150508215156040830152949350505050565b600060208284031215611bed57600080fd5b5035919050565b60008060008060408587031215611c0a57600080fd5b84356001600160401b0380821115611c2157600080fd5b611c2d888389016118cf565b90965094506020870135915080821115611c4657600080fd5b50611b34878288016119e9565b6000806000806000806000806080898b031215611c6f57600080fd5b88356001600160401b0380821115611c8657600080fd5b611c928c838d016118cf565b909a50985060208b0135915080821115611cab57600080fd5b611cb78c838d016118cf565b909850965060408b0135915080821115611cd057600080fd5b611cdc8c838d016118cf565b909650945060608b0135915080821115611cf557600080fd5b50611d028b828c016118cf565b999c989b5096995094979396929594505050565b60008060008060008060008060008060a08b8d031215611d3557600080fd5b8a356001600160401b0380821115611d4c57600080fd5b611d588e838f016118cf565b909c509a5060208d0135915080821115611d7157600080fd5b611d7d8e838f016118cf565b909a50985060408d0135915080821115611d9657600080fd5b611da28e838f016118cf565b909850965060608d0135915080821115611dbb57600080fd5b611dc78e838f016118cf565b909650945060808d0135915080821115611de057600080fd5b50611ded8d828e016118cf565b915080935050809150509295989b9194979a5092959850565b600082601f830112611e1757600080fd5b8151611e25611821826117ec565b818152846020838601011115611e3a57600080fd5b61189982602083016020870161160f565b805160ff81168114611e5c57600080fd5b919050565b600060208284031215611e7357600080fd5b604051602081018181106001600160401b0382111715611e9557611e9561177d565b604052905080611ea483611e4b565b905292915050565b8051611e5c81611744565b600060408284031215611ec957600080fd5b604051604081018181106001600160401b0382111715611eeb57611eeb61177d565b604052905080611efa83611e4b565b8152602083015160208201525092915050565b600060208284031215611f1f57600080fd5b81516001600160401b0380821115611f3657600080fd5b908301906101208286031215611f4b57600080fd5b611f53611793565b82518152602083015182811115611f6957600080fd5b611f7587828601611e06565b602083015250604083015182811115611f8d57600080fd5b611f9987828601611e06565b604083015250606083015182811115611fb157600080fd5b611fbd87828601611e06565b606083015250611fd08660808501611e61565b6080820152611fe160a08401611eac565b60a082015260c083015182811115611ff857600080fd5b61200487828601611e06565b60c0830152506120178660e08501611eb7565b60e082015295945050505050565b6020808252818101527f4f776e61626c653a2063616c6c6572206973206e6f7420746865206f776e6572604082015260600190565b600181811c9082168061206e57607f821691505b6020821081141561208f57634e487b7160e01b600052602260045260246000fd5b50919050565b85878237600086820160008152858782376000908601908152838582376000930192835250909695505050505050565b600082516120d781846020870161160f565b9190910192915050565b634e487b7160e01b600052603260045260246000fd5b634e487b7160e01b600052601160045260246000fd5b60008219821115612120576121206120f7565b500190565b6000600019821415612139576121396120f7565b5060010190565b81835281816020850137506000828201602090810191909152601f909101601f19169091010190565b60408152600061217d604083018688612140565b8281036020840152612190818587612140565b979650505050505050565b8183823760009101908152919050565b6020808252810182905260006001600160fb1b038311156121cb57600080fd5b8260051b80856040850137600092016040019182525092915050565b600080835481600182811c91508083168061220357607f831692505b602080841082141561222357634e487b7160e01b86526022600452602486fd5b818015612237576001811461224857612275565b60ff19861689528489019650612275565b60008a81526020902060005b8681101561226d5781548b820152908501908301612254565b505084890196505b509498975050505050505050565b60e08152600061229660e083018961163f565b82810360208401526122a8818961163f565b905082810360408401526122bc818861163f565b905060ff865116606084015282810360808401526122da818661163f565b845160ff1660a0850152602085015160c08501529150612190905056fea26469706673582212201f40b97ec70b402c1f7179c50156c2e808e3cb4210b90cac9407d5d1fdf15cbe64736f6c634300080a0033",
  "immutableReferences": {},
  "source": "// SPDX-License-Identifier: MIT\npragma solidity >=0.8.0 <0.9.0;\n\nimport \"@openzeppelin/contracts/access/Ownable.sol\";\nimport \"./CrossChain/ContractAdvanced.sol\";\n\n// `Greetings` is an example of multi-chain services with necessary implementations in `ContractBase`, without which the user defined contract cannot work.\n// And besides, `registerDestnContract` and `registerPermittedContract` are templete implementations make the management of some user defined informations easier.\ncontract GreetingAdvanced is ContractAdvanced {\n    // Destination contract info\n    struct DestnContract {\n        string contractAddress; // destination contract address\n        string funcName; // destination contract action name\n        bool used;\n    }\n\n    // Cross-chain destination contract map\n    mapping(string => mapping(string => DestnContract)) public destnContractMap;\n\n    // Cross-chain permitted contract map\n    mapping(string => mapping(string => string)) public permittedContractMap;\n\n    // Outsourcing computing result\n    uint256 public ocResult;\n\n    // Store context of cross chain contract\n    // SimplifiedMessage public context;\n    \n    /**\n     * Send outsourcing computing task to other chain\n     * @param _toChain - to chain name\n     * @param _nums - nums to be accumulated\n     */\n    function sendComputeTask(string calldata _toChain, uint[] calldata _nums) external {\n        mapping(string => DestnContract) storage map = destnContractMap[_toChain];\n        DestnContract storage destnContract = map[\"receiveComputeTask\"];\n        require(destnContract.used, \"action not registered\");\n\n        bytes memory data = abi.encode(_nums);\n        SQOS memory sqos = SQOS(0);\n        crossChainCall(\n            _toChain,\n            destnContract.contractAddress,\n            destnContract.funcName,\n            sqos,\n            data\n        );\n    }\n\n    /**\n     * Receives outsourcing computing task from other chain\n     * @param _nums - nums to be accumulated\n     */\n    function receiveComputeTask(uint[] calldata _nums) external {\n        require(\n            msg.sender == address(crossChainContract),\n            \"Locker: caller is not CrossChain\"\n        );\n        \n        // compute\n        uint ret = 0;\n        for (uint i = 0; i < _nums.length; i++) {\n            ret += _nums[i];\n        }\n\n        SimplifiedMessage memory context = getContext();\n\n        // send result back\n        mapping(string => DestnContract) storage map = destnContractMap[context.fromChain];\n        DestnContract storage destnContract = map[\"crossChainCallback\"];\n        require(destnContract.used, \"action not registered\");\n\n        bytes memory data = abi.encode(ret);\n        SQOS memory sqos = SQOS(0);\n        crossChainRespond(context.fromChain, destnContract.contractAddress, destnContract.funcName, sqos, data);\n    }\n\n    /**\n     * Receives outsourcing computing result\n     * @param _result - accumulating result\n     */\n    function receiveComputeResult(uint _result) public {\n        ocResult = _result;\n    }\n\n    ///////////////////////////////////////////////\n    /////    Send messages to other chains   //////\n    ///////////////////////////////////////////////\n\n    /**\n     * Register destination contract info\n     * @param _funcName - function name to be called\n     * @param _toChain - destination chain name\n     * @param _contractAddress - destination contract address\n     * @param _contractFuncName - contract function name\n     */\n    function registerDestnContract(\n        string calldata _funcName,\n        string calldata _toChain,\n        string calldata _contractAddress,\n        string calldata _contractFuncName\n    ) external onlyOwner {\n        mapping(string => DestnContract) storage map = destnContractMap[_toChain];\n        DestnContract storage destnContract = map[_funcName];\n        destnContract.contractAddress = _contractAddress;\n        destnContract.funcName = _contractFuncName;\n        destnContract.used = true;\n    }\n\n    ///////////////////////////////////////////////\n    ///    Receive messages from other chains   ///\n    ///////////////////////////////////////////////\n\n    /**\n     * Authorize contracts of other chains to call the functions of this contract\n     * @param _chainName - from chain name\n     * @param _sender - sender of cross chain message\n     * @param _funcName - action name which allowed to be invoked\n     */\n    function registerPermittedContract(\n        string calldata _chainName,\n        string calldata _sender,\n        string calldata _funcName\n    ) external onlyOwner {\n        mapping(string => string) storage map = permittedContractMap[\n            _chainName\n        ];\n        map[_funcName] = _sender;\n    }\n\n    /**\n     * This verify method will be invoked by the CrossChain contract automatically, ensure that only registered contract(registerSourceContract) calls are allowed\n     * @param _chainName - chain name of cross chain message\n     * @param _funcName - contract action name of cross chain message\n     * @param _sender - cross chain message sender\n     */\n    //  Will be deprecated soon\n    function verify(\n        string calldata _chainName,\n        string calldata _funcName,\n        string calldata _sender\n    ) public view virtual returns (bool) {\n        mapping(string => string) storage map = permittedContractMap[\n            _chainName\n        ];\n        string storage sender = map[_funcName];\n        require(\n            keccak256(bytes(sender)) == keccak256(bytes(_sender)),\n            \"Sender does not match\"\n        );\n        return true;\n    }\n}\n",
  "sourcePath": "/home/george/program/dante/solidity-contract-template/contracts/GreetingAdvanced.sol",
  "compiler": {
    "name": "solc",
    "version": "0.8.10+commit.fc410830.Emscripten.clang"
  },
  "schemaVersion": "3.4.6",
  "updatedAt": "2022-03-25T03:36:28.321Z",
  "networkType": "ethereum",
  "devdoc": {
    "kind": "dev",
    "methods": {
      "getMessageABI(string,string,string)": {
        "params": {
          "_destnChainName": "- destination chain name",
          "_destnContractName": "- destination contract name",
          "_funcName": "- destination contract function name"
        }
      },
      "owner()": {
        "details": "Returns the address of the current owner."
      },
      "receiveComputeResult(uint256)": {
        "params": {
          "_result": "- accumulating result"
        }
      },
      "receiveComputeTask(uint256[])": {
        "params": {
          "_nums": "- nums to be accumulated"
        }
      },
      "registerCallbackAbi(string,string,string,string)": {
        "params": {
          "_callbackAbi": "- data abi",
          "_destnChainName": "- destination chain name",
          "_destnContractName": "- destination contract name",
          "_funcName": "- destination contract function name"
        }
      },
      "registerContractABI(string,string)": {
        "params": {
          "_contractABI": "- contract action abi",
          "_funcName": "- contract action name"
        }
      },
      "registerDestnContract(string,string,string,string)": {
        "params": {
          "_contractAddress": "- destination contract address",
          "_contractFuncName": "- contract function name",
          "_funcName": "- function name to be called",
          "_toChain": "- destination chain name"
        }
      },
      "registerMessageABI(string,string,string,string,string)": {
        "params": {
          "_destnChainName": "- destination chain name",
          "_destnContractName": "- destination contract name",
          "_funcName": "- destination contract function name",
          "_paramName": "- action param name",
          "_paramType": "- action param types"
        }
      },
      "registerPermittedContract(string,string,string)": {
        "params": {
          "_chainName": "- from chain name",
          "_funcName": "- action name which allowed to be invoked",
          "_sender": "- sender of cross chain message"
        }
      },
      "renounceOwnership()": {
        "details": "Leaves the contract without owner. It will not be possible to call `onlyOwner` functions anymore. Can only be called by the current owner. NOTE: Renouncing ownership will leave the contract without an owner, thereby removing any functionality that is only available to the owner."
      },
      "sendComputeTask(string,uint256[])": {
        "params": {
          "_nums": "- nums to be accumulated",
          "_toChain": "- to chain name"
        }
      },
      "setCrossChainContract(address)": {
        "params": {
          "_address": "- cross chain contract address"
        }
      },
      "transferOwnership(address)": {
        "details": "Transfers ownership of the contract to a new account (`newOwner`). Can only be called by the current owner."
      },
      "verify(string,string,string)": {
        "params": {
          "_chainName": "- chain name of cross chain message",
          "_funcName": "- contract action name of cross chain message",
          "_sender": "- cross chain message sender"
        }
      }
    },
    "version": 1
  },
  "userdoc": {
    "kind": "user",
    "methods": {
      "getMessageABI(string,string,string)": {
        "notice": "Get Registered message ABI to encode/decode message"
      },
      "receiveComputeResult(uint256)": {
        "notice": "Receives outsourcing computing result"
      },
      "receiveComputeTask(uint256[])": {
        "notice": "Receives outsourcing computing task from other chain"
      },
      "registerCallbackAbi(string,string,string,string)": {
        "notice": "Callback ABI used to decode data responded by other chain"
      },
      "registerContractABI(string,string)": {
        "notice": "contract ABI used to encode/decode messages sent to this contract"
      },
      "registerDestnContract(string,string,string,string)": {
        "notice": "Register destination contract info"
      },
      "registerMessageABI(string,string,string,string,string)": {
        "notice": "message ABI used to encode/decode messages sent from this contract"
      },
      "registerPermittedContract(string,string,string)": {
        "notice": "Authorize contracts of other chains to call the functions of this contract"
      },
      "sendComputeTask(string,uint256[])": {
        "notice": "Send outsourcing computing task to other chain"
      },
      "setCrossChainContract(address)": {
        "notice": "Set cross chain contract"
      },
      "verify(string,string,string)": {
        "notice": "This verify method will be invoked by the CrossChain contract automatically, ensure that only registered contract(registerSourceContract) calls are allowed"
      }
    },
    "version": 1
  }
}