{
  "contractName": "OCComputing",
  "abi": [
    {
      "anonymous": false,
      "inputs": [
        {
          "indexed": true,
          "internalType": "address",
          "name": "previousOwner",
          "type": "address"
        },
        {
          "indexed": true,
          "internalType": "address",
          "name": "newOwner",
          "type": "address"
        }
      ],
      "name": "OwnershipTransferred",
      "type": "event"
    },
    {
      "inputs": [
        {
          "internalType": "bytes32",
          "name": "",
          "type": "bytes32"
        }
      ],
      "name": "callbackAbis",
      "outputs": [
        {
          "internalType": "string",
          "name": "",
          "type": "string"
        }
      ],
      "stateMutability": "view",
      "type": "function",
      "constant": true
    },
    {
      "inputs": [
        {
          "internalType": "string",
          "name": "",
          "type": "string"
        }
      ],
      "name": "contractABIMap",
      "outputs": [
        {
          "internalType": "string",
          "name": "",
          "type": "string"
        }
      ],
      "stateMutability": "view",
      "type": "function",
      "constant": true
    },
    {
      "inputs": [],
      "name": "crossChainContract",
      "outputs": [
        {
          "internalType": "contract ICrossChain",
          "name": "",
          "type": "address"
        }
      ],
      "stateMutability": "view",
      "type": "function",
      "constant": true
    },
    {
      "inputs": [
        {
          "internalType": "string",
          "name": "",
          "type": "string"
        },
        {
          "internalType": "string",
          "name": "",
          "type": "string"
        }
      ],
      "name": "destnContractMap",
      "outputs": [
        {
          "internalType": "string",
          "name": "contractAddress",
          "type": "string"
        },
        {
          "internalType": "string",
          "name": "funcName",
          "type": "string"
        },
        {
          "internalType": "bool",
          "name": "used",
          "type": "bool"
        }
      ],
      "stateMutability": "view",
      "type": "function",
      "constant": true
    },
    {
      "inputs": [],
      "name": "getContext",
      "outputs": [
        {
          "components": [
            {
              "internalType": "uint256",
              "name": "id",
              "type": "uint256"
            },
            {
              "internalType": "string",
              "name": "fromChain",
              "type": "string"
            },
            {
              "internalType": "string",
              "name": "sender",
              "type": "string"
            },
            {
              "internalType": "string",
              "name": "signer",
              "type": "string"
            },
            {
              "components": [
                {
                  "internalType": "uint8",
                  "name": "reveal",
                  "type": "uint8"
                }
              ],
              "internalType": "struct SQOS",
              "name": "sqos",
              "type": "tuple"
            },
            {
              "internalType": "address",
              "name": "contractAddress",
              "type": "address"
            },
            {
              "internalType": "string",
              "name": "action",
              "type": "string"
            },
            {
              "components": [
                {
                  "internalType": "uint8",
                  "name": "resType",
                  "type": "uint8"
                },
                {
                  "internalType": "uint256",
                  "name": "id",
                  "type": "uint256"
                }
              ],
              "internalType": "struct Response",
              "name": "response",
              "type": "tuple"
            }
          ],
          "internalType": "struct SimplifiedMessage",
          "name": "",
          "type": "tuple"
        }
      ],
      "stateMutability": "view",
      "type": "function",
      "constant": true
    },
    {
      "inputs": [
        {
          "internalType": "string",
          "name": "_destnChainName",
          "type": "string"
        },
        {
          "internalType": "string",
          "name": "_destnContractName",
          "type": "string"
        },
        {
          "internalType": "string",
          "name": "_funcName",
          "type": "string"
        }
      ],
      "name": "getMessageABI",
      "outputs": [
        {
          "components": [
            {
              "internalType": "string",
              "name": "parametertypes",
              "type": "string"
            },
            {
              "internalType": "string",
              "name": "parameterNames",
              "type": "string"
            }
          ],
          "internalType": "struct ContractBase.MessageABI",
          "name": "",
          "type": "tuple"
        }
      ],
      "stateMutability": "view",
      "type": "function",
      "constant": true
    },
    {
      "inputs": [
        {
          "internalType": "bytes",
          "name": "",
          "type": "bytes"
        }
      ],
      "name": "messageABIMap",
      "outputs": [
        {
          "internalType": "string",
          "name": "parametertypes",
          "type": "string"
        },
        {
          "internalType": "string",
          "name": "parameterNames",
          "type": "string"
        }
      ],
      "stateMutability": "view",
      "type": "function",
      "constant": true
    },
    {
      "inputs": [],
      "name": "ocResult",
      "outputs": [
        {
          "internalType": "uint256",
          "name": "",
          "type": "uint256"
        }
      ],
      "stateMutability": "view",
      "type": "function",
      "constant": true
    },
    {
      "inputs": [],
      "name": "owner",
      "outputs": [
        {
          "internalType": "address",
          "name": "",
          "type": "address"
        }
      ],
      "stateMutability": "view",
      "type": "function",
      "constant": true
    },
    {
      "inputs": [
        {
          "internalType": "string",
          "name": "",
          "type": "string"
        },
        {
          "internalType": "string",
          "name": "",
          "type": "string"
        }
      ],
      "name": "permittedContractMap",
      "outputs": [
        {
          "internalType": "string",
          "name": "",
          "type": "string"
        }
      ],
      "stateMutability": "view",
      "type": "function",
      "constant": true
    },
    {
      "inputs": [
        {
          "internalType": "string",
          "name": "_destnChainName",
          "type": "string"
        },
        {
          "internalType": "string",
          "name": "_destnContractName",
          "type": "string"
        },
        {
          "internalType": "string",
          "name": "_funcName",
          "type": "string"
        },
        {
          "internalType": "string",
          "name": "_callbackAbi",
          "type": "string"
        }
      ],
      "name": "registerCallbackAbi",
      "outputs": [],
      "stateMutability": "nonpayable",
      "type": "function"
    },
    {
      "inputs": [
        {
          "internalType": "string",
          "name": "_funcName",
          "type": "string"
        },
        {
          "internalType": "string",
          "name": "_contractABI",
          "type": "string"
        }
      ],
      "name": "registerContractABI",
      "outputs": [],
      "stateMutability": "nonpayable",
      "type": "function"
    },
    {
      "inputs": [
        {
          "internalType": "string",
          "name": "_destnChainName",
          "type": "string"
        },
        {
          "internalType": "string",
          "name": "_destnContractName",
          "type": "string"
        },
        {
          "internalType": "string",
          "name": "_funcName",
          "type": "string"
        },
        {
          "internalType": "string",
          "name": "_paramType",
          "type": "string"
        },
        {
          "internalType": "string",
          "name": "_paramName",
          "type": "string"
        }
      ],
      "name": "registerMessageABI",
      "outputs": [],
      "stateMutability": "nonpayable",
      "type": "function"
    },
    {
      "inputs": [],
      "name": "renounceOwnership",
      "outputs": [],
      "stateMutability": "nonpayable",
      "type": "function"
    },
    {
      "inputs": [
        {
          "internalType": "address",
          "name": "_address",
          "type": "address"
        }
      ],
      "name": "setCrossChainContract",
      "outputs": [],
      "stateMutability": "nonpayable",
      "type": "function"
    },
    {
      "inputs": [
        {
          "internalType": "address",
          "name": "newOwner",
          "type": "address"
        }
      ],
      "name": "transferOwnership",
      "outputs": [],
      "stateMutability": "nonpayable",
      "type": "function"
    },
    {
      "inputs": [
        {
          "internalType": "string",
          "name": "_toChain",
          "type": "string"
        },
        {
          "internalType": "uint256[]",
          "name": "_nums",
          "type": "uint256[]"
        }
      ],
      "name": "sendComputeTask",
      "outputs": [],
      "stateMutability": "nonpayable",
      "type": "function"
    },
    {
      "inputs": [
        {
          "internalType": "uint256[]",
          "name": "_nums",
          "type": "uint256[]"
        }
      ],
      "name": "receiveComputeTask",
      "outputs": [],
      "stateMutability": "nonpayable",
      "type": "function"
    },
    {
      "inputs": [
        {
          "internalType": "uint256",
          "name": "_result",
          "type": "uint256"
        }
      ],
      "name": "receiveComputeResult",
      "outputs": [],
      "stateMutability": "nonpayable",
      "type": "function"
    },
    {
      "inputs": [
        {
          "internalType": "string",
          "name": "_funcName",
          "type": "string"
        },
        {
          "internalType": "string",
          "name": "_toChain",
          "type": "string"
        },
        {
          "internalType": "string",
          "name": "_contractAddress",
          "type": "string"
        },
        {
          "internalType": "string",
          "name": "_contractFuncName",
          "type": "string"
        }
      ],
      "name": "registerDestnContract",
      "outputs": [],
      "stateMutability": "nonpayable",
      "type": "function"
    },
    {
      "inputs": [
        {
          "internalType": "string",
          "name": "_chainName",
          "type": "string"
        },
        {
          "internalType": "string",
          "name": "_sender",
          "type": "string"
        },
        {
          "internalType": "string",
          "name": "_funcName",
          "type": "string"
        }
      ],
      "name": "registerPermittedContract",
      "outputs": [],
      "stateMutability": "nonpayable",
      "type": "function"
    },
    {
      "inputs": [
        {
          "internalType": "string",
          "name": "_chainName",
          "type": "string"
        },
        {
          "internalType": "string",
          "name": "_funcName",
          "type": "string"
        },
        {
          "internalType": "string",
          "name": "_sender",
          "type": "string"
        }
      ],
      "name": "verify",
      "outputs": [
        {
          "internalType": "bool",
          "name": "",
          "type": "bool"
        }
      ],
      "stateMutability": "view",
      "type": "function",
      "constant": true
    }
  ],
  "bytecode": "0x608060405234801561001057600080fd5b5061001a3361001f565b61006f565b600080546001600160a01b038381166001600160a01b0319831681178455604051919092169283917f8be0079c531659141344cd1fd0a4f28419497f9722a3daafe3b4186f6b6457e09190a35050565b6121728061007e6000396000f3fe608060405234801561001057600080fd5b50600436106101425760003560e01c8063955a5ba4116100b8578063bb45acd91161007c578063bb45acd9146102c6578063d4692703146102d9578063dbc90de1146102ec578063f2fde38b146102ff578063f7d9623714610312578063ff96254b1461032557600080fd5b8063955a5ba414610263578063a24cbdf314610276578063a6b2b83014610289578063b02fe88f1461029c578063babe5dd6146102b357600080fd5b80635fe78c6c1161010a5780635fe78c6c146101ce57806366e1f820146101ee578063715018a61461020157806379f6793c1461020957806380899bba1461021c5780638da5cb5b1461023e57600080fd5b8063127f0f071461014757806318d72b54146101655780632639c4231461017a5780633ad16b7a1461019b5780634c236819146101bb575b600080fd5b61014f610348565b60405161015c91906114b0565b60405180910390f35b61017861017336600461159e565b6103d0565b005b61018d610188366004611696565b610425565b60405161015c9291906116e6565b6101ae6101a936600461175c565b61055c565b60405161015c91906117f5565b6101786101c9366004611872565b6106f0565b6101e16101dc3660046118d3565b610801565b60405161015c9190611907565b6101786101fc36600461191a565b6108a6565b61017861093e565b61017861021736600461175c565b610974565b61022f61022a366004611985565b6109ef565b60405161015c939291906119e8565b6000546001600160a01b03165b6040516001600160a01b03909116815260200161015c565b6101e1610271366004611a20565b610b4c565b610178610284366004611a20565b600755565b610178610297366004611a39565b610b65565b6102a560075481565b60405190815260200161015c565b6101786102c1366004611a98565b610d8b565b6101e16102d4366004611985565b610e31565b6101786102e7366004611b5b565b610e72565b60035461024b906001600160a01b031681565b61017861030d36600461159e565b610fa5565b610178610320366004611a98565b611040565b61033861033336600461175c565b6110c5565b604051901515815260200161015c565b6103506112c5565b600360009054906101000a90046001600160a01b03166001600160a01b0316639af7a48c6040518163ffffffff1660e01b8152600401600060405180830381865afa1580156103a3573d6000803e3d6000fd5b505050506040513d6000823e601f3d908101601f191682016040526103cb9190810190611d52565b905090565b6000546001600160a01b031633146104035760405162461bcd60e51b81526004016103fa90611e6a565b60405180910390fd5b600380546001600160a01b0319166001600160a01b0392909216919091179055565b805160208183018101805160018252928201919093012091528054819061044b90611e9f565b80601f016020809104026020016040519081016040528092919081815260200182805461047790611e9f565b80156104c45780601f10610499576101008083540402835291602001916104c4565b820191906000526020600020905b8154815290600101906020018083116104a757829003601f168201915b5050505050908060010180546104d990611e9f565b80601f016020809104026020016040519081016040528092919081815260200182805461050590611e9f565b80156105525780601f1061052757610100808354040283529160200191610552565b820191906000526020600020905b81548152906001019060200180831161053557829003601f168201915b5050505050905082565b6040805180820190915260608082526020820152600187878787878760405160200161058d96959493929190611eda565b60408051601f19818403018152908290526105a791611f0a565b90815260200160405180910390206040518060400160405290816000820180546105d090611e9f565b80601f01602080910402602001604051908101604052809291908181526020018280546105fc90611e9f565b80156106495780601f1061061e57610100808354040283529160200191610649565b820191906000526020600020905b81548152906001019060200180831161062c57829003601f168201915b5050505050815260200160018201805461066290611e9f565b80601f016020809104026020016040519081016040528092919081815260200182805461068e90611e9f565b80156106db5780601f106106b0576101008083540402835291602001916106db565b820191906000526020600020905b8154815290600101906020018083116106be57829003601f168201915b50505050508152505090509695505050505050565b6003546001600160a01b0316331461074a5760405162461bcd60e51b815260206004820181905260248201527f4c6f636b65723a2063616c6c6572206973206e6f742043726f7373436861696e60448201526064016103fa565b6000805b8281101561078e5783838281811061076857610768611f26565b905060200201358261077a9190611f52565b91508061078681611f6a565b91505061074e565b506000816040516020016107a491815260200190565b60408051601f1981840301815260208381018352600084528251808401909352601a83527f72656365697665436f6d707574655461736b43616c6c6261636b0000000000009083015292506107fa90828461118d565b5050505050565b80516020818301810180516002825292820191909301209152805461082590611e9f565b80601f016020809104026020016040519081016040528092919081815260200182805461085190611e9f565b801561089e5780601f106108735761010080835404028352916020019161089e565b820191906000526020600020905b81548152906001019060200180831161088157829003601f168201915b505050505081565b6000546001600160a01b031633146108d05760405162461bcd60e51b81526004016103fa90611e6a565b6003546040516321c0551d60e11b81526001600160a01b0390911690634380aa3a90610906908790879087908790600401611fae565b600060405180830381600087803b15801561092057600080fd5b505af1158015610934573d6000803e3d6000fd5b5050505050505050565b6000546001600160a01b031633146109685760405162461bcd60e51b81526004016103fa90611e6a565b61097260006111f0565b565b6000546001600160a01b0316331461099e5760405162461bcd60e51b81526004016103fa90611e6a565b6000600687876040516109b2929190611fe0565b9081526020016040518091039020905084848285856040516109d5929190611fe0565b908152604051908190036020019020610934929091611347565b81516020818401810180516005825292820194820194909420919093528151808301840180519281529084019290930191909120915280548190610a3290611e9f565b80601f0160208091040260200160405190810160405280929190818152602001828054610a5e90611e9f565b8015610aab5780601f10610a8057610100808354040283529160200191610aab565b820191906000526020600020905b815481529060010190602001808311610a8e57829003601f168201915b505050505090806001018054610ac090611e9f565b80601f0160208091040260200160405190810160405280929190818152602001828054610aec90611e9f565b8015610b395780601f10610b0e57610100808354040283529160200191610b39565b820191906000526020600020905b815481529060010190602001808311610b1c57829003601f168201915b5050506002909301549192505060ff1683565b6004602052600090815260409020805461082590611e9f565b600060058585604051610b79929190611fe0565b9081526040519081900360200181207172656365697665436f6d707574655461736b60701b825291506000908290601201908152604051908190036020019020600281015490915060ff16610c085760405162461bcd60e51b81526020600482015260156024820152741858dd1a5bdb881b9bdd081c9959da5cdd195c9959605a1b60448201526064016103fa565b60008484604051602001610c1d929190611ff0565b60408051601f1981840301815260208381018352600084528251601f8b0182900482028101820190935289835290935061093491908a908a9081908401838280828437600092019190915250508654879250610c799150611e9f565b80601f0160208091040260200160405190810160405280929190818152602001828054610ca590611e9f565b8015610cf25780601f10610cc757610100808354040283529160200191610cf2565b820191906000526020600020905b815481529060010190602001808311610cd557829003601f168201915b5050505050856001018054610d0690611e9f565b80601f0160208091040260200160405190810160405280929190818152602001828054610d3290611e9f565b8015610d7f5780601f10610d5457610100808354040283529160200191610d7f565b820191906000526020600020905b815481529060010190602001808311610d6257829003601f168201915b50505050508486611240565b6000546001600160a01b03163314610db55760405162461bcd60e51b81526004016103fa90611e6a565b600060058787604051610dc9929190611fe0565b908152602001604051809103902090506000818a8a604051610dec929190611fe0565b9081526040519081900360200190209050610e08818787611347565b50610e17600182018585611347565b50600201805460ff19166001179055505050505050505050565b815160208184018101805160068252928201948201949094209190935281518083018401805192815290840192909301919091209152805461082590611e9f565b6000546001600160a01b03163314610e9c5760405162461bcd60e51b81526004016103fa90611e6a565b6040805160606020601f8701819004028201810183529181018581526000928291908890889081908501838280828437600092019190915250505090825250604080516020601f87018190048102820181019092528581529181019190869086908190840183828082843760009201919091525050509152506040519091508190600190610f38908e908e908e908e908e908e90602001611eda565b60408051601f1981840301815290829052610f5291611f0a565b90815260200160405180910390206000820151816000019080519060200190610f7c9291906113cb565b506020828101518051610f9592600185019201906113cb565b5050505050505050505050505050565b6000546001600160a01b03163314610fcf5760405162461bcd60e51b81526004016103fa90611e6a565b6001600160a01b0381166110345760405162461bcd60e51b815260206004820152602660248201527f4f776e61626c653a206e6577206f776e657220697320746865207a65726f206160448201526564647265737360d01b60648201526084016103fa565b61103d816111f0565b50565b6000546001600160a01b0316331461106a5760405162461bcd60e51b81526004016103fa90611e6a565b600088888888888860405160200161108796959493929190611eda565b60408051601f1981840301815291815281516020928301206000818152600490935291209091506110b9908484611347565b50505050505050505050565b600080600688886040516110da929190611fe0565b9081526020016040518091039020905060008187876040516110fd929190611fe0565b908152604051908190036020018120915061111b9086908690611fe0565b604051809103902081604051611131919061202c565b60405180910390201461117e5760405162461bcd60e51b81526020600482015260156024820152740a6cadcc8cae440c8decae640dcdee840dac2e8c6d605b1b60448201526064016103fa565b50600198975050505050505050565b6000611197610348565b60035460208083015160408085015181518083018352600281528651948101949094529051633ec320f960e11b81529495506001600160a01b0390931693637d8641f2936109069390918a918a918a91906004016120c8565b600080546001600160a01b038381166001600160a01b0319831681178455604051919092169283917f8be0079c531659141344cd1fd0a4f28419497f9722a3daafe3b4186f6b6457e09190a35050565b60035460408051808201825260018152600060208201529051633ec320f960e11b81526001600160a01b0390921691637d8641f29161128c9189918991899189918991906004016120c8565b600060405180830381600087803b1580156112a657600080fd5b505af11580156112ba573d6000803e3d6000fd5b505050505050505050565b604051806101000160405280600081526020016060815260200160608152602001606081526020016113066040518060200160405280600060ff1681525090565b815260200160006001600160a01b03168152602001606081526020016113426040518060400160405280600060ff168152602001600081525090565b905290565b82805461135390611e9f565b90600052602060002090601f01602090048101928261137557600085556113bb565b82601f1061138e5782800160ff198235161785556113bb565b828001600101855582156113bb579182015b828111156113bb5782358255916020019190600101906113a0565b506113c792915061143f565b5090565b8280546113d790611e9f565b90600052602060002090601f0160209004810192826113f957600085556113bb565b82601f1061141257805160ff19168380011785556113bb565b828001600101855582156113bb579182015b828111156113bb578251825591602001919060010190611424565b5b808211156113c75760008155600101611440565b60005b8381101561146f578181015183820152602001611457565b8381111561147e576000848401525b50505050565b6000815180845261149c816020860160208601611454565b601f01601f19169290920160200192915050565b60208152815160208201526000602083015161012060408401526114d8610140840182611484565b90506040840151601f19808584030160608601526114f68383611484565b925060608601519150808584030160808601526115138383611484565b92506080860151915061152c60a08601835160ff169052565b60a08601516001600160a01b03811660c0870152915060c08601519150808584030160e08601525061155e8282611484565b91505060e0840151611581610100850182805160ff168252602090810151910152565b509392505050565b6001600160a01b038116811461103d57600080fd5b6000602082840312156115b057600080fd5b81356115bb81611589565b9392505050565b634e487b7160e01b600052604160045260246000fd5b60405161010081016001600160401b03811182821017156115fb576115fb6115c2565b60405290565b604051601f8201601f191681016001600160401b0381118282101715611629576116296115c2565b604052919050565b60006001600160401b0382111561164a5761164a6115c2565b50601f01601f191660200190565b600061166b61166684611631565b611601565b905082815283838301111561167f57600080fd5b828260208301376000602084830101529392505050565b6000602082840312156116a857600080fd5b81356001600160401b038111156116be57600080fd5b8201601f810184136116cf57600080fd5b6116de84823560208401611658565b949350505050565b6040815260006116f96040830185611484565b828103602084015261170b8185611484565b95945050505050565b60008083601f84011261172657600080fd5b5081356001600160401b0381111561173d57600080fd5b60208301915083602082850101111561175557600080fd5b9250929050565b6000806000806000806060878903121561177557600080fd5b86356001600160401b038082111561178c57600080fd5b6117988a838b01611714565b909850965060208901359150808211156117b157600080fd5b6117bd8a838b01611714565b909650945060408901359150808211156117d657600080fd5b506117e389828a01611714565b979a9699509497509295939492505050565b6020815260008251604060208401526118116060840182611484565b90506020840151601f1984830301604085015261170b8282611484565b60008083601f84011261184057600080fd5b5081356001600160401b0381111561185757600080fd5b6020830191508360208260051b850101111561175557600080fd5b6000806020838503121561188557600080fd5b82356001600160401b0381111561189b57600080fd5b6118a78582860161182e565b90969095509350505050565b600082601f8301126118c457600080fd5b6115bb83833560208501611658565b6000602082840312156118e557600080fd5b81356001600160401b038111156118fb57600080fd5b6116de848285016118b3565b6020815260006115bb6020830184611484565b6000806000806040858703121561193057600080fd5b84356001600160401b038082111561194757600080fd5b61195388838901611714565b9096509450602087013591508082111561196c57600080fd5b5061197987828801611714565b95989497509550505050565b6000806040838503121561199857600080fd5b82356001600160401b03808211156119af57600080fd5b6119bb868387016118b3565b935060208501359150808211156119d157600080fd5b506119de858286016118b3565b9150509250929050565b6060815260006119fb6060830186611484565b8281036020840152611a0d8186611484565b9150508215156040830152949350505050565b600060208284031215611a3257600080fd5b5035919050565b60008060008060408587031215611a4f57600080fd5b84356001600160401b0380821115611a6657600080fd5b611a7288838901611714565b90965094506020870135915080821115611a8b57600080fd5b506119798782880161182e565b6000806000806000806000806080898b031215611ab457600080fd5b88356001600160401b0380821115611acb57600080fd5b611ad78c838d01611714565b909a50985060208b0135915080821115611af057600080fd5b611afc8c838d01611714565b909850965060408b0135915080821115611b1557600080fd5b611b218c838d01611714565b909650945060608b0135915080821115611b3a57600080fd5b50611b478b828c01611714565b999c989b5096995094979396929594505050565b60008060008060008060008060008060a08b8d031215611b7a57600080fd5b8a356001600160401b0380821115611b9157600080fd5b611b9d8e838f01611714565b909c509a5060208d0135915080821115611bb657600080fd5b611bc28e838f01611714565b909a50985060408d0135915080821115611bdb57600080fd5b611be78e838f01611714565b909850965060608d0135915080821115611c0057600080fd5b611c0c8e838f01611714565b909650945060808d0135915080821115611c2557600080fd5b50611c328d828e01611714565b915080935050809150509295989b9194979a5092959850565b600082601f830112611c5c57600080fd5b8151611c6a61166682611631565b818152846020838601011115611c7f57600080fd5b6116de826020830160208701611454565b805160ff81168114611ca157600080fd5b919050565b600060208284031215611cb857600080fd5b604051602081018181106001600160401b0382111715611cda57611cda6115c2565b604052905080611ce983611c90565b905292915050565b8051611ca181611589565b600060408284031215611d0e57600080fd5b604051604081018181106001600160401b0382111715611d3057611d306115c2565b604052905080611d3f83611c90565b8152602083015160208201525092915050565b600060208284031215611d6457600080fd5b81516001600160401b0380821115611d7b57600080fd5b908301906101208286031215611d9057600080fd5b611d986115d8565b82518152602083015182811115611dae57600080fd5b611dba87828601611c4b565b602083015250604083015182811115611dd257600080fd5b611dde87828601611c4b565b604083015250606083015182811115611df657600080fd5b611e0287828601611c4b565b606083015250611e158660808501611ca6565b6080820152611e2660a08401611cf1565b60a082015260c083015182811115611e3d57600080fd5b611e4987828601611c4b565b60c083015250611e5c8660e08501611cfc565b60e082015295945050505050565b6020808252818101527f4f776e61626c653a2063616c6c6572206973206e6f7420746865206f776e6572604082015260600190565b600181811c90821680611eb357607f821691505b60208210811415611ed457634e487b7160e01b600052602260045260246000fd5b50919050565b85878237600086820160008152858782376000908601908152838582376000930192835250909695505050505050565b60008251611f1c818460208701611454565b9190910192915050565b634e487b7160e01b600052603260045260246000fd5b634e487b7160e01b600052601160045260246000fd5b60008219821115611f6557611f65611f3c565b500190565b6000600019821415611f7e57611f7e611f3c565b5060010190565b81835281816020850137506000828201602090810191909152601f909101601f19169091010190565b604081526000611fc2604083018688611f85565b8281036020840152611fd5818587611f85565b979650505050505050565b8183823760009101908152919050565b6020808252810182905260006001600160fb1b0383111561201057600080fd5b8260051b80856040850137600092016040019182525092915050565b600080835481600182811c91508083168061204857607f831692505b602080841082141561206857634e487b7160e01b86526022600452602486fd5b81801561207c576001811461208d576120ba565b60ff198616895284890196506120ba565b60008a81526020902060005b868110156120b25781548b820152908501908301612099565b505084890196505b509498975050505050505050565b60e0815260006120db60e0830189611484565b82810360208401526120ed8189611484565b905082810360408401526121018188611484565b905060ff8651166060840152828103608084015261211f8186611484565b845160ff1660a0850152602085015160c08501529150611fd5905056fea2646970667358221220f43ad5bb27b1f586613ddbd2d88629da40f79c0c4af42c83a32773e66c92ddc964736f6c634300080a0033",
  "immutableReferences": {},
  "source": "// SPDX-License-Identifier: MIT\npragma solidity >=0.8.0 <0.9.0;\n\nimport \"@openzeppelin/contracts/access/Ownable.sol\";\nimport \"./CrossChain/ContractAdvanced.sol\";\n\n// `OCComputing` is an example of multi-chain services with necessary implementations in `ContractAdvanced`, which provides basic cross-chain call interfaces.\ncontract OCComputing is ContractAdvanced {\n    // Destination contract info\n    struct DestnContract {\n        string contractAddress; // destination contract address\n        string funcName; // destination contract action name\n        bool used;\n    }\n\n    // Cross-chain destination contract map\n    mapping(string => mapping(string => DestnContract)) public destnContractMap;\n\n    // Cross-chain permitted contract map\n    mapping(string => mapping(string => string)) public permittedContractMap;\n\n    // Outsourcing computing result\n    uint256 public ocResult;\n\n    // Store context of cross chain contract\n    // SimplifiedMessage public context;\n    \n    /**\n     * Send outsourcing computing task to other chain\n     * @param _toChain - to chain name\n     * @param _nums - nums to be accumulated\n     */\n    function sendComputeTask(string calldata _toChain, uint[] calldata _nums) external {\n        mapping(string => DestnContract) storage map = destnContractMap[_toChain];\n        DestnContract storage destnContract = map[\"receiveComputeTask\"];\n        require(destnContract.used, \"action not registered\");\n\n        bytes memory data = abi.encode(_nums);\n        SQOS memory sqos = SQOS(0);\n        crossChainCall(\n            _toChain,\n            destnContract.contractAddress,\n            destnContract.funcName,\n            sqos,\n            data\n        );\n    }\n\n    /**\n     * Receives outsourcing computing task from other chain\n     * @param _nums - nums to be accumulated\n     */\n    function receiveComputeTask(uint[] calldata _nums) external {\n        require(\n            msg.sender == address(crossChainContract),\n            \"Locker: caller is not CrossChain\"\n        );\n        \n        // compute\n        uint ret = 0;\n        for (uint i = 0; i < _nums.length; i++) {\n            ret += _nums[i];\n        }\n\n        // send result back\n        bytes memory data = abi.encode(ret);\n        SQOS memory sqos = SQOS(0);\n        crossChainRespond(\"receiveComputeTaskCallback\", sqos, data);\n    }\n\n    /**\n     * Receives outsourcing computing result\n     * @param _result - accumulating result\n     */\n    function receiveComputeResult(uint _result) public {\n        ocResult = _result;\n    }\n\n    ///////////////////////////////////////////////\n    /////    Send messages to other chains   //////\n    ///////////////////////////////////////////////\n\n    /**\n     * Register destination contract info\n     * @param _funcName - function name to be called\n     * @param _toChain - destination chain name\n     * @param _contractAddress - destination contract address\n     * @param _contractFuncName - contract function name\n     */\n    function registerDestnContract(\n        string calldata _funcName,\n        string calldata _toChain,\n        string calldata _contractAddress,\n        string calldata _contractFuncName\n    ) external onlyOwner {\n        mapping(string => DestnContract) storage map = destnContractMap[_toChain];\n        DestnContract storage destnContract = map[_funcName];\n        destnContract.contractAddress = _contractAddress;\n        destnContract.funcName = _contractFuncName;\n        destnContract.used = true;\n    }\n\n    ///////////////////////////////////////////////\n    ///    Receive messages from other chains   ///\n    ///////////////////////////////////////////////\n\n    /**\n     * Authorize contracts of other chains to call the functions of this contract\n     * @param _chainName - from chain name\n     * @param _sender - sender of cross chain message\n     * @param _funcName - action name which allowed to be invoked\n     */\n    function registerPermittedContract(\n        string calldata _chainName,\n        string calldata _sender,\n        string calldata _funcName\n    ) external onlyOwner {\n        mapping(string => string) storage map = permittedContractMap[\n            _chainName\n        ];\n        map[_funcName] = _sender;\n    }\n\n    /**\n     * This verify method will be invoked by the CrossChain contract automatically, ensure that only registered contract(registerSourceContract) calls are allowed\n     * @param _chainName - chain name of cross chain message\n     * @param _funcName - contract action name of cross chain message\n     * @param _sender - cross chain message sender\n     */\n    //  Will be deprecated soon\n    function verify(\n        string calldata _chainName,\n        string calldata _funcName,\n        string calldata _sender\n    ) public view virtual returns (bool) {\n        mapping(string => string) storage map = permittedContractMap[\n            _chainName\n        ];\n        string storage sender = map[_funcName];\n        require(\n            keccak256(bytes(sender)) == keccak256(bytes(_sender)),\n            \"Sender does not match\"\n        );\n        return true;\n    }\n}\n",
  "sourcePath": "/home/george/program/dante/solidity-contract-template/contracts/OCComputing.sol",
  "compiler": {
    "name": "solc",
    "version": "0.8.10+commit.fc410830.Emscripten.clang"
  },
  "schemaVersion": "3.4.6",
  "updatedAt": "2022-03-25T09:13:43.594Z",
  "networkType": "ethereum",
  "devdoc": {
    "kind": "dev",
    "methods": {
      "getMessageABI(string,string,string)": {
        "params": {
          "_destnChainName": "- destination chain name",
          "_destnContractName": "- destination contract name",
          "_funcName": "- destination contract function name"
        }
      },
      "owner()": {
        "details": "Returns the address of the current owner."
      },
      "receiveComputeResult(uint256)": {
        "params": {
          "_result": "- accumulating result"
        }
      },
      "receiveComputeTask(uint256[])": {
        "params": {
          "_nums": "- nums to be accumulated"
        }
      },
      "registerCallbackAbi(string,string,string,string)": {
        "params": {
          "_callbackAbi": "- data abi",
          "_destnChainName": "- destination chain name",
          "_destnContractName": "- destination contract name",
          "_funcName": "- destination contract function name"
        }
      },
      "registerContractABI(string,string)": {
        "params": {
          "_contractABI": "- contract action abi",
          "_funcName": "- contract action name"
        }
      },
      "registerDestnContract(string,string,string,string)": {
        "params": {
          "_contractAddress": "- destination contract address",
          "_contractFuncName": "- contract function name",
          "_funcName": "- function name to be called",
          "_toChain": "- destination chain name"
        }
      },
      "registerMessageABI(string,string,string,string,string)": {
        "params": {
          "_destnChainName": "- destination chain name",
          "_destnContractName": "- destination contract name",
          "_funcName": "- destination contract function name",
          "_paramName": "- action param name",
          "_paramType": "- action param types"
        }
      },
      "registerPermittedContract(string,string,string)": {
        "params": {
          "_chainName": "- from chain name",
          "_funcName": "- action name which allowed to be invoked",
          "_sender": "- sender of cross chain message"
        }
      },
      "renounceOwnership()": {
        "details": "Leaves the contract without owner. It will not be possible to call `onlyOwner` functions anymore. Can only be called by the current owner. NOTE: Renouncing ownership will leave the contract without an owner, thereby removing any functionality that is only available to the owner."
      },
      "sendComputeTask(string,uint256[])": {
        "params": {
          "_nums": "- nums to be accumulated",
          "_toChain": "- to chain name"
        }
      },
      "setCrossChainContract(address)": {
        "params": {
          "_address": "- cross chain contract address"
        }
      },
      "transferOwnership(address)": {
        "details": "Transfers ownership of the contract to a new account (`newOwner`). Can only be called by the current owner."
      },
      "verify(string,string,string)": {
        "params": {
          "_chainName": "- chain name of cross chain message",
          "_funcName": "- contract action name of cross chain message",
          "_sender": "- cross chain message sender"
        }
      }
    },
    "version": 1
  },
  "userdoc": {
    "kind": "user",
    "methods": {
      "getMessageABI(string,string,string)": {
        "notice": "Get Registered message ABI to encode/decode message"
      },
      "receiveComputeResult(uint256)": {
        "notice": "Receives outsourcing computing result"
      },
      "receiveComputeTask(uint256[])": {
        "notice": "Receives outsourcing computing task from other chain"
      },
      "registerCallbackAbi(string,string,string,string)": {
        "notice": "Callback ABI used to decode data responded by other chain"
      },
      "registerContractABI(string,string)": {
        "notice": "contract ABI used to encode/decode messages sent to this contract"
      },
      "registerDestnContract(string,string,string,string)": {
        "notice": "Register destination contract info"
      },
      "registerMessageABI(string,string,string,string,string)": {
        "notice": "message ABI used to encode/decode messages sent from this contract"
      },
      "registerPermittedContract(string,string,string)": {
        "notice": "Authorize contracts of other chains to call the functions of this contract"
      },
      "sendComputeTask(string,uint256[])": {
        "notice": "Send outsourcing computing task to other chain"
      },
      "setCrossChainContract(address)": {
        "notice": "Set cross chain contract"
      },
      "verify(string,string,string)": {
        "notice": "This verify method will be invoked by the CrossChain contract automatically, ensure that only registered contract(registerSourceContract) calls are allowed"
      }
    },
    "version": 1
  }
}