{
  "contractName": "TwoPhaseCommitCrossChain",
  "abi": [
    {
      "anonymous": false,
      "inputs": [
        {
          "indexed": true,
          "internalType": "address",
          "name": "previousOwner",
          "type": "address"
        },
        {
          "indexed": true,
          "internalType": "address",
          "name": "newOwner",
          "type": "address"
        }
      ],
      "name": "OwnershipTransferred",
      "type": "event"
    },
    {
      "inputs": [
        {
          "internalType": "string",
          "name": "_fromChain",
          "type": "string"
        },
        {
          "internalType": "uint256",
          "name": "_id",
          "type": "uint256"
        },
        {
          "internalType": "uint256",
          "name": "_errorCode",
          "type": "uint256"
        }
      ],
      "name": "abandonMessage",
      "outputs": [],
      "stateMutability": "nonpayable",
      "type": "function"
    },
    {
      "inputs": [
        {
          "internalType": "string",
          "name": "",
          "type": "string"
        }
      ],
      "name": "availableReceivedMessageIndexTable",
      "outputs": [
        {
          "internalType": "uint256",
          "name": "",
          "type": "uint256"
        }
      ],
      "stateMutability": "view",
      "type": "function",
      "constant": true
    },
    {
      "inputs": [
        {
          "internalType": "address[]",
          "name": "_porters",
          "type": "address[]"
        },
        {
          "internalType": "uint256",
          "name": "_requirement",
          "type": "uint256"
        }
      ],
      "name": "changePortersAndRequirement",
      "outputs": [],
      "stateMutability": "nonpayable",
      "type": "function"
    },
    {
      "inputs": [
        {
          "internalType": "string",
          "name": "_toChain",
          "type": "string"
        }
      ],
      "name": "clearCrossChainMessage",
      "outputs": [],
      "stateMutability": "nonpayable",
      "type": "function"
    },
    {
      "inputs": [],
      "name": "currentSimplifiedMessage",
      "outputs": [
        {
          "internalType": "uint256",
          "name": "id",
          "type": "uint256"
        },
        {
          "internalType": "string",
          "name": "fromChain",
          "type": "string"
        },
        {
          "internalType": "string",
          "name": "sender",
          "type": "string"
        },
        {
          "internalType": "string",
          "name": "signer",
          "type": "string"
        },
        {
          "internalType": "address",
          "name": "contractAddress",
          "type": "address"
        },
        {
          "internalType": "string",
          "name": "action",
          "type": "string"
        }
      ],
      "stateMutability": "view",
      "type": "function",
      "constant": true
    },
    {
      "inputs": [
        {
          "internalType": "string",
          "name": "_chainName",
          "type": "string"
        },
        {
          "internalType": "uint256",
          "name": "_id",
          "type": "uint256"
        }
      ],
      "name": "executeMessage",
      "outputs": [],
      "stateMutability": "nonpayable",
      "type": "function"
    },
    {
      "inputs": [],
      "name": "getCurrentMessage",
      "outputs": [
        {
          "components": [
            {
              "internalType": "uint256",
              "name": "id",
              "type": "uint256"
            },
            {
              "internalType": "string",
              "name": "fromChain",
              "type": "string"
            },
            {
              "internalType": "string",
              "name": "sender",
              "type": "string"
            },
            {
              "internalType": "string",
              "name": "signer",
              "type": "string"
            },
            {
              "internalType": "address",
              "name": "contractAddress",
              "type": "address"
            },
            {
              "internalType": "string",
              "name": "action",
              "type": "string"
            }
          ],
          "internalType": "struct SimplifiedMessage",
          "name": "",
          "type": "tuple"
        }
      ],
      "stateMutability": "view",
      "type": "function",
      "constant": true
    },
    {
      "inputs": [
        {
          "internalType": "string[]",
          "name": "_chainNames",
          "type": "string[]"
        }
      ],
      "name": "getExecutableMessages",
      "outputs": [
        {
          "components": [
            {
              "internalType": "uint256",
              "name": "id",
              "type": "uint256"
            },
            {
              "internalType": "string",
              "name": "fromChain",
              "type": "string"
            },
            {
              "internalType": "string",
              "name": "sender",
              "type": "string"
            },
            {
              "internalType": "string",
              "name": "signer",
              "type": "string"
            },
            {
              "components": [
                {
                  "internalType": "uint8",
                  "name": "reveal",
                  "type": "uint8"
                }
              ],
              "internalType": "struct SQOS",
              "name": "sqos",
              "type": "tuple"
            },
            {
              "internalType": "address",
              "name": "contractAddress",
              "type": "address"
            },
            {
              "internalType": "string",
              "name": "action",
              "type": "string"
            },
            {
              "internalType": "bytes",
              "name": "data",
              "type": "bytes"
            },
            {
              "internalType": "bool",
              "name": "executed",
              "type": "bool"
            },
            {
              "internalType": "uint256",
              "name": "errorCode",
              "type": "uint256"
            }
          ],
          "internalType": "struct ReceivedMessage[]",
          "name": "",
          "type": "tuple[]"
        }
      ],
      "stateMutability": "view",
      "type": "function",
      "constant": true
    },
    {
      "inputs": [
        {
          "internalType": "string",
          "name": "_chainName",
          "type": "string"
        }
      ],
      "name": "getMsgPortingTask",
      "outputs": [
        {
          "internalType": "uint256",
          "name": "",
          "type": "uint256"
        }
      ],
      "stateMutability": "view",
      "type": "function",
      "constant": true
    },
    {
      "inputs": [
        {
          "internalType": "string",
          "name": "_chainName",
          "type": "string"
        },
        {
          "internalType": "uint256",
          "name": "_id",
          "type": "uint256"
        }
      ],
      "name": "getReceivedMessage",
      "outputs": [
        {
          "components": [
            {
              "internalType": "uint256",
              "name": "id",
              "type": "uint256"
            },
            {
              "internalType": "string",
              "name": "fromChain",
              "type": "string"
            },
            {
              "internalType": "string",
              "name": "sender",
              "type": "string"
            },
            {
              "internalType": "string",
              "name": "signer",
              "type": "string"
            },
            {
              "components": [
                {
                  "internalType": "uint8",
                  "name": "reveal",
                  "type": "uint8"
                }
              ],
              "internalType": "struct SQOS",
              "name": "sqos",
              "type": "tuple"
            },
            {
              "internalType": "address",
              "name": "contractAddress",
              "type": "address"
            },
            {
              "internalType": "string",
              "name": "action",
              "type": "string"
            },
            {
              "internalType": "bytes",
              "name": "data",
              "type": "bytes"
            },
            {
              "internalType": "bool",
              "name": "executed",
              "type": "bool"
            },
            {
              "internalType": "uint256",
              "name": "errorCode",
              "type": "uint256"
            }
          ],
          "internalType": "struct ReceivedMessage",
          "name": "",
          "type": "tuple"
        }
      ],
      "stateMutability": "view",
      "type": "function",
      "constant": true
    },
    {
      "inputs": [
        {
          "internalType": "string",
          "name": "_chainName",
          "type": "string"
        }
      ],
      "name": "getReceivedMessageNumber",
      "outputs": [
        {
          "internalType": "uint256",
          "name": "",
          "type": "uint256"
        }
      ],
      "stateMutability": "view",
      "type": "function",
      "constant": true
    },
    {
      "inputs": [
        {
          "internalType": "string",
          "name": "_chainName",
          "type": "string"
        },
        {
          "internalType": "uint256",
          "name": "_id",
          "type": "uint256"
        }
      ],
      "name": "getSentMessage",
      "outputs": [
        {
          "components": [
            {
              "internalType": "uint256",
              "name": "id",
              "type": "uint256"
            },
            {
              "internalType": "string",
              "name": "fromChain",
              "type": "string"
            },
            {
              "internalType": "string",
              "name": "toChain",
              "type": "string"
            },
            {
              "internalType": "address",
              "name": "sender",
              "type": "address"
            },
            {
              "internalType": "address",
              "name": "signer",
              "type": "address"
            },
            {
              "components": [
                {
                  "internalType": "uint8",
                  "name": "reveal",
                  "type": "uint8"
                }
              ],
              "internalType": "struct SQOS",
              "name": "sqos",
              "type": "tuple"
            },
            {
              "components": [
                {
                  "internalType": "string",
                  "name": "contractAddress",
                  "type": "string"
                },
                {
                  "internalType": "string",
                  "name": "action",
                  "type": "string"
                },
                {
                  "components": [
                    {
                      "internalType": "bytes",
                      "name": "arguments",
                      "type": "bytes"
                    }
                  ],
                  "internalType": "struct Data",
                  "name": "data",
                  "type": "tuple"
                }
              ],
              "internalType": "struct Content",
              "name": "content",
              "type": "tuple"
            }
          ],
          "internalType": "struct SentMessage",
          "name": "",
          "type": "tuple"
        }
      ],
      "stateMutability": "view",
      "type": "function",
      "constant": true
    },
    {
      "inputs": [
        {
          "internalType": "string",
          "name": "_chainName",
          "type": "string"
        }
      ],
      "name": "getSentMessageNumber",
      "outputs": [
        {
          "internalType": "uint256",
          "name": "",
          "type": "uint256"
        }
      ],
      "stateMutability": "view",
      "type": "function",
      "constant": true
    },
    {
      "inputs": [
        {
          "internalType": "address",
          "name": "",
          "type": "address"
        },
        {
          "internalType": "string",
          "name": "",
          "type": "string"
        }
      ],
      "name": "interfaces",
      "outputs": [
        {
          "internalType": "string",
          "name": "",
          "type": "string"
        }
      ],
      "stateMutability": "view",
      "type": "function",
      "constant": true
    },
    {
      "inputs": [
        {
          "internalType": "address",
          "name": "",
          "type": "address"
        }
      ],
      "name": "isPorter",
      "outputs": [
        {
          "internalType": "bool",
          "name": "",
          "type": "bool"
        }
      ],
      "stateMutability": "view",
      "type": "function",
      "constant": true
    },
    {
      "inputs": [],
      "name": "messageSender",
      "outputs": [
        {
          "internalType": "address",
          "name": "",
          "type": "address"
        }
      ],
      "stateMutability": "view",
      "type": "function",
      "constant": true
    },
    {
      "inputs": [],
      "name": "owner",
      "outputs": [
        {
          "internalType": "address",
          "name": "",
          "type": "address"
        }
      ],
      "stateMutability": "view",
      "type": "function",
      "constant": true
    },
    {
      "inputs": [
        {
          "internalType": "uint256",
          "name": "",
          "type": "uint256"
        }
      ],
      "name": "porters",
      "outputs": [
        {
          "internalType": "address",
          "name": "",
          "type": "address"
        }
      ],
      "stateMutability": "view",
      "type": "function",
      "constant": true
    },
    {
      "inputs": [
        {
          "internalType": "string",
          "name": "_funcName",
          "type": "string"
        },
        {
          "internalType": "string",
          "name": "_interface",
          "type": "string"
        }
      ],
      "name": "registerInterface",
      "outputs": [],
      "stateMutability": "nonpayable",
      "type": "function"
    },
    {
      "inputs": [
        {
          "internalType": "string",
          "name": "_funcName",
          "type": "string"
        },
        {
          "internalType": "string",
          "name": "_abiString",
          "type": "string"
        },
        {
          "internalType": "string",
          "name": "_paramName",
          "type": "string"
        },
        {
          "internalType": "string",
          "name": "_paramType",
          "type": "string"
        }
      ],
      "name": "registerTarget",
      "outputs": [],
      "stateMutability": "nonpayable",
      "type": "function"
    },
    {
      "inputs": [],
      "name": "renounceOwnership",
      "outputs": [],
      "stateMutability": "nonpayable",
      "type": "function"
    },
    {
      "inputs": [],
      "name": "required",
      "outputs": [
        {
          "internalType": "uint256",
          "name": "",
          "type": "uint256"
        }
      ],
      "stateMutability": "view",
      "type": "function",
      "constant": true
    },
    {
      "inputs": [
        {
          "internalType": "string",
          "name": "_toChain",
          "type": "string"
        },
        {
          "internalType": "string",
          "name": "_contractAddress",
          "type": "string"
        },
        {
          "internalType": "string",
          "name": "_methodName",
          "type": "string"
        },
        {
          "components": [
            {
              "internalType": "uint8",
              "name": "reveal",
              "type": "uint8"
            }
          ],
          "internalType": "struct SQOS",
          "name": "_sqos",
          "type": "tuple"
        },
        {
          "internalType": "bytes",
          "name": "_data",
          "type": "bytes"
        }
      ],
      "name": "sendMessage",
      "outputs": [],
      "stateMutability": "nonpayable",
      "type": "function"
    },
    {
      "inputs": [
        {
          "internalType": "address",
          "name": "_address",
          "type": "address"
        }
      ],
      "name": "setTokenContract",
      "outputs": [],
      "stateMutability": "nonpayable",
      "type": "function"
    },
    {
      "inputs": [
        {
          "internalType": "address",
          "name": "_address",
          "type": "address"
        }
      ],
      "name": "setVerifyContract",
      "outputs": [],
      "stateMutability": "nonpayable",
      "type": "function"
    },
    {
      "inputs": [
        {
          "internalType": "address",
          "name": "",
          "type": "address"
        },
        {
          "internalType": "string",
          "name": "",
          "type": "string"
        }
      ],
      "name": "targets",
      "outputs": [
        {
          "internalType": "string",
          "name": "abiString",
          "type": "string"
        },
        {
          "internalType": "string",
          "name": "parameterNamesString",
          "type": "string"
        },
        {
          "internalType": "string",
          "name": "parametertypesString",
          "type": "string"
        }
      ],
      "stateMutability": "view",
      "type": "function",
      "constant": true
    },
    {
      "inputs": [],
      "name": "tokenContract",
      "outputs": [
        {
          "internalType": "contract DanteToken",
          "name": "",
          "type": "address"
        }
      ],
      "stateMutability": "view",
      "type": "function",
      "constant": true
    },
    {
      "inputs": [
        {
          "internalType": "address",
          "name": "newOwner",
          "type": "address"
        }
      ],
      "name": "transferOwnership",
      "outputs": [],
      "stateMutability": "nonpayable",
      "type": "function"
    },
    {
      "inputs": [],
      "name": "verifyContract",
      "outputs": [
        {
          "internalType": "contract MessageVerify",
          "name": "",
          "type": "address"
        }
      ],
      "stateMutability": "view",
      "type": "function",
      "constant": true
    },
    {
      "inputs": [
        {
          "internalType": "string",
          "name": "_fromChain",
          "type": "string"
        },
        {
          "internalType": "uint256",
          "name": "_id",
          "type": "uint256"
        },
        {
          "internalType": "bytes32",
          "name": "_hash",
          "type": "bytes32"
        }
      ],
      "name": "receiveHiddenMessage",
      "outputs": [],
      "stateMutability": "nonpayable",
      "type": "function"
    },
    {
      "inputs": [
        {
          "internalType": "string",
          "name": "_fromChain",
          "type": "string"
        },
        {
          "internalType": "uint256",
          "name": "_id",
          "type": "uint256"
        },
        {
          "internalType": "string",
          "name": "_sender",
          "type": "string"
        },
        {
          "internalType": "string",
          "name": "_signer",
          "type": "string"
        },
        {
          "internalType": "address",
          "name": "_to",
          "type": "address"
        },
        {
          "components": [
            {
              "internalType": "uint8",
              "name": "reveal",
              "type": "uint8"
            }
          ],
          "internalType": "struct SQOS",
          "name": "_sqos",
          "type": "tuple"
        },
        {
          "internalType": "string",
          "name": "_action",
          "type": "string"
        },
        {
          "internalType": "bytes",
          "name": "_data",
          "type": "bytes"
        }
      ],
      "name": "revealMessage",
      "outputs": [],
      "stateMutability": "nonpayable",
      "type": "function"
    },
    {
      "inputs": [
        {
          "internalType": "string",
          "name": "_fromChain",
          "type": "string"
        },
        {
          "internalType": "uint256",
          "name": "_id",
          "type": "uint256"
        },
        {
          "internalType": "string",
          "name": "_sender",
          "type": "string"
        },
        {
          "internalType": "string",
          "name": "_signer",
          "type": "string"
        },
        {
          "internalType": "address",
          "name": "_to",
          "type": "address"
        },
        {
          "components": [
            {
              "internalType": "uint8",
              "name": "reveal",
              "type": "uint8"
            }
          ],
          "internalType": "struct SQOS",
          "name": "_sqos",
          "type": "tuple"
        },
        {
          "internalType": "string",
          "name": "_action",
          "type": "string"
        },
        {
          "internalType": "bytes",
          "name": "_data",
          "type": "bytes"
        }
      ],
      "name": "receiveMessage",
      "outputs": [],
      "stateMutability": "nonpayable",
      "type": "function"
    },
    {
      "inputs": [
        {
          "internalType": "string",
          "name": "_fromChain",
          "type": "string"
        },
        {
          "internalType": "uint256",
          "name": "_id",
          "type": "uint256"
        }
      ],
      "name": "getFirstStageMessage",
      "outputs": [
        {
          "components": [
            {
              "components": [
                {
                  "internalType": "uint256",
                  "name": "id",
                  "type": "uint256"
                },
                {
                  "internalType": "string",
                  "name": "fromChain",
                  "type": "string"
                },
                {
                  "internalType": "bytes32",
                  "name": "hashData",
                  "type": "bytes32"
                },
                {
                  "internalType": "address",
                  "name": "porter",
                  "type": "address"
                }
              ],
              "internalType": "struct TwoPhaseCommitCrossChain.HiddenMessage[]",
              "name": "messages",
              "type": "tuple[]"
            },
            {
              "internalType": "enum TwoPhaseCommitCrossChain.StageStatus",
              "name": "stage",
              "type": "uint8"
            }
          ],
          "internalType": "struct TwoPhaseCommitCrossChain.FirstStageMessage",
          "name": "",
          "type": "tuple"
        }
      ],
      "stateMutability": "view",
      "type": "function",
      "constant": true
    }
  ],
  "bytecode": "0x60806040523480156200001157600080fd5b506200001d3362000023565b62000073565b600080546001600160a01b038381166001600160a01b0319831681178455604051919092169283917f8be0079c531659141344cd1fd0a4f28419497f9722a3daafe3b4186f6b6457e09190a35050565b61545180620000836000396000f3fe608060405234801561001057600080fd5b50600436106101fb5760003560e01c80639ebc33e41161011a578063ce700e80116100ad578063e216c0b71161007c578063e216c0b7146104b4578063ef565bbf146104c7578063f2fde38b146104da578063fe2c9c19146104ed578063ff38c0b91461050057600080fd5b8063ce700e8014610472578063d67bdd2514610485578063dc8452cd14610498578063debcd46e146104a157600080fd5b8063b244244b116100e9578063b244244b14610401578063b46ca24c1461042c578063bbcd5bbe1461043f578063c38322141461045257600080fd5b80639ebc33e414610395578063a0d948ea146103c8578063a6806f65146103db578063a7fca675146103ee57600080fd5b806355a373d6116101925780638e3db313116101615780638e3db3131461032d578063909b26471461034d5780639af7a48c1461036d5780639da9ef331461038257600080fd5b806355a373d6146102df578063715018a6146102f25780637d3fd379146102fa5780638da5cb5b1461031c57600080fd5b8063320befc8116101ce578063320befc81461027b5780634380aa3a1461028e57806345406584146102a15780634c2be98f146102b457600080fd5b8063086615c2146102005780630bdac6f4146102265780631585f9d0146102465780632eb4358c14610266575b600080fd5b61021361020e366004613e3f565b61051a565b6040519081526020015b60405180910390f35b610239610234366004613e80565b610548565b60405161021d9190613f5f565b610259610254366004614162565b6106d0565b60405161021d91906141b1565b6102796102743660046141c4565b610786565b005b610279610289366004613e3f565b610998565b61027961029c366004614214565b610a4a565b6102796102af36600461427f565b610a92565b6102c76102c2366004614342565b610bdd565b6040516001600160a01b03909116815260200161021d565b6003546102c7906001600160a01b031681565b610279610c07565b61030d610308366004614162565b610c3d565b60405161021d9392919061435b565b6000546001600160a01b03166102c7565b61034061033b366004613e80565b610e13565b60405161021d91906143fa565b61036061035b3660046144d5565b6111cc565b60405161021d91906145f0565b610375611736565b60405161021d9190614652565b6102796103903660046146e6565b6119f0565b6103b86103a336600461471d565b600f6020526000908152604090205460ff1681565b604051901515815260200161021d565b6012546102c7906001600160a01b031681565b6102796103e936600461471d565b611bc0565b6102796103fc366004614752565b611c0c565b61021361040f366004614884565b805160208183018101805160078252928201919093012091525481565b61027961043a3660046141c4565b611df1565b61027961044d36600461471d565b612199565b610465610460366004613e80565b6121e5565b60405161021d91906148c0565b610279610480366004613e80565b61257d565b6004546102c7906001600160a01b031681565b610213600e5481565b6102136104af366004613e3f565b612ae5565b6102796104c2366004614911565b612afa565b6102796104d5366004614a17565b612d87565b6102796104e836600461471d565b612f4f565b6102136104fb366004613e3f565b612fea565b610508613065565b60405161021d96959493929190614acd565b6000806005848460405161052f929190614b3c565b9081526040519081900360200190205491505092915050565b610550613891565b60138484604051610562929190614b3c565b908152604080519182900360209081018320600086815290825282812080546060938102860184018552938501848152909385939192859285015b8282101561068e5783829060005260206000209060040201604051806080016040529081600082015481526020016001820180546105da90614b4c565b80601f016020809104026020016040519081016040528092919081815260200182805461060690614b4c565b80156106535780601f1061062857610100808354040283529160200191610653565b820191906000526020600020905b81548152906001019060200180831161063657829003601f168201915b505050918352505060028201546020808301919091526003909201546001600160a01b0316604090910152908252600192909201910161059d565b50505090825250600182015460209091019060ff1660038111156106b4576106b4613f27565b60038111156106c5576106c5613f27565b905250949350505050565b600260209081526000928352604090922081518083018401805192815290840192909301919091209152805461070590614b4c565b80601f016020809104026020016040519081016040528092919081815260200182805461073190614b4c565b801561077e5780601f106107535761010080835404028352916020019161077e565b820191906000526020600020905b81548152906001019060200180831161076157829003601f168201915b505050505081565b336000908152600f602052604090205460ff166107be5760405162461bcd60e51b81526004016107b590614b81565b60405180910390fd5b6000601185856040516107d2929190614b3c565b90815260405190819003602001902080549091506107f1906001614bda565b8311156108105760405162461bcd60e51b81526004016107b590614bf2565b600060068686604051610824929190614b3c565b9081526040519081900360200190208054909150610843906001614bda565b8410156108625760405162461bcd60e51b81526004016107b590614c35565b8154600090610872906001614bda565b85141561089157508154600181018355600083815260209020016108ba565b8261089d600187614c92565b815481106108ad576108ad614ca9565b9060005260206000200190505b60005b815481101561092f57336001600160a01b03168282815481106108e2576108e2614ca9565b60009182526020909120600a600b9092020101546001600160a01b0316141561091d5760405162461bcd60e51b81526004016107b590614cbf565b8061092781614d06565b9150506108bd565b50805460018181018355600083815260209020600b9092029091018681559061095b90820189896138ab565b5060098101859055600a810180546001600160a01b03191633179055600e548254141561098e5761098e868989886132bb565b5050505050505050565b6000546001600160a01b031633146109c25760405162461bcd60e51b81526004016107b590614d21565b600582826040516109d4929190614b3c565b908152602001604051809103902060006109ee919061392f565b60068282604051610a00929190614b3c565b90815260200160405180910390206000610a1a9190613950565b60118282604051610a2c929190614b3c565b90815260200160405180910390206000610a469190613971565b5050565b33600090815260026020526040908190209051839083908390610a709089908990614b3c565b908152604051908190036020019020610a8a9290916138ab565b505050505050565b33600090815260016020908152604080832081516080601f8b0185900490940281018401909252606082018981529093928291908b908b9081908501838280828437600092019190915250505090825250604080516020601f8a0181900481028201810190925288815291810191908990899081908401838280828437600092019190915250505090825250604080516020601f880181900481028201810190925286815291810191908790879081908401838280828437600092019190915250505091525060405190915081908390610b6f908d908d90614b3c565b90815260200160405180910390206000820151816000019080519060200190610b9992919061398f565b506020828101518051610bb2926001850192019061398f565b5060408201518051610bce91600284019160209091019061398f565b50505050505050505050505050565b60108181548110610bed57600080fd5b6000918252602090912001546001600160a01b0316905081565b6000546001600160a01b03163314610c315760405162461bcd60e51b81526004016107b590614d21565b610c3b6000613370565b565b60016020908152600092835260409092208151808301840180519281529084019290930191909120915280548190610c7490614b4c565b80601f0160208091040260200160405190810160405280929190818152602001828054610ca090614b4c565b8015610ced5780601f10610cc257610100808354040283529160200191610ced565b820191906000526020600020905b815481529060010190602001808311610cd057829003601f168201915b505050505090806001018054610d0290614b4c565b80601f0160208091040260200160405190810160405280929190818152602001828054610d2e90614b4c565b8015610d7b5780601f10610d5057610100808354040283529160200191610d7b565b820191906000526020600020905b815481529060010190602001808311610d5e57829003601f168201915b505050505090806002018054610d9090614b4c565b80601f0160208091040260200160405190810160405280929190818152602001828054610dbc90614b4c565b8015610e095780601f10610dde57610100808354040283529160200191610e09565b820191906000526020600020905b815481529060010190602001808311610dec57829003601f168201915b5050505050905083565b610e1b613a03565b600060058585604051610e2f929190614b3c565b908152604051908190036020019020905080610e4c600185614c92565b81548110610e5c57610e5c614ca9565b90600052602060002090600902016040518060e001604052908160008201548152602001600182018054610e8f90614b4c565b80601f0160208091040260200160405190810160405280929190818152602001828054610ebb90614b4c565b8015610f085780601f10610edd57610100808354040283529160200191610f08565b820191906000526020600020905b815481529060010190602001808311610eeb57829003601f168201915b50505050508152602001600282018054610f2190614b4c565b80601f0160208091040260200160405190810160405280929190818152602001828054610f4d90614b4c565b8015610f9a5780601f10610f6f57610100808354040283529160200191610f9a565b820191906000526020600020905b815481529060010190602001808311610f7d57829003601f168201915b505050918352505060038201546001600160a01b03908116602080840191909152600484015490911660408084019190915280519182018152600584015460ff168252606080840192909252805191820190526006830180546080909301928290829061100690614b4c565b80601f016020809104026020016040519081016040528092919081815260200182805461103290614b4c565b801561107f5780601f106110545761010080835404028352916020019161107f565b820191906000526020600020905b81548152906001019060200180831161106257829003601f168201915b5050505050815260200160018201805461109890614b4c565b80601f01602080910402602001604051908101604052809291908181526020018280546110c490614b4c565b80156111115780601f106110e657610100808354040283529160200191611111565b820191906000526020600020905b8154815290600101906020018083116110f457829003601f168201915b505050505081526020016002820160405180602001604052908160008201805461113a90614b4c565b80601f016020809104026020016040519081016040528092919081815260200182805461116690614b4c565b80156111b35780601f10611188576101008083540402835291602001916111b3565b820191906000526020600020905b81548152906001019060200180831161119657829003601f168201915b5050509190925250505090525090525095945050505050565b60606000805b838110156112a457600060068686848181106111f0576111f0614ca9565b90506020028101906112029190614d56565b604051611210929190614b3c565b9081526020016040518091039020905060005b815481101561128f57600082828154811061124057611240614ca9565b90600052602060002090600a02019050806009015460001480156112695750600881015460ff16155b1561127c578461127881614d06565b9550505b508061128781614d06565b915050611223565b5050808061129c90614d06565b9150506111d2565b506000816001600160401b038111156112bf576112bf614032565b6040519080825280602002602001820160405280156112f857816020015b6112e5613a69565b8152602001906001900390816112dd5790505b5090506000915060005b8481101561172d576000600687878481811061132057611320614ca9565b90506020028101906113329190614d56565b604051611340929190614b3c565b9081526020016040518091039020905060005b815481101561171857600082828154811061137057611370614ca9565b90600052602060002090600a02019050806009015460001480156113995750600881015460ff16155b15611705578060405180610140016040529081600082015481526020016001820180546113c590614b4c565b80601f01602080910402602001604051908101604052809291908181526020018280546113f190614b4c565b801561143e5780601f106114135761010080835404028352916020019161143e565b820191906000526020600020905b81548152906001019060200180831161142157829003601f168201915b5050505050815260200160028201805461145790614b4c565b80601f016020809104026020016040519081016040528092919081815260200182805461148390614b4c565b80156114d05780601f106114a5576101008083540402835291602001916114d0565b820191906000526020600020905b8154815290600101906020018083116114b357829003601f168201915b505050505081526020016003820180546114e990614b4c565b80601f016020809104026020016040519081016040528092919081815260200182805461151590614b4c565b80156115625780601f1061153757610100808354040283529160200191611562565b820191906000526020600020905b81548152906001019060200180831161154557829003601f168201915b50505091835250506040805160208181018352600485015460ff16825283015260058301546001600160a01b0316908201526006820180546060909201916115a990614b4c565b80601f01602080910402602001604051908101604052809291908181526020018280546115d590614b4c565b80156116225780601f106115f757610100808354040283529160200191611622565b820191906000526020600020905b81548152906001019060200180831161160557829003601f168201915b5050505050815260200160078201805461163b90614b4c565b80601f016020809104026020016040519081016040528092919081815260200182805461166790614b4c565b80156116b45780601f10611689576101008083540402835291602001916116b4565b820191906000526020600020905b81548152906001019060200180831161169757829003601f168201915b5050509183525050600882015460ff161515602082015260099091015460409091015285518690889081106116eb576116eb614ca9565b6020026020010181905250858061170190614d06565b9650505b508061171081614d06565b915050611353565b5050808061172590614d06565b915050611302565b50949350505050565b6117786040518060c001604052806000815260200160608152602001606081526020016060815260200160006001600160a01b03168152602001606081525090565b6040805160c081019091526008805482526009805460208401919061179c90614b4c565b80601f01602080910402602001604051908101604052809291908181526020018280546117c890614b4c565b80156118155780601f106117ea57610100808354040283529160200191611815565b820191906000526020600020905b8154815290600101906020018083116117f857829003601f168201915b5050505050815260200160028201805461182e90614b4c565b80601f016020809104026020016040519081016040528092919081815260200182805461185a90614b4c565b80156118a75780601f1061187c576101008083540402835291602001916118a7565b820191906000526020600020905b81548152906001019060200180831161188a57829003601f168201915b505050505081526020016003820180546118c090614b4c565b80601f01602080910402602001604051908101604052809291908181526020018280546118ec90614b4c565b80156119395780601f1061190e57610100808354040283529160200191611939565b820191906000526020600020905b81548152906001019060200180831161191c57829003601f168201915b505050918352505060048201546001600160a01b0316602082015260058201805460409092019161196990614b4c565b80601f016020809104026020016040519081016040528092919081815260200182805461199590614b4c565b80156119e25780601f106119b7576101008083540402835291602001916119e2565b820191906000526020600020905b8154815290600101906020018083116119c557829003601f168201915b505050505081525050905090565b6000546001600160a01b03163314611a1a5760405162461bcd60e51b81526004016107b590614d21565b60005b601054811015611a86576000600f600060108481548110611a4057611a40614ca9565b6000918252602080832091909101546001600160a01b031683528201929092526040019020805460ff191691151591909117905580611a7e81614d06565b915050611a1d565b50601054821015611afb57601054600090611aa2908490614c92565b905060005b81811015611af4576010805480611ac057611ac0614d9c565b600082815260209020810160001990810180546001600160a01b031916905501905580611aec81614d06565b915050611aa7565b5050611b39565b601054600090611b0b9084614c92565b905060005b81811015611b365760108054600101815560005280611b2e81614d06565b915050611b10565b50505b60005b82811015611bab576001600f6000868685818110611b5c57611b5c614ca9565b9050602002016020810190611b71919061471d565b6001600160a01b031681526020810191909152604001600020805460ff191691151591909117905580611ba381614d06565b915050611b3c565b50611bb860108484613ad2565b50600e555050565b6000546001600160a01b03163314611bea5760405162461bcd60e51b81526004016107b590614d21565b601280546001600160a01b0319166001600160a01b0392909216919091179055565b336000908152600f602052604090205460ff16611c3b5760405162461bcd60e51b81526004016107b590614b81565b600060138d604051611c4d9190614db2565b908152604080516020928190038301902060008f81529281905291209091506002600182015460ff166003811115611c8757611c87613f27565b1415611cce5760405162461bcd60e51b8152602060048201526016602482015275497420697320746865207365636f6e6420737461676560501b60448201526064016107b5565b611de18e8e8e8e8080601f016020809104026020016040519081016040528093929190818152602001838380828437600081840152601f19601f820116905080830192505050505050508d8d8080601f0160208091040260200160405190810160405280939291908181526020018383808284376000920191909152508f9250611d60915050368e90038e018e614dce565b8c8c8080601f016020809104026020016040519081016040528093929190818152602001838380828437600081840152601f19601f820116905080830192505050505050508b8b8080601f0160208091040260200160405190810160405280939291908181526020018383808284376000920191909152506133c092505050565b5050505050505050505050505050565b336000908152600f602052604090205460ff16611e205760405162461bcd60e51b81526004016107b590614b81565b600060118585604051611e34929190614b3c565b9081526040519081900360200190208054909150611e53906001614bda565b831115611eb15760405162461bcd60e51b815260206004820152602660248201527f54776f5068617365436f6d6d697443726f7373436861696e3a206964206e6f74604482015265040dac2e8c6d60d31b60648201526084016107b5565b600060068686604051611ec5929190614b3c565b9081526040519081900360200190208054909150611ee4906001614bda565b841015611f5b576040805162461bcd60e51b81526020600482015260248101919091527f54776f5068617365436f6d6d697443726f7373436861696e3a206d657373616760448201527f65206f66207468697320696420686173206265656e206167677265676174656460648201526084016107b5565b600060138787604051611f6f929190614b3c565b908152604080516020928190038301902060008881529281905290822090925090600182015460ff166003811115611fa957611fa9613f27565b1415611fc0576001818101805460ff191690911790555b60018082015460ff166003811115611fda57611fda613f27565b146120275760405162461bcd60e51b815260206004820152601960248201527f4974206973206e6f74207468652066697273742073746167650000000000000060448201526064016107b5565b60005b81548110156120d9578154339083908390811061204957612049614ca9565b60009182526020909120600360049092020101546001600160a01b031614156120c75760405162461bcd60e51b815260206004820152602a60248201527f54776f5068617365436f6d6d697443726f7373436861696e3a206475706c6963604482015269185d194818dbdb5b5a5d60b21b60648201526084016107b5565b806120d181614d06565b91505061202a565b508054600181810183556000838152602090206004909202909101878155906121059082018a8a6138ab565b50600281018690556003810180546001600160a01b03191633179055600e548254141561218e576001828101805460ff19166002179055855460009161214b9190614bda565b88101561218c5783600061216060018b614c92565b81526020019081526020016000206000808201600061217f9190613b25565b50600101805460ff191690555b505b505050505050505050565b6000546001600160a01b031633146121c35760405162461bcd60e51b81526004016107b590614d21565b600380546001600160a01b0319166001600160a01b0392909216919091179055565b6121ed613a69565b600060068585604051612201929190614b3c565b90815260405190819003602001902090508061221e600185614c92565b8154811061222e5761222e614ca9565b90600052602060002090600a0201604051806101400160405290816000820154815260200160018201805461226290614b4c565b80601f016020809104026020016040519081016040528092919081815260200182805461228e90614b4c565b80156122db5780601f106122b0576101008083540402835291602001916122db565b820191906000526020600020905b8154815290600101906020018083116122be57829003601f168201915b505050505081526020016002820180546122f490614b4c565b80601f016020809104026020016040519081016040528092919081815260200182805461232090614b4c565b801561236d5780601f106123425761010080835404028352916020019161236d565b820191906000526020600020905b81548152906001019060200180831161235057829003601f168201915b5050505050815260200160038201805461238690614b4c565b80601f01602080910402602001604051908101604052809291908181526020018280546123b290614b4c565b80156123ff5780601f106123d4576101008083540402835291602001916123ff565b820191906000526020600020905b8154815290600101906020018083116123e257829003601f168201915b50505091835250506040805160208181018352600485015460ff16825283015260058301546001600160a01b03169082015260068201805460609092019161244690614b4c565b80601f016020809104026020016040519081016040528092919081815260200182805461247290614b4c565b80156124bf5780601f10612494576101008083540402835291602001916124bf565b820191906000526020600020905b8154815290600101906020018083116124a257829003601f168201915b505050505081526020016007820180546124d890614b4c565b80601f016020809104026020016040519081016040528092919081815260200182805461250490614b4c565b80156125515780601f1061252657610100808354040283529160200191612551565b820191906000526020600020905b81548152906001019060200180831161253457829003601f168201915b5050509183525050600882015460ff161515602082015260099091015460409091015295945050505050565b600060068484604051612591929190614b3c565b90815260405190819003602001902090506000816125b0600185614c92565b815481106125c0576125c0614ca9565b60009182526020909120600a90910201600881015490915060ff16156126285760405162461bcd60e51b815260206004820152601d60248201527f546865206d65737361676520686173206265656e20657865637574656400000060448201526064016107b5565b60088101805460ff19166001179055604051600090612657908790879060068601906002870190602401614e8a565b60408051601f198184030181529181526020820180516001600160e01b031660016269dab560e01b0319179052600584015490519192506000916001600160a01b03909116906126a8908490614db2565b6000604051808303816000865af19150503d80600081146126e5576040519150601f19603f3d011682016040523d82523d6000602084013e6126ea565b606091505b505090508061272b5760405162461bcd60e51b815260206004820152600d60248201526c1d995c9a599e4819985a5b1959609a1b60448201526064016107b5565b6040518060c001604052808460000154815260200184600101805461274f90614b4c565b80601f016020809104026020016040519081016040528092919081815260200182805461277b90614b4c565b80156127c85780601f1061279d576101008083540402835291602001916127c8565b820191906000526020600020905b8154815290600101906020018083116127ab57829003601f168201915b505050505081526020018460020180546127e190614b4c565b80601f016020809104026020016040519081016040528092919081815260200182805461280d90614b4c565b801561285a5780601f1061282f5761010080835404028352916020019161285a565b820191906000526020600020905b81548152906001019060200180831161283d57829003601f168201915b5050505050815260200184600301805461287390614b4c565b80601f016020809104026020016040519081016040528092919081815260200182805461289f90614b4c565b80156128ec5780601f106128c1576101008083540402835291602001916128ec565b820191906000526020600020905b8154815290600101906020018083116128cf57829003601f168201915b505050918352505060058501546001600160a01b0316602082015260068501805460409092019161291c90614b4c565b80601f016020809104026020016040519081016040528092919081815260200182805461294890614b4c565b80156129955780601f1061296a57610100808354040283529160200191612995565b820191906000526020600020905b81548152906001019060200180831161297857829003601f168201915b5050509190925250508051600890815560208083015180516129bb92600992019061398f565b50604082015180516129d791600284019160209091019061398f565b50606082015180516129f391600384019160209091019061398f565b5060808201516004820180546001600160a01b0319166001600160a01b0390921691909117905560a08201518051612a3591600584019160209091019061398f565b50505060058301546040516000916001600160a01b031690612a5b906007870190614ecf565b6000604051808303816000865af19150503d8060008114612a98576040519150601f19603f3d011682016040523d82523d6000602084013e612a9d565b606091505b505090508061098e5760405162461bcd60e51b815260206004820152601460248201527318d85b1b08199d5b98dd1a5bdb8819985a5b195960621b60448201526064016107b5565b6000806006848460405161052f929190614b3c565b600060138a604051612b0c9190614db2565b908152604080516020928190038301902060008c81529252902090506002600182015460ff166003811115612b4357612b43613f27565b14612b905760405162461bcd60e51b815260206004820152601a60248201527f4974206973206e6f7420746865207365636f6e6420737461676500000000000060448201526064016107b5565b60008082600001600081548110612ba957612ba9614ca9565b9060005260206000209060040201905060005b8354811015612c3a5783543390859083908110612bdb57612bdb614ca9565b60009182526020909120600360049092020101546001600160a01b03161415612c2857836000018181548110612c1357612c13614ca9565b90600052602060002090600402019150600192505b80612c3281614d06565b915050612bbc565b5081612c965760405162461bcd60e51b815260206004820152602560248201527f506f7274657220646964206e6f742066696e6973682074686520666972737420604482015264737461676560d81b60648201526084016107b5565b60008a8a898b8a8a8a33604051602001612cb7989796959493929190614f41565b6040516020818303038152906040528051906020012090508160020154811415612d2157612d218d8d8d8d8d8d8d8d8d8080601f0160208091040260200160405190810160405280939291908181526020018383808284376000920191909152506133c092505050565b600060068e604051612d339190614db2565b908152602001604051809103902090508c60068f604051612d549190614db2565b908152604051908190036020019020541415611de15750505050600101805460ff19166003179055505050505050505050565b600060058a8a604051612d9b929190614b3c565b908152604080519182900360209081018320805460018101808355600083815284902060099092029091019081556080601f8d0184900490930285018301909352606084018b815290945091929182918c908c9081908501838280828437600092019190915250505090825250604080516020601f8b0181900481028201810190925289815291810191908a908a9081908401838280828437600092019190915250505090825250604080516020601f880181900481028201830183528181018881529301929091829190899089908190850183828082843760009201919091525050509152509052805180516006840191612e9c9183916020019061398f565b506020828101518051612eb5926001850192019061398f565b506040820151805180516002840191612ed39183916020019061398f565b5050604080518082019091526009808252684156414c414e43484560b81b6020909201918252612f0c945060018601935090915061398f565b50612f1b600282018c8c6138ab565b506003810180546001600160a01b03199081163317909155600482018054909116321790558460058201610bce8282614fc3565b6000546001600160a01b03163314612f795760405162461bcd60e51b81526004016107b590614d21565b6001600160a01b038116612fde5760405162461bcd60e51b815260206004820152602660248201527f4f776e61626c653a206e6577206f776e657220697320746865207a65726f206160448201526564647265737360d01b60648201526084016107b5565b612fe781613370565b50565b604051636f5e6a3760e11b8152600090309063debcd46e906130129086908690600401614fe0565b602060405180830381865afa15801561302f573d6000803e3d6000fd5b505050506040513d601f19601f820116820180604052508101906130539190614ff4565b61305e906001614bda565b9392505050565b600880546009805491929161307990614b4c565b80601f01602080910402602001604051908101604052809291908181526020018280546130a590614b4c565b80156130f25780601f106130c7576101008083540402835291602001916130f2565b820191906000526020600020905b8154815290600101906020018083116130d557829003601f168201915b50505050509080600201805461310790614b4c565b80601f016020809104026020016040519081016040528092919081815260200182805461313390614b4c565b80156131805780601f1061315557610100808354040283529160200191613180565b820191906000526020600020905b81548152906001019060200180831161316357829003601f168201915b50505050509080600301805461319590614b4c565b80601f01602080910402602001604051908101604052809291908181526020018280546131c190614b4c565b801561320e5780601f106131e35761010080835404028352916020019161320e565b820191906000526020600020905b8154815290600101906020018083116131f157829003601f168201915b505050600484015460058501805494956001600160a01b0390921694919350915061323890614b4c565b80601f016020809104026020016040519081016040528092919081815260200182805461326490614b4c565b80156132b15780601f10613286576101008083540402835291602001916132b1565b820191906000526020600020905b81548152906001019060200180831161329457829003601f168201915b5050505050905086565b6000600684846040516132cf929190614b3c565b90815260405190819003602001902080549091506132ee906001614bda565b85146133375760405162461bcd60e51b8152602060048201526018602482015277086e4dee6e686d0c2d2dc7440d2c840dcdee840dac2e8c6d60431b60448201526064016107b5565b805460018181018355600083815260209020600a9092029091018681559061336290820186866138ab565b506009019190915550505050565b600080546001600160a01b038381166001600160a01b0319831681178455604051919092169283917f8be0079c531659141344cd1fd0a4f28419497f9722a3daafe3b4186f6b6457e09190a35050565b60006011896040516133d29190614db2565b90815260405190819003602001902080549091506133f1906001614bda565b8811156134105760405162461bcd60e51b81526004016107b590614bf2565b600060068a6040516134229190614db2565b9081526040519081900360200190208054909150613441906001614bda565b8910156134605760405162461bcd60e51b81526004016107b590614c35565b8154600090613470906001614bda565b8a141561348f57508154600181018355600083815260209020016134b8565b8261349b60018c614c92565b815481106134ab576134ab614ca9565b9060005260206000200190505b60005b815481101561352d57336001600160a01b03168282815481106134e0576134e0614ca9565b60009182526020909120600a600b9092020101546001600160a01b0316141561351b5760405162461bcd60e51b81526004016107b590614cbf565b8061352581614d06565b9150506134bb565b508054600181810183556000838152602090819020600b9093029092018c81558d51909261356192840191908f019061398f565b50895161357790600283019060208d019061398f565b50885161358d90600383019060208c019061398f565b506005810180546001600160a01b0319166001600160a01b038a16179055865160048201805460ff191660ff90921691909117905585516135d7906006830190602089019061398f565b5084516135ed906007830190602088019061398f565b50600a810180546001600160a01b03191633179055600e548254141561373d576012546001600160a01b03166136655760405162461bcd60e51b815260206004820152601760248201527f56657269667920436f6e7472616374206e6f742073657400000000000000000060448201526064016107b5565b6012546040516311e96a5960e31b81526000916001600160a01b031690638f4b52c89061369990869060649060040161500d565b6000604051808303816000875af11580156136b8573d6000803e3d6000fd5b505050506040513d6000823e601f3d908101601f191682016040526136e091908101906151ec565b805190915015610bce576000816000815181106136ff576136ff614ca9565b6020026020010151600001519050611de181600001518260200151836040015184606001518560a0015186608001518760c001518860e0015161374b565b505050505050505050505050565b600060068860405161375d9190614db2565b908152604051908190036020019020805490915061377c906001614bda565b89146137c55760405162461bcd60e51b8152602060048201526018602482015277086e4dee6e686d0c2d2dc7440d2c840dcdee840dac2e8c6d60431b60448201526064016107b5565b8054600181810183556000838152602090819020600a9093029092018b81558a5190926137f892840191908c019061398f565b50875161380e90600283019060208b019061398f565b50865161382490600383019060208a019061398f565b50845160048201805460ff191660ff9092169190911790556005810180546001600160a01b0319166001600160a01b038816179055835161386e906006830190602087019061398f565b508251613884906007830190602086019061398f565b5050505050505050505050565b60408051808201909152606081526020810160005b905290565b8280546138b790614b4c565b90600052602060002090601f0160209004810192826138d9576000855561391f565b82601f106138f25782800160ff1982351617855561391f565b8280016001018555821561391f579182015b8281111561391f578235825591602001919060010190613904565b5061392b929150613b46565b5090565b5080546000825560090290600052602060002090810190612fe79190613b5b565b50805460008255600a0290600052602060002090810190612fe79190613bea565b5080546000825590600052602060002090810190612fe79190613c76565b82805461399b90614b4c565b90600052602060002090601f0160209004810192826139bd576000855561391f565b82601f106139d657805160ff191683800117855561391f565b8280016001018555821561391f579182015b8281111561391f5782518255916020019190600101906139e8565b6040518060e0016040528060008152602001606081526020016060815260200160006001600160a01b0316815260200160006001600160a01b03168152602001613a5c6040518060200160405280600060ff1681525090565b81526020016138a6613c93565b60405180610140016040528060008152602001606081526020016060815260200160608152602001613aaa6040518060200160405280600060ff1681525090565b8152600060208201819052606060408301819052808301526080820181905260a09091015290565b82805482825590600052602060002090810192821561391f579160200282015b8281111561391f5781546001600160a01b0319166001600160a01b03843516178255602090920191600190910190613af2565b5080546000825560040290600052602060002090810190612fe79190613cc2565b5b8082111561392b5760008155600101613b47565b8082111561392b576000808255613b756001830182613cfe565b613b83600283016000613cfe565b6003820180546001600160a01b0319908116909155600483018054909116905560058201805460ff19169055600682016000613bbf8282613cfe565b613bcd600183016000613cfe565b600282016000613bdd8282613cfe565b5050505050600901613b5b565b8082111561392b576000808255613c046001830182613cfe565b613c12600283016000613cfe565b613c20600383016000613cfe565b60048201805460ff191690556005820180546001600160a01b0319169055613c4c600683016000613cfe565b613c5a600783016000613cfe565b5060088101805460ff1916905560006009820155600a01613bea565b8082111561392b576000613c8a8282613d38565b50600101613c76565b604051806060016040528060608152602001606081526020016138a66040518060200160405280606081525090565b8082111561392b576000808255613cdc6001830182613cfe565b50600060028201556003810180546001600160a01b0319169055600401613cc2565b508054613d0a90614b4c565b6000825580601f10613d1a575050565b601f016020900490600052602060002090810190612fe79190613b46565b50805460008255600b0290600052602060002090810190612fe791905b8082111561392b5760008082558181613d716001830182613cfe565b613d7f600283016000613cfe565b613d8d600383016000613cfe565b60048201805460ff191690556005820180546001600160a01b0319169055613db9600683016000613cfe565b613dc7600783016000613cfe565b5060088101805460ff19169055600060099091015550600a810180546001600160a01b0319169055600b01613d55565b60008083601f840112613e0957600080fd5b5081356001600160401b03811115613e2057600080fd5b602083019150836020828501011115613e3857600080fd5b9250929050565b60008060208385031215613e5257600080fd5b82356001600160401b03811115613e6857600080fd5b613e7485828601613df7565b90969095509350505050565b600080600060408486031215613e9557600080fd5b83356001600160401b03811115613eab57600080fd5b613eb786828701613df7565b909790965060209590950135949350505050565b60005b83811015613ee6578181015183820152602001613ece565b83811115613ef5576000848401525b50505050565b60008151808452613f13816020860160208601613ecb565b601f01601f19169290920160200192915050565b634e487b7160e01b600052602160045260246000fd5b60048110613f5b57634e487b7160e01b600052602160045260246000fd5b9052565b600060208083526060808401855160408085880152828251808552608094508489019150848160051b8a0101878501945060005b82811015613fed57607f198b830301845285518051835289810151888b850152613fbf89850182613efb565b8288015185890152918a01516001600160a01b0316938a019390935295890195938901939150600101613f93565b50968a015196613fff8a850189613f3d565b9a9950505050505050505050565b6001600160a01b0381168114612fe757600080fd5b803561402d8161400d565b919050565b634e487b7160e01b600052604160045260246000fd5b604051602081016001600160401b038111828210171561406a5761406a614032565b60405290565b604080519081016001600160401b038111828210171561406a5761406a614032565b60405161014081016001600160401b038111828210171561406a5761406a614032565b604051601f8201601f191681016001600160401b03811182821017156140dd576140dd614032565b604052919050565b60006001600160401b038211156140fe576140fe614032565b50601f01601f191660200190565b600082601f83011261411d57600080fd5b813561413061412b826140e5565b6140b5565b81815284602083860101111561414557600080fd5b816020850160208301376000918101602001919091529392505050565b6000806040838503121561417557600080fd5b82356141808161400d565b915060208301356001600160401b0381111561419b57600080fd5b6141a78582860161410c565b9150509250929050565b60208152600061305e6020830184613efb565b600080600080606085870312156141da57600080fd5b84356001600160401b038111156141f057600080fd5b6141fc87828801613df7565b90989097506020870135966040013595509350505050565b6000806000806040858703121561422a57600080fd5b84356001600160401b038082111561424157600080fd5b61424d88838901613df7565b9096509450602087013591508082111561426657600080fd5b5061427387828801613df7565b95989497509550505050565b6000806000806000806000806080898b03121561429b57600080fd5b88356001600160401b03808211156142b257600080fd5b6142be8c838d01613df7565b909a50985060208b01359150808211156142d757600080fd5b6142e38c838d01613df7565b909850965060408b01359150808211156142fc57600080fd5b6143088c838d01613df7565b909650945060608b013591508082111561432157600080fd5b5061432e8b828c01613df7565b999c989b5096995094979396929594505050565b60006020828403121561435457600080fd5b5035919050565b60608152600061436e6060830186613efb565b82810360208401526143808186613efb565b905082810360408401526143948185613efb565b9695505050505050565b60008151606084526143b36060850182613efb565b9050602083015184820360208601526143cc8282613efb565b9150506040830151848203604086015280519050602082526143f16020830182613efb565b95945050505050565b60208152815160208201526000602083015160e06040840152614421610100840182613efb565b90506040840151601f198085840301606086015261443f8383613efb565b60608701516001600160a01b039081166080888101919091528801511660a0808801919091528701515160ff1660c08088019190915287015186820390920160e0870152925090506143f1828261439e565b60008083601f8401126144a357600080fd5b5081356001600160401b038111156144ba57600080fd5b6020830191508360208260051b8501011115613e3857600080fd5b600080602083850312156144e857600080fd5b82356001600160401b038111156144fe57600080fd5b613e7485828601614491565b600061014082518452602083015181602086015261452a82860182613efb565b915050604083015184820360408601526145448282613efb565b9150506060830151848203606086015261455e8282613efb565b915050608083015161457660808601825160ff169052565b5060a083015161459160a08601826001600160a01b03169052565b5060c083015184820360c08601526145a98282613efb565b91505060e083015184820360e08601526145c38282613efb565b915050610100808401516145da8287018215159052565b5050610120928301519390920192909252919050565b6000602080830181845280855180835260408601915060408160051b870101925083870160005b8281101561464557603f1988860301845261463385835161450a565b94509285019290850190600101614617565b5092979650505050505050565b60208152815160208201526000602083015160c0604084015261467860e0840182613efb565b90506040840151601f19808584030160608601526146968383613efb565b925060608601519150808584030160808601526146b38383613efb565b60808701516001600160a01b031660a08781019190915287015186820390920160c0870152925090506143f18282613efb565b6000806000604084860312156146fb57600080fd5b83356001600160401b0381111561471157600080fd5b613eb786828701614491565b60006020828403121561472f57600080fd5b813561305e8161400d565b60006020828403121561474c57600080fd5b50919050565b6000806000806000806000806000806000806101008d8f03121561477557600080fd5b6001600160401b038d35111561478a57600080fd5b6147978e8e358f0161410c565b9b5060208d01359a506001600160401b0360408e013511156147b857600080fd5b6147c88e60408f01358f01613df7565b909a5098506001600160401b0360608e013511156147e557600080fd5b6147f58e60608f01358f01613df7565b909850965061480660808e01614022565b95506148158e60a08f0161473a565b94506001600160401b0360c08e0135111561482f57600080fd5b61483f8e60c08f01358f01613df7565b90945092506001600160401b0360e08e0135111561485c57600080fd5b61486c8e60e08f01358f01613df7565b81935080925050509295989b509295989b509295989b565b60006020828403121561489657600080fd5b81356001600160401b038111156148ac57600080fd5b6148b88482850161410c565b949350505050565b60208152600061305e602083018461450a565b60ff81168114612fe757600080fd5b6000602082840312156148f457600080fd5b6148fc614048565b90508135614909816148d3565b815292915050565b60008060008060008060008060006101008a8c03121561493057600080fd5b89356001600160401b038082111561494757600080fd5b6149538d838e0161410c565b9a5060208c0135995060408c013591508082111561497057600080fd5b61497c8d838e0161410c565b985060608c013591508082111561499257600080fd5b61499e8d838e0161410c565b97506149ac60808d01614022565b96506149bb8d60a08e016148e2565b955060c08c01359150808211156149d157600080fd5b6149dd8d838e0161410c565b945060e08c01359150808211156149f357600080fd5b50614a008c828d01613df7565b915080935050809150509295985092959850929598565b600080600080600080600080600060a08a8c031215614a3557600080fd5b89356001600160401b0380821115614a4c57600080fd5b614a588d838e01613df7565b909b50995060208c0135915080821115614a7157600080fd5b614a7d8d838e01613df7565b909950975060408c0135915080821115614a9657600080fd5b614aa28d838e01613df7565b9097509550859150614ab78d60608e0161473a565b945060808c01359150808211156149f357600080fd5b86815260c060208201526000614ae660c0830188613efb565b8281036040840152614af88188613efb565b90508281036060840152614b0c8187613efb565b6001600160a01b038616608085015283810360a08501529050614b2f8185613efb565b9998505050505050505050565b8183823760009101908152919050565b600181811c90821680614b6057607f821691505b6020821081141561474c57634e487b7160e01b600052602260045260246000fd5b60208082526023908201527f4d756c7469506f72746572733a20706f72746572206e6f7420726567697374656040820152621c995960ea1b606082015260800190565b634e487b7160e01b600052601160045260246000fd5b60008219821115614bed57614bed614bc4565b500190565b60208082526023908201527f4d756c7469506f7274657243726f7373436861696e3a206964206e6f74206d616040820152620e8c6d60eb1b606082015260800190565b6020808252603d908201527f4d756c7469506f7274657243726f7373436861696e3a206d657373616765206f60408201527f66207468697320696420686173206265656e2061676772656761746564000000606082015260800190565b600082821015614ca457614ca4614bc4565b500390565b634e487b7160e01b600052603260045260246000fd5b60208082526027908201527f4d756c7469506f7274657243726f7373436861696e3a206475706c69636174656040820152660818dbdb5b5a5d60ca1b606082015260800190565b6000600019821415614d1a57614d1a614bc4565b5060010190565b6020808252818101527f4f776e61626c653a2063616c6c6572206973206e6f7420746865206f776e6572604082015260600190565b6000808335601e19843603018112614d6d57600080fd5b8301803591506001600160401b03821115614d8757600080fd5b602001915036819003821315613e3857600080fd5b634e487b7160e01b600052603160045260246000fd5b60008251614dc4818460208701613ecb565b9190910192915050565b600060208284031215614de057600080fd5b61305e83836148e2565b81835281816020850137506000828201602090810191909152601f909101601f19169091010190565b60008154614e2081614b4c565b808552602060018381168015614e3d5760018114614e5157614e7f565b60ff19851688840152604088019550614e7f565b866000528260002060005b85811015614e775781548a8201860152908301908401614e5c565b890184019650505b505050505092915050565b606081526000614e9e606083018688614dea565b8281036020840152614eb08186614e13565b90508281036040840152614ec48185614e13565b979650505050505050565b6000808354614edd81614b4c565b60018281168015614ef55760018114614f0657614f35565b60ff19841687528287019450614f35565b8760005260208060002060005b85811015614f2c5781548a820152908401908201614f13565b50505082870194505b50929695505050505050565b60e081526000614f5460e083018b613efb565b8281036020840152614f66818b613efb565b895160ff1660408501526001600160a01b0389811660608601528482036080860152909150614f958289613efb565b915083820360a0850152614faa828789614dea565b925080851660c085015250509998505050505050505050565b8135614fce816148d3565b815460ff191660ff9190911617905550565b6020815260006148b8602083018486614dea565b60006020828403121561500657600080fd5b5051919050565b6000604080830181845280865480835260609250828601915060058382821b8801018960005260208060002060005b8581101561514157605f198b8503018752888452815489850152610140808986015261506f610180860160018501614e13565b603f19808783030160808801526150898260028701614e13565b9150808783030160a08801526150a28260038701614e13565b600486015460ff1660c0890152888601546001600160a01b031660e0890152878103820161010089015291506150db8260068701614e13565b91508087830301610120880152506150f68160078601614e13565b9050615106600885015460ff1690565b1515918601919091526009830154610160860152600a8301546001600160a01b03169484019490945295820195600b9091019060010161503c565b5050819750615157818a018b63ffffffff169052565b505050505050509392505050565b600082601f83011261517657600080fd5b815161518461412b826140e5565b81815284602083860101111561519957600080fd5b6148b8826020830160208701613ecb565b6000602082840312156151bc57600080fd5b6151c4614048565b90508151614909816148d3565b805161402d8161400d565b8051801515811461402d57600080fd5b6000602082840312156151fe57600080fd5b81516001600160401b038082111561521557600080fd5b818401915084601f83011261522957600080fd5b81518181111561523b5761523b614032565b61524a60208260051b016140b5565b8082825260208201915060208360051b86010192508783111561526c57600080fd5b602085015b8381101561540f5780518581111561528857600080fd5b8601601f196040828c038201121561529f57600080fd5b6152a7614070565b6020830151888111156152b957600080fd5b8301610140818e03840112156152ce57600080fd5b6152d6614092565b9250602081015183526040810151898111156152f157600080fd5b6153008e602083850101615165565b60208501525060608101518981111561531857600080fd5b6153278e602083850101615165565b60408501525060808101518981111561533f57600080fd5b61534e8e602083850101615165565b6060850152506153618d60a083016151aa565b608084015261537260c082016151d1565b60a084015260e08101518981111561538957600080fd5b6153988e602083850101615165565b60c085015250610100810151898111156153b157600080fd5b6153c08e602083850101615165565b60e0850152506153d361012082016151dc565b61010084015261014001516101208301528181526153f3604084016151d1565b6020820152808652505050602083019250602081019050615271565b5097965050505050505056fea26469706673582212209e0a5ff6a10c30440be1825d0be140aff61c16fc4538ff00619c2c63e18af24764736f6c634300080a0033",
  "immutableReferences": {},
  "source": "// SPDX-License-Identifier: MIT\npragma solidity >=0.8.0 <0.9.0;\n\nimport \"./MultiPorterCrossChain.sol\";\nimport \"./ITwoPhaseCommitCrossChain.sol\";\n\ncontract TwoPhaseCommitCrossChain is ITwoPhaseCommitCrossChain, MultiPorterCrossChain {\n    enum StageStatus {\n        None,\n        First,\n        Second,\n        Done\n    }\n\n    struct HiddenMessage {\n        uint256 id;\n        string fromChain;\n        bytes32 hashData;\n        address porter;\n    }\n\n    struct FirstStageMessage {\n        HiddenMessage[] messages;\n        StageStatus stage;\n    }\n\n    mapping(string => mapping(uint256 => FirstStageMessage)) internal hiddenMessageTable;\n\n    function receiveHiddenMessage(string calldata _fromChain, uint _id, bytes32 _hash) override external onlyPorter {\n        cachedReceivedMessage[][] storage cachedChainMessage = cachedReceivedMessageTable[_fromChain];\n        require(_id <= cachedChainMessage.length + 1, \"TwoPhaseCommitCrossChain: id not match\");\n\n        ReceivedMessage[] storage receivedChainMessage = receivedMessageTable[_fromChain];\n        require(_id >= receivedChainMessage.length + 1, \"TwoPhaseCommitCrossChain: message of this id has been aggregated\");\n        \n        mapping(uint256 => FirstStageMessage) storage chainMessage = hiddenMessageTable[_fromChain];\n        FirstStageMessage storage firstStageMessage = chainMessage[_id];\n\n        if (firstStageMessage.stage == StageStatus.None) {\n            firstStageMessage.stage = StageStatus.First;\n        }\n        require(firstStageMessage.stage == StageStatus.First, \"It is not the first stage\");\n\n        // check duplicate commit\n        for (uint i = 0; i < firstStageMessage.messages.length; i++) {\n            if (firstStageMessage.messages[i].porter == msg.sender) {\n                revert(\"TwoPhaseCommitCrossChain: duplicate commit\");\n            }\n        }\n        // add message\n        HiddenMessage storage m = firstStageMessage.messages.push();\n        m.id = _id;\n        m.fromChain = _fromChain;\n        m.hashData = _hash;\n        m.porter = msg.sender;\n\n        // check if trigger second stage commit\n        if (firstStageMessage.messages.length == required) {\n            firstStageMessage.stage = StageStatus.Second;\n            // clear received messages, currently not punish\n            cachedReceivedMessage[] storage cachedMessages;\n            if (_id < cachedChainMessage.length + 1) {\n                delete chainMessage[_id - 1];\n            }\n        }\n    }\n\n    function revealMessage(string memory _fromChain, uint256 _id, string memory _sender, string memory _signer,\n        address _to, SQOS memory _sqos, string memory _action, bytes calldata _data) override external {\n        FirstStageMessage storage firstStageMessage = hiddenMessageTable[_fromChain][_id];\n        require(firstStageMessage.stage == StageStatus.Second, \"It is not the second stage\");\n\n        // if sender finish the first stage\n        bool finished = false;\n        HiddenMessage storage m = firstStageMessage.messages[0];\n        for (uint i = 0; i < firstStageMessage.messages.length; i++) {\n            if (firstStageMessage.messages[i].porter == msg.sender) {\n                m = firstStageMessage.messages[i];\n                finished = true;\n            }\n        }\n        require(finished, \"Porter did not finish the first stage\");\n\n        // hash verify\n        bytes32 h = keccak256(abi.encode(_sender, _signer, _sqos, _to, _action, _data, msg.sender));\n        \n        if (h == m.hashData) {\n            // verify successfully\n            _receivePorterMessage(_fromChain, _id, _sender, _signer, _to, _sqos, _action, _data);\n        }\n\n        ReceivedMessage[] storage receivedChainMessage = receivedMessageTable[_fromChain];\n        if (receivedMessageTable[_fromChain].length == _id) {\n            // aggregated\n            firstStageMessage.stage = StageStatus.Done;\n        }\n    }\n\n    function receiveMessage(string memory _fromChain, uint256 _id, string calldata _sender, string calldata _signer, address _to,\n            SQOS calldata _sqos, string calldata _action, bytes calldata _data) virtual override external onlyPorter {\n        mapping(uint256 => FirstStageMessage) storage chainMessage = hiddenMessageTable[_fromChain];\n        FirstStageMessage storage firstStageMessage = chainMessage[_id];\n        require(firstStageMessage.stage != StageStatus.Second, \"It is the second stage\");\n        _receivePorterMessage(_fromChain, _id, _sender, _signer, _to, _sqos,  _action, _data);\n    }\n\n    function getFirstStageMessage(string calldata _fromChain, uint256 _id) view external returns (FirstStageMessage memory) {\n        return hiddenMessageTable[_fromChain][_id];\n    }\n}",
  "sourcePath": "/home/george/hthuang/dante-cross-chain/avalanche/contracts/TwoPhaseCommitCrossChain.sol",
  "compiler": {
    "name": "solc",
    "version": "0.8.10+commit.fc410830.Emscripten.clang"
  },
  "schemaVersion": "3.4.4",
  "updatedAt": "2022-03-08T07:59:21.010Z",
  "networkType": "ethereum",
  "devdoc": {
    "kind": "dev",
    "methods": {
      "abandonMessage(string,uint256,uint256)": {
        "details": "See ICrossChain."
      },
      "changePortersAndRequirement(address[],uint256)": {
        "details": "Changes porters and requirement."
      },
      "executeMessage(string,uint256)": {
        "details": "See ICrossChain."
      },
      "getCurrentMessage()": {
        "details": "See ICrossChain."
      },
      "getReceivedMessage(string,uint256)": {
        "details": "See ICrossChain."
      },
      "getReceivedMessageNumber(string)": {
        "details": "See ICrossChain."
      },
      "getSentMessage(string,uint256)": {
        "details": "See ICrossChain."
      },
      "getSentMessageNumber(string)": {
        "details": "See ICrossChain."
      },
      "owner()": {
        "details": "Returns the address of the current owner."
      },
      "receiveMessage(string,uint256,string,string,address,(uint8),string,bytes)": {
        "details": "See ICrossChain."
      },
      "renounceOwnership()": {
        "details": "Leaves the contract without owner. It will not be possible to call `onlyOwner` functions anymore. Can only be called by the current owner. NOTE: Renouncing ownership will leave the contract without an owner, thereby removing any functionality that is only available to the owner."
      },
      "sendMessage(string,string,string,(uint8),bytes)": {
        "details": "See ICrossChain."
      },
      "setTokenContract(address)": {
        "details": "See ICrossChain."
      },
      "setVerifyContract(address)": {
        "details": "Sets address of MessageVerify contract."
      },
      "transferOwnership(address)": {
        "details": "Transfers ownership of the contract to a new account (`newOwner`). Can only be called by the current owner."
      }
    },
    "version": 1
  },
  "userdoc": {
    "kind": "user",
    "methods": {},
    "version": 1
  }
}